:10C20000E88D0320BD7A010011170400A97A01000E
:10C21000A97A0100A97A0100A97A0100A97A01008E
:10C22000000000000000000000000000E57C0100AC
:10C23000A97A010000000000697C0100A97A0100D0
:10C24000F97E0100F97E0100F97E0100F97E01000E
:10C25000F97E0100F97E0100F97E0100F97E0100FE
:10C26000F97E0100F97E0100F97E0100F97E0100EE
:10C27000F97E0100F97E0100F97E0100F97E0100DE
:10C28000F97E0100F97E0100F97E0100F97E0100CE
:10C29000F97E0100F97E0100F97E0100F97E0100BE
:10C2A000F97E0100F97E0100F97E0100F97E0100AE
:10C2B000F97E0100F97E0100F97E0100F97E01009E
:10C2C000F97E0100F97E0100F97E0100F97E01008E
:10C2D000F97E0100F97E0100F97E0100F97E01007E
:10C2E000F97E0100F97E0100F97E0100F97E01006E
:10C2F000F97E0100F97E0100F97E0100F97E01005E
:10C30000F97E0100F97E0100F97E0100F97E01004D
:10C31000F97E0100F97E0100F97E0100F97E01003D
:10C32000F97E0100F97E0100F97E0100F97E01002D
:10C33000F97E0100F97E0100F97E0100F97E01001D
:10C34000F97E0100F97E0100F97E0100F97E01000D
:04C35000F97E010071
:10C358007BB972B90029BEBF00204FF0004106E04A
:10C3680008BF00281CBF6FF000414FF0FF3000F0FD
:10C3780057B8ADF1080C6DE904CE002909DB002B94
:10C388001ADB00F0E2F9DDF804E0DDE9022304B08D
:10C398007047404261EB4101002B1BDB00F0D5F9EF
:10C3A800DDF804E0DDE9022304B0404261EB41011D
:10C3B800524263EB43037047524263EB430300F07E
:10C3C800C4F9DDF804E0DDE9022304B0404261EB82
:10C3D80041017047524263EB430300F0B6F9DDF8C0
:10C3E80004E0DDE9022304B0524263EB43037047E3
:10C3F80053B94AB9002908BF00281CBF4FF0FF31C4
:10C408004FF0FF3000F00CB8ADF1080C6DE904CE28
:10C4180000F09BF9DDF804E0DDE9022304B0704781
:10C42800704700BF2DE9344055F804AB1A1F55F882
:10C4380004BB2CDD54F804CB1CFB0A6654F804EB4F
:10C448001CFB1A77043A1CFB0B881CFB1B991CFB72
:10C458003A6655F804AB1CFB2B771CFB3B881CFB8E
:10C468002A99C8BF54F804CB1EFB0B661EFB1B772A
:10C478001EFB0A881EFB1A991EFB3B6655F804BB77
:10C488001EFB2A771EFB3A881EFB2B99D4DC04324C
:10C4980036DD34F802CB013A1CFB0A66C8BF34F813
:10C4A80002EB1CFB1A771CFB0B881CFB1B9927DD76
:10C4B8001EFB1A66013A1EFB0B7735F802AB1EFB12
:10C4C8001B88C8BF34F802CB1EFB0A9918DD1CFB79
:10C4D8000B66012A1CFB1B7735F8022B1CFB0A880C
:10C4E800C8BFB4F800E01CFB029909DD1EFB1B66FF
:10C4F800B5F800B01EFB0A771EFB02881EFB0B99DD
:10C50800BDE834802DE9F04F0D460999044615F031
:10C51800030F4FF001003BD0B3F1040C4FF0000EB5
:10C5280035F8028B19DD54F8046B4FEA084855F8C2
:10C53800049B16FB18EE54F8047B16FB29EE55F8FD
:10C54800048B17FB19EEBCF1040C17FB28EEC4BFD3
:10C5580054F8046BEBE74FEA18481CF1040CA2BF2F
:10C5680034F8026B16FB08EEBCF1010CC4BF35F8B9
:10C57800028BF4E7A4EB4304A5EB4305704505F1F2
:10C588000205B8BF7046013942F804EB00DCC0E090
:10C5980004391BDB4FF000064FF000074FF000088E
:10C5A8004FF00009FFF73EFFB04205F10805B8BF9C
:10C5B8003046B842B8BF38464045B8BF40464845FF
:10C5C800B8BF4846A2E8C0030439E3DA02315FDBAA
:10C5D800B3F1040C4FF0000A4FF0000B55F8048B30
:10C5E80020DD54F8046B55F8049B16FB08AA54F890
:10C5F800047B16FB18BBBCF1040C16FB38AA55F8D3
:10C60800048B16FB29BBC8BF54F8046B17FB09AA97
:10C6180017FB19BB17FB39AAC8BF55F8049B17FBB2
:10C6280028BBE2DC1CF1020C0EDD54F8046B16FB8F
:10C6380008AA55F8049B16FB18BBACF1020C16FBB4
:10C6480038AAC84616FB29BB34F8026B1CF1010C4A
:10C6580016FB08AAC8BF34F8027B16FB18BB05DD19
:10C6680035F8029B17FB18AA17FB09BBA4EB430478
:10C67800A5EB4305504505F10205B8BF5046A1F1A9
:10C688000201584542F804ABB8BF584642F804BB0B
:10C6980001313EDBB3F1040C4FF0000E1DDB54F802
:10C6A800046B55F8048B54F8047B55F8049B16FB6F
:10C6B80008EEBCF1040C16FB38EEA8BF54F8046B66
:10C6C80017FB09EEA8BF55F8048B17FB39EEA2BF7C
:10C6D80054F8047B55F8049BE9E71CF1020CA1BF50
:10C6E80054F8046B55F8048B16FB08EEACF1020CF9
:10C6F800A8BF16FB38EE1CF1010CA2BF34F8026B80
:10C7080035F8028B16FB08EE704542F804EBB8BF0B
:10C718007046BDE8F08F10F8012B11F8013B012A93
:10C7280028BF9A42F7D0D01A7047034611F8012B58
:10C7380003F8012B002AF9D17047034613F8012B9F
:10C74800002AFBD1181A013870472DE9F0478646B0
:10C758008C460846089E154674461946002B40F03C
:10C76800C1808542B2FA82F245D94AB1C2F12003AA
:10C7780000FA02FC954094402EFA03F343EA0C0CAD
:10C788004FEA154EA8B2230CBCFBFEF80EFB18CCE2
:10C7980008FB00F943EA0C43994528D9EB1808F13E
:10C7A800FF3704D2994502D9A8F102072B44A3EB1D
:10C7B8000903A4B2B3FBFEFC0EFB1C330CFB00F018
:10C7C80044EA0344A04214D92C190CF1FF3304D2D3
:10C7D800A04202D9ACF102032C44241A43EA0740D0
:10C7E8001EB1D440002334607360BDE8F08747462B
:10C7F800DDE76346F1E792BB431B01214FEA154E83
:10C80800AFB2200CB3FBFEFC0EFB1C330CFB07F88D
:10C8180040EA0343984561D9EB180CF1FF3004D284
:10C82800984502D9ACF102002B44A3EB0803A4B24B
:10C83800B3FBFEFC0EFB1C330CFB07F744EA034476
:10C84800A7424DD92C190CF1FF3304D2A74202D9C3
:10C85800ACF102032C44E41B43EA0040C0E7C2F1F8
:10C8680020039540944020FA03F12EFA03F34FEA8F
:10C87800154E9040AFB20343B1FBFEFC0EFB1C10FB
:10C88800190C0CFB07F841EA0041884522D96918C0
:10C898000CF1FF3004D2884502D9ACF102002944DA
:10C8A800A1EB08019BB2B1FBFEFC0EFB1C110CFBBB
:10C8B80007F743EA01439F420ED9EB180CF1FF3109
:10C8C80004D29F4202D9ACF102012B44DB1B41EA9E
:10C8D800004193E76046E3E76146F7E76046A4E76F
:10C8E8006346B8E7834206D916B9002108467CE7B3
:10C8F800C6E900E0F9E7B3FA83F78FB9834201D3B9
:10C90800724508D8BEEB020460EB030301209C4685
:10C918001EB9002169E73846FAE7C6E9004CF8E78E
:10C92800C7F1200CBB400EFA07F522FA0CF42EFAD8
:10C938000CF1BA401C4320FA0CF3B8404FEA1449F2
:10C9480001431FFA84FEB3FBF9F809FB18300B0CFE
:10C9580008FB0EFA43EA00439A4540D9E31808F168
:10C96800FF3004D29A4502D9A8F102002344A3EB70
:10C978000A0389B2B3FBF9F809FB183308FB0EFE6A
:10C9880041EA03418E452CD9611808F1FF3304D2DE
:10C998008E4502D9A8F10203214443EA0040A1EBE5
:10C9A8000E01A0FB02984145CE46434602D306D16C
:10C9B8004D4504D20138B9EB020E68EB0403002E92
:10C9C800A7D0B5EB0E0261EB030101FA0CFC22FAC9
:10C9D80007F3F9404CEA0303C6E9003199E74046FA
:10C9E800C5E74346D9E70000F0B583B000AF0021A2
:10C9F80040F603403A1D11F059FA0446002840F069
:10CA0800B0807868C3681B7853B9584BD3E8AF2F08
:10CA180002F00902D3E8EF1FC3E8E42F002CF9D194
:10CA28000BF022FE002141F203003A1D11F03EFAFC
:10CA38000446002840F095807A684D4DD16805F18C
:10CA48007803D1F80100D1F8051003C310460BF0A4
:10CA58000BFE214641F201003A1D11F027FA044667
:10CA680000287ED17868C3685A7885F870205A887B
:10CA7800A5F872201A7985F87120B3F80720A5F86F
:10CA88007420B3F80530A5F876300BF0EDFD21469B
:10CA980041F202003A1D11F009FA0446002860D15B
:10CAA800D7F804C005F18006DCF80C20531C41328D
:10CAB800344618685968083303C493422646F7D1A8
:10CAC80060460BF0D1FD12F011FC0446002848D155
:10CAD80095F88A30990610D40221264A264836F05D
:10CAE800D4FC95F87C305A064AD40121234A2248BE
:10CAF80036F0CBFC6FF0120433E0072140F63340E8
:10CB080010F07AFD0646002800F0458107210C3018
:10CB180034F005FF042343700623C0F802408471F3
:10CB2800047004712246C370314640F6334011F058
:10CB3800BDF90446A8B9012140F6314010F05CFD6A
:10CB48000646002800F0278101210C3034F0F6FE5B
:10CB58002246314640F6314011F0A8F90446002833
:10CB6800BFD020460C37BD46F0BD00BF04010020F1
:10CB7800300000209FE60500E4E10400CDE6050052
:10CB8800002142F203003A1D11F090F904460028F2
:10CB9800E7D17B68A44EDA68D2F80100D2F8051014
:10CBA80003C618460BF060FD214642F202003A1D0A
:10CBB80011F07CF904460028D3D17C68E368B3F807
:10CBC800012091B249B1D97839B1A5F80421DA78B0
:10CBD800114606F1280040F0ACF920460BF044FD60
:10CBE8001F2395F87C60A5F8203116F0200618D18F
:10CBF800022140F66D4010F0FFFC0446002800F0CA
:10CC0800CA8002210C3034F08AFE012321460370C9
:10CC18004670324640F66D4011F048F90446002847
:10CC28009FD195F89C301B0712D5002142F21C00B9
:10CC38003A1D11F03BF90446002892D17868C36880
:10CC4800D3F80120D3F80530C5E938230BF00CFDE3
:10CC580095F8D8309E0622D53846B91C11F02AFA24
:10CC6800044600287FF47DAF042142F2240010F02E
:10CC7800C3FC0646002800F08E8004210C3034F0F6
:10CC88004EFE3B88224603807B883146438042F231
:10CC9800240011F00BF9044600287FF462AF95F8E0
:10CCA800D8305C0610D5002142F22A003A1D11F056
:10CCB800FDF8044600287FF454AF7868C3685B78B1
:10CCC80085F822310BF0D0FC082142F2010010F067
:10CCD80093FC044600285ED008210C3034F01FFE77
:10CCE80095F8D81040F2022311F0400F08BF032333
:10CCF800024688074CBF43F02C0043F00C008B061B
:10CD080095F8D93048BF40F0400013F0090F95F866
:10CD1800A23018BF40F4006003F00603CE0748BFF6
:10CD280040F01000062B08BF40F4C070002136F018
:10CD3800C6FB2146002242F2010011F0B7F8044672
:10CD480000287FF40EAF95F87C30B5F804119806EA
:10CD580024D4C9B941F205003A1D11F0A7F80446D8
:10CD680000287FF4FEAEB5F804317C684BB9E3685F
:10CD7800B3F80120A5F804219A882C48114640F000
:10CD8800D8F820460BF070FC082140F6014010F05E
:10CD980033FC044660B96FF06804E2E60029F3D179
:10CDA8000121234A234836F070FB6FF00404D8E6CB
:10CDB80008210C3034F0B3FD95F8D8300246D90775
:10CDC80047BF17A1D1E900014FF000511A4836F0CA
:10CDD80076FB2146002240F6014011F067F8044630
:10CDE80000287FF4BEAE01463A1D4FF6014011F00F
:10CDF8005DF828B3114A02210E4836F046FB11F0BF
:10CE0800FFFE044600287FF4ACAE13F0EDFB0446A9
:10CE180000287FF4A6AE10F0A7FDA2E6AFF30080CD
:10CE280090880002008000200801002038010020BE
:10CE3800F1E60500E4E104001088000214E70500AB
:10CE48007B686D46DC688AB0B4F80130032B96BF66
:10CE5800424A434952F823106A46D3614FF400739B
:10CE680040481384404BC2E9050142F8103F4FF493
:10CE780013513E4836F018FBB4F80120AD46022A9B
:10CE8800B4F8033048D1052B46D8394A52F8231054
:10CE98006D468AB06A46D3614FF4007335481384EF
:10CEA800314BC2E9050142F8103F4FF413512F48A6
:10CEB80036F0FAFAAD466379A679032B98BF2E4A65
:10CEC800B4F80750D4F809006C468CB094BF52F8F7
:10CED800231023496A46C2E907364FF40073DFF886
:10CEE800ACC09385254BC2E905C1C2E909504FF48E
:10CEF800735142F8103F1D4836F0D6FAA5467868B7
:10CF08000BF0B2FB00214FF602403A1D10F0CEFFA5
:10CF1800044618B11A4A6EE71149B9E77868194DFD
:10CF2800C368B3F80130A5F8C1300BF09DFB95F844
:10CF3800C1305B077FF563AF21464FF603403A1DCA
:10CF480010F0B4FF08B1104A55E77868C3685B78F9
:10CF580085F8C0300BF088FB51E700BF9806050044
:10CF680041E4050038E7050004000001E4E104009D
:10CF78008006050051E7050070060500070000015E
:10CF880096E7050030000020BFE7050069E70500C7
:10CF980070B514460646CD17A1FB0201002304FB19
:10CFA80005110A22FFF7D4F90FA3D3E900230C4D8A
:10CFB80080FB054520462946FFF7CAF906A3D3E9B1
:10CFC8000023306029462046FFF7C2F90023054AAE
:10CFD800FFF7BEF9726070BD80A812010000000062
:10CFE800D8EF2F0040420F0000209BF35E10000096
:10CFF8002DE9F04105460C46002955D007296BD18B
:10D0080053681068384AD917C0FB0231012B71F1F7
:10D0180000025EDB6E683548B77E181841F10001E2
:10D028002FA3D3E90023FF09FFF792F97BB2002B66
:10D0380014BF04220222904296F91A401FD0002BF6
:10D0480014BF2022102290421BD0002B14BF0822AC
:10D058000422904217D0002B14BF102308239842B3
:10D0680037D103275FFA87F8414630462D6933F0F8
:10D0780066FC002809DA6FF00400BDE8F08100279B
:10D08800F0E70127EEE70227ECE73D22184B002CDA
:10D0980033F8173085F81E80AABFA3FB023253432A
:10D0A8005B08EB600020E8E7124B12881F4633F854
:10D0B800021B8A420AD86868E1B22E6933F0ACFDD7
:10D0C8000028D8DB37F81430B383EBE701340B2C96
:10D0D800EDD16FF01500D0E76FF08500CDE700BF08
:10D0E8003AA395000000000040420F009DD14A007D
:10D0F800BE330500C633050070B50D46032D114635
:10D1080004461A4609D0072D0BD00221324A33486B
:10D1180033F06AF96FF0850046E0BDE87040FFF72C
:10D1280067BF002941D00729F4D159681D680A460C
:10D138002B4BC817C5FB0320B425A2FB0531012AD8
:10D1480005FB001170F1000018DB2648181841F1A2
:10D1580000011FA3D3E900230025FFF7F9F8224BAC
:10D1680033F8022B904211D16068E9B2266933F096
:10D17800FDFB002810DA6FF0040015E01B481818B2
:10D1880061F1000112A3D3E90023E5E70135072D7A
:10D19800E6D16FF0150007E041F21712144B33F88F
:10D1A80015305343B361002070BD1A88114B33F812
:10D1B800020B824206D86068C9B233F09BFD002892
:10D1C800F1DAD8E701310B29F1D1E2E7AFF30080BA
:10D1D800D8EF2F0000000000001006007CE10400DA
:10D1E80040420F00ECF71700B03305001408E8FFC1
:10D1F800A2330500C63305002DE9F74F032914466D
:10D20800066905D90B1F032B53D96FF0850023E05E
:10D218000229F7683A4D22D0032923D0012914BFE7
:10D22800B6F90460B6F90660A6FB076732A3D3E92E
:10D23800002386FB056530462946FFF789F8002359
:10D24800304A206029463046FFF782F800232D4AED
:10D25800FFF77EF86260002003B0BDE8F08FB6F9F2
:10D268000860E1E74FF0000B02F11803DFF894A023
:10D278000236019336F9028FA8FB07831EA3D3E970
:10D28800002388FB059848464146FFF761F8524657
:10D2980044F8080B5B4648464146FFF759F85246A2
:10D2A8005B46FFF755F8019B44F8042C9C42E1D1FA
:10D2B800D1E70629B5690CD007290ED02A460529D9
:10D2C80014BFB6F91010B6F912102046FFF760FE29
:10D2D800C1E72A46B6F91410F7E70E3602F1180727
:10D2E80020462A4636F9021F0834FFF751FEA742A6
:10D2F800F6D1B0E7AFF300800010A5D4E800000035
:10D308003AA3950040420F002DE9F04F3A4B85B003
:10D31800D3F8042392070BD5D3F8042142B1002295
:10D32800C3F80421354AD3F8043113680133136074
:10D33800334D0024A8464FF480362F4FD7F80433D6
:10D3480006FA04F919EA030F2CD00123A340DB43A2
:10D358002C49D1E8EF2F02EA0300C1E8EC0FBCF139
:10D36800000FF6D122FA04F3DB0703D4264B53F857
:10D378002430BBB120463BF0D5F91DF021FCEFF37A
:10D388001183202282F31288BFF36F8F08EB041CED
:10D39800DCE902AB504571EB0B010AD283F311882B
:10D3A800BFF36F8F103514B105B0BDE8F08F0124BD
:10D3B800C4E70020D5E900129FED0D7B28600E48D8
:10D3C80003938CED027B0292C0F8489320463BF011
:10D3D800A9F9039B83F31188BFF36F8F0029E1D06C
:10D3E800029A5B46009252468847DBE7AFF300801B
:10D3F800FFFFFFFFFFFFFFFF00500150300F01202C
:10D40800E02B0020240F012040510150014B1860EF
:10D41800704700BF9C5D002010B54C0022460146B5
:10D42800074832F0E7FC844208D006482346012129
:10D43800054A32F0E2FF4FF0FF3010BD0020FCE754
:10D448007C5D00203CE20400CC370500B0B588B014
:10D45800012008AF30F0BBFC40F6030301224FF473
:10D468007A518A4804F0ACFF28B340F6030301223E
:10D478004FF47A51854804F0A3FF6C468AB008AA95
:10D48800834B5361834B93616523D3614FF40073DE
:10D49800B0FA80F09384804B400910624FF4315108
:10D4A8007E4842F8103F2DF0AAFCA5464FF0FF3405
:10D4B8002046BD46B0BD4FF4FA4240F6A27173480B
:10D4C80006F000F978B14FF4FA4240F6A2716F48BD
:10D4D80006F0F8F86C468AB008AA6D4B53616D4B9C
:10D4E80093616623D1E7012240F6A671674806F0EA
:10D4F800E9F8044670B1012240F6A671634806F0C7
:10D50800E1F86C468AB008AA614B5361614B93619C
:10D518006723BAE7024640F6B4715C4806F0D2F8D1
:10D5280070B1224640F6B471584806F0CBF86C4604
:10D538008AB008AA564B5361564B93616823A4E7F7
:10D54800032240F6AA71514806F0BCF870B10322D4
:10D5580040F6AA714D4806F0B5F86C468AB008AA9C
:10D568004B4B53614B4B936169238EE740F6B932BD
:10D5780040F6B871454806F0A5F878B140F6B932DA
:10D5880040F6B871414806F09DF86C468AB008AA82
:10D598003F4B53613F4B93616A2376E7102240F675
:10D5A800C4713A4806F08EF8054670B1102240F66C
:10D5B800C471364806F086F86C468AB008AA344B1F
:10D5C8005361344B93616B235FE702464FF47B61F1
:10D5D8002E4806F077F8044670B12A464FF47B616E
:10D5E8002A4806F06FF86C468AB008AA284B53619F
:10D5F800284B93616C2348E7024640F6AC712348F8
:10D6080006F060F8024670B1224640F6AC711F4839
:10D6180006F058F86C468AB008AA1D4B53611D4B9A
:10D6280093616D2331E740F6AE71184806F04AF869
:10D63800044670B1002240F6AE71144806F042F874
:10D648006C468AB008AA124B5361124B93616E2341
:10D658001BE71349134B4FF4FA420B600023CA61CE
:10D66800C1E90233C1E905334B600B610020002199
:10D67800CDE906010421CDE90033CDE90231049357
:10D6880009490A4B0A4828F05FFE11E7D832002002
:10D69800FA3705000C380500050000013CE20400DB
:10D6A8007C5D00203E2D0120287D022001D700004E
:10D6B800301200204FF4A07307B5A0220093094947
:10D6C800094B0A4805F0D6FF031E08DA084802216C
:10D6D800084A32F092FE002003B05DF804FB98B2CD
:10D6E800FAE700BF98280120FE2B0120D83200203D
:10D6F8003CE204003138050070B5104C104E114D55
:10D70800A36822699B1AB3F5A07F05D200214FF4C4
:10D71800A47029F0D5F8F3E731464FF4A0722046FB
:10D7280032F0B8FBFFF7C6FF2B68014613B12B6830
:10D738000548984729F042F8E2E700BF7C5D0020E1
:10D74800982801209C5D0020FE2B0120BFF34F8FFD
:10D758000549064BCA6802F4E0621343CB60BFF385
:10D768004F8F00BFFDE700BF00ED00E00400FA05A1
:10D778000321024A02482DF061BB00BF5038050062
:10D78800DCE3040008B50321024A03482DF056FBE8
:10D79800012008BD6F380500DCE3040038B500251A
:10D7A800084B094C09480321094A1D702DF046FB16
:10D7B800206810B112F078F925600022054B1A8014
:10D7C80038BD00BF45D60120D85D0020DCE3040049
:10D7D800A8380500DA2901200321024A02482DF061
:10D7E8002DBB00BFBF380500DCE3040001290B4650
:10D7F80001D1FFF7F1BF21B90321044A04482DF0F4
:10D808001DBB0321034A02482DF01ABBE33805006B
:10D81800DCE304000A390500F8B51C4606460F4645
:10D82800154603210D4A0E482DF008FB012C09D19D
:10D838002B78062B0FD14FF05023A822C3F81C25B4
:10D84800FFF784FF022C06D12B78012B03D1394630
:10D8580030462DF0F9FA2046F8BD00BF2039050002
:10D86800DCE3040030B5044685B003211C4A1D489A
:10D878002DF0E4FA204636F096F91B4B1B4D186044
:10D888004FF4007303211A4A16482B802DF0D6FA5C
:10D8980003212B88174A13482DF0D2FA4FF0C8738A
:10D8A800154A204602A9CDE9022336F097FA10F06E
:10D8B800FF0304D00221114A0A482DF0C1FA104B87
:10D8C80069462046009336F045FA0E4B204601A9DA
:10D8D800019336F02FFA01220B4B1A7005B030BDB8
:10D8E80040390500DCE30400D85D0020DA29012076
:10D8F800543905006839050006000C007739050021
:10D9080000000202FB00480845D6012010B5044675
:10D918008AB02822002168463FF0D8FE6946204692
:10D9280012F046FD10F0FF0309D007480121074A0D
:10D938002DF086FA204612F0B7F80AB010BD20463E
:10D94800FFF790FFF9E700BFDCE30400A739050003
:10D95800F8B50C4600AF6E468AB00D8848886A460E
:10D968008988E38853620623DFF83CC0C2E90701CF
:10D97800C2E905C542F8103F084D002328464FF478
:10D98800435108F091FD064A2388B54613800321C8
:10D998002846044A2DF054FABD46F8BDDCE30400DD
:10D9A800DA2901200F3A0500CE3905002DE9F043A8
:10D9B8002D4C06464FF4A17221462C4889B032F00E
:10D9C80069FA03462A48B3F5A17F036007D001210D
:10D9D800284A294809B0BDE8F0432DF031BA21465C
:10D9E80031F8022B254D026025484FF000090388C5
:10D9F800DFF8A0805C1C04802C8888F80030033C89
:10DA0800944228BF14461B0A224608F1030088F8EE
:10DA1800013088F802903FF032FE1A4B18221F6836
:10DA2800494602A83FF052FE14373046033402A993
:10DA3800CDE90378ADF8144014F04AFF124A136890
:10DA480001331360034658B10121104A0A482DF0EA
:10DA5800F7F92B8801210E4A0748009432F0D7FCC9
:10DA680009B0BDE8F08300BFC3AC0120A05D002071
:10DA7800C05D00201F3A0500DCE30400DA2901201C
:10DA8800D8290120E0020020E85D0020533A050073
:10DA9800723A05003EAA012010B5064C212000214B
:10DAA80028F00EFF206808B1FFF780FF28F086FEF7
:10DAB800F4E700BFD85D002030B58FB033483FF0A1
:10DAC8008CF9334812F0C0FB002010F03DFB0446EF
:10DAD80040B103462F4A01212F482DF0B1F92046C5
:10DAE8000FB030BD03212D4A2B482DF0A7F92C4D3E
:10DAF8002C4814F00DFC09AC2B4814F009FC0FCD90
:10DB08000FC42B680322236002232849009309A825
:10DB1800274B11F0CBFA044610B10346254ADAE741
:10DB28000321254A1C482DF089F94FF42152234B33
:10DB38000321DA61224A18481A60224AC3E90244DA
:10DB4800C3E905445C601C612DF078F900220023CC
:10DB5800CDE9062304234FF48052CDE90243CDE9F1
:10DB68000044194B19491A48049428F0EDFB38B9B8
:10DB78000121184A08482DF061F94FF0FF34AEE74B
:10DB88000321154A04482DF059F9A8E7C45D00207F
:10DB9800980300208B3A0500DCE30400B43A050042
:10DBA80020E40400E00200205802002008E80400F5
:10DBB800F8E70400D43A0500033B0500A05D002007
:10DBC80005AE0120243B0500A1DA000028FA022056
:10DBD800F8120020493B0500683B05000A4610B5CD
:10DBE8000F49B2F5A07F0B6803F101030B6013D84E
:10DBF8000C4C130A0146A01C227063703FF03FFDD5
:10DC08004FF4A1722146084832F0F4F8B0F5A1703B
:10DC180018BF4FF0FF3010BD4FF0FF30FBE700BFDB
:10DC2800DC5D002081AB0120A05D002010B5094A11
:10DC38004FF4C861136801331360FFF7EDFB034627
:10DC480030B1BDE810400121034A044832F0D5BB89
:10DC580010BD00BFE45D0020923B0500B4E2040063
:10DC680010B5084A136801331360FFF7B7FF03467E
:10DC780030B1BDE810400121034A044832F0BDBB71
:10DC880010BD00BFE05D0020B13B0500B4E2040018
:10DC98002DE9F041394800AF31F0F5FC0021384A50
:10DCA800084632F0A1FB0321364A374832F09CFB84
:10DCB800FFF702FF044648B10346344A01213248BF
:10DCC80032F09BFB2046BD46BDE8F0810321304A77
:10DCD8002D4832F089FB2F48FFF798FBFFF7B6FB7A
:10DCE800044610B12C4A0346E8E703212B4A26488C
:10DCF80032F07AFB2A4800F025F900F09BF8044638
:10DD080010B1284A0346D9E70321274A1E4832F0B2
:10DD18006BFBDFF8B4801C4C244E0321424620469E
:10DD280032F062FB33783BB3214A2046032132F0BC
:10DD38005BFB204B6D46D3F800C01F4B8AB01868B8
:10DD48001E4B6A4619681E4B1B6853620623DFF890
:10DD58007CE0C2E90701C2E905EC42F8103F002364
:10DD68004FF44351204608F09FFBAD4600214FF485
:10DD7800004028F0A5FDD0E7124AD6E7D73B0500BA
:10DD880050480600EA3B0500B4E20400053C0500E3
:10DD9800283C050069DC00003F3C0500593C0500B3
:10DDA80035DC0000753C0500943C050045D6012093
:10DDB80054390500E45D0020E85D0020E05D0020A6
:10DDC800DC5D0020A8380500B53C0500C63C050010
:10DDD800F0B5124E124F134C85B033780BB905B01D
:10DDE800F0BD4FF47A7238680021836800929D680C
:10DDF80002AA03ABA847031E05DA01210A4A0B4809
:10DE080032F0FBFAE9E72368029D13B1284623683C
:10DE18009847294606483EF095FFDEE746D601209A
:10DE2800F05D0020EC5D0020273D0500E4E20400E1
:10DE38002C0D0020F0B53448344E91B002AF30605C
:10DE48003EF0B8FE0346C8B932686C4688B011681F
:10DE580002AA2F48C2E905014FF4007191832D49A8
:10DE680042F8101F4FF4E2512B4808F01DFBA5465D
:10DE78006FF0120420463C37BD46F0BD274B1E22EA
:10DE8800002107F11A00FB603FF020FC244A254BD3
:10DE98000125C7E9042328233B763C237B763B1DD9
:10DEA8003B624FF47A53204A87F83650C7E901326B
:10DEB80087F8345003211D4A1748009532F0A7FA15
:10DEC800306807F1100183681B689847041E06DA5A
:10DED8002346174A2946104832F08FFACAE72946DE
:10DEE80030682CF0CFFF041E02DA124A2346F1E70D
:10DEF800114B1D7011483FF064F90321104A064880
:10DF080032F072FA0024B5E7DCDD0400F05D002091
:10DF1800AB46060003000001E4E204002C0D0020DB
:10DF280040420F00E06735001000800C373D0500C7
:10DF3800593D05007C3D050046D60120C013002050
:10DF4800953D0500014B1860704700BFEC5D00204F
:10DF58002DE9F84F15464A434FEA420B0C460BF1A0
:10DF6800070121F0070100AFADEB010D69464FEA4B
:10DF7800450E43B99C46AB4228DA002600EB43081D
:10DF880001EB4C091DE0144B03EB85080023AB4261
:10DF98001CDA002600EB430C09E058F82320BCF8F3
:10DFA80000A002FB0469F44421F819A00136A64236
:10DFB800F3DB0133EBE7B8F800A0013629F802AB30
:10DFC800F044A642F7DB0133A444D4E75A463FF0B5
:10DFD80056FBBD46BDE8F88F18E804002DE9F84F58
:10DFE80015464A434FEA420B0C460BF1070121F054
:10DFF800070100AFADEB010D69464FEA450E43B985
:10E008009846AB4228DA002600EB480901EB430C9E
:10E018001DE0144B03EB85080023AB421CDA0026F5
:10E0280001EB430C09E058F8232002FB046930F89F
:10E0380019900136ACF80090F444A642F3DB0133A2
:10E04800EBE739F902AB0136ACF800A0F444A6427C
:10E05800F7DB0133A044D4E75A463FF010FBBD4636
:10E06800BDE8F88F18E80400B1F5807F024610B5C6
:10E0780002D9B0FBF1F010BD4B420B40B3FA83F369
:10E08800C3F12004C3F11F03D840064B21FA04F45E
:10E0980053F82430A3FB003000FB1122914298BFB3
:10E0A8000130E8E7D4FC04002DE9F74FB2F1000A8B
:10E0B80004460E46174618BF4FF0010A8B464FF02C
:10E0C80000081D460368D0F81C900093226A072AAE
:10E0D80015DC62682ABBB8F1000F0CBF01230223CC
:10E0E8009A454FF0010808DA1DB1B6F900301B1146
:10E0F8002B80012003B0BDE8F08FBB46E6E7009B0C
:10E10800A3B1BBF800100122C90B484601912EF0BB
:10E11800EAFC0199226A083A22626268002ADAD087
:10E1280051B94FF48042ABF80020D4E701214846AA
:10E138002EF0D6FB0146EDE7004AF4E700C0FFFFEA
:10E148002DE9F04F8BB0CDE905328368199E07930E
:10E15800C36882460493436A049A0893079BD0F8DD
:10E1680000B01B6BD0F8108033F91250189BD0F810
:10E178001C9005EBC305159B149F1C680391681040
:10E188003EB3022F25D13946103800FB01402CF050
:10E198008BFE641BA4F11F039842A8BFA4F12000C2
:10E1A800032823DCCEB1049B434532DABBF1000FD0
:10E1B80040F09B80484604F009F88046159B1B6890
:10E1C800102B04DDDAF82030102B00F3FA8100263A
:10E1D80085E0790004380139D7E7BBF1000F1BD17E
:10E1E800484603F0F3FF80463446D8E04028A8BFED
:10E1F8004020C44B00F0070233F91240C010C0F1B0
:10E208000E000441013424F001053EB1049B43454E
:10E2180026DBBBF1000FCDD0012524E0BBF1000FB8
:10E2280021D1484603F0D2FF179B8046012B65DCBD
:10E238005C466E10731C03FB03FABBF1000F00F081
:10E248006781A642C0F2558104FB0441621C491053
:10E25800534648460A4404F001F82946A00353E00F
:10E26800BBF1000F43D0DDE90510DAF82C30324657
:10E2780000933B4630F07BFE0446484603F0A6FF79
:10E28800012D804644D1002E00F08980BBF1000F9B
:10E2980094D0B4F5005F40F39281DAF83430002B63
:10E2A80040F08D81059A023ABB42C0F28281DDE9D5
:10E2B8000521049B079800930197089B80682CF020
:10E2C800FFFD159B1B68102B81DDDAF82030102B21
:10E2D8007FF77DAF0222314648462EF0DFFBDAF8A1
:10E2E8003440002C5BD000267EE73546BBE7484625
:10E2F80003F06CFF022F804600F3C980691C484672
:10E308002EF01DFB29468003FFF7AEFE044645E0CC
:10E3180005FB04F396B1DAF83020002A40F0928029
:10E3280003F50053022F4FEAA33410DC179B012B8F
:10E3380000F38280BBF1000F7ED1DFE703F50053C5
:10E348009C13DAF83830002B4DD1179B71E005EBA0
:10E35800D57A4FEA6A0A0AF1010202EB42020AEB95
:10E3680002015445C5BF04F1FF30A0EB0A0004EBDD
:10E3780044008018C8BFA4EB0A0A0B46D8BFC21CC9
:10E388000146C8BF5244484603F068FFA003294627
:10E39800FFF76AFE0446002E40F0E5800026484656
:10E3A80003F014FF159B159A1B68A0EB08055B1B6F
:10E3B8001360002C40F00B810123A04647F6FF793B
:10E3C800169A514F93401A9A013B12681A401A9BA9
:10E3D8001A60039BC3E90069C3E90287C3E90445DE
:10E3E8000BB0BDE8F08F002CAFDDA542ADDD2946AE
:10E3F800A003FFF739FE824600B22CF0D1FD099048
:10E40800CAF5804000B22CF0CBFD09992CF0E9FD4B
:10E418004FF480427B1EDB0113FB0020159BC213C7
:10E428001B68B3EBE03F5EDB5B4293428DDD344615
:10E43800179B012B7FF7FDAE214648466A1C2EF03C
:10E4480088FBA3E7B4F5005FCCBF47F6FF742F4CF9
:10E4580094FBF5F41C44A41324EAE474AC42A8BF6A
:10E4680005F1FF34002A00DB0134022F7FF762AF89
:10E4780005EBD57A4FEA6A0A0AF1010303EB430276
:10E4880002EB0A01BBF1000F7FF46BAF07E04FEA24
:10E49800640A0AF1010303EB430202EB0A0148464E
:10E4A800CDE90532049103F0ABFEDDE90413069AC9
:10E4B8008242C7BF032390FBF3F4841AE418A245F1
:10E4C800BBBF04F1FF30A0EB0A0004EB4400801846
:10E4D8000B460146B6BFA4EB0A0AC21C5244484682
:10E4E8002EF0DBF9B9E6179B2C46012B3FF722AF3C
:10E4F8009FE66A1CA91C121B091B5143AAEB610168
:10E50800A6E600BFA813050000C0FFFF0180FFFFBB
:10E5180051464846049303F073FE049B5E43B0EBF8
:10E52800660F0CDAC00001302FF010F8441E6408A2
:10E5380004FB0441621C491053460A44CFE7AAEB86
:10E548000000C00007382FF001F86C1C2246C0EB11
:10E558004400A91CA2EB5002A1EB5001514344080E
:10E56800AAEB6101E8E7C8B1002145F6822C069BB9
:10E578009D1E059B981E8F427FF710AF35F8022F1E
:10E5880030F8023F1CFB02F21CFB03F3D6189B1A5F
:10E59800F613DB132E8003800131ECE7049B079808
:10E5A80000930197089B8068DDE905212CF088FC21
:10E5B800F4E632F8021F01334942118074E600265E
:10E5C80075E6022148462EF079F9064687E6B4F545
:10E5D800804F0FD10123169A27469340013B934061
:10E5E8001A9A47F6FF7812684FF000091A401A9BEA
:10E5F8001A60EEE620B22CF0D3FC8146C4F58040C8
:10E6080000B22CF0CDFC494680462CF0EAFC4FF4D1
:10E618008043013FFF0117FB0037FF13D9E600BF16
:10E628002DE9F04F044699B08B461146BDF9942068
:10E63800249808922268D4F80C800D92A26811934D
:10E64800099262690A92E2690B92099AD2F85CC04F
:10E65800421C0C92099A9568926D00FB0555454439
:10E6680032F915A0421C1CF80A500CEB0A0900F0FC
:10E67800EB8019F805200C329A4280F2E5800229D5
:10E6880040F3E28021F001060BEB06030B93229B7B
:10E6980000F1FF38012B08BF269A4FEA610902BF33
:10E6A80002F0010343EA42032693229B5A460133B0
:10E6B8004FEA630A26AB06930023CDE90483229B25
:10E6C8002046CDE902A311ABCDE9009312A90B9B1B
:10E6D800FFF736FDDDE915530993BDF94C30179A5C
:10E6E8000D93BDF950300E93229B012B15DD099B2C
:10E6F800C3F30D038BB1099BB3F5005FDBBF4FEA92
:10E70800C903C8F10501C8F104030B41CBBF45FAA1
:10E7180003F35B19ED1A03EAE375119F236A7D1B66
:10E7280005EBD5756D10BD42A8BF3D469B1A0A93EF
:10E738002362239B25EAE5757F1B002B48D01E44E6
:10E74800269BBD420C9343FA0AF30F93229B4FEA90
:10E7580063031093089B3DDB0D9A13FB02F303F54B
:10E76800804343F3CF330C9ACDE90283239B594668
:10E77800CDE900A304922B464A462046FFF750FFF6
:10E78800236A0A9A8346D31AEB1A182B03DD099ACF
:10E798000AB1183B1F440E9A089B13FB02F30F9A09
:10E7A80003F5804343F3CF33CDE9028304923B461C
:10E7B8004A462046CDE900A60B99FFF731FF109B8A
:10E7C80000FA03F747EA0B07384619B0BDE8F08F9F
:10E7D800239EB5E70E9A13FB02F30F9A03F58043C5
:10E7E80043F3CF33CDE90283CDE900A63B4604923B
:10E7F80020464A460B99FFF713FF109B0A9A00FA26
:10E8080003F6236AD31AFF1A182F05DD099BB3F5FF
:10E81800804F1CBF183FED190D9A089B13FB02F39C
:10E8280003F5804343F3CF330C9ACDE90283239B4E
:10E838000492CDE900A34A462B4659462046FFF7E5
:10E84800EFFE46EA0007BFE70627002203F1FF3E76
:10E8580050190130401019F80060B645D4BF05467C
:10E868000246013FF4D119F80500A0EB0E0022B9C9
:10E87800834226DD45B92A460BE019F80230AEEB93
:10E88800030E8645F6DC1546D4441CF805302A46A6
:10E898005D1C236A5B1B002B236228DA9AB9636824
:10E8A800002B91D00125229B9D40269B013D2B40AA
:10E8B8002693002B43D14A00584619463EF006FFDE
:10E8C80082E71546E5E709982B4423620C9EC56D3F
:10E8D8008068013A00FB0680099EB66D36F9100083
:10E8E800DDD005EB020C1CF800500135D2E7002AF8
:10E8F800D5D0072A06DD02F00703D2100833013A03
:10E9080003FA02F20D9B7BB1E36A584604936368ED
:10E918000393089B02930B9B0193229B00930A9BF2
:10E9280030F07FFA07464FE7089B584602930B9B47
:10E938000193229B00930A9B30F0B7FAF2E7239ADF
:10E94800BAB10022164D174E8A4216DB1D4609E061
:10E95800A36A00FB0363A3621B152BF81230013274
:10E968008A42F5DB5846E36A089A30F0CDFA2F461A
:10E978002AE7239A0A480B4EF2E7A06A239F05FB71
:10E98800006010F4004FA06214BF04206FF0030071
:10E9980037F8127038442BF812000132D4E700BF60
:10E9A8000D6619005FF36E3C2DE9F04F16468FB0E7
:10E9B8000B931A9BDDE9184A0C931B9B621E0A9362
:10E9C800BDF9703006900D9303680F46DDE91D58B8
:10E9D800089383692146079353425341304609936C
:10E9E800FFF742FB012E834608D1002239460A9BD5
:10E9F80006980FB0BDE8F04FFFF756BB079B23EA18
:10EA0800E37985B1BAF1000F0DD0002B05DC10F0C9
:10EA1800010F00D10BB9012C05DD514628467200C3
:10EA28003EF02DFEAA4600254D4557D10BFA09F5B3
:10EA38004FF0000B44FA09F4EB0703D4079B13EBE0
:10EA48000B0F6CD4012C14DD089B3BB13846099B95
:10EA580004FA09F245FA09F1FFF77AFABAF1000F58
:10EA680007D05046099B04FA09F245FA09F1FFF765
:10EA78006FFA0D9BCDF8108003930C9B3246CDE9BD
:10EA880001A339460B9B06980094FFF7C9FD069B26
:10EA980080465B68F3B1012C07DD3846099B04FA10
:10EAA80009F245FA09F1FFF799FA4FF0000AD34540
:10EAB8004DD100254FF0010BDFF8ECA04D4554D1A6
:10EAC8000A9B04FA05F5002B5AD10123AB40013B00
:10EAD80008EA030840460FB0BDE8F08F089B3BB139
:10EAE8000123384603FA05F246FA05F12CF05AFCE0
:10EAF800BAF1000F07D00123504603FA05F246FA8F
:10EB080005F12CF04FFC274B08F00F024FEA2818AC
:10EB18009A5C13F80880013542EA880884E7089B64
:10EB280023B12246294638462CF03CFCBAF1000FA6
:10EB380004D02246294650462CF034FC08FA04F347
:10EB480048EA030864006D100BF1010B74E76410C8
:10EB58006D0028FA04F322462946384648EA030895
:10EB68000AF1010A2CF01EFCA1E70BFA05F246FA9D
:10EB780005F138461AF8088001352CF013FC9DE79A
:10EB8800B0052EF028FD002300B2B3429DDA0A99A1
:10EB980037F8132010FB02F2D21321F813200133A7
:10EBA800F3E700BFCA3D0500BA3D05002DE9F04F67
:10EBB8009B46036895B00B93C369BBF1010F0646EA
:10EBC8000D4614460A9307D1229BFFF76DFA80463B
:10EBD800404615B0BDE8F08F1EAB53F8182F0693CA
:10EBE80001230593219B0C9204931F9B0A46CDE9B0
:10EBF80002331EABCDE900B30EA92346FFF7A0FAF6
:10EC0800DDE911270E9BBBF1020F0D93BDF93C30D6
:10EC180013990893BDF9403009931E9B40F09C80DE
:10EC28009846326A002F69D1A246A946521A326222
:10EC380047F6FF720C9B04920693239B02220593CE
:10EC4800229B49460393219B30460293209B7F00D9
:10EC580001931F9B00934346FFF7A6FEB9F80230C5
:10EC68007A1E13FB02F3AAF80030B9F80030C7F196
:10EC7800010713FB07F3AAF8023073688046002BDC
:10EC8800A6D02B88089A12FB03F3DB132B806B8822
:10EC980012FB03F3DB136B802388099A099912FB93
:10ECA80003F36288DB1311FB02F2D2132380628024
:10ECB8002A88D31A2B8023881A4422806B8862887A
:10ECC8009A1A6A806288134463807368002B3FF441
:10ECD8007FAF0D9B002B3FF47BAF0023023C5B45CD
:10ECE800BFF676AF34F8022F013352422280F6E79E
:10ECF800521AAA46A1460027326299E7B7F5804F13
:10ED0800F6D0A3F1080808310B9BB7F5005FA2EB1A
:10ED18000102D9BFA246A946AA46A1463262ABB1B2
:10ED2800BAF80220B9F80070BAF8001017FB02F719
:10ED3800B9F802200A9812FB01F29742ACBF0027EB
:10ED48000127012239462DF0CEFE71E701210A98EC
:10ED58002DF0C6FD07466BE7A3EB020909EBD9794D
:10ED68004FEA69099945A8BF994629EAE979A3EBC9
:10ED78000908336A1F9A5B1A0A933362249BC145B8
:10ED88000B9343FA02FA53DB0693239B00920593F5
:10ED980047F6FF730493229B5A460393219B294607
:10EDA8000293209B304601934B46FFF7FDFD336AE3
:10EDB8000A9A0B90D31AA9EB0303182B02DD0FB1A3
:10EDC800183B98440023099A0593CDE90332219A08
:10EDD8002146CDE901321F9B5A46009330464346EF
:10EDE800CDF818A0FFF7E0FD0B9B43EA0008736815
:10EDF800002B3FF4EDAE0022134611468B4550DC44
:10EE0800089933FB01F34FEA610A1AFB0AFA9244A4
:10EE1800AAEB83000AEB830A4C4B9A4501DD984222
:10EE280049DC294620464FEA4B023EF028FC50E7D1
:10EE38000023099A0593CDE90332219ACDF818A049
:10EE4800CDE901321F9B5A4600932146434630467E
:10EE5800FFF7AAFD336A0A9A8246D31AA8EB030879
:10EE6800B8F1180F05DDB7F5804F1CBFA8F11808D9
:10EE7800C1440B9B5A460693239B2946059347F6A4
:10EE8800FF730493229B30460393219B0293209B9C
:10EE980001931F9B00934B46FFF786FD4AEA000843
:10EEA800A5E734F9110035F8116010FB0022013193
:10EEB80010FB0633A2E7B0FA80F7C7F11F077F10EF
:10EEC800FB1F5B00BAFA8AF618412EF055FBC6F113
:10EED8001F0676108146F01F40004AFA00F02EF017
:10EEE8004BFB012301370FFA87FE03FA07F747FAAE
:10EEF80003F20990002710461E440FFA86FA03FA17
:10EF080006F61E41023DA4F1020CBB457FF7E1AEB7
:10EF180035F8023F089A12FB03F33CF8022F03F579
:10EF28008043C3F3CF33991A134419FB01F1099AAB
:10EF3800014412FB03F3334441FA0EF143FA0AF396
:10EF48002980ACF800300137DFE700BF24750200E4
:10EF58002DE9F74F002643F6FF7E1468DFF8988006
:10EF68006442C4F30D0A4FEAA4395468019064421C
:10EF7800C4F30D0CA4130D9A964202DB03B0BDE84E
:10EF8800F08F019A1D6832F916700A6832FB075231
:10EF98005D68920032FB0AFB4FEA6B3B0BF1010BF9
:10EFA80005EB6B0532FB0CFB4FEA6B3B32FB09555B
:10EFB8000BF1010B1D6048684FEA6B0B30FB0755DE
:10EFC8001D6032FB04B572445D60B2F1005F886871
:10EFD80030FB07555D604FEAA23508DA15F5004F9A
:10EFE80008DB2AB20C9820F816200136C3E747F64A
:10EFF800FF72F7E74246F5E70080FFFF2DE9F04F83
:10F008000226002543F6FF7E146852686442524285
:10F0180085B0C4F30D0C44F38F340394C2F30D0B85
:10F0280042F38F380F9A954202DB05B0BDE8F08FA6
:10F038000A6830F8069030F825401F6832FB0474DF
:10F048009F6832FB0972DF68920032FB0CF94FEAC5
:10F05800693909F10109A40007EB690934FB0CFAC5
:10F068005F684FEA6A3A01920AF1010A07EB6A07F8
:10F07800039A34FB0272019F1A600292039A37FBCB
:10F088000299C3F8089030F825A04A68029F32FB1D
:10F098000A771F6030F806A04F68019A37FB0A9775
:10F0A80032FB0BF99F604FEA693934FB0BF77F138A
:10F0B800013709F101097F104FEA690934FB087724
:10F0C80032FB08995F60C3F80C90744430F825A0AF
:10F0D8008A68B4F1005F32FB0A775F608F6830F8A6
:10F0E80006A037FB0A97DF604FEAA43716DA17F550
:10F0F800004F16DB3FB20E9A22F82570019A72442F
:10F10800B2F1005F4FEAA2340DDA14F5004F0DDBBF
:10F1180024B20E9A01359453043683E747F6FF77F5
:10F12800E9E7034FE7E747F6FF74F2E7004CF0E73B
:10F138000080FFFF2DE9F04F95B0239DBDF97C704D
:10F14800BDF980609C4612951E9B249D57EA0608CF
:10F15800964608938246DDE921230C46019509D19C
:10F16800814200F02A81089B9A0015B0BDE8F04F53
:10F178003EF092BA714660464FF0060C0F29B8BFB0
:10F188000F210F28B8BF0F200CFB02F8DFF868E347
:10F198000CFB03FC05900EEB08003EF8088017FBFB
:10F1A80008F808F5804848F3CF35B0F80280808821
:10F1B80017FB00F000F5804040F3CF3017FB08F84C
:10F1C80008F580480F95119048F3CF350EEB0C00E9
:10F1D8003EF80CC016FB0CFC0CF5804C10954CF35B
:10F1E800CF35B0F802C0808816FB00F000F58040EB
:10F1F80040F3CF3004906FF0030016FB0CFC0CF5C5
:10F20800804C02954CF3CF350395059DB74205FB1D
:10F2180000F000F1040554F805800E952558069570
:10F22800A0F10405099565590795A0F108050A9507
:10F2380065590B9507D1059DA94204D1019D9A42B4
:10F2480008BF00250195059B4FF0000CC3F18043D2
:10F25800013304EB83030D936FF0030303FB0142B7
:10F26800019B63450EDC002E7CD1544500F0A5803F
:10F27800089B019A9A1A019B920004EB83010AEBFE
:10F28800830072E70D9B079D53F8041FCDE90C130B
:10F29800129B33F91CE047F6FF731EFB0EFE4EF37C
:10F2A800CF31A3EBEE3E0FFA8EFE0F9B1EFB03F948
:10F2B80013684FEAE93933FB09F9109B1EFB03FB7E
:10F2C80052F8043F4FEAEB3B52F8087C3B4452F8B3
:10F2D8000C7C33FB0BF31393119B1EFB03FE53684B
:10F2E80008EB050B1F444FEAEE3E029B37FB0EF777
:10F2F80011FB03FE069B4FEAEE3E33FB0EFE039B1B
:10F3080011FB03F3DB133BFB03FB049B11FB03F132
:10F31800DDE90B35C9132B4433FB01F154F82C30CC
:10F32800139D03EB490303EB450303EB470303EB8F
:10F338004E0303EB4B0303EB41036D498B42B8BF0C
:10F348000B466C498B42D4BF4AF82C304AF82C1033
:10F35800079B0CF1010C0B93069BCDE90683DDF8A6
:10F3680030807DE74FF0000B019B089923EAE37298
:10F378008F1A0A9904EB82035E5809991C585D5844
:10F38800043F69000691610001910E99DFF860C1A0
:10F3980058580599DFF85CE1C1F102017600400098
:10F3A80003EB81010AEB82020597059D1431AB45F9
:10F3B80003F1140302F1140202DB15B0BDE8F08F6B
:10F3C80051F814AC53F8147CDDE9014534FB05779A
:10F3D800069C039D00EB040906EB4A0639FB0579F8
:10F3E800049D36FB05966645B8BF6646019C764582
:10F3F800D4BF42F8146C42F814EC51F8109C4FEA50
:10F408004A0804EB4A0A069C53F8107C029D30FB1C
:10F418000577039D3AFB057A049F04EB490535FB04
:10F4280007A56545B8BF65467545D4BF42F8105C69
:10F4380042F810EC51F80CAC53F80C7C4FEA4A0433
:10F448000694019C029D4FEA490638FB057700EBBC
:10F458004909039D04EB4A0439FB0579049D34FBF3
:10F4680005946445B8BF64467445D4BF42F80C4C53
:10F4780042F80CEC51F8089C53F8087C029D08EB04
:10F488004A0A36FB057700EB4900039D3AFB057AEB
:10F49800049D30FB05A06045B8BF60467045D4BFE9
:10F4A80042F8080C42F808EC51F804AC4FEA490459
:10F4B800019406EB490953F8047C08EB4A08029DBD
:10F4C800069C34FB0577039D39FB0579049D38FBC1
:10F4D8000598E045B8BFE0464FEA4A00F045D4BF7A
:10F4E80042F8048C42F804EC0BF1050B5DE700BF11
:10F4F800005D1EEE00A3E111B8130500002831D00D
:10F50800B0FA80F1C1F11F039BB20F2B8BBF0F3BE9
:10F51800C3F10F0340FA03F300FA03F34EF69F30EA
:10F5280003F580431BB24FF6872213FB02F2D21376
:10F5380002F6F11213FB02F200EBE23243F68250BC
:10F5480013FB02F200EBE23213FB02F3DB13A3F529
:10F55800D453093B43F30B10C1F1120100EB812096
:10F5680000B27047004870470180FFFF2DE9F04F57
:10F5780093B000AF7B60B7F980301446AF4AC3F54B
:10F5880000539342B8BF134640F21F5212FB03F3D5
:10F5980043F38F33F963FB628B00DA1D816978616D
:10F5A8007B62F86BFB6BD7F87CA031F9133001EB69
:10F5B800400131F9021C22F007025B1A03FA0AF330
:10F5C8005B000733ADEB020D23F00703C7F838D013
:10F5D800ADEB030DC7F834D0ADEB030DC7F828D059
:10F5E800ADEB020DD7F88430C7F81CD0ADEB020D97
:10F5F800BA6F4FF0000B53433B61012303FA0AF340
:10F60800FB606FF0010303FB0AF3BB600AF1FF33F1
:10F61800C7F818D03B60FB6B9B4556DB88494FEA1F
:10F628008A02002C02EB440201EB420118BF4FF0A2
:10F6380000094FF000023B6F07F1400808BF9946E8
:10F6480063004E464FF0000C4FF0010EF86B8645F4
:10F65800C0F2CA80B445D4BF48F804CB48F8046B5C
:10F668000231002A00F0BE80D7E91010884280F2EB
:10F67800DE80002C00F0DC801446002115460020B6
:10F688006F4E23445B0006EBCA0603F1010C03EB43
:10F6980006086644FB6B9D42C0F2D4808842B4BF22
:10F6A800002001207B6A7A68F9691A4442F8040C40
:10F6B800FB6BB869023B04310430002B80F2EF8009
:10F6C80020464C37BD46BDE8F08F7B69786B9B6957
:10F6D80033F91B1003EB4B03B3F902305B1A3B639E
:10F6E80003FA0AF93B6901FA0AF119447B6F4FEAF8
:10F6F800490603EB410132463DF0C1FFFB6AFCB10C
:10F7080052464946786B2CF06AFC3B6B0546012B48
:10F7180014D03246796BB86A3DF0B1FFFA68B86A1E
:10F7280049FA0AF12BF03EFE4946FB6AB86A0AF12B
:10F7380001022CF054FC8542804617DCA84605E0FF
:10F7480022464946786B2CF04AFC80460025002664
:10F75800002C3BD13B6B012B27D0564523DD6FF0A6
:10F7680001036B43BA6B42F82B3038E04FF0FF359A
:10F77800EDE73B689B1B3B62012349FA06F103FA5C
:10F7880006F2786B2BF00EFE4946FB6A3A6A786BF4
:10F798002CF025FC8045D8BF404606F10106C8BFBD
:10F7A80035468046D4E7731CE5E75645FBDB6FF02A
:10F7B80001035D43BB6B43F82B5015B1BB68AB42EB
:10F7C8000DD1BB6B013D43F82B5008E05645D0DB0B
:10F7D800BB6B6D0043F82B503B6B012BEDD00BF14D
:10F7E800010B18E701222CE7386F91F9005006EB5E
:10F7F800000B60447863B86B50F82E000EF1010ED0
:10F80800A0EB4505002DB8BF6D42E345D4BF05EB1D
:10F818000B0CAC4491F90150A0EB450000287D6B1E
:10F82800B8BF4042B542D4BF461986190EE70CB995
:10F83800396F23E70024214620E700BF00F0FFFFCF
:10F84800DA3D05003B6F01EB030E7045ACBF9446F3
:10F858004FF0000CFB69B8BF864643F825C03B6FE4
:10F8680000EB030C6145D6BF104600208C46BB69EF
:10F8780043F82500BB6B98F9000053F825100135B3
:10F88800A1EB40000028B8BF4042704496F900E060
:10F89800A1EB4E010029B8BF49426144FAE652F88B
:10F8A800045D012D0CBF50F8235051F82350013B43
:10F8B80042F8045C01E700BF2DE9F04F8DB000AFBE
:10F8C800C7E9023200224B00073323F00703FD6D1E
:10F8D800ADEB030D3B6E88461A602B1D3B6201EBB6
:10F8E800D17306214FEA630A43F38F037B624FEA21
:10F8F8000A53FB61AAF111034B43BB6101236E4616
:10F90800914693461446291D8B405B10BB6206EB5B
:10F918004A0338617B61FB689B4580F2C580002201
:10F928003B691046114603EB890C18E05CF8043B70
:10F938004FEA233E00EB23331A44A2EB4E00AEEB12
:10F9480063020233B3F5003F4FEAA30E27DA724B86
:10F958009E4527DB0FFA8EFE26F811E00131884517
:10F96800E4DC1822002130463DF0B0FE4146304626
:10F978002CF014FB0128B8BF0120B0FA80F3C3F1C2
:10F988001F039BB2D3F10E0303D00022B11E904592
:10F998000BDC002006F1020E8446024624E047F6FE
:10F9A800FF7ED9E7DFF870E1D6E731F8020F0132C0
:10F9B80098400880EBE736F922303EF9221013FB15
:10F9C80003F311FB01F10B4403F50043B96A00EBA3
:10F9D8002340CCEB23430B44396A0B4163441BB2ED
:10F9E8009C4626F8123001329245E4DC002211468A
:10F9F800D7F814E00AF1FF3CBCF1000F27DA7A606F
:10FA08002DF0E9FD7B6A7A68F86212FB03F02DF0AD
:10FA1800E2FDFB6A13FB00F0FB694010013093FB29
:10FA2800F0F000230C21FB62AAF1050E71451EDBE4
:10FA3800FB6AC1441A02BB6992FBF3F2A242C2BF3D
:10FA4800BB6D1446C3F800B00BF1010B63E73EF938
:10FA5800023D0CF1FF3C5B1A043301EBE3031BB2DC
:10FA68009A421946B8BF1A46AEF80030C4E736F8CD
:10FA7800113001331BB230FB03FC4FEA4C0CBCF1D4
:10FA88007F0F02DCBCF1000F0CDB30FB03F35B00E3
:10FA98007F2BA8BF7F23214A0431D35CFA6A1A441A
:10FAA800FA62C3E70023F6E775B3C82C25DC002506
:10FAB8001B235C4320462DF08EFD292829DD204696
:10FAC8002DF089FD2A3800B2A328A8BFA320144925
:10FAD800712313FB00F3B1EB833FB8BF11484FEA22
:10FAE8008332ACBF002080182DF075FDBB68343719
:10FAF80018802846BD46BDE8F08FB4F5167FD7DAE2
:10FB080001233A6E1360D2E7C82CD4BF0025012523
:10FB1800CEE70020D8E700BF0180FFFFFA3D0500CF
:10FB28000F583902F0A7C6FD2DE9F04F93B000AF8A
:10FB380098467B6F386353435B00073323F0070312
:10FB4800ADEB030D3961C7F844D00021ADEB030DCF
:10FB58009246B86F9200D7F87090D7F88040D7F8DF
:10FB6800A0B0C7F82CD03DF0B1FD00214FF0400CFB
:10FB78004FF0060EFB6FB44EC3F109039BB29B0214
:10FB880003F500739BB24945C0F2C88000221046B5
:10FB9800AE4B7B6100213B6B03EB4204894500F3CC
:10FBA800D2807B6F013083425244F3DCD7F898301F
:10FBB800322B40F31A82D7F89430002B00F01582CC
:10FBC800BBF1000F40F0118209F10043023B5B00DA
:10FBD800FB630233FB604FEA4A037B63FB6B3D69BF
:10FBE8000433EB183B647A6CA9F10203C7F838B008
:10FBF800C7F828B0C7F818B07B602E469646012093
:10FC0800B5F900101180814500F3AB80BB69B86B72
:10FC180018183B6903EB4000BB6B02EB43039342AC
:10FC2800A0F1020040F0B380931CFB6102232E4632
:10FC38007B627B6A78688342C0F2B980B5F90200BA
:10FC48008142DEBF034608461946B5F904308B42A7
:10FC580003DC8342B8BF034619B2B2F90030A1F5FC
:10FC6800806109B28B42B8BF0B461380B2F90230EB
:10FC78008B42B8BF0B46396C53803B6C31F9041C7E
:10FC880033F9063C8B42DEBF084619460346386CFA
:10FC980030F9020C984203DC88420346B8BF0B4691
:10FCA800F96BA3F58063515E1BB29942B8BF194640
:10FCB800F86B1152F968515E9942B8BF1946FB6852
:10FCC800D1520023911E994500F3B380BB6A796B2A
:10FCD8000133BB627B6B1D441A443B6C0B443B6491
:10FCE800BB69B96A5344BB617B6F8B4285DC022BCD
:10FCF8007B6C4FEA48021A4400F0AA8041468945C5
:10FD080040F3B1803B6BB2F9000033F91130013197
:10FD18001B1A23EAE37322F8023BF0E716F9012BDA
:10FD280034F8115092B2A3EB8212481D1CFB05F562
:10FD38002A4410FB00F01EFB00F00244F86A20F889
:10FD4800112001311FE7FD6A34F9023B35F91150E2
:10FD580001315B1B7D69AB42B8BF2B461BB27B618F
:10FD68001CE7B6F902C036F9023BBC6B03F5007319
:10FD78009C45C8BF0446BEF90030BC6303F5C063A8
:10FD88006345A8BF634601302EF8023F3BE7B3F94D
:10FD9800006033F9024D06F50066B442A8BF344648
:10FDA800B0F90060B442A8BF34461C8037E7B6F902
:10FDB80002E0B6F90040B6F906C07445DEBF7046E9
:10FDC800A6460446B6F90800FB698445DEBFB8605C
:10FDD8006046D7F808C08645C2BF7046A646644646
:10FDE800B3F90230C8BFF4463B62B6F90430A34207
:10FDF8001BDD844214DA8342A8BF0346386A1BB26B
:10FE0800A3F580639842DCBF1BB23B62D7E9073099
:10FE180023F8020FFB617B6A023601337B6208E735
:10FE280023466345A8BF6346E8E78342F9DA2346D9
:10FE3800E1E7F86A31F9024F30F913000133A042C3
:10FE4800B8BF204608803EE7FA4205006680FFFFFB
:10FE58004046796C0AEB080301EB4303D7E90C151C
:10FE68000D44814507DC7B6C4FEA480403EB4800EE
:10FE78000246434636E01E46B2F90040B3F9001088
:10FE8800A4F6FF7C8C45C4BFA4F5805421B2198028
:10FE9800B2F90040A1F6FF7CA445C4BFA1F580518A
:10FEA8000CB2148035F91010B6F9006002338E1BBD
:10FEB800396B31F910100130091B21EAE171002E6C
:10FEC800A8BF8919491022F8021BCAE7D7F8A4105D
:10FED800B2F9005031F913100133A942B8BF2946CD
:10FEE80022F8021B9945F1DCD7F8883013B1D7F80E
:10FEF8008C3013B1D7F884305BB10346424612E028
:10FF0800B2F900100133491022F8021B9945F7DCB9
:10FF1800F3E702464346F9E7072A2DDC198849002A
:10FF28001980013202339145F6DCD7F8983006265D
:10FF380059000323B1FBF3F1D7F890301C44C145B5
:10FF48003CDD2546B0F90020B4F90230B2F5805FF7
:10FF5800A8BF4FF48052B5F9005020F8022B5B1B64
:10FF68007D6F02346B43D7F89450AB40052B09DC06
:10FF780092125343DB000DE00B2AD2DDB3F90010D7
:10FF88004910CDE7302B22DDD2115343DB0048BFA7
:10FF98000733DB10D7F888505B442DB1D7F88C5065
:10FFA800E5B1D7F88450CDB9B1EBA31F16DABA6F13
:10FFB800CBEB811342F828304FEA811BD7F89C30ED
:10FFC80078694C37C3F800B0BD46BDE8F08F53439D
:10FFD80093FBF6F39A1206FB02F3CBE7BD6F9B4641
:10FFE80045F8282008F10108A9E74FF0000BE5E7DC
:08FFF8002DE9F04FE9B09A4633
:020000021000EC
:10000000436814AFC7F8AC308368C7F8B810C7F8B6
:10001000CC300F23C7F8D83000230168D7F8789187
:10002000C7F8C4108968B9F1010FC7F8B410D7F840
:10003000C41004464E688969C7E93933F966016A14
:10004000A7F8D430C7F8C810416AC7F8DC30C7F841
:10005000C010A7F8D6300CDDD7F8B81049B19B46D0
:10006000C1694A43C7F8A820D7F8C420D2695A45C5
:1000700003DA4FF0FF3301F0F0BDD7F8C430D7F802
:10008000A8105B6A03FA0BF38B4202D00BF1010B51
:10009000EDE7012303FA0BF23A6604F1EC023A654C
:1000A000D7F8AC20396D724301EB8201C7F89C1080
:1000B000D7F8AC1002EB81223A6139693A6D02EB54
:1000C0008102C7F8B020D7F8B410D7F8AC204A4363
:1000D0007A679A40796FBA65D7F8B02002EB41028F
:1000E0007A64D7F8B02002EB81027A6302EB410216
:1000F0003A63D7F87C21002A00F03282104602F0E1
:1001000069F8F863D7F87C012BF081FF054600F110
:1001100004084FEAE80840F2FB439945A8BF994616
:10012000A9EB0803A26AC7F88830E16AD7F8A830BB
:10013000C7F8BC905343002900F01782501C00F010
:100140002F82D7F8C410096803EB2113C91093FB61
:10015000F1F3C7F890309B11C7F88430CBF103035B
:100160007B652823D7F8CC104B434FF4C871143368
:10017000BB62B86A41FA0BF3323B4343D7F8BC0089
:100180004143786D0141C91A501CF96705D0D21A54
:1001900091420B46A8BF1346FB67D7F87C3153B991
:1001A0005146D7F8BC2007F1EC002CF050FC07F1C9
:1001B000EC03C7F87C31D7F89030002B25DD636B5A
:1001C0001BB3D4F8C830D7F8902005F1FF3CC3EB3F
:1001D0004209DCF1000343EB0C034FEAA9195B0071
:1001E0009945B8BF9946D7F888309945A8BF994630
:1001F0004B450ADD08EB09031946D7F87C01C7F81F
:10020000BC302CF0CCFCC7F88890D7F8BC30D7F8BD
:10021000C020DB00C7F88030D7F8C430D7F8B8006A
:10022000DB689342A8BF1346C7F8A430D7F8A830BC
:10023000D7F8AC20F318C7F8A0305343D4F8D8202F
:100240009B00C7F88C20D7F8A8200733A2EB060A3A
:10025000D7F8CC2023F0070302FB0AFAADEB030D1D
:1002600014ABC7F89830E3699AFBF3FA5146C7F824
:1002700094302BF097FED7F8CC30814606FB03F183
:10028000D7F8943091FBF3F1D7F8B83003EB4A007C
:100290002BF088FE012DD7F88C20C4F8D80040F050
:1002A00089818145B8BF81469145B8BF9146B9FA69
:1002B00089F10F22D7F87C0149092CF0F3FBB9F141
:1002C000000F40F07781D7F89030002B1BDDD7F876
:1002D000BC2008F101039342BCBF08F10203C7F838
:1002E000BC30D7F8BC30D7F8BC10DB00D7F87C01A5
:1002F000C7F880302CF053FCD7F8BC30C7F88430F6
:100300000223C7F88830D7F8BC30D7F87C01DD006D
:100310002BF07DFED7F87C31D7F87C215B69281A59
:100320000344536101233B67D7F8A03004F1B808B8
:100330004FEA8309D7F8983003EB86010026D7F8F7
:10034000C43003F1100A0023CDE90283CDF804A0E4
:10035000E36908F104080093D7F8B800C7F89410CF
:1003600000EB4600D7E92A232CF097F8D7F8AC30F9
:10037000D7F894100136B3424944E4DC236C1BB136
:10038000D7F88830032B08DC0C23D7F8CC20534354
:10039000D7F88820934280F20F813B6FD7F8C820AE
:1003A000134340F00981626922B9A369042BD4BFC9
:1003B00000230123626E2046FA62D7F88820CDE937
:1003C000053207F58E73049307F1D403039307F105
:1003D000D8030293FB6A0193D7F8A8300093D7F8AB
:1003E000AC30D7E926122BF0A5FEB7F9D43038622D
:1003F000FB60D7F8D8307B61002840F01281D7F835
:10040000C830002B00F0F780A369002B00F3D680E2
:100410000023C7F8B830BBF1000F00F04081D7F8D7
:100420007C012BF0F4FDD7F880300230984280F246
:100430003C81D7F8B830002B00F03F813B6EC7F805
:1004400094300023FB64D7E92A2353439B000733EE
:1004500023F00703ADEB030D7B6F0DF1500A9B00FA
:10046000073323F00703ADEB030D14ABC7F8A0303F
:10047000BB6DD7F8B420073323F00703ADEB030DB2
:1004800014ABC7F88C30D7F8CC305343D7F894204E
:10049000FB655B003B64073323F007031AB1A269D5
:1004A000072A00F30E81ADEB030D14ABBB670023ED
:1004B000FB61A36C0493E369CDE902B3D7F8AC30D8
:1004C0000193D7F8CC300093D7F8C4005346D7E94E
:1004D00025122BF0A4FDD7F8AC30022B06D1D7F8AB
:1004E000CC30012B04BF0023C7F8E430A36C514685
:1004F000CDE901B3D7F8CC300093D7E92823D7F85A
:10050000C4002AF09DFD236C002B40F03A81D7F8FF
:10051000CC300193D7F88C300093D7F8A030D7F8BF
:10052000C020D7F8A410D7F8C40003F063FF3B6CD9
:100530000021073323F00703ADEB030D14ABBB66BB
:10054000D7F8C030B86E5B001A467B623DF0C2F847
:10055000D7F8C830002B00F0198100237B66BBE17F
:100560001D46D7F87C81FB63D5E5012DC8BF5B191B
:10057000511C15D0D7F8C410096803EB8103C900DA
:1005800093FBF1F3216B002918BF013BD7F8BC1096
:100590008B42A8BF0B46022BB8BF0223C7F8BC3062
:1005A000D7F8BC30A3EB0803C7F884300023C7F8A2
:1005B0009030D3E50023B6E60023FBE6236C002B46
:1005C0007FF426AFD7F884300E2B61DD002307F1CE
:1005D000E802CDE9013207F1E4030093D7F8AC203B
:1005E000D7F8A010D7F8980007F1D603FFF768F9FD
:1005F000C7F8B8000FE7D7F880300F359D4208DB09
:10060000A369002B7FF704AF236C002B7FF400AFAE
:10061000DCE70122D7F8C810D7F87C012CF042FAA9
:10062000EEE70122D7F87C0111462CF03BFA7B69FA
:1006300006225D1CB5FA85F6C6F11B084146D7F8BF
:100640007C012CF08AFA102101FA08F1D7F87C011C
:10065000C6F11F02691A2CF04AFA0322D7F81C11BE
:10066000D7F87C012CF043FA0223474AF96AD7F8FD
:100670007C012CF023FAA369002B7FF7C9AE236C11
:10068000002B7FF4C5AED7F8C830002B9AD19DE778
:10069000D4F8B430632BD4BF0023012397E70123A0
:1006A000C7F8B8B0C7F894B0CCE60123FB640023C8
:1006B000C7F8B830C7F89430C5E6D7F8B830FB644F
:1006C000F8E7ADEB030D14ABBB67A36C00210493FB
:1006D000E369CDE902B3D7F8AC300193D7F8CC3059
:1006E0000093D7F898205346D7F8C4002BF097FC16
:1006F000A36C5146CDE901B3D7F8CC300093D7E9CC
:100700002823D7F8C4002AF09BFCD7F8CC300193FB
:10071000BB6F0093D7F8A030D7F8C020D7F8A4104B
:10072000D7F8C40003F066FE00234BF30502520223
:1007300092B2F96D8B4201DB0123B9E6B96FB86F54
:1007400031F81310114420F813100133F1E7D7F8F2
:10075000A020D7F8A01052F82320096831FB00F13F
:1007600049008A42A8BF0A46012AB8BF0122D7F829
:10077000A01041F823200133D7F8C0209342E6DBD4
:10078000C5E602230320F7E77A3E0500D4F8E430FB
:100790007B66002B00F02182236C002B40F01D8231
:1007A000E36DD7F8C800022BB8BF0223C7F89C300E
:1007B0005B00D7F89C20BB64FB6E8646BB6180461D
:1007C00003EB420381460246BB60D7F89C30C3F17D
:1007D00001018BB27B60D7F8CC309845C0F2B9816B
:1007E0000621D7F89C3000B292FBF0F2581ED7F8E1
:1007F000CC3001FB0EF15843D7F89C3012B203FB0A
:100800000000584391FBF0F1491020296FF01F00C0
:10081000A8BF20218142B8BF0146FB6ED7F89C00DB
:1008200002F1CD0533F91060002006EBD676761084
:10083000BB6933F902CFB445BB61C0F2BC814FF054
:10084000000CD7F8B4607B6E00FB115003EB46033D
:1008500066461FFA81F980B2BB637B6E33F916805E
:10086000D7F8CC30022B05D1BB6B33F916E0F0453D
:10087000B8BFF046B8F1000FD4BFC0EB080EC0F10E
:10088000000E1FFA8EF80FFA8EFEBEF5807FC2BFF3
:10089000BB6EA8F5807823F81680D7F89C3006F157
:1008A0000106C8BF0CF1010C4844B34280B2D4D158
:1008B000BCF1020F0BDD02F2CD15002D40F37D815E
:1008C0000021BA6CB86E3CF005FF00210D4689018D
:1008D0000BB2CD357B662BB2256CBB64002D40F08E
:1008E000A581D7F89430002B00F07A814BF30500F6
:1008F0004002D7F88C30D7F8B420D7F8C81003EBF3
:10090000420E0023C54AD7F8C060B142C0F26B81E5
:10091000D7F8C800B4F8E820311A93FBF1F3C049C6
:100920009B1A1BB28B42B8BF0B46B3F5406FA8BFF2
:100930004FF44063BB63B96B40F28F2313FB01F3A9
:1009400002EBE333A4F8E830FB692BB93A6CD7F833
:100950008C10B86F3CF097FEBBF1000F00F0AC803C
:10096000D7F87C012BF053FBD7F880300230984247
:1009700080F29280D7F8B830002B40F08D80A369C8
:10098000042B40F38980D7F8C8301D4340F08480A1
:100990003B6D3A6933F92220D7F8CC30012B40F077
:1009A0005781A7F81C2107F58E72D7F8C01099421D
:1009B00000F33F81D7F8C03007F1D002981E7B6A60
:1009C00080331344363B002880F26A8100231846A6
:1009D0001E46D7F8C02007F58E7E02F1FF3CD7F8FF
:1009E0008C2002EB460802226245C0F26881D7F8EB
:1009F000B42001301644D7F8CC208242EFDCD7F87F
:100A0000C020D7F8CC10033A4A4393FBF2F3B3F576
:100A1000806F41DDA36C0493E369CDE902B3D7F89D
:100A2000AC3000910193D7F898205346396ED7F82F
:100A3000C4002BF0F4FAA36C5146CDE901B3D7F80A
:100A4000CC300093D7E92823D7F8C4002AF0F8FA6D
:100A5000D7F8CC300193D7F88C300093D7F8A0307A
:100A6000D7F8C020D7F8A410D7F8C40003F0C2FC10
:100A7000BA6F4BF305035B029BB2023AF96D8D42EC
:100A8000C0F22E8140F6CD43A7F8D6303B6EC7F8B2
:100A900094300123C7F8B830D7F87C012BF0B7FAAF
:100AA000D7F880300230984206DA0322D7F8B8101F
:100AB000D7F87C012BF0F6FFD7F8A820D7F8CC3078
:100AC000514653435B00073323F00703ADEB030D9F
:100AD00014ABC7F89C303B6E0293D7F8CC3001932F
:100AE000D7F8A4300093D7E92723D7F8C4002AF019
:100AF0002EFBD7F8B430D7F884209B003B65073332
:100B000023F00703ADEB030D14ABC7F89830D7F80B
:100B1000CC30C3EB03139342D7F8C83000F36185A0
:100B2000002B00F0E380D7F8E810002940F06B8537
:100B3000D7F884300E2B00F3DE80D7F8C030D7F81A
:100B4000980023EAE37292003CF0C4FDD7F8B86045
:100B500014E17B6E7D6803EB4903FE6EBB63B96BEA
:100B6000304B31F902CB9C45B96322DBBCF5807F69
:100B70006146A8BF4FF48071BCF1000F00DD491041
:100B8000B6F9023036F902CBA3EB0C0C11FB0CF3D7
:100B90001A44BB6811FB05F1B34205F1020560443C
:100BA0008E44ADB2DBD1D7F8B43008F101089944D6
:100BB00011E61D49E4E701303AE6BA6EB86C10441C
:100BC00032F9023BFF2BD2BF0023A3F580731BB287
:100BD000904222F8023CF3D179E6D7F8C830BDE460
:100BE000D7F8940085E6D7F88C60A2F5806236F9D4
:100BF00011C0D7F8CC60ACEB000C6245B8BF6246C0
:100C0000022E12B207D13EF911C0ACEB000C6245C6
:100C1000B8BF624612B21344013174E600D8FFFF38
:100C200000FAFFFF01F8FFFF00F8FFFF0023BB639E
:100C30008AE6D7F8B010B2F9000031F91310A0F528
:100C400080608142B8BF0146013322F8021FACE642
:100C5000D7E92C3103EB410033F9113007F58E71E0
:100C60009342B8BF13460122A7F81C31D7F8C03011
:100C700093427FF79FAED7F8B03030F912E033F9E6
:100C800012C07346E645B8BF6346B1F90060013251
:100C9000A6F58066B342B8BF334621F8023FE5E7C8
:100CA000B3F9002033F9021CA2F2FF368E42C4BF12
:100CB000A2F5806211B223F8021D013883E63EF9E5
:100CC000121038F9129021EAE171B9F1000FACBFAE
:100CD000C1EB0901494201320029A8BF5B1883E634
:100CE00032F8021F013519441180C7E6A369012BB0
:100CF0000EDCD7F8C810D7F8C030994280F2808453
:100D0000D7F89830D7F8B82043F821200131F2E71E
:100D1000236C002BEDD1D7F8E4300593B7F9D6302A
:100D2000CDE903B3D7F8A8300293D7F89C300193EC
:100D30004FF4A063D7F8842093FBF2F3032BB8BFE2
:100D4000032302330093D7F89830D7F8B820D7F8A8
:100D5000A410D7F8C400FEF70DFC0646D7F8A4305F
:100D6000D7F8982003F18043013B02EB8303D7F8C7
:100D7000A420D7F8C0108A42C0F22B843B6C40F606
:100D8000FE7E073323F00703ADEB030D14AB3B648A
:100D900000234FF400589C46D7F8C8209918D7F87C
:100DA0008C2002EB4101D7F8B02002EB430A3A6BEA
:100DB00002EB4309D7F8C820D7F8C0008242C0F23E
:100DC0002584D7F8B4200CF1010C1344D7F8CC20BB
:100DD0006245E1DC236C0C93A36B0B93A369032B9B
:100DE000D4BF002301230A9304F154030993E36859
:100DF0000893D7F888300592CDE906B3D7F87C314F
:100E0000024604933B6C0393D7F880300293D7F8E3
:100E1000B0300193D7F88C300093D7F8A430D7E9DD
:100E2000310103F071F9D7F87C31D7F87C015B68A8
:100E30004FEAC3092BF0EBF8D7F8B830002B14BFFA
:100E400002220422BBF1000F00F0F483451C15447C
:100E5000A94534BF002501254FF0000AD7F8B83066
:100E60005146002B14BF04230523D7F8C880A9EBF3
:100E700005097B62D7F8C030434500F3DD83ADB18F
:100E8000B04BD7F8B82003EBCB03534403EB8201FC
:100E900013F9222091F902309A4200F0EA830122EC
:100EA0003146D7F87C012BF0FDFD3546D7F8B83038
:100EB000D7F8C82005EB4305D7F8C8309E00D7F80F
:100EC000983003EB82019F4B03EBCB0303EB45030D
:100ED000D7F8C000904200F3CE83D7F87C012BF006
:100EE00096F8D7F88030033098420DDA236C002B47
:100EF00000F0C7830023636602210523924AD7F8D6
:100F00007C0121652BF0DAFD3B6D256C073323F066
:100F10000703ADEB030D14AB3B66BB6ECDE90C5381
:100F200007F58E730B93D7F88430CDE909B3FB6EC8
:100F30000893636B0793E36A0693D7F8B830059379
:100F4000D7F8C4301B6B0493E36B03933B6E02939F
:100F5000D7F8CC300193D7F8C0300093D7F8C83019
:100F6000D7F8B420B96FD7F88C00FEF7E1FD7862AE
:100F70005DB1D7F884301A2BDBBF0323D7F8842068
:100F8000082392FBF3F33A6E13603B6D5A46073326
:100F900023F00703ADEB030D14ABC7F88430D7F88B
:100FA0008410D7F8CC30D7F8C4002AF0DBFFD7F88C
:100FB0008030D7F87C01DB00BB6601F00BF93B6E9B
:100FC000D7F8C8203344BB67FB6E914603EB42035E
:100FD000C7F8803000230626C7F8A400C7F8883079
:100FE000D7F8C0309945C0F28B83D7F8CC30022BAC
:100FF00058D1BBF1000F3AD0D7F8C430D7F8A820A9
:101000009E69D7F89C30354603EB4203BB6701234A
:1010100006F11A0AC7F88030B5F9001035F902CF89
:1010200001FA0BF10CFA0BFC6145C0F2C583AA452D
:10103000F2D1BBF1010F14BF0D20052045F682212E
:1010400033FB01F3B6F91A100BF10105A940D7F8EB
:10105000802032FB01F252005B00084433FB00F3B6
:10106000B2EB430FB4BF01230023C7F8DC304FF4C9
:101070007A70FB6F354A93FBF0F0D4F8E0303449D6
:10108000009300B2152329F06AFFD7F8C8309842C0
:10109000B8BF1846D7F8C0309842D4BFC4F8E000B3
:1010A000C4F8E030D7F8A430D7F8881003F12F0245
:1010B000BB6E5B1A9A4280F2D784D7F8C830002BF7
:1010C00003DC236C002B00F0A18300234FF0050903
:1010D000A4F8DC30072349461E4AD7F87C012BF0E0
:1010E000EDFCD7F87C0101F075F8C7F8A400D7F83B
:1010F0009030002B40F33581D7F8C4307A6DDB692E
:10110000666BA3EB0B03C7F88C3040F2FB43134133
:10111000D7F8BC209A42A8BF1A46D7F8C830C7F8FB
:101120008020002B40F0A484D7F89030BA6AA3EB5B
:10113000C2038EB1D4F8D020D7F88C100A411344E2
:101140000AE000BFDA3D05007D3E0500CA13050038
:10115000F4130500813E0500D7F81C21E16DFA6605
:10116000D4F8E420D7F8CC00C7F8BC20D7F8C420C6
:10117000B7F9D6E09268D4F84080BA67D7F8C420AF
:10118000D2F818C0BA6F002908BF11463CF91120E7
:1011900002284FEA410502FA0BF240F0AE84D4F87F
:1011A000E0A08A45B8BF4FEA4A058A45A8BF8A46EB
:1011B0003CF905503CF91A1005FA0BF52A4415B212
:1011C00001FA0BF1A1EB0A0146F2666A1AFB01FA79
:1011D0009AFBF5FA33FB0AFAB4F9DC50C900B5F50D
:1011E000807FA8BF4FF480751A3D15FB01F14FEACF
:1011F0004A0509128D42D4BFA3EB050AA3EB010AED
:101200001321F86E01FA0BF1451A6FF43471D7F817
:10121000BC005544714435FB01F105EB810178B107
:10122000B8F1000F0CD1D200B86C10FB02F201EB48
:10123000A2220029B8BF033189109142B8BF1146DC
:10124000BA6F02F1004002383CF91020D7F8CC0008
:1012500002FA0BF24243786AD20012FB00F28810C5
:1012600092129042B8BF1046D7F8BC208142A8BF66
:101270000146002A00F04C84B8F1000F07D036B1C7
:10128000C91A45F2C35231FB02F103EB4101D7F811
:10129000A4605B008B42D4BFF6187618D7F888504C
:1012A000D7F8A4301D443F35AD1102353B6F002BFC
:1012B00040F05F8406F120039B119D42B8BF1D469C
:1012C000D7F880309D42A8BF1D46D7F890304FEA2E
:1012D0008518F61A40F2C933D4F8D400984200F3C6
:1012E0004E84431C1530C4F8D43000042CF0B3F9FC
:1012F00000B2636B4BB3D7F89030D4F8C820A8EB9A
:1013000003031344D7F88C20D4F8CC109640D4F8BB
:10131000D020002BA6EB0206A6EB010636FB00F65A
:1013200001EB4601C4F8CC10C1F10001C4F8C8308B
:10133000C4F8D01009DA396F0022002940F0228465
:101340005B429B111D44C4F8C820D7F88030D7F801
:101350007C01AB42A8BF2B461946C7F8BC302BF026
:101360001EFC3B6DD7F87C01073323F00703ADEB80
:10137000030D14AEADEB030D0DF15008ADEB030DF5
:10138000D7F8BC300DF1500ADB00C7F8A43000F0EC
:1013900021FFD7F8BC30C0EB8310D7F8B830013844
:1013A000002B00F0F283BBF1010F40F3EE830BF151
:1013B0000203B0EBC30FACBF01250025ED00236C89
:1013C000401B002B40F0E383D7F8C030013B0E9365
:1013D000E36D0D9301230C93D7F87C31CDE90AB36B
:1013E000D7F8CC30CDE90686CDE908A307F1E003B4
:1013F000CDE9040307F1DC03039304F1E003CDE935
:101400000193D7F884300093D7F8C0203B6ED7E91A
:10141000310103F083F8E26D8146002A00F0B983C0
:10142000531E8342B8BF034601329342A8BF1346FE
:10143000E365D7F8CC300393D7F87C31CDE901636D
:101440003B6C0093D7E93101D7F8B030D7F8C02012
:101450002DF0C2F8FB6D0120073323F00703ADEB3D
:10146000030DD7F8CC3014AA022B05BFD7F89C3057
:10147000D7F8A810002303EB4103616C1291A16C13
:101480001191A169CDF834B0109104F14C01CDE96E
:101490000E91D7F87C110C91D7F8E0100B91D7F88A
:1014A000BC10C5EB81110A91D7F898100991D4F8B6
:1014B000E0100891D7F8DC100791216D0691D7F85C
:1014C0009410CDE90481D7F8A010CDE90221019351
:1014D000D7F89C300093D7F8C030D7E9311229F003
:1014E0008FFF4DB10122616FD7F87C019142CCBFD3
:1014F000002101212BF0FBFAD7F87C012AF087FDAF
:10150000D7F8CC30C04D0593D7F87C310493D7F889
:10151000A4300196181ACDE902A03B6C0093D7F8CD
:10152000B030D7E93101D7F8C0202DF0AAF800215A
:10153000BA6D386B3CF0CEF8002318463A6C02EBDB
:10154000430C3A6B02EB4306D7F8C820D7F8C0101B
:101550008A42C0F22083D7F8B42001301344D7F870
:10156000CC208242EADC3B6F002B40F02B837B696E
:10157000A366FB68A4F86C30FB6A2367D7F8AC302D
:10158000022B0ED1D7F8CC30012B0AD1D7F8B430CA
:10159000D7F8B010D7F8B4005A0001EB40003CF087
:1015A00072F8D7F8B830002B00F010837B6C9A1ECD
:1015B0000023796F994240F31483D7F8B01032F9C1
:1015C000020F31F9131001338142A8BF0146118087
:1015D000EFE71968D7F8980040F822100132FFF7BA
:1015E000C8BB002B7FF49FAA1946FFF784BBD7F82E
:1015F000981041F823200133D7F8C0108B42F6DB56
:101600000026FFF7BBBB00230122F5E731F9025B9F
:101610003AF91200281A00F2FF70704507D839F81D
:10162000120010FB08F0A5EBE03521F8025C013256
:10163000FFF7C2BB5D460FE413189945D7F8983001
:1016400014D353F82830D7F87C0159402BF02AFAEC
:10165000D7F87C012AF0DBFCD7F8983053F8281033
:101660004AEA010A7A6A08F1010803E443F82810FB
:10167000F8E700251AE408680132185641F8040B0F
:1016800026E4D7F8C830A1694BB100293FF435AC46
:10169000D7F8B830002B7FF42FAC03212DE4D7F816
:1016A000943043BB022926DD0A23D7F8CC205343CC
:1016B000D7F8882093423FF71FAC3B6E04F15802E5
:1016C0000593D7F8CC300493D7F8A43003933B6A42
:1016D000003B18BF0123029304F16403019304F15A
:1016E00060030093D7F89C10236DD7F8C40029F04D
:1016F00091FD014601E400293FF4FFABFFF7FCBB7D
:10170000D7F8802000251146B2F90230B2F9002046
:10171000A8469B1AD7F8CC200231534303FA0BF3A7
:10172000302B9A46B8BF4FF0300ADB009A45A8BF6D
:101730009A46D7F88820BB6EC7F86CA0A3EB020AC4
:101740003246C7F88010D7F8A43003EBC2035345E4
:1017500005DAD7F8843053F82930434510DC1DB141
:10176000032EB8BF0326013ED7F8883009F10109DE
:101770004344C7F88830BB6F43F8048BBB672FE442
:10178000BB6FD7F87C011B68AB42D4BF002101219D
:101790003B622BF087F9D7F87C0100F01BFDFB6E54
:1017A000C7F8A400AAEB030A3B6AAB42D7DDFB6E85
:1017B000012298440135C6E7BA6FD7F89C0032F988
:1017C00011E030F911008EEAEE7980EAE078A9EBB9
:1017D000EE79D7F88020A8EBE0781FFA89F919FA9A
:1017E00088F8424400EB0E08B8F1000FA0EB0E00A1
:1017F000B8BFC8F100080028B8BF40428044C7F80D
:101800008020434401310FE400C0FFFFB7F9D63018
:10181000C7F8A430FB6FB3F57A4FC0F2D280B84B53
:10182000FA6F9A4200F3D080A2F57A439B124033BC
:101830001B010FFA83FAD7F8CC30022B40F08580D9
:10184000D7F8C430002699690D4601F11008B5F9A2
:10185000002035F9020F02FA0BF3801A00FA0BF29E
:10186000C7F88020D7F89C2002EB430ED7F8A820B9
:101870001344D7F89C2002EB4303002218469446F9
:10188000D7F88030634500F3A28006EBA242A8455A
:1018900016B2DCD14FF4805010FB06F040F3CF308D
:1018A0000028B8BF404280B2B0F5806F28BF4FF427
:1018B0008060D4F8E03000B2C7F880304FF0080CF8
:1018C00003461031D7F88020624500F3898010FB71
:1018D00000F0DFF83892002BB8BF5B42A9EB0000A4
:1018E0000FFA83F8FDF70EFE18FB08F8A9EB0808BD
:1018F00040F34F0605464046FDF704FE864203DCF2
:101900004046FDF7FFFD0646A5F5BF557D491E3D46
:10191000A6F5BF5645F38F054FF4C04313FB05F3FF
:10192000DB138B42ACBF0AEB03020AEB01021E3E43
:10193000B4F9DC3046F3CE06764240339E42A8BF6F
:101940001E460FFA82FAA4F8DC6000229446D7F80B
:10195000C010481E0025D7F8C010C1F1020685420C
:101960006EDBD7F8CC3001329342F3DC58439CFB5A
:10197000F0F3654803F58063B0EBA30F1FFA8AF21A
:101980004FEAA3016ADC40F60543994269DC06236D
:1019900091FBF3F189B2D7F8A43098117B6E9B10BC
:1019A00003EB4003D31A5B1A1BB280334FEA23299F
:1019B000B9F10A0FA8BF4FF00A0929EAE979FFF740
:1019C00089BB4FF4806A36E74FF4A06A33E73EF9EB
:1019D000029B30F9023B0CF1010C19FB03224FE78B
:1019E000B1F9002031F9026F02FA0BF5B61A06FAC6
:1019F0000BF2BA67D7F89C2002EB4508D7F8A8206D
:101A00001544D7F89C2002EB450216460022964664
:101A1000BD6F75450BDC9214002AB8BF524292B2DA
:101A20009A42A8BF1A460CF1010C13B24AE738F9E2
:101A3000029B36F9025B0EF1010E19FB0522E7E766
:101A4000D7F8C410D7F88C30896801FB025133F9FC
:101A50001110013501FB06CC023680E74FF47E41C0
:101A600099E74FF4007196E74FF00509FFF73FBB88
:101A7000D7F8CC30D7F8902003EBC3030433A2EBA4
:101A8000C30323EAE3732EB1D4F8D020D7F88C1027
:101A90000A411344D4F8B420632A61DC6022796DD2
:101AA0000A411344B7F9D6104FF4C870A1F580521B
:101AB00012FB00F2D7F8A40003EBA232D7F888306B
:101AC000D7F8A460034442F6CD403F339B118142D6
:101AD00003F102034BDDB2F5C87FACBFB61806F5C3
:101AE000C876D7F88850FA6B154405F26715AD1122
:101AF0009D42B8BF1D46FFF7D9BB9A46FFF780BB92
:101B00007F38010000FCFFFFFBF3FFFF190410000A
:101B100036B1C91A45F2C35231FB02F103EB410160
:101B200040F6CC4296453FF7B2ABFA6F40F6015013
:101B3000C2F5BB3202F58072B2F5FA4FA8BF4FF47E
:101B4000FA4222EAE27210FB02F2B86BD21310FBE7
:101B500002F2921231FB02F201EB4201FFF797BB56
:101B6000642A1FBF9022796D0A419B1A9AE7164496
:101B7000B7E74FF0800800260225FFF7ABBB212016
:101B8000FFF7B7BB1346FFF7DDBB002517E40123C2
:101B90001DE403464CE43CF91210B1F5804FA8BF98
:101BA0004FF48041A942B8BF294626F812100132ED
:101BB000CCE4D7F8B01021F813200133F96D8B4233
:101BC000F7DBD4E400234FF41042F7E7BA6D796CE9
:101BD000786B3BF058FDBA6DD7F8B010786C3BF0DD
:101BE00052FD00234FF4104219469B46D7F8B0002F
:101BF00000EB430E786BF04600EB430C786CE2464A
:101C000000EB4306B1460020D7F8C850A8422DDBB0
:101C1000D7F8C000D7F8B450A8422FDBD7F8AC00F3
:101C2000013188422B44E1DCFB6CD7F8B820D7F8AF
:101C30007C0113431CBF636F01336367D7F87C31AA
:101C4000DB69E3642AF0B9FFD7F87C31DB6A002B4B
:101C5000D7F8BC3018BF6FF00203C7F8BC30D7F814
:101C6000BC0007F5AA77BD46BDE8F08F28F802BB97
:101C700001302AF8022B29F8022BC5E72EF810B004
:101C80002CF8102026F810200130C3E70EB477B5E9
:101C900007AA52F8043B0446B3F57D6F01924ADA75
:101CA00040F6C3718B4216DC40F6AE718B4200F0F9
:101CB000BD802FDC40F6A6718B4200F0BF8040F65D
:101CC000AA718B4278D040F6A2718B4200F0B980A5
:101CD0006FF0040078E0A3F6C4730B2BF8D801A2D0
