:020000040100F9
:10000000F0830021B9C501019D450201A5C501018B
:10001000A5C50101A5C50101A5C50101000000009C
:1000200000000000000000000000000065C70101A2
:10003000A5C501010000000025C70101A5C50101FA
:1000400021C9010121C9010121C9010121C9010100
:1000500021C9010121C9010121C9010121C90101F0
:10006000194A020121C9010121C9010121C9010166
:10007000E549020121C9010121C9010121C901018B
:1000800021C90101FF49020121C9010121C9010161
:1000900021C9010121C9010121C9010121C90101B0
:1000A00021C9010121C9010121C9010121C90101A0
:1000B00021C9010121C901012DE9F00791E8F807E3
:1000C000B2E802105B1854EB0C04B2E802104D4188
:1000D00056EB0C06B2E802104F4158EB0C08B2E8A0
:1000E000021059EB01095AEB0C0A80E8F80780412D
:1000F0000130BDE8F00770472DE9F00791E8F807F7
:10010000B2E802105B1A74EB0C04B2E802108D41E5
:1001100076EB0C06B2E802108F4178EB0C08B2E8DF
:10012000021079EB01097AEB0C0A80E8F8078041AC
:100130004042BDE8F00770472DE9F007524290E8D1
:100140007800B1E880071740DB1918EA020854EB81
:10015000080419EA020955EB09051AEA020A56EBE6
:100160000A0678C090E87800B1E8800717407B4124
:1001700018EA020854EB080419EA020955EB0905CC
:100180001AEA020A56EB0A0678C080410130BDE83F
:10019000F00770472DE9F007524290E87800B1E887
:1001A00080071740DB1B18EA020874EB080419EA01
:1001B000020975EB09051AEA020A76EB0A0678C00D
:1001C00090E87800B1E880071740BB4118EA0208C0
:1001D00074EB080419EA020975EB09051AEA020A28
:1001E00076EB0A0678C080414042BDE8F0077047D0
:1001F0002DE9F00152424FF0040890E8300091E8F8
:10020000C000A31B1340E41AF618EB1B1340ED1AB1
:10021000FF1830C0C0C1B8F10108EED1BDE8F0014F
:10022000704700BF00B592E8DC072DE9DC07B1E8B4
:10023000805702B4A7FB02510A95A8FB020B0918CC
:100240000020E7FB03105BEB000B00204041E9FBC3
:1002500002B00B91A8FB0351401800214941EAFB71
:1002600002011BEB050B0025E7FB04B568410025E7
:10027000E7FB0605694100256D41E8FB0615CDF851
:1002800030B0A9FB03B689190026EAFB03167541B5
:1002900000267641ECFB035610EB0B005FF0000BE1
:1002A000E8FB040B51EB0B015FF0000BE9FB041BB7
:1002B00055EB0B055FF0000BEAFB045B56EB0B06FE
:1002C0005FF0000B5BEB0B0BECFB046B0D90ACFBDE
:1002D0000230059C2D180020EEFB02504641002004
:1002E000E9FB04605BEB000B00204041EAFB04B03B
:1002F0005B180021E7FB04314D410021E8FB04516C
:10030000069C4E410021E8FB04615BEB010B0021E0
:10031000E9FB04B1484100214941EAFB04010E9385
:10032000A7FB0432079CB6180022E7FB04625BEBD4
:10033000020B0022E8FB04B250410022E9FB040258
:10034000514100225241EAFB0412049CED180023A3
:10035000E9FB04535E410023EAFB0463089C5BEB6A
:10036000030B0023E7FB04B358410023E8FB04031D
:1003700059410023E9FB04135A4100235B41EAFB86
:1003800004230F955DF8049B99E80006DDF80080D2
:10039000A9FB08541BEB040B0024EAFB08B4DDF8AE
:1003A000108060410024ECFB080461410024EEFB56
:1003B000081462410024E9FB0824634100246441DD
:1003C000EAFB0834DDF8048076190025EEFB0865A9
:1003D0005BEB050B0025E9FB08B568410025EAFB4E
:1003E0000805DDF8148069410025ECFB08156A4119
:1003F0000025EEFB08256B410025E9FB08356C4123
:1004000000256D41EAFB08450F96DDF80880AEFB3C
:10041000087680190026E9FB080671410026EAFBF0
:100420000816DDF8188072410026ECFB082673419F
:100430000026EEFB083674410026E9FB08467541AC
:1004400000267641EAFB0856DDF80C801BEB070B13
:100450000027ECFB08B778410027EEFB080779413D
:100460000027E9FB08177A410027EAFB0827DDF897
:100470001C807B410027ECFB08377C410027EEFB0A
:1004800008477D410027E9FB08577E4100277F414F
:10049000EAFB086708B000BD2DE9F14F87B0FFF710
:1004A000C1FEDDF81C8008F1200888E8FF00FFBCD1
:1004B00087E87F08BDE8F08F00B591E84C57A2FBB4
:1004C00002410194A2FB034524190020E2FB0650DF
:1004D0006D417F41641802940021E2FB0801A3FBF7
:1004E000034B654103950024E3FB060440417F4133
:1004F000091900246441E2FB0914FF0750EB0B00CB
:1005000004900025E2FB0A455FF0000BE3FB081BAB
:1005100049415FEA370714EB0B045FF0000BE3FB84
:10052000094B55EB0B055FF0000B5BEB0B0BE2FB94
:100530000C5BFF0F0020E2FB0EB000225141E6FBF6
:10054000061205910021E6FB084164417F416D18C8
:100550000021E3FB0A515BEB010B0021E3FB0CB133
:10056000484100214941E3FB0E010023E6FB09530A
:100570001BEB030B0023E6FB0AB358410023E6FB09
:100580000C03594100235B41E6FB0E13FF07544166
:1005900006946D417F41A8FB08265541079500222E
:1005A000E8FB09B25BEB0B0B7F4180180022E8FBF4
:1005B0000A0251410022E8FB0C125A4100235B4120
:1005C000E8FB0E230024E9FB0E340025E9FB0A15A5
:1005D00052190025E9FB0C256B410025EAFB0C357F
:1005E0006C4100256D41EAFB0E45FF075BEB060BF6
:1005F0000026ECFB0E564041494152415B416441AB
:100600006D417641AEFB0EE848F100087F00A9FB82
:100610000979784151EB0901AAFB0A7A7A4153EB37
:100620000A03ACFB0C7C7C4155EB0C0556EB0E062B
:1006300048F1000700BD00BF2DE9F14F87B0FFF77B
:100640003BFFDDF81C8008F1200888E8FF00FFBCB4
:1006500087E87F08BDE8F08F30B44FF0000310F852
:10066000014B11F8015B013A84EA050443EA0403F3
:10067000F5D1A3F101034FEAD37030BC704700BF3E
:100680004FF0000310F8012B013943EA0203F9D1BE
:10069000A3F101034FEAD370704700BF30B411F8E3
:1006A000014B12F8015B6C4000F8014B013BF6D1A5
:1006B00030BC70472DE9F00791E8F807B2E8021066
:1006C0005B1854EB0C04B2E802104D4156EB0C06DB
:1006D000B2E802104F4158EB0C08B2E8021059EB97
:1006E00001095AEB0C0A8941B3F1FF3374F1FF346D
:1006F00075F1FF3576F1000677F1000778F1000813
:1007000079F101097AF1FF3A51F100015B184C418E
:100710004D4156F1000657F1000758F1000859EB1A
:10072000D1795AEB010A80E8F807BDE8F007704775
:100730002DE9F00791E8F807B2E802105B1A74EBB4
:100740000C04B2E802108D4176EB0C06B2E8021000
:100750008F4178EB0C08B2E8021079EB01097AEBD3
:100760000C0A89415B184C414D4156F1000657F186
:10077000000758F1000859EBD1795AEB010A80E8DB
:10078000F807BDE8F007704718EB040859EB0509B6
:100790005AEB060A5BEB070B5FF0000C4CF1000C08
:1007A00018EB050859EB06095AEB070A5BEB070B38
:1007B00050EB0C005FF0000C51EB0C0152EB0C0203
:1007C00063414CF1000CB8EB070879F100097AF1AC
:1007D000000A7BEB040BA841B141A241B3416CF18B
:1007E000000CBBEB050BB041B941AA41BB416CF118
:1007F000000C4CF001068CF0020718EB060859EBD0
:100800006C095AEB6C0A7BEB6C0B70EB6C0471EBB4
:100810006C0572EB670653EB6C076CEB6C0C18EB1A
:100820000C0059EB0C015AEB0C025BF1000354F184
:10083000000455F1000556EBDC7657EB0C077047CA
:100840002DE9F14F87B0FFF7EDFCDDF81080DDF802
:100850001490DDF818A0FFF797FFBDE8000FFFF731
:1008600093FF03B05DF8048B88E8FF00BDE8F08FCC
:100870002DE9F14F87B0FFF71FFEDDF81080DDF89E
:100880001490DDF818A0FFF77FFFBDE8000FFFF719
:100890007BFF03B05DF8048B88E8FF00BDE8F08FB4
:1008A000084B1B78002B4FF00003836018BF022217
:1008B000036008BF0122044B4360FF23C27103722F
:1008C000704700BF8008002148010800064A074B16
:1008D0009B7802604FF42672C37100238280082245
:1008E00003728271704700BFDFAE010180080021F2
:1008F000064A074BDB7802604FF44272C371002353
:100900008280082203728271704700BF45AD0101E9
:1009100080080021064A074B1B7902604FF4B87229
:10092000C371FF238280082203728271704700BF67
:100930000BA90101800800212DE9F341C41D002805
:10094000064624F007040CBF0020204600F0C8FD36
:10095000071E04DA6FF00B0002B0BDE8F0810EB99B
:10096000FC42F7D4354D297AE879AB7A03316A7ABB
:10097000033016F040FC0028ECDB3C44A978EB780F
:10098000002E04F10304194424F0030400FB01F1D8
:100990000CBF0020204600F02DFF20440EB9002897
:1009A000D8DB2B790446B3B1697C19446B791944BF
:1009B000FF29CFDC0330002EAA89C9B220F003043E
:1009C0000CBF0020204600F085FF0028C2DB044455
:1009D0000EB9002CBEDB012000F078FDC8B1E97A29
:1009E000B9B195F828300734002B24F0070415BF5F
:1009F000402325234FF481722822002E14BF204665
:100A0000002006F079FC0028A4DB04440EB9002C79
:100A1000A0DBAB7BDBB12B7993B10734002EA97B34
:100A200024F007040CBF002020460CF0F5FE00283F
:100A300090DB04445EB9002C09DA8BE780080021C2
:100A4000012000F043FD10B1EB7A002BE5D1714B92
:100A50001B6893B1A97981B10334002EEA7B24F09D
:100A600003040CBF0020204698470028FFF672AF11
:100A7000044416B9002CFFF66DAF674B1B688BB1B1
:100A8000297C79B10334002E24F003040CBF00202C
:100A9000204698470028FFF65DAF044416B9002CA5
:100AA000FFF658AF5D4B1F68B7B1697CA1B1033445
:100AB000002E2B7D24F0030408BF0020009318BFF4
:100AC0002046EB7CAA7CB8470028FFF643AF0444DD
:100AD00016B9002CFFF63EAF072000F0F7FC98B1E6
:100AE000A97989B10334002EAA7D24F003040CBF38
:100AF0000020204600F0DCFF0028FFF62BAF044466
:100B000016B9002CFFF626AFB6FA86F795F8210045
:100B10007F09A0B10334EB7E297E24F00704194439
:100B20003B4644F00404C9B2224601F003F8002811
:100B3000FFF610AF044416B9002CFFF60BAF95F882
:100B40002210002957D00734002EAA8C24F0070861
:100B50000CBF0020404616F063FB041EFFF6FAAE01
:100B6000444416B9002CFFF6F5AE1EB1A98C4046E0
:100B700011F012FF297F00293FD095F82030002B7B
:100B80003BD0EA8B0734002E24F0070802F1240240
:100B90000CBF0020404692B216F042FB041EFFF646
:100BA000D9AE444416B9002CFFF6D4AE0334AB7E64
:100BB000297E24F0070495F8200019443B4644F0B0
:100BC0000404C9B2224600F0A7FF0028FFF6C2AE17
:100BD000044416B9002CFFF6BDAE36B1EA8B404690
:100BE000297F083292B211F0DDFEEB6A5BB176B17B
:100BF000EC620020B0E68846B7E7002EF5D0002270
:100C000011461046EFE7002EF3D12046A4E6283423
:100C1000FBD59FE658000021600000215C00002108
:100C20001FB572B6194B1D6BE5B9BFF34F8F18494D
:100C3000184BCA6802F4E0621343CB60BFF34F8FD6
:100C400000BFFDE7B4FBF6F4D3B20132002CF9D1BA
:100C500003F110026A4402F80C4C0A2233B901A8CD
:100C6000A847E2E7044600220A26EDE7013BDBB293
:100C700003F110040DEB0406B0FBF2F402FB1400C8
:100C8000303006F80C0C2046E8E700BF8008002151
:100C900000ED00E00400FA0513B5114C6846A37A94
:100CA0008DF80130637A8DF80030237AADF8043086
:100CB000E379ADF802300AF0ABFC18B1D92103207A
:100CC000FFF7AEFF207D0AF007FD08B1DC21F6E753
:100CD000E07C0AF0FBFC08B1DD21F0E702B010BDBA
:100CE0008008002138B5054600283ED014F0F8FFF2
:100CF00010B94FF0FF3038BD1AF0F7F9B0F5FA7FB0
:100D0000F7D81C4C1C482563002500F0B7FA2622B2
:100D10002946A01C84F83450257084F82850E562D8
:100D200015F066FB1B2240F20113E27140F21B3208
:100D300063800123228140F20232237162811F22EB
:100D4000A375F723A2814FF40272E383FB23E281B0
:100D500044F60112A3846282EFF3108472B600F0AD
:100D6000F9FE2CB962B62046C5E76FF01500C2E760
:100D70002846C0E780080021990C000138B51446C8
:100D8000002840F0B3805B4D95F83430032B00F021
:100D9000AA80B1B112B96FF0150038BD013914291C
:100DA00000F2A480DFE801F00B1C1F2F59627F3591
:100DB0006568793B414F54858896999C8E001378DD
:100DC000AB700020FFF7B8FD0028B7BF0123022356
:100DD0006FF00B0085F83430A8BF85F83430DCE7BD
:100DE0001378EB70EDE79378002BD4D0D378002BF9
:100DF000D1D013781A2BCED953781A2BCBD91368AC
:100E0000C5F80730DDE713786A799342C3D32B71B5
:100E1000D7E713782A799342BDD86B71D1E713785D
:100E20002A799342B7D86B74CBE71378002BB2D0F2
:100E30005378013BDBB2F82BADD8138892786B82E4
:100E40002D4B9A70BDE7107868750FF0E7FFB8E793
:100E50001378002B9FD0AB75B3E7012000F036FB71
:100E6000237808B1012B96D9EB72AAE71388AB81DE
:100E7000A7E71378AB71A4E7072000F027FB10B9B0
:100E80002378012B87D9072000F020FB10B12378AD
:100E9000002B80D02378EB7393E71378082B3FF671
:100EA0007AAF2B748DE71388FF2B3FF674AFAB73CB
:100EB00087E71378EB7584E713780E2B3FF66BAF5B
:100EC0002B767EE723680D4AEB61636853602389C4
:100ED000138176E713786B7673E71378EB7670E718
:100EE0001378AB766DE74FF0FF3056E76FF02C00CC
:100EF00053E700BF80080021920800219C080021D0
:100F0000F8B50D46064630B329B311F0070422D1D7
:100F1000124F97F83430012B02D16FF00B00F8BD5F
:100F2000032B02D14FF0FF30F9E700F0DBF8002887
:100F3000F8D02846FFF700FD0028EEDB0FF074FF25
:100F40003046F96A0AF084FCFFF7A6FE0323204628
:100F500087F83430E3E76FF01500E0E78008002100
:100F600010B5074C94F83430032B03D10AF08CFCF5
:100F70000BF0E8FC16F09CFA002084F8340010BD59
:100F80008008002150B1074B03F1140253F8041BF1
:100F9000934240F8041BF9D1002070476FF0150010
:100FA000704700BF787B0201074B10B593F83440BF
:100FB0003CB90AF0DFFB0320044900F07FFA204629
:100FC00010BD4FF0FF30FBE780080021150900013C
:100FD000074B10B593F834403CB90AF0DFFB022010
:100FE000044900F06BFA204610BD4FF0FF30FBE7DC
:100FF00080080021F108000108B50C4B93F834205B
:101000008AB993F828305BB10AF006FC0849012040
:1010100000F054FA0020074900F050FA002008BD03
:101020000AF0DEFBF2E74FF0FF30F8E7800800211E
:10103000A1080001CD080001054B10B593F834401C
:101040001CB917F0EBFA204610BD4FF0FF30FBE75C
:1010500080080021054B10B593F834401CB917F0F7
:10106000E0FA204610BD4FF0FF30FBE7800800217A
:10107000054B10B593F834401CB917F0D5FA20464B
:1010800010BD4FF0FF30FBE780080021054B10B585
:1010900093F834401CB917F0C9FA204610BD4FF040
:1010A000FF30FBE78008002108B5064B93F8343089
:1010B000032B03D009F006FC002008BD4FF0FF30E1
:1010C000FBE700BF8008002102680020014B1A6086
:1010D000704700BFB8080021014B1B68184700BFCC
:1010E000B8080021024B1868003818BF012070476B
:1010F000B8080021F7B504462D4E071D2C4837606F
:101100000BF040FC0228054606D12949204615F07F
:101110004AFA284603B0F0BD042842D13378092B9F
:101120000AD0252B1ED03146204615F0B6FAB0F570
:10113000817F2DD3722112E005213E2015F006FAA1
:101140000028F0D1F37801A93279684643EA0223F6
:10115000ADF8003015F02DFE0028CFD05321082027
:10116000FFF75EFD1A213E2015F0F0F90028DAD1D4
:101170007368694601A8C3F30F23ADF80430112347
:101180008DF8063015F02FFE0028B7D06521E6E770
:101190000028B3D0A178207815F0D8F90028B8D16C
:1011A000ACE70828B5D10249204615F034FAB0E77B
:1011B000BC080021074B4FF0FF3141F6FF72C3E935
:1011C000001205490022C1E900221F21C3E90212D1
:1011D000704700BF00000021C00900213F280CD843
:1011E00001380B4BC0F3421200F01F0053F82230BD
:1011F00023FA00F000F001007047FF2806D04038C5
:10120000044BC0F3421200F01F00EFE701207047CB
:1012100000000021C0090021074B01460068496811
:101220001A4603C240F48C221A6041F0107242F454
:10123000FF625A60704700BF000000210246024B67
:101240000068516803C37047C00900210246024B81
:101250000068516803C37047080000210138064B3D
:10126000C0F3421200F01F0003EB82039B6823FAD5
:1012700000F000F00100704700000021014B1860F1
:10128000704700BFC809002110B5FFF793FF16F0A3
:10129000E3FB034B04461B6803B19847204610BD8F
:1012A000C809002138B5274B0446D3F8A022D3F84B
:1012B000A412013106D1D3F8A8324FF6FF719BB2C8
:1012C0008B423DD0D3073BD51E4DD5F8A422D5F88F
:1012D000A832C4F80120A4F80530C3F3072363F053
:1012E0003F03A371D5F89032013323D0D5F894325F
:1012F00001331FD0D5F8983201331BD0D5F89C327A
:10130000013317D000200AF037FC98B9D5F89002C5
:10131000D5F89412D5F89822D5F89C32C4F8070075
:10132000C4F80B10C4F80F20C4F8133001230020B8
:10133000237038BD10220021E01D15F059F8F5E7A3
:101340000023F4E70000FF0170B5274D10220021B3
:101350000446D5F8A06215F04BF810220021A01821
:1013600015F046F8D5F8803201330BD1D5F8843228
:10137000013307D1D5F88832013303D1D5F88C3247
:1013800001330BD0D5F88002D5F88412D5F8882225
:10139000D5F88C3220616161A261E36100200AF01E
:1013A000EBFB08B9F3071CD40F4BD3F890220132A2
:1013B0000BD1D3F89422013207D1D3F8982201320D
:1013C00003D1D3F89C2201320BD0D3F89002D3F88A
:1013D0009412D3F89822D3F89C3220606160A26006
:1013E000E360002070BD00BF0000FF0170B50C88F5
:1013F000C27CA6B2C4F30E04931C058804F1140247
:101400001D44825AADB21A4443882A44013AB2FBC1
:10141000F5F202FB054292B29342044B8BBF33407C
:10142000B34313439BB20B8070BD00BF0080FFFF2E
:101430004A1E062A08B50346084604D84FF4D1715F
:101440001520FFF7EDFB094A914202D940F2A311A2
:10145000F6E711B903B1196008BD2BB11B68002272
:10146000C3E901211A1D1A600430F5E7FAFFFF7F76
:1014700010B5114B00EB41041A786389B3FBF2F30A
:1014800003FB0223013A1A44B2F5706F027928BFB8
:1014900000231A448378B2FBF3F0194403FB1020B5
:1014A000091AB1FBF3F003FB101313446FEA434333
:1014B0006FEA5343638110BDCC090021024B03EB5B
:1014C00080035960704700BFCC090021034B03EB38
:1014D00080035868003818BF01207047CC090021EC
:1014E0002DE9F04F10F0070A85B0054604D040F210
:1014F00061111720FFF794FB544F04464FF0010B86
:1015000007F14006B146B04657F8043B8DF80BA0F2
:101510003BB101A898479DF80A30082B01D9E82172
:10152000E7E79DF80B1081BB05B13160B94506F1C5
:101530000406E9D12DB30023DFF814E10F221E4683
:101540008EF8003058F82200013A60B190F804A0FB
:101550008178BAF1FF0F64D14FF000078E42077116
:101560003CBFCEB20123511CECD10BB18EF8006010
:101570000F2640F6FF6A58F82670002F63D1013E0F
:10158000F9D2601B05B0BDE8F08F9DF80AC04A1D76
:10159000BCF1020FE64604EB420438BF4FF0020EE6
:1015A00053000EF1FF300444CEF100002040BDF89E
:1015B00008406444CCF1000C013C04EA0C04B4F58E
:1015C000803F01D3F82194E775B1C31A3360997055
:1015D0001C8083F803B09DF80C201A71019A4FEA21
:1015E000124C1A81A3F806C004FB01049EE758F8C8
:1015F0002C90B9F1000F06D099F804B0D34504BF80
:1016000099F802904F440CF1FF3CBCF1000FEEDA68
:101610003944FF29A2D90BB18EF8006040F227119E
:1016200067E794460027F0E707EB410309F101095A
:101630003846A3F80AA0FFF71BFF5FFA89F1BB78D1
:101640008B42F1D89BE74FF00009F6E7D009002163
:10165000CC090021F8B54FF6FF7305460380184BFF
:1016600003EB8103586CB8B186780379B3FBF6F2CB
:1016700006FB1233DBB219460A1D00EB4202B2F937
:1016800002705488002F09DB0131B1FBF6F206FB32
:101690001211C9B28B42EFD10020F8BDFF29FBD057
:1016A000C4F30E03C4782B8024B94FF4D5711720EE
:1016B000FFF7B6FA5380BDE8F84015F07BBD00BFD8
:1016C000CC0900211D4B03EB810370B55C6C054612
:1016D00044B3030404D54FF4DC711720FFF7A0FADC
:1016E0000146204615F049FDFF28014604D020465A
:1016F000BDE8704015F05EBDA078B5FBF0F300FBCF
:101700001353DBB219460A1D04EB4206B6F9026018
:10171000002E09DB0131B1FBF0F200FB1211C9B25E
:101720008B42F0D1002070BDFF29FBD08B4204EB2F
:1017300042021CBF0023E3705580D8E7CC0900218A
:10174000094B03EB8103014610B55C6C204615F094
:1017500014FDFF28014604D02046BDE8104015F0D6
:1017600029BD002010BD00BFCC090021F8B5104BE9
:10177000074603EB810301465C6C204615F0FDFC37
:10178000FF28054611D0E688238953EA064606D08D
:101790000146204615F00EFD01463846B04720466A
:1017A0002946FFF765FE0020F8BD0520FCE700BFD5
:1017B000CC09002138B50E4B0446827903EB820335
:1017C000586C08B9052038BD8278E1799142F9D288
:1017D0004B1CE37100EB41035D89B3F90A30002B28
:1017E000F3DBA58015F0E6FC20600020EBE700BFEE
:1017F000CC09002170B5044610F003000E4603D05A
:101800004F211820FFF70CFAFFF712FE054624B10E
:10181000034831460460FFF70BFE284670BD00BF49
:10182000500A00212DE9F14FDFF870B01E4607463F
:101830000D46DBF8003090469DF828A09DF82C90CE
:101840001BB961211820FFF7EBF9524609214046E8
:1018500015F01AFB4A4684B20921304615F014FBF4
:1018600081B2DBF80000214415F05CFC386018B947
:10187000286001B0BDE8F08F044453464146092278
:101880002C60386815F0B9FA4B46092231462868B1
:1018900001B0BDE8F04F15F0B0BA00BF500A00210A
:1018A00070B50E46044615F002FB0546304615F0AD
:1018B000FEFA044B2A1821461868BDE8704015F05E
:1018C00055BC00BF500A0021014B186815F01EBC22
:1018D000500A00211F2AF8B5044613460ED892007C
:1018E000033222F00303B3F5803F2DD2184DACB183
:1018F000A00710D05F210920FFF792F9FF2B4FEAD4
:10190000420204D9FF339A42A8BF1A46E8E77C2A6C
:10191000B8BF7C22E4E729706C602B8122F00302BF
:1019200028230127120403FB01F06B680025120C29
:10193000EEB28E4200D3F8BD14B126181F705E605F
:10194000104401352833F3E74FF0FF30F3E700BFD1
:10195000540A0021144A002138B553681478C8B2DB
:10196000844203D8AB210920FFF75AF91846013108
:1019700028330578002DF2D00021817001241289CE
:101980008161051D44709208C16100F12001446825
:1019900021F8022B994245F8044B1444F8D1002356
:1019A0004361037038BD00BF540A00210A4B1B89F4
:1019B000B3F5FF7F4FEA930006D25A089B1A9BB2F9
:1019C000984238BF18467047B3F5EE6F01D8FF2232
:1019D000F4E740F27263F3E7540A00212DE9F8437B
:1019E0004B7880460C4602F0040602F0FB07D3B1A8
:1019F000DFB12E4BD4F804901D89B7BB0123AD088D
:101A00004A46211D637004F1280004F12003A761F8
:101A1000E76123F8025B984241F8042B2A44F8D18D
:101A20000023636101E0002FE3D0FF23A370002EA9
:101A300018BF0226A3191B7D032B03D1022F1CBF45
:101A40000136F6B2A31901221A7506F10C02002321
:101A500004EB860624F812307268A3704046C8F87A
:101A60000020A8F80430BDE8F8830021142261703A
:101A7000A01814F0BDFCB5F5FF7F0FD26B08ED1A6E
:101A8000ADB209EB0502C4F804902584A26063841A
:101A9000C4F80C90A5842261E384C6E7B5F5EE6F27
:101AA0004FF0FF03EBD940F27265EAE7540A0021D8
:101AB0002DE9F84305460C46F7200521914615F01F
:101AC000E3F9061E22DB1DB906FB04F0BDE8F8832E
:101AD00015F0030703D098211920FFF7A1F8DFF8CC
:101AE0003480C8F81050A5B2A8F81460BBB29D426B
:101AF000EAD9B8F814C04B46D8F810000522F721EF
:101B000007FB0C00013715F078F9EFE74FF0FF30D5
:101B1000DCE700BF680A002107B5CDE900230B46CA
:101B200003490246081D15F09DFC03B05DF804FB57
:101B3000800A002113B5064CCDE900230B4602466E
:101B400004F1080104F10C0015F08CFC02B010BD8A
:101B5000800A0021144B012200214FF0FF309A60CF
:101B6000C3F80012C3F80803C3F80015C3F804252E
:101B70009A60C3F808034FF48040C3F80015C3F817
:101B8000042503F5805341F6F8720849C3F8082587
:101B9000C1F88000BFF34F8FBFF36F8FC1F8800192
:101BA000C3F80825704700BF00E0004100E100E0F5
:101BB0008C463022064B00B50CF8032B8E4607CB23
:101BC000CEF80300CCF80410CCF808205DF804FB34
:101BD0009C0A002110B5154C10F074F90FF0CEFAE4
:101BE0000021636A608C9847237E9BB9104B628CFE
:101BF00093E803000BF09AFEE36A18880BF0C0FD2F
:101C0000636B94F8301094F831009847002384F8FF
:101C1000383010BD94E8070004F10C0383E8070096
:101C2000044904F1190017F011FFDFE7900A0021C1
:101C3000B80A0021B11B0001034B93F8383003B9F7
:101C40007047FFF7C7BF00BF900A002140F22B4149
:101C5000062008B5FEF7E4FF08B5094B93F83820D5
:101C6000022A07D1DA7A42F00102DA72BDE80840AE
:101C7000FFF7B0BF40F253212720FEF7D1FF00BF8E
:101C8000900A002138B5364D044695F828300BB13E
:101C9000C2071FD4012924D82B6C2046984700B3D3
:101CA00095F83000E8B995F82820E2B18CB995F89C
:101CB0004430D806C3F300142ED4EB6C23B30123B5
:101CC000AAB16A8F910713D5EB6BD878023818BF89
:101CD000012038BD6B8F1B07DCD5EB6BDB78022B4B
:101CE000D8D1012038BD002CE1D1204638BD6A8F03
:101CF000002AF6D16A6D107803EA10102043C0F173
:101D0000010000F0010038BDB5F85030B3FA83F39C
:101D10005B09002AEBD0D4E7E96B0B7803F00303EF
:101D2000032B02D1CB78022B18D0A86C15F051F9F7
:101D300048B9EB6B1B7803F00303032B06D195F82E
:101D400028200446B9E795F82820B6E709F0D6FE22
:101D500080F0010095F82820C4B2AEE70024ACE77B
:101D6000900A002170B5224C0646E56A636D95F82D
:101D7000A42094F85C00A3650AB1031DD8B2FF2823
:101D800095F87D1004D11EB995F87C308B4203D0B4
:101D90000FF032FD95F8A42022B3206E10F0ACF9BC
:101DA00094F82830216E003BA06D18BF012384F801
:101DB0008030D5E94223C4E91E230FF07DF946B9EE
:101DC00095F87D30033B012B94BF2820002010F0B4
:101DD000F9F995F87C10002010F058FA022384F8E5
:101DE000383070BDA06D10F087F90FF0C7F9E6E745
:101DF000900A00212DE9F0413B4C82B094F8383034
:101E0000E56A012B69D15FFA83F895F894300646AC
:101E10000F4673B1638F0021042043F0040385F85B
:101E200094106387636A984794F828300BB185F85B
:101E30009680E16B0B7803F00303032B34D04B78CF
:101E400073B3022385F89A3095F8A430DBB1E36AC6
:101E500093F87D1094F828300139003BC9B218BFBF
:101E60000123032984F88030D5E94223C4E91E23E5
:101E700094F85C2036D800201C4B009001205B5C5D
:101E80001B490FF0AFF8012F05D126B93146304676
:101E9000FFF7F8FEE0B102B0BDE8F041FFF79ABEEF
:101EA000012385F89A30CFE795F89A3063B9638FAC
:101EB000022043F002036387636A9847E16B0B7863
:101EC00003F00303032BBAD1032385F89A30BBE751
:101ED00002B0BDE8F041FFF745BF40F2A441272022
:101EE000FEF79EFEFFF7B2FE900A0021345B02016E
:101EF000F80A002170B5804C002282B0E56A8DF8A6
:101F0000052095F8A42094F85C300AB10433DBB2C4
:101F1000FF2B95F87C1004D118B995F87D308B42D1
:101F200002D0FF200FF068FC95F89A30032B00F2E6
:101F3000DE80DFE803F0021C817194F8C2306F4844
:101F4000ADF80630A5F86C3009F0B2FD002840F07D
:101F500098800DF105020DF10601A06C14F0CFFF81
:101F6000E06320B195F8E130002B00F0A280644BD3
:101F70001846E36395F89B200378D20003F0F3033F
:101F800002F00802134395F89C20920002F004022C
:101F9000134303F0EF0203F00303032B027002D19B
:101FA000C378022B11D0A06C15F013F848B9E06B80
:101FB000027802F00303032B07D009F09FFD0028ED
:101FC00070D1E06B027842F01002027095F8A330F5
:101FD00013B14378002B41D110F08EF80FF0CEF8FA
:101FE000E66B0AF0C3FD20B1337803F00303032B43
:101FF0005BD095F87D10012010F048F9E26B0123C9
:1020000040491088927884F8C430A4F8440084F8D9
:1020100038308A7002B070BD384809F049FD002898
:102020005BD0E06BC3781B2B14D1012105F11000AC
:102030000FF014FCE06B0DE0B5F86C300DF105020B
:102040000DF10601A06CADF8063014F058FFE06306
:10205000002847D0012384F8C3308BE7206E10F0AE
:102060004BF894F82860E16BB6FA86F6206ED5E955
:1020700040237609C4E91E2384F880600FF01CF821
:10208000AEE7638F4FF48070E16B43F48073626A54
:10209000638790470121E06B85F89510C3781B2B6F
:1020A000D8D1C3E7E06B02788FE7012011F0D4F8B4
:1020B0009FE79DF8053043B1BDF8061017F06DFCA1
:1020C0000123E06B84F8C33054E70380012183705F
:1020D000E06B17F067FBE06BEEE740F2FD21272095
:1020E000FEF79EFD40F2F3212720FEF799FD40F216
:1020F0000B312720FEF794FD900A0021CC0A002125
:10210000200B0021D40A00212DE9F04FB84C87B0F4
:10211000002294F83830E66A022B049240F01282D2
:10212000638C8846074613F0400106D1636A40205D
:102130009847638C43F040036384002F5CD096F88B
:10214000A430002B40F05C81D4F858A09AF80130FC
:1021500099B2A4F85010002940F06A810023E3648A
:102160009AF80050638C96F89B10C5F3800243F4F4
:1021700000739142638400F0F080D4F82C9099F8B9
:102180009A20FAB1022A00F0B781002194F8283091
:1021900089F89A1023B199F89630002B40F0A2816B
:1021A00099F89530002B40F07F8199F89B30D4F856
:1021B00058A0012B0CBF0023012389F89B30638CAE
:1021C0009AF8005096F89C10C5F3C00243F40063DF
:1021D0004FF000099142638400F0C78000250AF0A7
:1021E000C5FCF0B19AF8003003F00303032B18D1BB
:1021F000012011F031F814E096F8A420002A40F0F4
:10220000F38043F4806394F8CE206384013296F81F
:102210007D3084F8CE20033B012B40F2D480002592
:10222000A94696F8A33003B394F8283096F87C10AA
:10223000B3FA83F3F06901395B09C9B284F88030DD
:1022400041F64B53984294BF042000200329D6E95D
:102250004023C4E91E2300F27A810022654B0092DC
:10226000FB225B5C64490EF0BDFEB8F1000F08D1A3
:1022700094F8CE100120FFF705FD8046002800F0FD
:10228000DF804FF0010810F03BF8002D3BD1B9F191
:10229000000F09D094F82830002B40F09A80B4F851
:1022A00009300133A4F80930002F4BD0B4F80530C1
:1022B0000022013384F8CE20A4F805304F480BF0FB
:1022C0004DFA049830B114F001FFE16A0022027265
:1022D0000AF0A8FB35B1E16A00232B720C222846D4
:1022E0000AF06EFBB8F1000F32D1638C1B0607D4E5
:1022F000636A414680209847638C43F0800363847F
:1023000007B0BDE8F08FA16DE36C4D78002B00F0B5
:102310002081B4F850201846033213F0F3FF0DF17A
:102320000E0205A9A065D4F8C80014F0E5FE0598D2
:1023300014F0CCFE294601220546D4F8C80014F05A
:1023400092FEA4E7B4F807300133A4F80730B5E7EC
:10235000FFF740FC07B0BDE8F08F96F89C10C5F37E
:10236000C002B94691427FF439AF05F00305D4F8B5
:102370002CB0032D6AD143F480530120514600252F
:102380006384638F8BF8940043F001036387636A6F
:102390009847D4F858A09BF89C30013B18BF012304
:1023A0008BF89C309AF80130002B3FF418AFDBF823
:1023B00008310133CBF80831DBF80C3143F100036D
:1023C000CBF80C310BE70025012010F045FFA946A2
:1023D00027E7B4F80530B4F80710B6F898200B4397
:1023E00013433FF461AF5AE70EF046FF638C08E7F2
:1023F000900A0021345B0201F80A0021B80A00218A
:102400000EF000FF0EF0E2FED4F858A09AF801306A
:1024100000287FF49DAE002B61D09AF8002096F83A
:102420009C10C2F3C002914277D099B2A4F8501028
:10243000D4F8C80014F0EEFDD4F858A0E0648FE69C
:10244000FFF758FD002D3FF422AF5CE7002DA2D02E
:102450009AF80150002D9ED043F480539BF8A4506D
:1024600063840FF05FF9042894F8CC3006D1002D76
:1024700014BF1B221F22934228BF1346D4F858A032
:102480009AF801209A424ED8E56C002D3FF4A7AE91
:1024900094F8CD30002B53D0636A00212020002512
:1024A0009847D4F858A09AE6002589F8955009F085
:1024B0000FFB002852D0638F2946082043F0080301
:1024C0006387636A9847D9F800310133C9F800314E
:1024D000D9F8043143F10003C9F8043165E6A4F8E2
:1024E00050303BE6638F102089F8961043F01003BC
:1024F0006387636A984753E604A9A06C14F021FD32
:1025000088B3D9F800310133C9F80031D9F8043162
:1025100043F10003C9F8043137E6012384F8313070
:10252000FFF758FBECE694F830300120002543F02B
:10253000100384F8303010F08FFED4F858A04EE627
:102540003D4628E74FF4A3612720FEF769FBFFF71C
:102550007DFB40F295412720FEF762FB40F22541CA
:102560002720FEF75DFB40F20E412720FEF758FBC7
:102570000D4B0E4A70B50E4C1A6094F838301BB1F2
:10258000E1212720FEF74CFB03F0FF0206460D4633
:1025900022760BF0C3F9012104F1900017F002F943
:1025A0006665256670BD00BF64000021702A0001C9
:1025B000900A0021074A10B592F8383013B10C2464
:1025C000204610BD03F0FF0414760BF0A7F9204657
:1025D00010BD00BF900A0021024B012283F8CD20DC
:1025E000704700BF900A0021F0B585B0BF4C02AD26
:1025F00085E8030094F838100A98002940F0A0817B
:10260000002B18BF002A00F09B81B0FA80F1490925
:10261000002800F09581236404F12803606384F8A6
:10262000CD1084F8301084F8CE1084F8311084F87E
:10263000C41084F8C31061876184626295E8030066
:1026400083E80300E56A0FF03DF90EF097FD95F978
:1026500080000FF045FAA86B0FF032FD286A0FF0EA
:1026600045FA95F8B4000FF04BFA94F82860EA693F
:1026700041F64B53002E00F0CC809A4200F21181BB
:102680004D200FF035F801200FF09EFB732195F8D7
:102690007D2001200FF0BAFB954B18680FF016FD56
:1026A000D5E90523A264C4F8C83095F88B304BB93E
:1026B000D5F8843033B1B5F8CE10B5F898208A42F9
:1026C00000F01E81D5F81821D5F81C31894ED5F8B7
:1026D0001001D5F81411E76A0FC6D5F82031D5F8E6
:1026E0002421C4F8813097F89E30C6F80D20A3F15C
:1026F0002602012A40F29C8097F89F20262A00F0AB
:102700009780213B012B00F20381242A40F0DF80D7
:1027100094F82830002B00F0FE8097F8752097F889
:102720004E3197F87C6013405A0700F1DA8013F0BD
:10273000010240F0FE809B0700F1F38005F14407A1
:102740003146384617F0EEF9314616F09EFCB5F8E2
:102750005030024695F87D103846934228BF134604
:1027600084F8C23017F0ABF995F87D1095F8A47095
:102770000429B5F8586008BF032116F086FC0FB98C
:10278000043080B2B04228BF3046C6B284F8CC6074
:102790000AF0ECF910B12B2E38BF2B2694F8280044
:1027A00084F85C60002859D195F8A330DBB101238F
:1027B00084F88030D5E94023C4E91E2341F64B5309
:1027C000EA699A4298BF042095F87C30013BDBB25D
:1027D000032B00F2BA80484A0021D35CFB2200910F
:1027E00044490EF0FFFB0120FFF784FB0023B5F8FE
:1027F000980095F8B420A360C4E90033D5F88C3074
:1028000029886080218022710BB101221A6005B0F5
:10281000F0BD9A424AD84D200EF06AFF30460FF0C4
:10282000D3FA95F87C207D2100200FF0EFFA33E7F2
:1028300094F8283073BB97F8423297F87C60002BED
:102840003FF47CAFF21E012A4BD9DA1E012A48D987
:10285000012E48D0012B46D002266FE795F8A43010
:10286000A3B195F87D100120013984F88000C9B228
:10287000D5E942230329C4E91E2366D81E4B3246FC
:102880005B5C002100911B490EF0ACFB0120FFF7BF
:1028900069FAABE797F8D63297F87C60002BD1D174
:1028A0004CE796200EF024FF9C21F0E696200EF0D7
:1028B0001FFF95F87C20104B104803EB42039988CA
:1028C00001F5FA71A0FB013189097D31ACE794F87B
:1028D000283003B397F84E3197F87C6059077FF59D
:1028E00026AF04262AE7012628E700BF900A002128
:1028F00064000021F80A0021345B0201D34D62100C
:10290000B5F888100A440121A5F8CE201960D9E64F
:10291000242A3FF4FDAE97F87C60032E08BF0426FE
:102920000CE7F31EDBB2012BDBD9012E18BF022608
:1029300004E7F31EDBB2012B8CBF16460426FDE62E
:1029400040F26F112720FEF76BF9FFF77FF900BF08
:1029500008B5124B93F8382092B193F8282022B989
:1029600093F83830012B14D108BD93F83820022A8F
:102970000AD1DB6AD3F81802BDE808400FF0F4BBB7
:10298000BDE80840FFF726B940F235212720FEF7C1
:1029900047F940F231212720FEF742F9900A002141
:1029A000FFF718B9014B1876704700BF900A002155
:1029B000014B93F8C4007047900A0021034B93F831
:1029C000C30010B9588CC0F300307047900A002142
:1029D000024B588CC0F3C020704700BF900A002102
:1029E000014B93F8CE007047900A00212DE9F04189
:1029F00082071E4F82B00446FE6A13D4E3070ED549
:102A000096F89C10D6E94232013342F100020129C6
:102A1000C6E942320CBF0023012386F89C3002B085
:102A2000BDE8F081FB6CE3B1B7F850200D46B96DFD
:102A30001846033291F8018013F064FC0DF1020294
:102A400001A9B865D7F8C80014F056FB019814F036
:102A50003DFB012228604146D7F8C80014F003FB73
:102A6000CCE740F295412720FEF7DAF8900A0021E2
:102A7000591C000109210001F51D0001391C00014C
:102A80002DE9F843002800F0E3800446072900F20E
:102A9000D380DFE801F0AB2525A7D1209ECD0146EC
:102AA000204617F03CFFD4F84C3100F1EC059D4274
:102AB00040F2C680E81A0321402838BF402012F0B7
:102AC0007FFD0346C4F84C5120461D4617F0E8FF31
:102AD000002D00F09C802046BDE8F84317F0E1BFD0
:102AE00017F05EFF0023D4F81C2105460E4684F83B
:102AF000483184F85131BAB150EA010314D0CA0008
:102B0000C30042EA50721B1A62EB0102D4F838117A
:102B10005B18D4F83C1142EB0102D4E95601834220
:102B200072EB0103C0F09280022304F5A47784F8CD
:102B30005031384611F090FF002800F08D8094F855
:102B4000683103F0FF01002B6AD16FF00043D4E934
:102B500058029A4208BFB0F1FF3F12D02046D4E994
:102B6000569817F0DCFED4F86031EC30D4F86421CC
:102B7000B3EB090362EB08021B1A62F10002002AA0
:102B80004BDB394694F8180112F052F800286DD04A
:102B9000D4E95601D4E94C32834272EB01071FD2CB
:102BA00055EA06071CD0C01A334661EB02012A46DB
:102BB00013F0EAFA05FB01F1A5FB005300FB061632
:102BC000D4E94C213344551943EB0103C4E94C5378
:102BD00006E090F8180111F011FF002384F840314D
:102BE000BDE8F883BDE8F8430FF09EBB0BF086FE0E
:102BF000D4F84C01DC3812F041FC90B3204617F0B9
:102C00000FFF00283FF44BAF204617F049FFD4E9EF
:102C10005623C4E94E23BDE8F88320460BF076FE28
:102C200094F8180111F0EAFE002384F84031AFE770
:102C3000F4213020FDF7F4FFF8213020FDF7F0FFFC
:102C40002046C4F84C5117F02BFFE0E701236CE756
:102C5000D7213020FDF7E4FF40F292613020FDF7EC
:102C6000DFFF40F251213020FDF7DAFF40F296619C
:102C70003020FDF7D5FF00BF2DE9F04F044689B0A5
:102C800000201F460E46914694F87DA0049015F052
:102C9000A1FD94F800320B2B00F21883704A94F8CF
:102CA0009F8032F8135089F001032844029385B2C3
:102CB000B9F1000F1AD0B4F8901204F51879B4F8ED
:102CC00098B0711AA6EB0B0B09B20FFA8BFB002917
:102CD000C0F24982384694F84432032B00F2108344
:102CE000DFE813F0BD018301C4003A0094F84432D8
:102CF000032BE0D1B8F10E0FDDD1B4F8D432B342DA
:102D0000D9D1B4F81C222046B4F892321344C4F846
:102D10004032D4F84C32C4F83832E369C4F83C325B
:102D20000CF0C8FFD4F8DC32E2699A4205D004F115
:102D3000280018F084F9D4F8DC32E361D4F8D832F2
:102D4000E363B4F8D632A4F84030D4F8E0326362DA
:102D5000022384F84432AEE7E36903FB01F20492F4
:102D6000002F00F00A82B4F81C52002D40F00582BA
:102D700084F85B52D4F84CC294F89E300CFB1121BD
:102D8000262B049100F0088294F89F30262B00F047
:102D9000038200283CD0002D3AD1D4E9A0E0D4E948
:102DA0009E237245834180F0A68294F87D00C31E65
:102DB000012B40F2808203910FF000FD4AF2A13C0A
:102DC000D4F88032274D8444A3F1830194F87D0028
:102DD000A5FB0C3CA0F1030ED4E99E23BEF1010F2C
:102DE000A1EB020303991944A1EB9C1140F27D82EF
:102DF00003910FF0E3FC00F2E730D4F84CC20399E2
:102E0000A5FB0030B4F81C5280090144103904912C
:102E1000AB44AAF103030CFB0BFBDBB20BF1300B51
:102E2000012B4FEA4B0B40F2FF8150460D4D0FF046
:102E3000C5FC4AF2A1330344A5FB03239D09504678
:102E40000FF0B4FC0BF1730341F64B521D44E369E0
:102E500028449342044D286040F22182049A6FE096
:102E6000445B0201D34D6210600B0021E36B2946E5
:102E7000D4F83C02184418F032F92946C4F8480244
:102E8000E06918F02CF941F64B53E26994F87DA003
:102E90009A42C74D98BF0230C4F84C0250460FF01A
:102EA0008DFCAAF1030A4DF64171BAF1010F0144FC
:102EB0002046A5FB013194BF2823002303EB911189
:102EC000803116F097FEB4F81C3213B9002F40F091
:102ED000AD81D4F83C32E26B94F87DB01344D4F861
:102EE0004802ABF103011B1AC9B20493D4F838327B
:102EF0000129D4F84022B4F840A002FB03050AF1EE
:102F0000730A05F130054FEA450540F23D81584608
:102F10000FF054FC4AF2A1330344A548A0FB03235D
:102F20009B095846039355440FF040FC039B049AB9
:102F30001D44A04B28441860012384F84432E369FF
:102F4000D4F84C52D4F888125D1B6FF4B3731D444F
:102F5000D4F88C32854228BF0546891804F1440014
:102F600043F10003C4F81852C4F87012C4F8743264
:102F7000002384F8603216F0A0FD2844A4F8906283
:102F8000C4F86402D4E99C23C4E9A2230CF0DAF863
:102F900020B1D4F864321E33C4F86432B4F8081295
:102FA00000238E1B84F8683236B29E4202DD022373
:102FB00084F86832B8F10E0F00F0FE80002F40F068
:102FC000FE8094F84432002B40F01981494694F871
:102FD0005C0211F02DFE002800F07D81029B84F838
:102FE0005832002009B0BDE8F08FD4F84C02E269F5
:102FF000D4F84052B4F81C32121AB4F840A09B44E2
:1030000002FB01F1D4F84832EA430AF1730A049151
:1030100030339344D4F8382202FB053594F87D20F0
:10302000D31E00FB0B55012B4FEA450540F2AE8045
:10303000104603920FF0C2FB4AF2A13303445C48EE
:10304000A0FB0323039A4FEA931B554410460FF04D
:10305000ADFB584B5D44049A2844186081E094F815
:103060007D1094F8160216F037F88246E06B294678
:10307000DFF83CB1504418F032F82946C4F8480251
:10308000E06918F02CF8E26941F64B5305A99A4221
:1030900098BF0230C4F84C0206A80FF039F9059B1E
:1030A0000093DDE90623D4E9A20112F0E3FC94F8D1
:1030B0007D300546184603930FF080FB039B4DF6C9
:1030C0004171033B01442046012BABFB013194BF0E
:1030D0002823002303EB9111803116F08BFDD4F8E7
:1030E0009432E26B94F87D00049303920FF066FB38
:1030F0004AF2A133039AC318D4F84802ABFB033158
:10310000049B933B13441B1A5344B4F840A05B1B2D
:1031100000F130050AF1950AA3EB91136D000493B9
:1031200094F87D30DA1E012A33D9184603930FF044
:1031300045FB00F52340A130ABFB003B039B4FEA6E
:103140009B1B184655440FF031FB049AD4F8943277
:103150005D441849D31A2844B3F5A07F0860C0F035
:10316000BF80E369ECE600235946012084F85B3216
:10317000D4E99E23C4E9A223ADE594F85B52002D67
:103180004FD00C490868DBE66523CAE64FF0650BB3
:103190005BE74FF0650BD4E7B4F8D432F31A1A04A6
:1031A0003FF5F7AD94F8D732002B18BF9A46F0E5FB
:1031B000D34D6210600B0021002F3FF407AFB4F82D
:1031C0003022CAB1B4F8320294F8341200FB011173
:1031D00001308A427FF7FAAE002B3FF4F7AE0023AE
:1031E000A4F8320284F8683209F0C6FC00F0070047
:1031F000013084F83402E9E6A4F83222E6E6D4F895
:103200004C324846E169C91A15F00EFF83B2002B13
:103210003FF4DCAE129A0120002A3FF4E3AE1380A3
:10322000E0E6B4F81C52A5E5652508E6E26BD4F8A3
:103230003C3294F87D0003EB020A0FF0BFFA4AF229
:10324000A13394F87DB0AAF1930A0344ABF10301D2
:10325000D4F84802A5FB0323C9B2D4F88022AAEB14
:10326000000A9B09012992440393D4E99E23AAEB07
:10327000020A29D958460FF0A1FA94F87DB000F25D
:10328000E732D4F84802ABF10301A5FB0235C9B21D
:10329000AD09039BAAEB03022A44049226E61846D2
:1032A0002A4604AB594615F034FF049A84F85B02B1
:1032B000E369286844E6AEF1E80E3C20D4E99E2399
:1032C000AEEB020E7144A0E53C25E2E740F2C131CD
:1032D0000620FDF7A5FC40F27B513020FDF7A0FC55
:1032E00040F2C6413020FDF79BFCB4F81C523C2054
:1032F000D4F84CC289E540F21A513020FDF790FC19
:1033000040F232513020FDF78BFC00BFF0B585B0A4
:10331000002800F015810446072900F20081DFE84B
:1033200011F09200080008007B00FE008000880079
:10333000FA000FF08FFFD4E99E23801A61EB03019E
:10334000012871F10003C0F20D816FF0010200232A
:1033500082428B41C0F20181E3690BB1B0FBF3F310
:1033600094F89F200E2A00F0CF80B4F89810B4F89B
:1033700056220B449BB2D11A0D0454BF531C013387
:103380009BB2A4F8563294F85932B4F8561223B9C5
:10339000B4F80C328B4200F0C680B4F8D40002AD11
:1033A000B4F89830B4F892220344B4F8D200013251
:1033B0006F4E013BA4F892221B1A9FB2336853B19F
:1033C00001390022204689B29847B4F856120144C8
:1033D00089B2A4F856127B1A18046ED40023204632
:1033E00000951A46FFF748FC00284AD1D4F88430EB
:1033F0003BB3B4F8CE20B4F856329B1A1BB2002B64
:103400001FDDB4F888100B44013BB3FBF1F303FB61
:103410000123A4F8CE3014E005B0BDE8F0400EF072
:1034200083BF01200FF018FF05B0BDE8F040FFF7A3
:10343000B7BA90F84432042B40F08B80002380F818
:10344000443205B0F0BD90F8583253B3B0F856325C
:10345000B0F8982093426BD09A1AA0F89830A0F850
:103460000E222046D4E99C23C4E99E230CF010FBD5
:1034700094F81332002BE4D005B0BDE8F04017F00B
:1034800086BC012860D1B4F85612B4F80832CA1AC2
:1034900012042FD4BDF80830194489B2A4F856128A
:1034A0008CE7B0F85432B0F89810B0F854225B1A98
:1034B000A0F89820A0F80E32D3E794F8A2200123B8
:1034C00028460394002A8DF808300CBF3E230823B9
:1034D00084F8C13009F0B8FE204617F05AFC0023EA
:1034E00094F85C0284F8443211F088FA202384F8BE
:1034F0005C32A6E7BDF80820114489B27A1A12F4AA
:10350000004F18BF1946C9E7B4F85612013189B205
:10351000A4F8561241E7CB213020FDF781FBCF21E3
:103520003020FDF77DFB013189B2A4F8561234E753
:10353000B0F80C22D31AA0F89820A0F80E3290E729
:10354000A6213020FDF76CFB40F254613020FDF7DE
:1035500067FBC5213020FDF763FB40F20761302097
:10356000FDF75EFB40F206613020FDF759FB00BF1E
:10357000680000212DE9F043D0F81C31002683B00B
:10358000054680F820610F46D0E9568983F8162257
:1035900080F840610121D0F81C0108F0D1FED5F877
:1035A0001C41324631462046C4E99E8995F81831BF
:1035B000C4F8947284F85C32334684F84462A4F808
:1035C0009062C4E9A2890096FFF756FBD0B90123A7
:1035D000C4F84002C4F8380284F84432A4F8560211
:1035E000A4F8540284F85902B4F89830A4F892026E
:1035F000013BA4F898300EF0F5FC03B0BDE8F043B1
:1036000011F086B840F2F3113020FDF709FB00BF3E
:10361000D0F81C01704700BF2DE9F043002385B0AE
:103620000322FF26CDE900338DF806206846FEF719
:10363000C1F8044620BB009D95F84031002BF5D021
:1036400085F868610121284617F02DFA95F8403178
:10365000002BEBD095F8180111F046FD95F81801F4
:1036600012F0D2F895F8180111F0C8F900283CD0F2
:1036700085F840416846FEF79DF804460028DAD0F8
:10368000DFF87C800123002502264FF6FF7788F8BB
:1036900004301AE0029BE3B193F85C22202A18D090
:1036A0001888B8421BD00221FEF74AF8814608B3B9
:1036B00090F85C0212F0A8F899F85C0289F844428C
:1036C00011F09CF9202389F85C32CDE902558DF880
:1036D0000E6002A8FEF76EF804460028DAD0002338
:1036E00088F8043005B0BDE8F08340F2DF113020E7
:1036F000FDF796FA40F22B113020FDF791FA00BF4A
:10370000600B0021044B002242F210715A71D980E3
:103710001A71FFF781BF00BF600B00212DE9F8434C
:1037200090F84031002B76D1044688460146564831
:10373000154603F0FF0711F035F9202806466AD038
:103740005822394604F58C7012F052FE84F8186144
:10375000C4F81C81FF2384F84031B8F1000F06D073
:1037600009F022FA00F00700013088F83402022341
:103770004FF00008A4F8503184F8488117F0B7FCE6
:1037800000F1BC062046B6B217F04AF9002846D030
:1037900015F020F800F5CD6128464FF0010989B2F7
:1037A00017F09DFC2844C4F84C010FF053FD30186D
:1037B000A4F8268041F10001C4F8580184F8209152
:1037C0002046C4F85C1117F041F9002845D0A5F552
:1037D0009D654946204617F0A2F82D1AC4F82451D9
:1037E0004FF0FF326FF00043C4E9582304F5A47191
:1037F00094F8180111F01CFA00283FD0204600214F
:10380000D4E95623C4E94C23C4E94E2317F04BF9FD
:103810003846BDE8F8830C273846BDE8F8830146F2
:10382000204617F07CF8DFF86480EC30C4F84C01D7
:10383000B8F8060008B1E08CB8B906440FF00AFDEC
:10384000361841F10001C4E95661002DC8D0AE1907
:1038500041F10001C4E95861C8E7EC3D484617F062
:10386000BFF92D1AC4F82451BAE709F09DF9B8F848
:103870000630B0FBF3F202FB1300DEE740F2C111A9
:103880003020FDF7CDF900BF812A0001600B002137
:1038900090F840310BB90020704710B50446FF2363
:1038A00080F86831012117F0FEF894F840310BB927
:1038B000002010BD94F8180111F016FC94F81801BE
:1038C00011F0A2FF94F8180111F098F820B100232C
:1038D00084F84031002010BD40F2DF113020FDF7A8
:1038E0009FF900BF014B5871704700BF600B00216A
:1038F00090F8682182B910B502F0FF0490F82021F9
:1039000012B90122104610BDD0E949319942F9D9C6
:103910000AF0FCFF2246F5E700221046704700BF80
:1039200010B504460DF022FF074B9A68824208D377
:10393000E16941F64B52914203D9187980F00100B8
:1039400010BD002010BD00BF600B002140F20B2114
:1039500008B516F057F9B0F5296F28BF4FF4296064
:1039600080B208BD90F81332002B73D1F0B503F08C
:10397000FF0590F8443285B00446032B01D005B012
:10398000F0BD0FF067FCD4E99E23801A61EB0301C0
:10399000012871F10003F2DB6FF00103834275EB44
:1039A00001035ADBE369B4F89820002B53D0B0FB35
:1039B000F3F080B20132B4F80C32104480B2A4F8B3
:1039C0005402B4F854229B1A1BB2002BD7DD94F892
:1039D0005C0211F089FB0028D1D0FF2384F8593212
:1039E000B4F898500DF10E06B4F8D420B4F8D230E3
:1039F00015441F4F013DED1A3B68ADB263B1B4F8F9
:103A0000541200222046013989B29847B4F8543242
:103A1000184480B2A4F85402B4F85432EB1A1B04D0
:103A2000ADD4B4F8541200230122204689B2009686
:103A3000FFF722F90028A2D0012813D1B4F854329C
:103A4000BDF80E2013449BB2A4F854323B68002BFF
:103A5000D5D1E1E770471846ACE740F2AF513020CE
:103A6000FDF7DEF840F2F6513020FDF7D9F800BF3F
:103A7000680000212DE9B043044682B0062900F217
:103A80009780DFE801F0041D0A1A232A6D004B4BD2
:103A90001B7903F0FF02002B7CD0042384F844320E
:103AA0000EF0A0FA10F034FE0023B4F89820A4F829
:103AB0009232A4F8562284F8593202B0BDE8B0839D
:103AC000032380F8443202B0BDE8B0830DF072FEEB
:103AD000C4E9A00102B0BDE8B08390F87D30C569AB
:103AE000033BD0F84C12DFF8D480012B98F8053056
:103AF00094BF4FF4BD794FF4A9798D428CBF6D1AF4
:103B000000251BB9436C9D4228BF1D46D4F818728E
:103B100004F1440015F0D1FF0744022011F0FCFC31
:103B20000221ED1B25EAE575854228BF054628469A
:103B300011F046FD00B92F444A463946204616F09A
:103B400046F8E269D4F81832C8F80800D01811F025
:103B500095FC0028B1D140F279313020FDF760F8B2
:103B600090F87D502846033D0EF028FE4DF6417139
:103B70000246134B012D20461144A3FB013194BF93
:103B80002823002303EB9111803102B0BDE8B0433C
:103B900016F030B8B0F80C1201230092FFF76CF861
:103BA00000283FF47DAF40F2CA613020FDF738F8BD
:103BB00040F265713020FDF733F800BF600B002143
:103BC000D34D6210012A70B5064609D0022A144668
:103BD0000D461ED04AB140F28F713020FDF720F81B
:103BE0000DF0C4FDC6F8940270BD0DF0BFFD224675
:103BF00001462846FFF7BEFC32460F4995F81801EA
:103C00000FF014FB0028EFD14FF4EF613020FDF7E7
:103C100007F8D0F8941201222846FFF7ABFC324691
:103C2000054995F818010FF001FB0028DCD140F29E
:103C300089713020FCF7F4FF0D330001F8B504461C
:103C400051B1012960D1002380F820310EF0CAF96A
:103C5000BDE8F84010F05CBDC58C002D4CD120466D
:103C6000D4E94C7616F09CFE40194FF0000341F168
:103C70000001C01984F848314FF0020346EB0101FE
:103C8000C4F85801C4F83001C4F85C11A4F85031EC
:103C9000C4F8341194F8683103F0FF01002BD5D13A
:103CA0006FF00043D4E958029A4208BFB0F1FF3FD9
:103CB0000CD104F5A47194F8180110F0B9FF002894
:103CC000C4D140F2E9613020FCF7AAFF2046D4E9D4
:103CD000565616F024FED4F86031EC30D4F8642146
:103CE0005B1B62EB06021B1A62F10002002AE0DA9B
:103CF00020460AF00BFEA9E708F03EFFE58CB0FB7A
:103D0000F5F303FB1505AAE740F29F713020FCF79D
:103D100087FF00BF90F84001003818BF01207047AE
:103D2000014BD880704700BF600B002106220B4674
:103D300003F8032BB0F809C0C27AA1F803C09A7047
:103D4000704700BF40F2B721322008B5FCF768FF8A
:103D500010B582B090F8023173B903F0FF02ADF8EC
:103D600004209DF8042000209DF8053062F3070030
:103D700063F30F2002B010BD36380C4604F0BAF9D8
:103D8000182204232270ADF80430EAE770B5002849
:103D900065D0437A04460D46002B3FD00021408970
:103DA000FDF7CEFC064600285ED0008807F040FEF6
:103DB00000213088FDF7DAFC00285AD194F85460CD
:103DC00094F8B0302BB194F8B1301E43002384F83E
:103DD000B030204604F08EF9B30730D113212B46C2
:103DE00004F10902293403F8031BD2F800C0103291
:103DF00052F80C6C103352F8080C52F8041CA24212
:103E000043F810CC43F80C6C43F8080C43F8041C3E
:103E1000EBD1117800221970AA7170BD036DD0F832
:103E20000E20C3F80320428AA3F80720427B036DCB
:103E300012F0FD0F14BF012200229A70BEE700228B
:103E400026F004062046114684F8546005F008F870
:103E50000028C3D14FF448713220FCF7E1FE4FF443
:103E600040713220FCF7DCFE4FF443713220FCF746
:103E7000D7FE4FF444713220FCF7D2FE044B0022EF
:103E80001B68A3F8BB2083F8BD2083F890207047FF
:103E90006C0B002108B508F023FB034B18700EF0E3
:103EA00011F8032008BD00BF1000002108B508F07C
:103EB00017FB024B024601201A7008BD10000021BA
:103EC00038B5124C20688C3003F09AFA256803F05C
:103ED00039FA2368C5F88C00D3F88C0060B103F080
:103EE00061FA70B10EF008F900200EF06BF923684A
:103EF000042283F8902038BD40F2EF413220FCF7D5
:103F00008FFE40F2F1413220FCF78AFE6C0B00215B
:103F100008B508F0E5FA054B054A01211B68107049
:103F200003F18C0003F0D0FA012008BD6C0B0021D6
:103F30001000002170B53E4C0646236893F890208F
:103F4000032A34D093F89020042A30D093F85430C8
:103F50009B0732D16568002D50D0236893F8542018
:103F6000002A41D076B3284615F0E5FB18B928465B
:103F700015F0FCFB28B3236893F89020022A4CD953
:103F800093F89020082A4DD893F890102846A268FC
:103F9000284B12690B4452F8233098470C2828D834
:103FA000A368DB68BDE8704053F820301847D3F8A9
:103FB0008C0003F0F7F90546CDE703F009FA054652
:103FC000C9E7236893F89020022A1CD993F890201F
:103FD000082A1DD893F89010A268164B52690B441A
:103FE00052F823309847D9E741F2BB313220FCF731
:103FF00017FE41F2CE313220FCF712FE41F2B5310C
:104000003220FCF70DFE41F29B313220FCF708FE16
:1040100041F29C313220FCF703FE41F23B31322069
:10402000FCF7FEFD41F23C313220FCF7F9FD00BF08
:104030006C0B0021FDFFFF3F38B5144C236893F84B
:1040400054309B0719D16568DDB12368FF2093F8D0
:10405000BA100DF0D1FB28460EF04EF8236893F805
:10406000BA30033B012B94BF282000200EF0AAF8A1
:104070002368072283F8902038BD03F0A9F905468C
:10408000E2E740F216513220FCF7CAFD6C0B00212A
:10409000F0B54F4E00220D460446336841F2707071
:1040A00083B0196D5A72CA69B1F800C0A3F80AC08A
:1040B000A2F57A7C84457ED94648A0FB0202C2F371
:1040C0008F221A848A8C5A84CA8C9A844FF47F4235
:1040D000DA844FF6FF721A85002C62D0012128463F
:1040E00015F065FA2A78D209336893F8481009B1B7
:1040F000002A35D1307B00210828596119833BD033
:1041000003F10E0203F10D0107F084FF00285AD0DD
:1041100033685A7B03F11A0742F002025A73002CEB
:1041200039D103F19E0002683A608288BA8093F91F
:104130005810186D08F0A4F93068274915F07DFC77
:10414000336826491A6D03F12A001488A3F8334016
:1041500092F8A62083F8352015F078FC03B0F0BD66
:10416000427902F0C002402AC4D102685A618288B2
:10417000307B1A830828C3D193F8A410D3F89E206B
:10418000B3F8A20059730021C3F80E205882C3F877
:104190001A10D983CBE70021284615F008FA3368B6
:1041A000C1E77068694615F0B5F8736868461A7813
:1041B000C2F3801298E70A48A0FB0202920902F5B6
:1041C000506292B27DE741F204413220FCF728FDB3
:1041D0006C0B00215917B7D18D3D00012D3D000119
:1041E000D34D621010B5064C0222236883F890204C
:1041F00003F02CF92068BDE8104004F059BE00BF60
:104200006C0B00214FF46271322008B5FCF708FDF9
:1042100030B504788DB0264D04F00F0402A9224673
:1042200003F072FC08F05CF9042C287002D0032023
:104230000DB030BD1F4A039B146893F800C094F87A
:104240009E108C45F3D193F801C094F89F108C45D3
:10425000EDD193F802C094F8A0108C45E7D193F803
:1042600003C094F8A1108C45E1D193F804C094F8F0
:10427000A2108C45DBD1597994F8A3309942D6D15C
:104280009DF8191094F8A4309942D0D17F280CD011
:10429000009004F18C007F24137C02A9127B2C7007
:1042A00003F098FB03200DB030BDFFF7ABFF00BF5C
:1042B000100000216C0B00212DE9F04F044687B05F
:1042C00006290CD8DFE801F0AA33110B0B0B040010
:1042D000B64D286890F89230002B40F0CB800DF05E
:1042E000F1FD032007B0BDE8F08F0DF0EBFDAF4B03
:1042F000186890F854209507F3D090F89220002A7F
:10430000EFD0AB4D95F900207F2A00F0FD8102929D
:1043100021461A7B7F24FF23CDE9003200F14203BE
:1043200002228C302C7003F0A9FA0320DAE79F4DAB
:10433000867C2968012E91F8923091F8939005932C
:1043400091F8483083F0010B00F0B080002691F81E
:104350005420374612F0040000F0B08091F84D3040
:10436000002B00F0AB8091F84E80B8F1080F40F0C0
:10437000A88091F841800027C44620B3626891F874
:104380005B0092F800E0864500F058814FF0000A8B
:1043900091F89120082A05D091F84E00904208BF6C
:1043A0004FF0010A002F40F0EC80BBF1000F40F00D
:1043B0003E813846B9F1000F40F0E5800DF082FDF6
:1043C0002B6893F8542093078BD00DF07BFD059B51
:1043D000002B86D02868A36800F14201A27C90F8E7
:1043E000410014F097FD17B9002800F06481704E69
:1043F00096F900307F2B00F08781029321462868D0
:104400007F242B7B0122CDF80080019300F1420331
:1044100034708C3003F032FA032063E7634D286870
:1044200090F854305F071BD590F89330002B5AD08A
:10443000636890F85B201978914200F0D38090F87F
:104440005630012B00F0AE8090F84E30082B04D08F
:1044500090F891209A4200F0A5800DF033FD286875
:1044600090F89230002B43D190F89330002B7FF4DA
:1044700038AF34E790F85430990765D54C4A92F933
:1044800000307F2B00F04081029321462B7B7F245C
:104490000193FF23009300F1420314708C30062235
:1044A00003F0ECF9002309202B741BE78268527992
:1044B00002F0C002402A7FF449AF48E791F89180AA
:1044C00053E7404607F0B4FC002818BF8346002F8E
:1044D00040F0E180296891F8418091F85420C44669
:1044E00002F0040049E790F89230002B3FF4F7AE59
:1044F00090F854309E075DD4D8077FF5F2AE590787
:1045000000F1FB802A4B93F900207F2A00F0FC8009
:1045100002927F202A7B2146187028680192FF2290
:1045200000F142038C300092002203F0A7F903202F
:104530002B6893F89320002A7FF4D4AE93F892303E
:10454000002B7FF4CFAECAE6DA077FF5C8AE5B0773
:1045500000F1D080164B93F900207F2A00F0D48020
:104560000292214628687F272E7BFF241F70062297
:1045700000F142038C30CDE9004603F07FF90320BF
:10458000B0E6012016E72B6893F85630012B06D0D1
:10459000002B7FF413AFBAF1000F3FF40FAF0028E8
:1045A0003FF40CAF0A2007B0BDE8F08F6C0B002180
:1045B00010000021554A92F900307F2B00F0A480B2
:1045C000029321462B7B7F240193FF23009300F16C
:1045D000420314708C30002203F050F901230920AB
:1045E0002B74A5E7597890F85C2091427FF427AFAF
:1045F000997890F85D2091427FF421AFD97890F8B6
:104600005E2091427FF41BAF197990F85F209142B0
:104610007FF415AF5A7990F860309A427FF40FAF6B
:10462000627C90F85A309A427FF409AFBAE742317F
:104630006046A368A27C14F06DFCBBE692F801E032
:1046400091F85C0086457FF4A1AE92F802E091F803
:104650005D0086457FF49AAE92F803E091F85E0023
:1046600086457FF493AE92F804E091F85F008645AA
:104670007FF48CAE507991F8602090427FF486AE42
:1046800094F811A091F85A20AAEB0202D2F1000A84
:104690004AEB020A7CE6A168404607F0ABFD2968B8
:1046A000074691F841C091F8542048B34CF00208F5
:1046B00002F0040061E6286890F85530023B012BB7
:1046C0003FF60FAE002E3FF40CAE104E96F90030C0
:1046D0007F2B19D0029321462A7BFE237F24CDE92C
:1046E000003200F1420301228C30347003F0C6F82E
:1046F0000320F7E50DF0E6FB2CE70DF0E3FB01E707
:10470000E04602F0040038E6FFF77CFD10000021CF
:104710000F4A136810B593F8901002290ED993F838
:10472000901008290FD893F890109268094B92685E
:104730000B44BDE8104052F82330184741F2BB410A
:104740003220FCF76DFA41F2BC413220FCF768FAE6
:104750006C0B0021FDFFFF3F38B51C4D2B6893F813
:104760009020022A2CD8027C044683F898201A4410
:10477000C168196792F8BE2083F8BA2042685A6768
:10478000037A022B0ED00DF09DF80DF065FD0CF0B4
:1047900095FB0F480DF09AFC0E480DF091FC0E4869
:1047A0000DF0A4F9637C03B938BD2868643014F0B7
:1047B000A7FB2B68DB6E002BF6D001221A6038BDF8
:1047C00040F6E2013220FCF72BFA00BF6C0B00210F
:1047D0008401002155555500D6BE898E30B5194C3F
:1047E00085B094F900307F2B29D00A46164D7F21E1
:1047F00021702C6894F89010032916D094F890102A
:1048000006290CBF03210121CDE902312B7B014692
:1048100004F18C00019394F8BA30009304F1420340
:1048200002F0D0FE18B905B030BD0021ECE72868D1
:1048300001218C3005B0BDE8304002F00DBEFFF71D
:10484000E1FC00BF100000216C0B002138B50546CB
:104850000C4607F05FF8420704D4A37803F0E003A6
:10486000402B0DD007F056F8830704D4A37803F04B
:10487000E003202B04D0237803F03F03242B01D93D
:10488000002038BD0CF054FF94F9003094F802C0B9
:10489000002B62780CF01F03ACBF1E214FF4967101
:1048A00042EA032301FB03F31A1AB2F5877FE7D329
:1048B0009842E5D8054A294623881068A0F8BB30FD
:1048C00080F8BDC0BDE8384003F09ABC6C0B0021F5
:1048D00070B5344E84B0346894F8923053B394F881
:1048E000813005460A4633B90378002B0CBF0123FB
:1048F000022384F8813094F89030062BD9B23BD053
:10490000072914BF01200220274B93F900107F29AB
:1049100046D0CDE90210317B04F18C00019194F86E
:10492000BA1000917F21197004F14203294602F068
:1049300049FE18B90024204604B070BD6C7814F00C
:1049400010041BD0A9690220FFF780FF0446E8B1DC
:104950000023326882F882306B69EBB15978C1F379
:10496000031182F8831059781B7801F00F0143EA94
:104970000123A2F88430DEE70320C5E73068012177
:104980008C3002F069FD204604B070BD3068012112
:104990008C3002F099FDCEE7FF2382F88330CAE71E
:1049A000FFF730FC6C0B00211000002110B504460D
:1049B0008AB007F095FD194A2378107003F00F03B1
:1049C000072B02D001200AB010BD2046694603F033
:1049D00039F9684603F024FA9DF80030002BF1D134
:1049E0009DF80130DB07EDD50D4C019922689DF84B
:1049F000110002F19E0392F8A42014F08BFA002813
:104A0000E0D0206801219A3013F0B3FEFF21684600
:104A1000FFF75EFF0028D5D00220D4E71000002168
:104A20006C0B00212DE9F04FDFF8F0A09146847C5B
:104A300083B0DAF800200546012C884692F84860D9
:104A40001F4686F001063FD000249AF80D30A34699
:104A5000F3B192F854305B0722D46B68002B3AD044
:104A600092F89130082B23D01846019307F0E0F913
:104A7000002818BF0646BBF1000F23D09AF80F207C
:104A8000019B8AB314F094FA002203468AF80F209F
:104A900089F8003088F800403E7003B0BDE8F08F20
:104AA00092F84D30002BD8D092F84E30082BDBD145
:104AB000BBF1000F06D09AF80EB0BBF1000F19D071
:104AC0000023E5E75B46E3E783685B7903F0C00317
:104AD000402BB9D1B9E7D2F88C0002F0F7FF0028DB
:104AE000E6D0DAF80020BBE71846A96807F082FB99
:104AF0000346CDE7A868594607F0A4FA03468AF8AA
:104B00000D000028C4D0019014F048FA0828D9D02C
:104B1000DAF80020019B82F89100B9E76C0B0021C4
:104B200008B5064B012118688C3002F095FC07F09F
:104B3000D7FC034B024601201A7008BD6C0B002104
:104B4000100000212DE9F0416A4C002205460F4675
:104B50006368D4F8008018461A800DF0CDFA032D52
:104B600037D0052D4AD0606808F19E0114F0D9FBBA
:104B700098F8A410606814F0E8FB236893F84820C4
:104B800003F1420693F8417052B193F85420520752
:104B900018D493F8910007F067FB08B10646012787
:104BA0003146606814F0AFFB3946606814F0C0FB12
:104BB000514BD3F80431002B40F09680052D12D0D4
:104BC000BDE8F08193F84D20002AE2D093F84E0022
:104BD000E1E76068037823F00F0343F003030370F9
:104BE0000C234370C0E7236831681A6DC2F80A10BD
:104BF000B188D1811B6D5F72BDE8F081D4E90006F8
:104C000022233178737021F02F0141EA471141F0DE
:104C10000501317041F64B51036D1B6AC6F80F3028
:104C2000026D936BF3741F0A1B0C37757375D36990
:104C3000B2F840708B42D16B3BD9DFF8C0C0ACFBFF
:104C400001E1ACFB07C7890ABF0AF175C1F307216F
:104C5000B77531762949A1FB0313C3F38F2373760C
:104C60001B0AB376938CF3761B0A3377D38C737756
:104C70001B0AB377D2F8A730C6F81F3092F8AB30D2
:104C800096F8242086F82330036D22F01F0293F853
:104C9000B23003F01F03134386F8243006F060FEA1
:104CA00096F8243003F01F0343EA401386F82430BB
:104CB00059E7DFF84CC0ACFB01E1ACFB07C7490981
:104CC0007F09F175C1F30721B775A3F57A773176BE
:104CD00041F270718F42BDD80A49A1FB03139B09B1
:104CE00003F550639BB2BAE740F22F613220FBF725
:104CF00097FF00BF6C0B0021008000415917B7D10E
:104D00001F85EB51D34D62102DE9F04304468BB063
:104D100007F0E6FB444A2378107003F00F03082BDA
:104D200004D0012528460BB0BDE8F0836946204633
:104D300002F01EFF9DF80050002DF2D19DF80130C9
:104D400003F00303032BECD1384F3E6896F84D3047
:104D5000002B3AD096F84E907B7B002B38D14FF049
:104D6000000806F19E0396F8A42001999DF8110011
:104D700014F0D0F810B9B8F1000FD2D096F848204E
:104D80003E6896F841804236002A3DD19DF81200D7
:104D90000299012828D03346424614F0BBF8002877
:104DA000BFD0386801219A3013F0E3FC7B7BA3BBB2
:104DB00021460120FFF76CF93868022104F01EFA41
:104DC00038688C3002F01CFBACE796F89190C3E792
:104DD00014F0E4F80828C2D0A0EB09083873B8FA38
:104DE00088F84FEA5818BCE74B7903F0C003402B12
:104DF000D1D13346424614F08DF80028D1D1029922
:104E0000484607F0F7F9CAE7484607F02DFA0028A8
:104E1000BCD006464FF00108B8E70DF01DFA0CF0C3
:104E20004DF800237B73C3E7100000216C0B0021B9
:104E300038B51D4C0E20236893F8BA100CF0DCFC3A
:104E4000236893F854309B0725D165683DB3284605
:104E50000DF052F9236893F8BA30033B012B94BF4D
:104E6000282000200DF0AEF92368681D93F8BA5091
:104E700007F016F9607348B1033D012D94BF552525
:104E800050250BF0FFFF28460DF0DAF923680822C1
:104E900083F8902038BD02F09BFA0546D6E740F231
:104EA00003513220FBF7BCFE6C0B002110B50A4CFD
:104EB00007F016FB094A637B10701BB90DF002F86E
:104EC000032010BD0DF0C8F90BF0F8FF0023637349
:104ED0000CF0F8FF032010BD6C0B00211000002126
:104EE00070B52C4C0546236893F8BD205F2A2CD85A
:104EF0005109294A565C93F8BB0000F03F000CF0C2
:104F0000FFFD236893F958000CF0EAFDFDB123681A
:104F100032460120196F0CF079FF2368314693F86F
:104F20008230022B0CBF4020FF200CF065FC236870
:104F300093F85420920710D193F881306568A3B19B
:104F40002846BDE870400DF0D7B80026D3E73246BA
:104F5000732101200CF05AFFDFE702F039FA2368D1
:104F6000054693F88130002BEAD1681D07F098F8C8
:104F700060730028E4D0033E012E94BF55245024D2
:104F80000BF080FF20460DF05BF92846BDE870402D
:104F90000DF0B2B86C0B00215C5B0201F0B52F4C38
:104FA00083B00646236893F8BD205F2A30D85109A4
:104FB0002B4A575C1A6F7ABB586F0DF0D5F82568ED
:104FC00095F854309A0703D595F88220022A34D0F8
:104FD0005B072ED4D5F88C001EBB02F077FD23684A
:104FE0000646D3F88C0002F077FD024605F18600F4
:104FF0002568314695F8823095F8BA50009502F050
:10500000B7FE2268002382F8BA70A37303B0F0BD24
:105010001A6F0027002ACFD00120FFF761FF236815
:10502000CAE702F065FD014605F1860002F096FE32
:10503000E7E795F88230012BCCD1FB1E012B05D977
:10504000394600200DF022F92568C3E795F859305C
:10505000012B14BF39460321F3E700BF6C0B00217D
:105060005C5B020110B50E4C637B8BB9206800239A
:10507000012100F1BB02A0F8BB3080F890108C3009
:10508000937002F0BDF92068BDE8104004F08CB8C0
:105090000DF0E2F80BF012FF00236373E6E700BFA8
:1050A0006C0B002107292DE9F04F0D4687B004460F
:1050B0009146476803D12FB9002A00F0C180002F24
:1050C00000F08A80637CDFF8BC82012B45D0D8F8E1
:1050D000003093F8910008285CD00DF10F0104AA6C
:1050E00006F098FF002800F0428104A99DF80F0007
:1050F00015F06BF90746D8F8006096F8543013F0B5
:10510000030072D1824613F0040386F892A040F0A7
:10511000C28000219C4B86F893101B6833B149462E
:105120002046984786F89400D8F80060636843B139
:10513000627C86F8A4201A68C6F89E209B88A6F890
:10514000A23096F89430002B00F01681072DA0684D
:1051500000D1A8BB07B0BDE8F08F7B7903F0C00396
:10516000402BB4D1072D98F80D3000F0C280002BF1
:10517000ADD0D8F8006013F011FFD8F8003086F8F1
:10518000910093F891000123082888F80C0088F812
:105190000E30A2D16168607C15F017F9D8F80020B4
:1051A000074661689132607C06F06AFE034600287B
:1051B000A1D1D8F80060A6F8920086F89400C5E75F
:1051C00096F891100829C5D0002BC3D006F058FFDF
:1051D000012388F80F30BDE7DFF8A881D8F8006018
:1051E00096F8543013F003008CD0062D96F84CA09E
:1051F0006ED9082D71D896F892B08BF00101B9F1F3
:10520000000F0CBF002101F00101002965D1626887
:10521000002A5DD1B9F1000F40F091806278D0068C
:1052200040F18D80012086F8920058077FF572AF1B
:1052300096F84D1096F893A0D30671D5012169E731
:10524000DFF84081D8F8002092F8543013F00301C1
:1052500018BF012113F0040382F8921005D00378DF
:10526000A3F10103B3FA83F35B0982F8933092F858
:105270008030002B3FF46EAFD8F80030D86F50303C
:1052800015F0A9FE00287FF465AFD8F800300122A0
:1052900083F894205EE7062D96F84D1004D8002977
:1052A0007FF438AF394635E796F893A0082D3FF6DE
:1052B00030AFBAF1010F03D0B9F1000F7FF429AF7D
:1052C0006368002BEBD1B9F1000F29D16278B3E705
:1052D000BAF1000F08BFBA4615E7002213F0040325
:1052E00086F892203FF415AF96F84D1096F893A0EB
:1052F000DCE7002B3FF4EBAEB9F1000F7FF439AFE0
:10530000D8F8006096F8BA1001297FF434AF384617
:1053100006F098FE88F80D0000283FF4D8AE28E784
:10532000D6F88C00019102F0D1FB1AEA000702D1F5
:105330000199B1B10F46D8F800603946EAE6D6F8CF
:105340008C0002F0C3FB1BEA000B0ED1BAF1000F78
:1053500002D106F08FFD8246D8F8006096F85430EE
:10536000D1E606F087FD0746E5E7DA46F4E740F6C2
:10537000A2313220FBF754FCB6F89230003B18BF44
:105380000123E3E66C0B00216C00002170B5194E7F
:105390008AB0054607F0A4F83368174A93F85430EA
:1053A000107013F0060F16D12C782846694604F0C9
:1053B0000F04224602F0A8FB214600226846FFF7B0
:1053C00071FE21466846FEF777FF737B044643B9BA
:1053D00020460AB070BD0122962100200CF02CFD61
:1053E000E2E70CF039FF0BF069FD002320467373F0
:1053F0000AB070BD6C0B00211000002110B5104CDC
:1054000007F06EF80F4A637B10708BB92068002399
:10541000012100F1BB02A0F8BB3080F890108C3065
:10542000937001F0EDFF2068BDE8104003F0BCBEB2
:105430000CF012FF0BF042FD00236373E6E700BFA0
:105440006C0B00211000002110B5104C01212068C8
:105450008C3002F039F8637B8BB92068002301217E
:1054600000F1BB02A0F8BB3080F890108C30937034
:1054700001F0C6FF2068BDE8104003F095BE0CF0B7
:10548000EBFE0BF01BFD00236373E6E76C0B0021C2
:1054900010B5134C07F024F8124A0021236810704D
:1054A00003F19A0013F065F9637B8BB92068002340
:1054B000012100F1BB02A0F8BB3080F890108C30C5
:1054C000937001F09DFF2068BDE8104003F06CBEB2
:1054D0000CF0C2FE0BF0F2FC00236373E6E700BFA2
:1054E0006C0B00211000002110B5124C0121206826
:1054F0008C3001F0E9FF06F0F3FF0F4A637B107078
:105500008BB920680023012100F1BB02A0F8BB3059
:1055100080F890108C30937001F072FF2068BDE825
:10552000104003F041BE0CF097FE0BF0C7FC0023C7
:105530006373E6E76C0B00211000002110B5154CD9
:10554000012120688C3001F087FF06F0C9FF024678
:1055500020680021104B9A301A7013F00AF9637B0F
:105560008BB920680023012100F1BB02A0F8BB30F9
:1055700080F890108C30937001F042FF2068BDE8F5
:10558000104003F011BE0CF067FE0BF097FC0023F7
:105590006373E6E76C0B00211000002138B5164C50
:1055A0000521206802F02CFE50B12368012093F8F9
:1055B000BA100CF06BFE23680B2283F8902038BDE4
:1055C000637B8BB920680023012100F1BB02A0F8A6
:1055D000BB3080F890108C30937001F011FF206880
:1055E000BDE8384003F0E0BD05460CF035FE0BF099
:1055F00065FC6573E6E700BF6C0B002170B5244CB9
:10560000236893F8BD205F2A28D85109214A565CA7
:105610001A6F3ABB586F0CF0A7FD256895F8543007
:105620009A0703D595F88220022A20D05B0703D57C
:1056300095F88230012B1AD0D5F88C0002F058FA78
:10564000014605F1860002F089FB2368002106224D
:1056500083F8BA60A17383F8902070BD1A6F00269A
:10566000002AD7D00120FFF73BFC2368D2E7F31EC6
:10567000012B05D9314600200CF008FE2568DBE738
:1056800095F85930012B14BF31460321F3E700BFD1
:105690006C0B00215C5B020138B5174D0021032023
:1056A000FFF750FA0321286802F0AAFD40B101215A
:1056B00008460CF0EBFD2B68092283F8902038BDDA
:1056C0006B7B8BB928680023012100F1BB02A0F895
:1056D000BB3080F890108C30937001F091FE2868F8
:1056E000BDE8384003F060BD04460CF0B5FD0BF09A
:1056F000E5FB6C73E6E700BF6C0B002138B51C4C72
:105700000C230121206880F8903003F077FD002100
:105710000520FFF717FA0621206802F071FD58B145
:105720002368012093F8BA100CF0B0FD2368012221
:105730001B6D83F8A62038BD637B8BB920680023DE
:10574000012100F1BB02A0F8BB3080F890108C3032
:10575000937001F055FE2068BDE8384003F024BD89
:1057600005460CF079FD0BF0A9FB6573E6E700BF79
:105770006C0B0021F0B52C4C83B0236893F8BD204E
:105780005F2A37D85109294A575C1A6F002A35D148
:10579000586F0CF0E9FC256895F854309A0703D54A
:1057A00095F88220022A2ED05B0703D595F8823027
:1057B000012B28D0D5F88C0002F088F92368064622
:1057C000D3F88C0002F088F9024605F186002568BE
:1057D000314695F8823095F8BA50009502F0C8FA33
:1057E00023680021052283F8BA70A17383F8902002
:1057F00003B0F0BD1A6F0027002AC9D00120FFF7BF
:105800006FFB2368C4E7FB1E012B05D93946002036
:105810000CF03CFD2568CDE795F85930012B14BFFD
:1058200039460321F3E700BF6C0B00215C5B0201EA
:10583000012910B515D1A0B91F4A136893F890102B
:1058400008292FD993F890100C2930D893F890108C
:1058500092681A4B52680B44BDE8104052F823304E
:105860001847154C012120688C3001F02DFE637B18
:105870008BB920680023012100F1BB02A0F8BB30E6
:1058800080F890108C30937001F0BAFD2068BDE86C
:10589000104003F089BC0CF0DFFC0BF00FFB002381
:1058A0006373E6E741F28B413220FBF7B9F941F22D
:1058B0008C413220FBF7B4F96C0B0021F7FFFF3F5E
:1058C00030B5254D83B02B68D3F88C0001F06AFD0C
:1058D00000283CD004460A232868002180F8903034
:1058E00003F08CFC2A6823780520126D92F8A640FC
:1058F00004EA531404F001042146FFF723F90421BC
:10590000286802F07DFC28B12B681B6D83F8A64047
:1059100003B030BD6B7B93B928680023012100F1EF
:10592000BB02A0F8BB3080F890108C30937001F06F
:1059300067FD286803B0BDE8304003F035BC019036
:105940000CF08AFC0BF0BAFA01986873E4E740F2B5
:105950005B513220FBF764F96C0B0021F0B55D4C14
:1059600083B020688C3001F04BFD256801F0EAFC23
:105970002368C5F88C00D3F88C00002800F0A580BF
:1059800001F010FD0546002800F09A80236893F886
:10599000B030002B58D1206890F8983090F89020C3
:1059A000034493F8BE7080F8BA701AB190F8903042
:1059B000012B62D190F89920474B134418790CF0D1
:1059C0009FF8236893F89820134493F8BE60022E42
:1059D00051D032D9F31E012B31D801F0ADFC314644
:1059E0000BF00AFF28460CF087FB314601200CF033
:1059F0008DF8012F37D0681D06F052FB607348B157
:105A0000033F012F94BF552550250BF03BFA284644
:105A10000CF016FC0022236808210320E281227486
:105A2000217383F89110A3F8922083F8942083F8CF
:105A3000812083F8900003B0F0BD012ECDD040F25C
:105A4000EB713220FBF7ECF8236893F8542093F8BD
:105A5000B100196D0243C3F83C1183F854200022B1
:105A600083F8B02097E7E81C06F01AFB6073002863
:105A7000D0D04025C9E70D20B1E7002102F0C0FBDE
:105A800008B1206896E7637B93B920680023012161
:105A900000F1BB02A0F8BB3080F890108C309370FE
:105AA00001F0AEFC206803B0BDE8F04003F07CBB21
:105AB00001900CF0D1FB0BF001FA01986073E4E760
:105AC00040F24E413220FBF7ABF840F24C4132201D
:105AD000FBF7A6F86C0B00215C5B020108B506F031
