:020000040000FA
:10000000B88C0120211E0200C92306000D1E02002B
:100010000D1E02000D1E02000D1E02000D1E02002C
:10002000000000000000000000000000E11F0200CE
:100030000D1E020000000000A11F02000D1E0200A4
:100040006921020069210200692102006921020080
:100050006921020069210200692102006921020070
:100060006921020069210200692102006921020060
:100070006921020069210200692102006921020050
:100080006921020069210200692102006921020040
:100090006921020069210200692102006921020030
:1000A0006921020069210200692102006921020020
:1000B0006921020069210200692102006921020010
:1000C0006921020069210200692102006921020000
:1000D00069210200692102006921020069210200F0
:1000E00069210200692102006921020069210200E0
:1000F00069210200692102006921020069210200D0
:1001000069210200692102006921020069210200BF
:1001100069210200692102006921020069210200AF
:10012000692102006921020069210200692102009F
:10013000692102006921020069210200692102008F
:10014000692102006921020069210200692102007F
:04015000692102001F
:100158002DE9F14F03F11C0402EB840C4FEA930BD9
:100168008A68CB680868496800F046F93CE9F000FD
:100178006040694072407B400BF1060E4EE083EA16
:10018800134480EA134582EA134746BA96EA344490
:10019800604000F00F1684EA063420F00F1684EA57
:1001A800161054BA94EA0106724002F00F1486EA57
:1001B800043622F00F1486EA14124CBA65406940DE
:1001C80001F00F1485EA043521F00F1485EA1411A3
:1001D8005CBA67407B4003F00F1487EA043723F0CA
:1001E8000F1487EA141344BA44404DBA4D4056BA26
:1001F80056405FBA5F4087EA174886EA174B84EA99
:1002080017464FEA38488BEA1B4485EA1B4788EAB9
:100218001B4580EA3440694072407B4000F07034EE
:1002280000F0803500F00F3040EA440040EAD50085
:1002380080EA900404F0332480EA8400604001F0EE
:10024800703401F0803501F00F3141EA440141EA90
:10025800D50181EA910404F0332481EA84016140E4
:1002680002F0703402F0803502F00F3242EA4402A4
:1002780042EAD50282EA920404F0332482EA840234
:10028800624003F0703403F0803503F00F3343EA23
:10029800440343EAD50383EA930404F0332483EA4E
:1002A80084036340C943DB4381EA000483EA0446CC
:1002B80086EA020183EA014382EA334583EA14436A
:1002C8005C4084EA00077FEA040A8AEA024A8AEA6A
:1002D800010B87EA11488AEA374A80EA060181EA6F
:1002E8001A418AEA030A04EA0A00454088EA040730
:1002F80007EA0B0041408AEA0B0608EA060084EA8E
:1003080034428AEA3A4602EA0603584045404140E8
:1003180087EA37438BEA3B4003EA000985EA090587
:1003280082EA0309464006EA0906714085EA0100A7
:1003380005EA3546464006EA314181EA304181EA1C
:10034800364606EA304686EA354634400F4086EAA5
:10035800010508EA050886EA3640024088EA0208EC
:1003680081EA314213405C4080EA020309EA03094A
:1003780087EA0907674088EA040806EA0A0601EAE4
:100388000B018AEA0B0425408AEA3A44204045409A
:100398008BEA3B4B02EA0B02564084EA0B042340EB
:1003A80059406E40694087EA364080EA384080EA22
:1003B800060380EA104481EA134585EA344585EA54
:1003C80017427D4082EA354180EA05403CE9F00069
:1003D8006040694072407B40BEF1010E3FF6CFAEEF
:1003E80020BC00F05FF828606960AA60EB60BDE897
:1003F800F08F00BF00F000BA80EA101404F0F01487
:1004080080EA0410604081EA111404F0F01481EAD3
:100418000411614082EA121404F0F01482EA041212
:10042800624083EA131404F0F01483EA041363406F
:1004380080EA102404F47F4480EA0420604081EAC2
:10044800112404F47F4481EA0421614082EA1224E1
:1004580004F47F4482EA0422624083EA132404F409
:100468007F4483EA0423634081EA500404F055344E
:1004780080EA4400614083EA520404F0553482EA79
:100488004402634082EA900404F0333480EA840032
:10049800624083EA910404F0333481EA84016340C2
:1004A800704700BF82EA900404F0333480EA840085
:1004B800624083EA910404F0333481EA84016340A2
:1004C80081EA500404F0553480EA4400614083EA2C
:1004D800520404F0553482EA4402634080EA10244E
:1004E80004F47F4480EA0420604081EA112404F483
:1004F8007F4481EA0421614082EA122404F47F44A3
:1005080082EA0422624083EA132404F47F4483EAE3
:100518000423634080EA101404F0F01480EA041005
:10052800604081EA111404F0F01481EA041161407A
:1005380082EA121404F0F01482EA0412624083EA98
:10054800131404F0F01483EA04136340704700BFE7
:100558002DE9F14F94464FEA930B8A68CB680868F7
:100568004968FFF749FF0BF1060E33E083EA1344AD
:1005780080EA134582EA134746BA96EA3444604053
:1005880000F00F1684EA063420F00F1684EA1610DD
:1005980054BA94EA0106724002F00F1486EA04364F
:1005A80022F00F1486EA14124CBA6540694001F033
:1005B8000F1485EA043521F00F1485EA14115CBA8A
:1005C80067407B4003F00F1487EA043723F00F14C9
:1005D80087EA1413BCE8F0006040694072407B4031
:1005E80000F0E03400F0103500F00F3040EA54001D
:1005F80040EAC50080EA900404F0332480EA8400CD
:10060800604001F0E03401F0103501F00F3141EAAB
:10061800540141EAC50181EA910404F0332481EAD6
:100628008401614002F0E03402F0103502F00F322C
:1006380042EA540242EAC50282EA920404F03324F0
:1006480082EA8402624003F0E03403F0103503F0DC
:100658000F3343EA540343EAC50383EA930404F0DF
:10066800332483EA8403634081EA324787EA1345E7
:1006780081EA354690EA060484EA034B82EA1B4283
:1006880080EA044484EA054483EA144A85EA144467
:100698008BEA044B84EA374481EA0B4181EA16412C
:1006A80004EA0A00454082EA04082BEA08004140AF
:1006B8008AEA0B0602EA060084EA34438AEA3A46E2
:1006C80003EA060778404540414088EA38478BEA04
:1006D8003B4007EA000985EA090583EA070946401D
:1006E80006EA0906714085EA010005EA35464640F2
:1006F80006EA314181EA304181EA364606EA304667
:1007080086EA3546344008EA010886EA01052A40A7
:1007180086EA364003405A4081EA31431F407C4014
:1007280080EA030709EA070988EA0908544088EAC1
:10073800020806EA0A0601EA0B018AEA0B021540DA
:100748008AEA3A42104045408BEA3B4003405E400B
:100758004240174079404D404E40E443F64386EA14
:1007680018435D4085EA054083EA134386EA03415E
:1007780083EA384284EA114383EA04435FEA334355
:10078800BEF1010E3FF6F2AE1ED4BCE8F0006040A8
:10079800694072407B4020BCFFF784FE2860696096
:1007A800AA60EB60BDE8F08F2DE9E0414FF2F0025E
:1007B80080EA1031114080EA01304840410882083F
:1007C800C3084FF0000E4FE700F0113001F011316F
:1007D80002F0113203F0113340EA410040EA82008E
:1007E80040EAC3004FF2F00280EA1031114080EA7B
:1007F80001304840BDE8E0812DE9F04F02F11C05C9
:100808000646074600EB850851F8040B043A46F8FB
:10081800040BF9D14FF0010CFFF7C6FF5FEA302057
:1008280080EA0C001ECF41404A4053405C401EC63F
:100838002000464517D04FEA4C0C1CF4807F18BFA7
:10084800ACF1E50C2C2DE7D03C2D06D1FFF7ACFF21
:1008580006CF41404A4006C6100006CF41404A40F4
:1008680006C61000D8E736E90F00FFF7C5FD043DBE
:1008780086E80F00F7D1BDE8F08F00BF2DE9F0073B
:1008880091E8F807B2E802105B1854EB0C04B2E8E0
:1008980002104D4156EB0C06B2E802104F4158EBDE
:1008A8000C08B2E8021059EB01095AEB0C0A80E86F
:1008B800F80780410130BDE8F00770472DE9F007DF
:1008C80091E8F807B2E802105B1A74EB0C04B2E87E
:1008D80002108D4176EB0C06B2E802108F4178EBDE
:1008E8000C08B2E8021079EB01097AEB0C0A80E8EF
:1008F800F80780414042BDE8F00770472DE9F0074E
:10090800524290E87800B1E880071740DB1918EAEE
:10091800020854EB080419EA020955EB09051AEA1A
:10092800020A56EB0A0678C090E87800B1E880071A
:1009380017407B4118EA020854EB080419EA020937
:1009480055EB09051AEA020A56EB0A0678C08041F7
:100958000130BDE8F00770472DE9F007524290E8F2
:100968007800B1E880071740DB1B18EA020874EB2F
:10097800080419EA020975EB09051AEA020A76EB76
:100988000A0678C090E87800B1E880071740BB41B4
:1009980018EA020874EB080419EA020975EB09055C
:1009A8001AEA020A76EB0A0678C080414042BDE89E
:1009B800F00770472DE9F00152424FF0040890E823
:1009C800300091E8C000A31B1340E41AF618EB1B93
:1009D8001340ED1AFF1830C0C0C1B8F10108EED1BC
:1009E800BDE8F001704700BF00B592E8DC072DE9CB
:1009F800DC07B1E8805702B4A7FB02510A95A8FBAF
:100A0800020BE7FB6310E9FB62B00B91A8FB0351F3
:100A1800EAFB6201E7FB64B5E7FB6605E8FB6615E0
:100A2800CDF830B0A9FB03B6EAFB6316ECFB6356BE
:100A3800E8FB640BE9FB641BEAFB645BECFB646B9F
:100A48000D90ACFB0230059CEEFB6250E9FB646044
:100A5800EAFB64B0E7FB6431E8FB6451069CE8FB01
:100A68006461E9FB64B1EAFB64010E93A7FB0432FD
:100A7800079CE7FB6462E8FB64B2E9FB6402EAFBFB
:100A88006412049CE9FB6453EAFB6463089CE7FB7B
:100A980064B3E8FB6403E9FB6413EAFB64230F9582
:100AA8005DF8049B99E80006DDF80080A9FB08546E
:100AB800EAFB68B4DDF81080ECFB6804EEFB681410
:100AC800E9FB6824EAFB6834DDF80480EEFB68651E
:100AD800E9FB68B5EAFB6805DDF81480ECFB6815EE
:100AE800EEFB6825E9FB6835EAFB68450F96DDF8FB
:100AF8000880AEFB0876E9FB6806EAFB6816DDF8B5
:100B08001880ECFB6826EEFB6836E9FB6846EAFBD2
:100B18006856DDF80C80ECFB68B7EEFB6807E9FB6C
:100B28006817EAFB6827DDF81C80ECFB6837EEFBEA
:100B38006847E9FB6857EAFB686708B000BD00BF73
:100B48002DE9F14F87B0FFF74FFFDDF81C8008F162
:100B5800200888E8FF00FFBC87E87F08BDE8F08F21
:100B680000B591E89857A3FB03520195A3FB040134
:100B7800E3FB6420E3FB67100292A3FB0752E3FB4D
:100B88006802E4FB6415E3FB6805E3FB6925039150
:100B9800A4FB07B6E3FB6926E3FB6A56E4FB670B95
:100BA800E4FB682BE3FB6A5BE3FB6C6B0490A4FB40
:100BB8000810E4FB6950E3FB6C60E3FB6EB0E7FBF5
:100BC8006721E4FB6951E4FB6A61E3FB6EB1E4FB76
:100BD8006E010592A7FB0832E4FB6A62E4FB6CB283
:100BE800E4FB6E02E7FB6E12E7FB6853E7FB696301
:100BF800E4FB6CB3E7FB6C03E7FB6E13E8FB6E23C7
:100C08000695A7FB0954E7FB6AB4E7FB6C04E8FB0D
:100C18006C14E8FB6E24E9FB6E34E8FB6865E7FBBF
:100C28006AB5E8FB6A05E8FB6C15E9FB6C25E9FB8E
:100C38006E35EAFB6E450796A8FB0976E8FB6A065F
:100C4800E9FB6A16E9FB6C26EAFB6C36EAFB6E46A2
:100C5800ECFB6E56E8FB69B7E9FB6907E9FB6A1725
:100C6800EAFB6A27EAFB6C37ECFB6C47ECFB6E5738
:100C7800EEFB6E6700BD00BF2DE9F14F87B0FFF7AF
:100C88006FFFDDF81C8008F1200888E8FF00FFBC32
:100C980087E87F08BDE8F08F2DE9F04FB0E8FE0740
:100CA80083B02DE9010790E8005F4FF00A00069035
:100CB8000198DB199CEA030C18EB3C4897EA0807F3
:100CC80013EB375393EA3C4C18EB3C6898EA3757D8
:100CD80024189EEA040E19EB3E4990EA090014EB29
:100CE800305494EA3E4E19EB3E6999EA3050CDE90A
:100CF8000489DDE9028949199AEA010A18EB3A4898
:100D080095EA080511EB355191EA3A4A18EB3A6829
:100D180098EA355592199BEA020B19EB3B4996EA7A
:100D2800090612EB365292EA3B4B19EB3B6999EAFA
:100D3800365613EB706393EA3B6B18EB3B4898EA23
:100D4800706013EB305393EA3B4B5FEA3B6B18EB55
:100D58000B0898EA30505FEA706014EB756494EA07
:100D68003C6C19EB3C4999EA756514EB355494EAE7
:100D78003C4C5FEA3C6C19EB0C0999EA35555FEA83
:100D88007565CDE90289DDE9048911EB766191EA9F
:100D98003E6E18EB3E4898EA766611EB365191EABA
:100DA8003E4E5FEA3E6E18EB0E0898EA36565FEA4A
:100DB800766612EB776292EA3A6A19EB3A4999EA4F
:100DC800776712EB375292EA3A4A5FEA3A6A19EBC6
:100DD8000A0999EA37575FEA776701900698013858
:100DE8007FF465AF01BC80E8005FBDE8000700E95B
:100DF800FE0703B0BDE8F08F30B44FF0000310F8E1
:100E0800014B11F8015B013A84EA050443EA040343
:100E1800F5D1A3F101034FEAD37030BC704700BF8E
:100E28004FF0000310F8012B013943EA0203F9D10E
:100E3800A3F101034FEAD370704700BF30B411F833
:100E4800014B12F8015B6C4000F8014B013BF6D1F5
:100E580030BC70472DE9F00791E8F807B2E80210B6
:100E68005B1854EB0C04B2E802104D4156EB0C062B
:100E7800B2E802104F4158EB0C08B2E8021059EBE7
:100E880001095AEB0C0A8941B3F1FF3374F1FF34BD
:100E980075F1FF3576F1000677F1000778F1000863
:100EA80079F101097AF1FF3A51F100015B184C41DF
:100EB8004D4156F1000657F1000758F1000859EB6B
:100EC800D1795AEB010A80E8F807BDE8F0077047C6
:100ED8002DE9F00791E8F807B2E802105B1A74EB05
:100EE8000C04B2E802108D4176EB0C06B2E8021051
:100EF8008F4178EB0C08B2E8021079EB01097AEB24
:100F08000C0A89415B184C414D4156F1000657F1D6
:100F1800000758F1000859EBD1795AEB010A80E82B
:100F2800F807BDE8F007704718EB040859EB050906
:100F38005AEB060A5BEB070B5FF0000C4CF1000C58
:100F480018EB050859EB06095AEB070A5BEB070B88
:100F580050EB0C005FF0000C51EB0C0152EB0C0253
:100F680063414CF1000CB8EB070879F100097AF1FC
:100F7800000A7BEB040BA841B141A241B3416CF1DB
:100F8800000CBBEB050BB041B941AA41BB416CF168
:100F9800000C4CF001068CF0020718EB060859EB20
:100FA8006C095AEB6C0A7BEB6C0B70EB6C0471EB05
:100FB8006C0572EB670653EB6C076CEB6C0C18EB6B
:100FC8000C0059EB0C015AEB0C025BF1000354F1D5
:100FD800000455F1000556EBDC7657EB0C0770471B
:100FE8002DE9F14F87B0FFF7FFFCDDF81080DDF841
:100FF8001490DDF818A0FFF797FFBDE8000FFFF782
:1010080093FF03B05DF8048B88E8FF00BDE8F08F1C
:101018002DE9F14F87B0FFF7A3FDDDF81080DDF86B
:101028001490DDF818A0FFF77FFFBDE8000FFFF769
:101038007BFF03B05DF8048B88E8FF00BDE8F08F04
:101048002DE9F14FF8C892E8005E19EB03095AEB55
:10105800040A5BEB050B5CEB060C4EEB070E91E804
:10106800E001A9FB0502AAFB0543E9FB6624EAFBAC
:101078006634A9FB0765E9FB6845B1E80003EBFBAB
:101088006836ECFB6846EEFB6856ABFB0987ECFB61
:101098006957EEFB696791E80202EAFB6148EBFBDE
:1010A8006158ECFB6168EEFB61784FF00001EAFBE8
:1010B8000951EBFB6961ECFB6971EEFB69814FF447
:1010C800A03C4FEA154949EA06495FF0000AE9FBE6
:1010D8000C0A4FEA164646EA0746E6FB6C2A4FEA30
:1010E800174747EA0847E7FB6C3A4FEA184848EAC7
:1010F8000148E8FB6C4AADB25544AF0805F003055A
:1011080007EB8707C01952F1000153F1000254F1AF
:10111800000345F1000420BC1FC5BDE8F08F00BFE7
:1011280030B490E83C10511D53F1000154F1000116
:1011380055F100014CF100014FEA9101494201F0DB
:101148000501521853F1000354F1000455F100054C
:101158004CF1000C0CF0030C80E83C1030BC7047DC
:101168002DE9F04F90E8F00F00F140004FF0040E29
:1011780059E0F0B4826BC36B0468052524268759AF
:101188003C444FEA724787EAF24787EA92273C4491
:1011980042684FEAF21787EAB24787EAD2073C4427
:1011A80040F8044B032D08BF6FF01B0687593A44DB
:1011B8004FEA734787EAF34787EA93273A44436835
:1011C8004FEAF31787EAB34787EAD3073A4440F868
:1011D800042B87593B444FEA744787EAF44787EA68
:1011E80094273B4444684FEAF41787EAB44787EAF0
:1011F800D4073B4440F8043B013DC0D1A0F13C007A
:10120800076A3C444FEA724787EAF24787EA92271F
:101218003C4402684FEAF21787EAB24787EAD207E6
:101228003C44C463F0BC4FF0020288EA781C8CEAA4
:10123800F84C0BEBBC1C8AEA090303EA080383EAAF
:101248000A039C4450F8043B9C4451F8043B9C44DA
:10125800674444EA050B0BEA060B04EA05034BEA6C
:10126800030BE34484EAF42383EA34530BEBB30B14
:1012780087EA771C8CEAF74C0AEBBC1C89EA08035E
:1012880003EA070383EA09039C4450F8043B9C449F
:1012980051F8043B9C4466444BEA040A0AEA050AEE
:1012A8000BEA04034AEA030AE2448BEAFB2383EAD3
:1012B8003B530AEBB30A86EA761C8CEAF64C09EB38
:1012C800BC1C88EA070303EA060383EA08039C4474
:1012D80050F8043B9C4451F8043B9C4465444AEA5A
:1012E8000B0909EA04090AEA0B0349EA0309E1447C
:1012F8008AEAFA2383EA3A5309EBB30985EA751CAB
:101308008CEAF54C08EBBC1C87EA060303EA0503E4
:1013180083EA07039C4450F8043B9C4451F8043B7F
:101328009C44644449EA0A0808EA0B0809EA0A03E3
:1013380048EA0308E04489EAF92383EA395308EBC9
:10134800B30884EA741C8CEAF44C07EBBC1C86EAEC
:10135800050303EA040383EA06039C4450F8043BAC
:101368009C4451F8043B9C44E34448EA090707EAD3
:101378000A0708EA090347EA0307674488EAF823E3
:1013880083EA385307EBB3078BEA7B1C8CEAFB4CE8
:1013980006EBBC1C85EA040303EA0B0383EA050396
:1013A8009C4450F8043B9C4451F8043B9C44E24460
:1013B80047EA080606EA090607EA080346EA0306B2
:1013C800664487EAF72383EA375306EBB3068AEACB
:1013D8007A1C8CEAFA4C05EBBC1C84EA0B0303EA82
:1013E8000A0383EA04039C4450F8043B9C4451F8E4
:1013F800043B9C44E14446EA070505EA080506EA79
:10140800070345EA0305654486EAF62383EA36536B
:1014180005EBB30589EA791C8CEAF94C04EBBC1C92
:101428008BEA0A0303EA090383EA0B039C4450F896
:10143800043B9C4451F8043B9C44E04445EA0604C0
:1014480004EA070405EA060344EA0304644485EA57
:10145800F52383EA355304EBB304013A7FF4E5AE90
:10146800A0F14000BEF1010E7FF483AEA0F1400C64
:101478009CE80F00001949199219DB19ACE80F0014
:101488009CE80F004044494452445B44ACE80F00D8
:10149800BDE8F08F2DE90050ACF1400288B0C3CA16
:1014A800CDE90001B2E80303CDE90201B2E8300C4E
:1014B800CDE90445B2E80350CDE9060184EAD460D9
:1014C80080EA451085EAD56181EA441180EA141062
:1014D80080EA057081EA151181EA04711CEB903CE1
:1014E8004EEB913E1CEB814C4EEB804EDDE9062322
:1014F80082EA0A0083EA0B01204029405040594003
:101508001CEB000C5EEB010E0A980899D0E9004527
:101518001CEB040C5EEB050ED1E900451CEB040C3A
:101528005EEB050E18EB0C0859EB0E09D0E90245E5
:1015380012196B41D1E9024512196B41DDE90445E5
:101548008AEA04008BEA050110EA080011EA090199
:1015580090EA0A0091EA0B0112184B4188EAD86018
:1015680080EA491089EAD96181EA481180EA1810AD
:1015780080EA097081EA191181EA087112EB903248
:1015880043EB913312EB814243EB8043CDE90623D1
:10159800DDE90023DDE9024582EAD22080EA4350F2
:1015A80083EAD32181EA425180EA921080EA83607B
:1015B80081EA931181EA82611CEB107C4EEB117E6B
:1015C8001CEB011C4EEB001E82EA0601324001EAC8
:1015D800040050401CEB000C01EA0C00504083EA68
:1015E80007023B4012EA050159405EEB010E02EA90
:1015F8000E015940DDE90623A4185D41CDE90245F5
:1016080012184B418CEADC2080EA4E508EEADE212B
:1016180081EA4C5180EA9C1080EA8E6081EA9E1132
:1016280081EA8C6112EB107243EB117312EB011219
:1016380043EB0013CDE9062384EAD46080EA451021
:1016480085EAD56181EA441180EA141080EA0570C0
:1016580081EA151181EA04711AEB903A4BEB913B40
:101668001AEB814A4BEB804BDDE9042382EA080040
:1016780083EA090120402940504059401AEB000AEA
:101688005BEB010B0A980899D0E904451AEB040AA8
:101698005BEB050BD1E904451AEB040A5BEB050B80
:1016A80016EB0A0657EB0B07D0E9064512196B41F2
:1016B800D1E9064512196B41DDE9024588EA0400C3
:1016C80089EA05013040394090EA080091EA0901A9
:1016D80012184B4186EAD66080EA471087EAD7613C
:1016E80081EA461180EA161080EA077081EA17112C
:1016F80081EA067112EB903243EB913312EB81428F
:1017080043EB8043CDE90423DDE90623DDE9004509
:1017180082EAD22080EA435083EAD32181EA425107
:1017280080EA921080EA836081EA931181EA8261FB
:101738001AEB107A4BEB117B1AEB011A4BEB001BDF
:1017480082EA0C0112EA0C0201EA040050401AEB8A
:10175800000A01EA0A00504083EA0E0213EA0E0367
:1017680012EA050159405BEB010B02EA0B015940F3
:10177800DDE90423A4185D41CDE9004512184B4169
:101788008AEADA2080EA4B508BEADB2181EA4A5167
:1017980080EA9A1080EA8B6081EA9B1181EA8A616B
:1017A80012EB107243EB117312EB011243EB0013AF
:1017B800CDE9042384EAD46080EA451085EAD5613E
:1017C80081EA441180EA141080EA057081EA151153
:1017D80081EA047118EB903849EB913918EB81488C
:1017E80049EB8049DDE9022382EA060083EA070122
:1017F800204029405040594018EB000859EB010996
:101808000A980899D0E9084518EB040859EB050926
:10181800D1E9084518EB040859EB05091CEB080C3D
:101828005EEB090ED0E90A4512196B41D1E90A4568
:1018380012196B41DDE9004586EA040087EA0501D3
:1018480010EA0C0011EA0E017040794012184B4161
:101858008CEADC6080EA4E108EEADE6181EA4C1187
:1018680080EA1C1080EA0E7081EA1E1181EA0C7170
:1018780012EB903243EB913312EB814243EB8043FE
:10188800CDE90223DDE90423DDE9064582EAD22019
:1018980080EA435083EAD32181EA425180EA9210D8
:1018A80080EA836081EA931181EA826118EB1078FB
:1018B80049EB117918EB011849EB001982EA0A0182
:1018C80012EA0A0201EA0400504018EB000801EA93
:1018D8000800504083EA0B0213EA0B0312EA0501E1
:1018E800594059EB010902EA09015940DDE902238F
:1018F800A4185D41CDE9064512184B4188EAD82065
:1019080080EA495089EAD92181EA485180EA981049
:1019180080EA896081EA991181EA886112EB107284
:1019280043EB117312EB011243EB0013CDE90223D1
:1019380084EAD46080EA451085EAD56181EA4411D9
:1019480080EA141080EA057081EA151181EA0471B1
:1019580016EB903647EB913716EB814647EB8047FD
:10196800DDE9002382EA0C0083EA0E0120402940C9
:101978005040594036184F410A980899D0E90C450B
:1019880036196F41D1E90C4536196F411AEB060A31
:101998005BEB070BD0E90E4512196B41D1E90E45F7
:1019A80012196B41DDE906458CEA04008EEA05014F
:1019B80010EA0A0011EA0B0190EA0C0091EA0E0104
:1019C80012184B418AEADA6080EA4B108BEADB6135
:1019D80081EA4A1180EA1A1080EA0B7081EA1B1129
:1019E80081EA0A7112EB903243EB913312EB814298
:1019F80043EB8043CDE90023DDE90223DDE904451B
:101A080082EAD22080EA435083EAD32181EA425114
:101A180080EA921080EA836081EA931181EA826108
:101A280016EB107647EB117716EB011647EB00170C
:101A380082EA080112EA080201EA04005040361856
:101A480001EA0600504083EA090213EA090312EA90
:101A5800050159404F4102EA07015940DDE90023D9
:101A6800A4185D41CDE9044512184B4186EAD620F9
:101A780080EA475087EAD72181EA465180EA9610E2
:101A880080EA876081EA971181EA866112EB107219
:101A980043EB117312EB011243EB0013CDE9002362
:101AA80084EAD46080EA451085EAD56181EA441168
:101AB80080EA141080EA057081EA151181EA047140
:101AC8001CEB903C4EEB913E1CEB814C4EEB804E58
:101AD800DDE9062382EA0A0083EA0B012040294057
:101AE800504059401CEB000C5EEB010E0A98089917
:101AF800D0E910451CEB040C5EEB050ED1E910454E
:101B08001CEB040C5EEB050E18EB0C0859EB0E09E8
:101B1800D0E9124512196B41D1E9124512196B41EE
:101B2800DDE904458AEA04008BEA050110EA0800A9
:101B380011EA090190EA0A0091EA0B0112184B41D7
:101B480088EAD86080EA491089EAD96181EA4811AF
:101B580080EA181080EA097081EA191181EA08718F
:101B680012EB903243EB913312EB814243EB80430B
:101B7800CDE90623DDE90023DDE9024582EAD2202A
:101B880080EA435083EAD32181EA425180EA9210E5
:101B980080EA836081EA931181EA82611CEB107C00
:101BA8004EEB117E1CEB011C4EEB001E82EA060177
:101BB800324001EA040050401CEB000C01EA0C0022
:101BC800504083EA07023B4012EA050159405EEBA8
:101BD800010E02EA0E015940DDE90623A4185D4111
:101BE800CDE9024512184B418CEADC2080EA4E50C0
:101BF8008EEADE2181EA4C5180EA9C1080EA8E60F0
:101C080081EA9E1181EA8C6112EB107243EB117329
:101C180012EB011243EB0013CDE9062384EAD460EA
:101C280080EA451085EAD56181EA441180EA1410FA
:101C380080EA057081EA151181EA04711AEB903A7D
:101C48004BEB913B1AEB814A4BEB804BDDE90423CC
:101C580082EA080083EA090120402940504059409F
:101C68001AEB000A5BEB010B0A980899D0E91445B6
:101C78001AEB040A5BEB050BD1E914451AEB040ACD
:101C88005BEB050B16EB0A0657EB0B07D0E916457D
:101C980012196B41D1E9164512196B41DDE902456C
:101CA80088EA040089EA05013040394090EA0800D2
:101CB80091EA090112184B4186EAD66080EA47107A
:101CC80087EAD76181EA461180EA161080EA077030
:101CD80081EA171181EA067112EB903243EB9133D6
:101CE80012EB814243EB8043CDE90423DDE906236F
:101CF800DDE9004582EAD22080EA435083EAD32115
:101D080081EA425180EA921080EA836081EA931165
:101D180081EA82611AEB107A4BEB117B1AEB011AFC
:101D28004BEB001B82EA0C0112EA0C0201EA0400E8
:101D380050401AEB000A01EA0A00504083EA0E02FA
:101D480013EA0E0312EA050159405BEB010B02EAA4
:101D58000B015940DDE90423A4185D41CDE9004594
:101D680012184B418AEADA2080EA4B508BEADB21D1
:101D780081EA4A5180EA9A1080EA8B6081EA9B11D5
:101D880081EA8A6112EB107243EB117312EB0112B4
:101D980043EB0013CDE9042384EAD46080EA4510BC
:101DA80085EAD56181EA441180EA141080EA057059
:101DB80081EA151181EA047118EB903849EB9139E1
:101DC80018EB814849EB8049DDE9022382EA0600E5
:101DD80083EA0701204029405040594018EB000889
:101DE80059EB01090A980899D0E9184518EB040835
:101DF80059EB0509D1E9184518EB040859EB050911
:101E08001CEB080C5EEB090ED0E91A4512196B4160
:101E1800D1E91A4512196B41DDE9004586EA04004B
:101E280087EA050110EA0C0011EA0E0170407940BA
:101E380012184B418CEADC6080EA4E108EEADE61B3
:101E480081EA4C1180EA1C1080EA0E7081EA1E11AA
:101E580081EA0C7112EB903243EB913312EB814221
:101E680043EB8043CDE90223DDE90423DDE90645A0
:101E780082EAD22080EA435083EAD32181EA4251A0
:101E880080EA921080EA836081EA931181EA826194
:101E980018EB107849EB117918EB011849EB001988
:101EA80082EA0A0112EA0A0201EA0400504018EB29
:101EB800000801EA0800504083EA0B0213EA0B030A
:101EC80012EA0501594059EB010902EA0901594092
:101ED800DDE90223A4185D41CDE9064512184B41FE
:101EE80088EAD82080EA495089EAD92181EA48510C
:101EF80080EA981080EA896081EA991181EA88610C
:101F080012EB107243EB117312EB011243EB001347
:101F1800CDE9022384EAD46080EA451085EAD561D8
:101F280081EA441180EA141080EA057081EA1511EB
:101F380081EA047116EB903647EB913716EB814630
:101F480047EB8047DDE9002382EA0C0083EA0E01B3
:101F5800204029405040594036184F410A98089966
:101F6800D0E91C4536196F41D1E91C4536196F4136
:101F78001AEB060A5BEB070BD0E91E4512196B41F9
:101F8800D1E91E4512196B41DDE906458CEA0400CA
:101F98008EEA050110EA0A0011EA0B0190EA0C002A
:101FA80091EA0E0112184B418AEADA6080EA4B1076
:101FB8008BEADB6181EA4A1180EA1A1080EA0B7029
:101FC80081EA1B1181EA0A7112EB903243EB9133DB
:101FD80012EB814243EB8043CDE90023DDE9022384
:101FE800DDE9044582EAD22080EA435083EAD3211E
:101FF80081EA425180EA921080EA836081EA931173
:1020080081EA826116EB107647EB117716EB011621
:1020180047EB001782EA080112EA080201EA040005
:102028005040361801EA0600504083EA090213EAD4
:10203800090312EA050159404F4102EA07015940D4
:10204800DDE90023A4185D41CDE9044512184B4190
:1020580086EAD62080EA475087EAD72181EA4651A6
:1020680080EA961080EA876081EA971181EA8661A2
:1020780012EB107243EB117312EB011243EB0013D6
:10208800CDE900230A9880300A90089AA2F140020C
:102098001BBCC3C2A2E818031BBCA2E8030CA2E83D
:1020A8001850BDE8009000BF00B59CE8F00FDCE9CF
:1020B8001201DCE91C23241845EB01054FEA560EF2
:1020C8008EEAC77E8EEA162E8EEA076E8EEAD61E36
:1020D8008EEA476E14EB0E044FEA570E8EEAC67E60
:1020E8008EEA172E8EEA066E8EEAD71E45EB0E058F
:1020F8004FEAD24E8EEA433E8EEAC20E8EEA537EF5
:102108008EEA921E8EEA836E14EB0E044FEAD34ECB
:102118008EEA423E8EEAC30E8EEA527E8EEA931E05
:1021280045EB0E05DCE91401DCE91E23361847EB04
:1021380001074FEA580E8EEAC97E8EEA182E8EEAFB
:10214800096E8EEAD81E8EEA496E16EB0E064FEA25
:10215800590E8EEAC87E8EEA192E8EEA086E8EEA2D
:10216800D91E47EB0E074FEAD24E8EEA433E8EEA5F
:10217800C20E8EEA537E8EEA921E8EEA836E16EBAC
:102188000E064FEAD34E8EEA423E8EEAC30E8EEA20
:10219800527E8EEA931E47EB0E07DCE9160118EB18
:1021A800000849EB01094FEA5A0E8EEACB7E8EEA07
:1021B8001A2E8EEA0B6E8EEADA1E8EEA4B6E18EB3A
:1021C8000E084FEA5B0E8EEACA7E8EEA1B2E8EEA56
:1021D8000A6E8EEADB1E49EB0E094FEAD44E8EEAF0
:1021E800453E8EEAC40E8EEA557E8EEA941E8EEA2D
:1021F800856E18EB0E084FEAD54E8EEA443E8EEAFD
:10220800C50E8EEA547E8EEA951E49EB0E09DCE96E
:102218001801DCE908231AEB000A4BEB010B4FEA23
:10222800520E8EEAC37E8EEA122E8EEA036E8EEA74
:10223800D21E8EEA436E1AEB0E0A4FEA530E8EEA4E
:10224800C27E8EEA132E8EEA026E8EEAD31E4BEB06
:102258000E0B4FEAD64E8EEA473E8EEAC60E8EEA3F
:10226800577E8EEA961E8EEA876E1AEB0E0A4FEAA2
:10227800D74E8EEA463E8EEAC70E8EEA567E8EEA24
:10228800971E4BEB0E0BACE8F00FDCE91201DCE912
:102298000267121843EB01034FEA560E8EEAC77E17
:1022A8008EEA162E8EEA076E8EEAD61E8EEA476EE4
:1022B80012EB0E024FEA570E8EEAC67E8EEA172EF2
:1022C8008EEA066E8EEAD71E43EB0E034FEAD84E0F
:1022D8008EEA493E8EEAC80E8EEA597E8EEA981E2C
:1022E8008EEA896E12EB0E024FEAD94E8EEA483E0C
:1022F8008EEAC90E8EEA587E8EEA991E43EB0E03CB
:10230800DCE91401DCE90489361847EB01074FEAD8
:10231800580E8EEAC97E8EEA182E8EEA096E8EEA6B
:10232800D81E8EEA496E16EB0E064FEA590E8EEA53
:10233800C87E8EEA192E8EEA086E8EEAD91E47EB01
:102348000E074FEADA4E8EEA4B3E8EEACA0E8EEA46
:102358005B7E8EEA9A1E8EEA8B6E16EB0E064FEAAD
:10236800DB4E8EEA4A3E8EEACB0E8EEA5A7E8EEA23
:102378009B1E47EB0E07DCE91601DCE906AB18EB00
:10238800000849EB01094FEA5A0E8EEACB7E8EEA25
:102398001A2E8EEA0B6E8EEADA1E8EEA4B6E18EB58
:1023A8000E084FEA5B0E8EEACA7E8EEA1B2E8EEA74
:1023B8000A6E8EEADB1E49EB0E094FEAD24E8EEA10
:1023C800433E8EEAC20E8EEA537E8EEA921E8EEA53
:1023D800836E18EB0E084FEAD34E8EEA423E8EEA21
:1023E800C30E8EEA527E8EEA931E49EB0E09DCE993
:1023F80008011AEB040A4BEB050B4FEA500E8EEA64
:10240800C17E8EEA102E8EEA016E8EEAD01E8EEA0A
:10241800416E1AEB0E0A4FEA510E8EEAC07E8EEA22
:10242800112E8EEA006E8EEAD11E4BEB0E0B4FEA90
:10243800D64E8EEA473E8EEAC60E8EEA577E8EEA62
:10244800961E8EEA876E1AEB0E0A4FEAD74E8EEA70
:10245800463E8EEAC70E8EEA567E8EEA971E4BEBF4
:102468000E0BACE8CC0F5CE90E45DCE902670019FD
:1024780041EB05014FEA560E8EEAC77E8EEA162E0C
:102488008EEA076E8EEAD61E8EEA476E10EB0E00B5
:102498004FEA570E8EEAC67E8EEA172E8EEA066E31
:1024A8008EEAD71E41EB0E014FEAD84E8EEA493E1E
:1024B8008EEAC80E8EEA597E8EEA981E8EEA896EDA
:1024C80010EB0E004FEAD94E8EEA483E8EEAC90E4E
:1024D8008EEA587E8EEA991E41EB0E015CE90C45A6
:1024E800DCE90489361947EB05074FEA580E8EEAEE
:1024F800C97E8EEA182E8EEA096E8EEAD81E8EEAFA
:10250800496E16EB0E064FEA590E8EEAC87E8EEA21
:10251800192E8EEA086E8EEAD91E47EB0E074FEA8F
:10252800DA4E8EEA4B3E8EEACA0E8EEA5B7E8EEA61
:102538009A1E8EEA8B6E16EB0E064FEADB4E8EEA7B
:102548004A3E8EEACB0E8EEA5A7E8EEA9B1E47EBF7
:102558000E075CE90A45DCE906AB18EB040849EB11
:1025680005094FEA5A0E8EEACB7E8EEA1A2E8EEABB
:102578000B6E8EEADA1E8EEA4B6E18EB0E084FEAE7
:102588005B0E8EEACA7E8EEA1B2E8EEA0A6E8EEAF1
:10259800DB1E49EB0E094FEAD04E8EEA413E8EEA29
:1025A800C00E8EEA517E8EEA901E8EEA816E18EB7E
:1025B8000E084FEAD14E8EEA403E8EEAC10E8EEAF0
:1025C800507E8EEA911E49EB0E09DCE908451AEBAC
:1025D800020A4BEB030B4FEA540E8EEAC57E8EEAD5
:1025E800142E8EEA056E8EEAD41E8EEA456E1AEB1C
:1025F8000E0A4FEA550E8EEAC47E8EEA152E8EEA32
:10260800046E8EEAD51E4BEB0E0B4FEAD64E8EEAC1
:10261800473E8EEAC60E8EEA577E8EEA961E8EEAF0
:10262800876E1AEB0E0A4FEAD74E8EEA463E8EEABE
:10263800C70E8EEA567E8EEA971E4BEB0E0BACE861
:10264800C30F5CE90E23DCE90267A41845EB030518
:102658004FEA560E8EEAC77E8EEA162E8EEA076E6F
:102668008EEAD61E8EEA476E14EB0E044FEA570E1A
:102678008EEAC67E8EEA172E8EEA066E8EEAD71E80
:1026880045EB0E054FEAD84E8EEA493E8EEAC80E53
:102698008EEA597E8EEA981E8EEA896E14EB0E0435
:1026A8004FEAD94E8EEA483E8EEAC90E8EEA587E27
:1026B8008EEA991E45EB0E055CE90C23DCE90489DA
:1026C800B61847EB03074FEA580E8EEAC97E8EEA22
:1026D800182E8EEA096E8EEAD81E8EEA496E16EB1F
:1026E8000E064FEA590E8EEAC87E8EEA192E8EEA39
:1026F800086E8EEAD91E47EB0E074FEADA4E8EEACD
:102708004B3E8EEACA0E8EEA5B7E8EEA9A1E8EEAEF
:102718008B6E16EB0E064FEADB4E8EEA4A3E8EEAC9
:10272800CB0E8EEA5A7E8EEA9B1E47EB0E075CE9BB
:102738000A23DCE906AB18EB020849EB03094FEA68
:102748005A0E8EEACB7E8EEA1A2E8EEA0B6E8EEA2F
:10275800DA1E8EEA4B6E18EB0E084FEA5B0E8EEA15
:10276800CA7E8EEA1B2E8EEA0A6E8EEADB1E49EBC3
:102778000E094FEAD44E8EEA453E8EEAC40E8EEA22
:10278800557E8EEA941E8EEA856E18EB0E084FEA87
:10279800D54E8EEA443E8EEAC50E8EEA547E8EEA07
:1027A800951E49EB0E095CE918231AEB000A4BEB5E
:1027B800010B4FEA520E8EEAC37E8EEA122E8EEA83
:1027C800036E8EEAD21E8EEA436E1AEB0E0A4FEAA9
:1027D800530E8EEAC27E8EEA132E8EEA026E8EEABF
:1027E800D31E4BEB0E0B4FEAD64E8EEA473E8EEACF
:1027F800C60E8EEA577E8EEA961E8EEA876E1AEB12
:102808000E0A4FEAD74E8EEA463E8EEAC70E8EEA89
:10281800567E8EEA971E4BEB0E0B8CE8F00FACF150
:10282800600C00BD2DE9F24F00F1400CB0E8F8074C
:10283800ACE8F807B0E8F807ACE8F807FEF72AFEB6
:10284800FFF732FCFEF726FEFFF72EFCFEF722FE0E
:10285800FFF72AFCFEF71EFEFFF726FCFEF71AFE1E
:10286800ACF1800808F1400998E80F0CB9E8F0507D
:102878000019694192197B411AEB0C0A4BEB0E0BBC
:10288800A8E80F0C98E80F0CB9E8F0500019694156
:1028980092197B411AEB0C0A4BEB0E0BA8E80F0CB4
:1028A80098E80F0099E8F0000019694192197B41F6
:1028B80088E80F00BDE8F88F81F0004102E000BF12
:1028C80083F0004330B54FEA41044FEA430594EAE8
:1028D800050F08BF90EA020F1FBF54EA000C55EA23
:1028E800020C7FEA645C7FEA655C00F0E2804FEAF4
:1028F8005454D4EB5555B8BF6D420CDD2C4480EAD6
:10290800020281EA030382EA000083EA010180EA05
:10291800020281EA0303362D88BF30BD11F0004F53
:102928004FEA01314FF4801C4CEA113102D0404289
:1029380061EB410113F0004F4FEA03334CEA1333C4
:1029480002D0524263EB430394EA050F00F0A780DC
:10295800A4F10104D5F1200E0DDB02FA0EFC22FAD7
:1029680005F2801841F1000103FA0EF2801843FACB
:1029780005F359410EE0A5F120050EF1200E012ABC
:1029880003FA0EFC28BF4CF0020C43FA05F3C018FA
:1029980051EBE37101F0004507D54FF0000EDCF173
:1029A800000C7EEB00006EEB0101B1F5801F1BD31C
:1029B800B1F5001F0CD349085FEA30004FEA3C0C20
:1029C80004F101044FEA445212F5800F80F09A8016
:1029D800BCF1004F08BF5FEA500C50F1000041EB1A
:1029E800045141EA050130BD5FEA4C0C404141EB1E
:1029F8000101013C28BFB1F5801FE9D291F0000F19
:102A080004BF01460020B1FA81F308BF2033A3F1C7
:102A18000B03B3F120020CDA0C3208DD02F1140CBE
:102A2800C2F10C0201FA0CF021FA02F10CE002F1F9
:102A38001402D8BFC2F1200C01FA02F120FA0CFCF2
:102A4800DCBF41EA0C019040E41AA2BF01EB04513B
:102A5800294330BD6FEA04041F3C1CDA0C340EDC39
:102A680004F11404C4F1200220FA04F001FA02F37C
:102A780040EA030021FA04F345EA030130BDC4F13A
:102A88000C04C4F1200220FA02F001FA04F340EA2F
:102A98000300294630BD21FA04F0294630BD94F0E0
:102AA800000F83F4801306BF81F480110134013DC7
:102AB8004EE77FEA645C18BF7FEA655C29D094EA38
:102AC800050F08BF90EA020F05D054EA000C04BFB6
:102AD8001946104630BD91EA030F1EBF00210020A1
:102AE80030BD5FEA545C05D14000494128BF41F040
:102AF800004130BD14F580043CBF01F5801130BDA4
:102B080001F0004545F0FE4141F470014FF000002E
:102B180030BD7FEA645C1ABF194610467FEA655CDF
:102B28001CBF0B46024650EA013406BF52EA033581
:102B380091EA030F41F4002130BD00BF90F0000F6F
:102B480004BF0021704730B54FF4806404F13204AB
:102B58004FF000054FF0000150E700BF90F0000F64
:102B680004BF0021704730B54FF4806404F132048B
:102B780010F0004548BF40424FF000013EE700BF5B
:102B880042004FEAE2014FEA31014FEA02701FBFEB
:102B980012F07F4393F07F4F81F06051704732F01D
:102BA8007F4208BF704793F07F4F04BF41F4002174
:102BB800704730B54FF4607401F0004521F00041D2
:102BC8001CE700BF50EA010208BF704730B54FF05C
:102BD80000050AE050EA010208BF704730B511F05D
:102BE800004502D5404261EB41014FF4806404F195
:102BF80032045FEA915C3FF4D8AE4FF003025FEA1B
:102C0800DC0C18BF03325FEADC0C18BF033202EB9E
:102C1800DC02C2F1200300FA03FC20FA02F001FAF8
:102C280003FE40EA0E0021FA02F11444BDE600BF9B
:102C380070B54FF0FF0C4CF4E06C1CEA11541DBF4A
:102C48001CEA135594EA0C0F95EA0C0F00F0DEF815
:102C58002C4481EA030621EA4C5123EA4C5350EAFA
:102C6800013518BF52EA033541F4801143F480134B
:102C780038D0A0FB02CE4FF00005E1FB02E506F0DC
:102C88000042E0FB03E54FF00006E1FB03569CF031
:102C9800000F18BF4EF0010EA4F1FF04B6F5007F37
:102CA80064F5407404D25FEA4E0E6D4146EB0606A9
:102CB80042EAC62141EA55514FEAC52040EA5E5032
:102CC8004FEACE2EB4F1FD0C88BFBCF5E06F1ED8DC
:102CD800BEF1004F08BF5FEA500E50F1000041EB13
:102CE800045170BD06F0004646EA010140EA0200C0
:102CF80081EA0301B4EB5C04C2BFD4EB0C0541EAE2
:102D0800045170BD41F480114FF0000E013C00F3F6
:102D1800AB8014F1360FDEBF002001F0004170BD1A
:102D2800C4F10004203C35DA0C341BDC04F1140433
:102D3800C4F1200500FA05F320FA04F001FA05F2BF
:102D480040EA020001F0004221F0004110EBD3708C
:102D580021FA04F642EB06015EEA430E08BF20EAB8
:102D6800D37070BDC4F10C04C4F1200500FA04F35B
:102D780020FA05F001FA04F240EA020001F00041ED
:102D880010EBD37041F100015EEA430E08BF20EA60
:102D9800D37070BDC4F1200500FA05F24EEA020EA8
:102DA80020FA04F301FA05F243EA020321FA04F0D7
:102DB80001F0004121FA04F220EA020000EBD3708E
:102DC8005EEA430E08BF20EAD37070BD94F0000F8E
:102DD8000FD101F00046400041EB010111F4801FC2
:102DE80008BF013CF7D041EA060195F0000F18BF73
:102DF800704703F00046520043EB030313F4801FAF
:102E080008BF013DF7D043EA0603704794EA0C0F68
:102E18000CEA135518BF95EA0C0F0CD050EA41067E
:102E280018BF52EA4306D1D181EA030101F00041FB
:102E38004FF0000070BD50EA410606BF1046194623
:102E480052EA430619D094EA0C0F02D150EA01362F
:102E580013D195EA0C0F05D152EA03361CBF104670
:102E680019460AD181EA030101F0004141F0FE410F
:102E780041F470014FF0000070BD41F0FE4141F493
:102E8800780170BD70B54FF0FF0C4CF4E06C1CEA93
:102E980011541DBF1CEA135594EA0C0F95EA0C0F48
:102EA80000F0A7F8A4EB050481EA030E52EA033503
:102EB8004FEA013100F088804FEA03334FF0805524
:102EC80045EA131343EA12634FEA022245EA111551
:102ED80045EA10654FEA00260EF000419D4208BF02
:102EE800964244F1FD0404F5407402D25B084FEAAF
:102EF8003202B61A65EB03055B084FEA32024FF45B
:102F080080104FF4002CB6EB020E75EB030E22BFB7
:102F1800B61A754640EA0C005B084FEA3202B6EB77
:102F2800020E75EB030E22BFB61A754640EA5C0026
:102F38005B084FEA3202B6EB020E75EB030E22BFB6
:102F4800B61A754640EA9C005B084FEA3202B6EBB7
:102F5800020E75EB030E22BFB61A754640EADC0076
:102F680055EA060E18D04FEA051545EA16754FEAD8
:102F780006164FEAC30343EA52734FEAC2025FEAF6
:102F88001C1CC0D111F4801F0BD141EA00014FF085
:102F980000004FF0004CB6E711F4801F04BF014356
:102FA8000020B4F1FD0C88BFBCF5E06F3FF6AFAE72
:102FB800B5EB030C04BFB6EB020C5FEA500C50F102
:102FC800000041EB045170BD0EF0004E4EEA113185
:102FD80014EB5C04C2BFD4EB0C0541EA045170BD8C
:102FE80041F480114FF0000E013C90E645EA060ED0
:102FF8008DE60CEA135594EA0C0F08BF95EA0C0FFE
:103008003FF43BAF94EA0C0F0AD150EA01347FF445
:1030180034AF95EA0C0F7FF425AF104619462CE71C
:1030280095EA0C0F06D152EA03353FF4FDAE10467F
:10303800194622E750EA410618BF52EA43067FF4D0
:10304800C5AE50EA41047FF40DAF52EA43057FF460
:10305800EBAE12E74FF0FF3C06E000BF4FF0010C6B
:1030680002E000BF4FF0010C4DF804CD4FEA410CCF
:103078007FEA6C5C4FEA430C18BF7FEA6C5C1BD09C
:1030880001B050EA410C0CBF52EA430C91EA030F1D
:1030980002BF90EA020F0020704710F1000F91EA7A
:1030A800030F58BF994208BF90422CBFD8176FEA48
:1030B800E37040F0010070474FEA410C7FEA6C5C16
:1030C80002D150EA013C07D14FEA430C7FEA6C5C1D
:1030D800D6D152EA033CD3D05DF8040B704700BF49
:1030E8008446104662468C461946634600E000BF97
:1030F80001B5FFF7B7FF002848BF10F1000F01BD69
:103108004DF808EDFFF7F4FF0CBF012000205DF833
:1031180008FB00BF4DF808EDFFF7EAFF34BF0120B8
:1031280000205DF808FB00BF4DF808EDFFF7E0FF51
:1031380094BF012000205DF808FB00BF4DF808EDA2
:10314800FFF7CEFF94BF012000205DF808FB00BF09
:103158004DF808EDFFF7C4FF34BF012000205DF8EB
:1031680008FB00BF4A0011D212F5001211D20DD58A
:103178006FF47873B3EB62520ED44FEAC12343F075
:10318800004343EA505323FA02F070474FF000001F
:10319800704750EA013002D14FF0FF3070474FF0CE
:1031A800000070477BB972B90029BEBF00204FF0FC
:1031B800004106E008BF00281CBF6FF000414FF037
:1031C800FF3000F075B8ADF1080C6DE904CE0029A8
:1031D80009DB002B1ADB00F087F8DDF804E0DDE9F5
:1031E800022304B07047404261EB4101002B1BDB16
:1031F80000F07AF8DDF804E0DDE9022304B040428B
:1032080061EB4101524263EB43037047524263EB67
:10321800430300F069F8DDF804E0DDE9022304B0B7
:10322800404261EB41017047524263EB430300F0B7
:103238005BF8DDF804E0DDE9022304B0524263EBF9
:103248004303704753B94AB9002908BF00281CBF77
:103258004FF0FF314FF0FF3000F02AB8ADF1080C05
:103268006DE904CE00F040F8DDF804E0DDE9022362
:1032780004B07047D0B500220B4B06460F46FFF747
:10328800D7FCFFF76FFF0446FFF758FC0022074BF7
:10329800FFF7CEFC02460B4630463946FFF710FBD7
:1032A800FFF760FF2146D0BD0000F03D0000F0416F
:1032B800704700BF10F8012B11F8013B012A28BF05
:1032C8009A42F7D0D01A7047034611F8012B03F839
:1032D800012B002AF9D17047034613F8012B002A65
:1032E800FBD1181A013870472DE9F04786468C46FD
:1032F8000846089E154674461946002B40F0C180C2
:103308008542B2FA82F245D94AB1C2F1200300FAE5
:1033180002FC954094402EFA03F343EA0C0C4FEA62
:10332800154EA8B2230CBCFBFEF80EFB18CC08FB0C
:1033380000F943EA0C43994528D9EB1808F1FF37FF
:1033480004D2994502D9A8F102072B44A3EB09033B
:10335800A4B2B3FBFEFC0EFB1C330CFB00F044EAEA
:103368000344A04214D92C190CF1FF3304D2A04213
:1033780002D9ACF102032C44241A43EA07401EB1D7
:10338800D440002334607360BDE8F0874746DDE72A
:103398006346F1E792BB431B01214FEA154EAFB2DA
:1033A800200CB3FBFEFC0EFB1C330CFB07F840EAB9
:1033B8000343984561D9EB180CF1FF3004D29845C6
:1033C80002D9ACF102002B44A3EB0803A4B2B3FB6F
:1033D800FEFC0EFB1C330CFB07F744EA0344A74230
:1033E8004DD92C190CF1FF3304D2A74202D9ACF104
:1033F80002032C44E41B43EA0040C0E7C2F1200367
:103408009540944020FA03F12EFA03F34FEA154E43
:103418009040AFB20343B1FBFEFC0EFB1C10190C2D
:103428000CFB07F841EA0041884522D969180CF1DC
:10343800FF3004D2884502D9ACF102002944A1EB3F
:1034480008019BB2B1FBFEFC0EFB1C110CFB07F73D
:1034580043EA01439F420ED9EB180CF1FF3104D225
:103468009F4202D9ACF102012B44DB1B41EA004127
:1034780093E76046E3E76146F7E76046A4E76346FB
:10348800B8E7834206D916B9002108467CE7C6E9A1
:1034980000E0F9E7B3FA83F78FB9834201D37245A5
:1034A80008D8BEEB020460EB030301209C461EB95A
:1034B800002169E73846FAE7C6E9004CF8E7C7F1A2
:1034C800200CBB400EFA07F522FA0CF42EFA0CF188
:1034D800BA401C4320FA0CF3B8404FEA14490143A0
:1034E8001FFA84FEB3FBF9F809FB18300B0C08FB34
:1034F8000EFA43EA00439A4540D9E31808F1FF3031
:1035080004D29A4502D9A8F102002344A3EB0A0386
:1035180089B2B3FBF9F809FB183308FB0EFE41EA40
:1035280003418E452CD9611808F1FF3304D28E452A
:1035380002D9A8F10203214443EA0040A1EB0E019D
:10354800A0FB02984145CE46434602D306D14D45DD
:1035580004D20138B9EB020E68EB0403002EA7D0A1
:10356800B5EB0E0261EB030101FA0CFC22FA07F33A
:10357800F9404CEA0303C6E9003199E74046C5E73C
:103588004346D9E7000000002DE9F04F8846D0F8FF
:10359800F41082460B6B16468FB053B106221831D1
:1035A80006F120006EF06CFB18B901200FB0BDE8E1
:1035B800F08F504604A9D8F86050D8F87840B76F13
:1035C80059F038FD002852D1DDF820B0BBF1000FCA
:1035D80004D1DDF81CB0BBF1000F27D042F20F7107
:1035E800099B049A8B420AD16FF47A63D31840F28C
:1035F800657293428CBF6FF058036FF05B034046CF
:10360800ABEB030957F0C0FDD8F88420034608F156
:103618008C010AB9D8F88820D8F850005D46CDE961
:10362800009050460AF088FBCB46044604F59C53AC
:103638000833BB42B9D3336DB3F57A6F1ADDD8F8C6
:103648005030B3F57A6FACBF4FF0000A4FF0010A63
:10365800002D12DB07F59C5308339C4200F2CB8007
:10366800BBF1190F00F3C7804FF0020B3AE04FF09F
:10367800000BDBE74FF0000AEAE7336E03EB4A037F
:10368800AB4215DA3846FFF759FA80462046894694
:10369800FFF754FA4FF033325B4BFFF7C9FA024693
:1036A8000B4640464946FFF735FD002840F0A38009
:1036B80007F59C530833A342C0F09D80BBF1190F56
:1036C80000F3998015F1550F31DB15F1500FCBDB65
:1036D80015F14B0F2EDB15F1460FB4BF4FF0040B5D
:1036E8004FF0050B2046FFF729FA804638468946F1
:1036F800FFF724FA02460B46CDE902230022434B8A
:10370800FFF796FA02460B4640464946FFF720FD6A
:1037180098B10BF10A0BBAF1000F01D0ABF1020B13
:10372800306E401B5845B4BF002001203EE74FF0E3
:10373800010BD7E74FF0030BD4E74FF03332DDE945
:103748000201314BFFF774FA02460B4640464946E0
:10375800FFF7FEFC10B10BF1050BDCE728A3D3E95A
:103768000023DDE90201FFF763FA02460B464046F3
:103778004946FFF7EDFC10B10BF1020BCBE7BC4259
:1037880002D90BF1010BC6E70022204B40464946FF
:10379800FFF74EFA02460B46DDE90201FFF7D8FCB7
:1037A80010B1ABF10A0BB6E74FF03332164B404677
:1037B8004946FFF73DFA02460B46DDE90201FFF7ED
:1037C800C7FC10B1ABF1050BA5E70DA3D3E90023A6
:1037D80040464946FFF72CFA02460B46DDE902014E
:1037E800FFF7B6FC10B1ABF1020B94E7BC4238BF4F
:1037F8000BF1FF3B8FE70020D8E600BFAFF3008056
:103808009A9999999999F13F3333F33F0000F83F1A
:103818002DE9F04182B000AF002140F603403A1D87
:1038280020F08EFA0446002840F0B8807C68E368EF
:103838001B7863B921F078F95B4BD3E8AF2F02F01E
:103848000902D3E8EF1FC3E8E02F0028F9D120468A
:103858001FF036F9002141F203003A1D20F070FAFA
:103868000446002840F09A807A68504DD16805F1E6
:103878007803D1F80100D1F8051003C310461FF0F2
:103888001FF9214641F201003A1D20F059FA044679
:10389800002840F083807868C3685A7885F87020DB
:1038A8005A88A5F872201A7985F87120B3F807208C
:1038B800A5F87420B3F80530A5F876301FF000F9A4
:1038C800214641F202003A1D20F03AFA0446002847
:1038D80064D1D7F804C005F18006DCF80C20531C2D
:1038E8004132344618685968083303C4934226465F
:1038F800F7D160461FF0E4F821F090F9044600285B
:103908004CD195F88A309A0610D40221284A2948C1
:103918005FF02AF895F87C305B064FD40121264ADF
:1039280024485FF021F86FF0120437E0072140F6D1
:1039380033401FF0B5FF0646002800F02381072119
:103948000C305EF094FE6FF009034FF0010803702D
:103958000623C0F8024084710471224680F8018071
:10396800C370314640F6334020F0EAF90446A8B95E
:10397800414640F631401FF093FF0646002800F00C
:10398800018141460C305EF081FE2246314640F608
:10399800314020F0D5F904460028BBD0204608372E
:1039A800BD46BDE8F08100BF0401002030000020C2
:1039B800F50F0900B424070023100900002142F282
:1039C80003003A1D20F0BCF904460028E6D17B68C4
:1039D800914EDA68D2F80100D2F8051003C61846ED
:1039E8001FF06EF8214642F202003A1D20F0A8F9B5
:1039F80004460028D2D17C68E368B3F8012091B26C
:103A080049B1D97839B1A5F80421DA78114606F117
:103A1800280069F010FC20461FF052F81F2395F883
:103A28007C60A5F8203116F0200618D1022140F656
:103A38006D401FF035FF0446002800F0A3800221E6
:103A48000C305EF014FE01232146037046703246A6
:103A580040F66D4020F074F9044600289ED195F890
:103A68009C301E0712D5002142F21C003A1D20F09E
:103A780067F90446002891D17868C368D3F8012013
:103A8800D3F80530C5E938231FF01AF895F8D8306F
:103A98005C0610D5002142F22A003A1D20F050F9A8
:103AA800044600287FF47AAF7868C3685B7885F8A5
:103AB80022311FF005F8082142F201001FF0F0FE44
:103AC800044600285ED008210C305EF0D0FD95F841
:103AD800D81040F2022311F0400F08BF032302461A
:103AE80088074CBF43F02C0043F00C008B0695F878
:103AF800D93048BF40F0400013F0090F95F8A230C4
:103B080018BF40F4006003F00603CE0748BF40F03A
:103B18001000062B08BF40F4C07000215EF03EFF85
:103B28002146002242F2010020F00AF9044600284A
:103B38007FF434AF95F87C30B5F80411980624D496
:103B4800C9B941F205003A1D20F0FAF804460028E8
:103B58007FF424AFB5F804317C684BB9E368B3F857
:103B68000120A5F804219A882C48114669F063FBC6
:103B780020461EF0A5FF082140F601401FF090FEE8
:103B8800044660B96FF0680408E70029F3D1012101
:103B9800234A24485EF0E8FE6FF00404FEE608219C
:103BA8000C305EF064FD95F8D8300246D90729D468
:103BB8004FF000511C485EF0F1FE2146002240F60D
:103BC800014020F0BDF8044600287FF4E7AE014626
:103BD8003A1D4FF6014020F0B3F848B3134A0221CA
:103BE80010485EF0C1FE20F09FFD044600287FF4D7
:103BF800D5AE22F025F8044600287FF4CFAE1FF09A
:103C0800BBFECBE602A1D1E90001D4E7AFF3008007
:103C18009088000200800020080100203801002060
:103C280047100900B4240700108800026A10090030
:103C38007B686E46DC688AB0B4F80130032B96BF07
:103C4800424A434952F823106A46D3614FF400733D
:103C580040481384404BC2E9050142F8103F4FF435
:103C680013513E485EF08FFEB4F80120B546022A93
:103C7800B4F8033049D1052B47D8394A52F82310F4
:103C88006E468AB06A46D3614FF400733548138490
:103C9800314BC2E9050142F8103F4FF413512F4848
:103CA8005EF071FEB546637994F806C0032B98BFA1
:103CB8002D4AB4F80760D4F809006C468CB094BF5C
:103CC80052F8231022496A46C2E9073C4FF40073B0
:103CD800DFF898E09385264BC2E905E1C2E909605F
:103CE8004FF4735142F8103F1C485EF04CFEA54655
:103CF80078681EF0E5FE00214FF602403A1D20F0DC
:103D08001FF8044618B11B4A69E71149B8E77868F3
:103D1800C368B3F80130A5F8C1301EF0D1FE95F89C
:103D2800C1305B077FF55FAF21464FF603403A1D70
:103D380020F006F808B1104A51E77868C3685B7844
:103D480085F8C0301EF0BCFE4DE700BF2C570700B9
:103D580010C708008E10090004000001B4240700F1
:103D680014570700A710090004570700BF100900DF
:103D780007000001EC1009001511090000000000FF
:103D88002DE9F04F012984468E4687B064D8002972
:103D980042D033A3D3E9002333A7D7E9006734A57A
:103DA800D5E900450FF2D00BDBE900AB34A1D1E92E
:103DB8000001CDE9042334A3D3E90023CDE900238E
:103DC80033A3D3E90023CDE9022333A3D3E90023A6
:103DD8004FF000084FF00009CCE90A01DDE90401C1
:103DE800CCE90C01DDE90001CCE90E01DDE90201B5
:103DF800CCE910010020CCE90089CCE90289CCE9A2
:103E08000467CCE90645CCE908ABCCE91223CCF829
:103E1800D0E007B0BDE8F08F21A3D3E9002322A7A3
:103E2800D7E90067CDE9042321A5D5E9004522A3F8
:103E3800D3E900230FF2880BDBE900ABCDE90023BF
:103E480021A1D1E9000122A3D3E90023CDE902236E
:103E580021A3D3E90023BBE76FF07400D9E700BFC3
:103E6800310BC0FF67263367D89E05C15D9DBBCB6C
:103E780007D57C362A299A6217DD70305A01599184
:103E880039590EF7D8EC2F1511155868874AB48E92
:103E9800A78FF9640D2E0CDBA44FFABE1D48B54759
:103EA800D182E6AD7F520E5108C9BCF367E6096AB4
:103EB8003BA7CA8485AE67BB1F6C3E2B8C68059BED
:103EC8002BF894FE72F36E3CF1361D5F3AF54FA560
:103ED8006BBD41FBABD9831F79217E1319CDE05B04
:103EE80030B417A3D3E9002300240025C0E9002338
:103EF80015A3D3E90023C0E9604515A5D5E9004518
:103F0800C0E9022314A3D3E90023C0E9044514A59A
:103F1800D5E90045C0E9062313A3D3E90023C0E986
:103F2800084513A5D5E90045C0E90A2312A3D3E93A
:103F38000023C0E90C4530BCC0E90E23704700BF20
:103F480008C9BCF367E6096A3BA7CA8485AE67BBA4
:103F58002BF894FE72F36E3CF1361D5F3AF54FA5CF
:103F6800D182E6AD7F520E511F6C3E2B8C68059BAB
:103F78006BBD41FBABD9831F79217E1319CDE05B63
:103F88002DE9F04373A5D5E90045E3B00023CDE959
:103F98000045154660936192804670A3D3E90023DB
:103FA800CDE902236FA3D3E90023CDE904236FA34E
:103FB800D3E90023CDE906236EA3D3E90023CDE995
:103FC80008236EA3D3E90023CDE90A236DA3D3E91F
:103FD8000023CDE90C236DA3D3E90023CDE90E23FB
:103FE80045B900254146684660954EF0E1FC63B04E
:103FF800BDE8F0837F2D0E467AD90C46A5F18007DF
:1040080027F07F078037DFF848910F4460682268FF
:1040180000BA12BAE368CDE9200262691BBA12BA83
:1040280022932492E369A2691BBA12BA26932792B3
:10403800636A626B1BBA12BAA168206928932C9232
:10404800E36AE26B09BA00BA1BBA12BA2391259047
:10405800A16A206A2E922A93226BA36B09BA00BA2E
:1040680012BA1BBA2B912D922F932990606C216C58
:10407800E36C00BA09BACDE930011BBA616D32931D
:10408800E36D09BA1BBA3491A16DA26C3693636EC5
:1040980009BA206D12BA1BBA3791616F33923893FF
:1040A800E26EA36E00BA09BA803412BA1BBA359010
:1040B80054F8200C3C9154F8041CCDE93A2354F8E8
:1040C800102C54F8083C00BA09BA39903E9112BA3B
:1040D8001BBA494668463D923F93FEF7A3FBBC4294
:1040E80094D125F07F0315F07F051E443FF479AF86
:1040F800002D14BF2C460124032D26D9334624F065
:104108000300304440AA53F8041B984242F8041BA9
:10411800F9D124F00303A2071E443FF463AF3178BA
:104128000DEB030282F800115A1C95427FF65AAF34
:10413800717802336A449D4282F800117FF652AFCB
:10414800B2786B4483F800214CE70023E7E700BF0F
:10415800782D070008C9BCF367E6096A3BA7CA843B
:1041680085AE67BB2BF894FE72F36E3CF1361D5F8B
:104178003AF54FA5D182E6AD7F520E511F6C3E2B0A
:104188008C68059B6BBD41FBABD9831F79217E13DE
:1041980019CDE05B0000000030B417A3D3E9002379
:1041A80000240025C0E9002315A3D3E90023C0E9B2
:1041B800604515A5D5E90045C0E9022314A3D3E954
:1041C8000023C0E9044514A5D5E90045C0E9062344
:1041D80013A3D3E90023C0E9084513A5D5E9004591
:1041E800C0E90A2312A3D3E90023C0E90C4530BC77
:1041F800C0E90E23704700BFD89E05C15D9DBBCBAB
:1042080007D57C362A299A6217DD70305A015991F0
:1042180039590EF7D8EC2F15310BC0FF67263367D5
:1042280011155868874AB48EA78FF9640D2E0CDBD8
:10423800A44FFABE1D48B5472DE9F04373A5D5E94B
:104248000045E3B00023CDE900451546609361922F
:10425800804670A3D3E90023CDE902236FA3D3E9F5
:104268000023CDE904236FA3D3E90023CDE9062376
:104278006EA3D3E90023CDE908236EA3D3E9002375
:10428800CDE90A236DA3D3E90023CDE90C236DA35F
:10429800D3E90023CDE90E2345B9002541466846F8
:1042A80060954EF069FD63B0BDE8F0837F2D0E4642
:1042B8007AD90C46A5F1800727F07F078037DFF809
:1042C80048910F446068226800BA12BAE368CDE9E1
:1042D800200262691BBA12BA22932492E369A26986
:1042E8001BBA12BA26932792636A626B1BBA12BA78
:1042F800A168206928932C92E36AE26B09BA00BA94
:104308001BBA12BA23912590A16A206A2E922A9389
:10431800226BA36B09BA00BA12BA1BBA2B912D9261
:104328002F932990606C216CE36C00BA09BACDE92F
:1043380030011BBA616D3293E36D09BA1BBA34912F
:10434800A16DA26C3693636E09BA206D12BA1BBABE
:104358003791616F33923893E26EA36E00BA09BA4F
:10436800803412BA1BBA359054F8200C3C9154F89A
:10437800041CCDE93A2354F8102C54F8083C00BA30
:1043880009BA39903E9112BA1BBA494668463D921D
:104398003F93FEF747FABC4294D125F07F0315F00E
:1043A8007F051E443FF479AF002D14BF2C4601242D
:1043B800032D26D9334624F00300304440AA53F88D
:1043C800041B984242F8041BF9D124F00303A20706
:1043D8001E443FF463AF31780DEB030282F80011FD
:1043E8005A1C95427FF65AAF717802336A449D424F
:1043F80082F800117FF652AFB2786B4483F800213F
:104408004CE70023E7E700BF782D0700D89E05C1D9
:104418005D9DBBCB07D57C362A299A6217DD7030A3
:104428005A01599139590EF7D8EC2F15310BC0FFA5
:104438006726336711155868874AB48EA78FF964C1
:104448000D2E0CDBA44FFABE1D48B547014850F0AD
:1044580029BA00BFDA6E0700014850F023BA00BF3E
:10446800076F070010B50C46074850F01BFA628822
:104478002188064850F016FAE288A188044850F0CE
:1044880011FA012010BD00BF1A6F07004A6F07001C
:10449800766F070030B50D4604468BB02822002100
:1044A80068466DF04AFA0D4B0D490E48002D08BFBD
:1044B800194650F0F7F96946204621F025F90146DA
:1044C80020B1094850F0EEF90BB030BD9DF801302D
:1044D800002BF9D10122054B1A70F5E7906F070000
:1044E800738F09009B6F0700AC6F0700D98100200C
:1044F80038B50025054C064850F0D4F9054B20681E
:104508001D7010B120F02AFE256038BDB448002087
:10451800CE6F0700D9810020F0B50C4691B0054652
:104528002822002106A86DF008FA34B1022C0ED01A
:104538002146254850F0B6F909E0244C236843B1D8
:10454800234850F0AFF9132128465EF02EFD11B034
:10455800F0BD28465EF061FC06A9206021F0D4F881
:10456800014608B11B48E5E71B4B1C4A9DF819108A
:104578001B48002914BF1146194650F093F9BDF89D
:104588002C10184850F08EF99DF81930002BDED108
:1045980001AA1646144B256803F11007144618683B
:1045A8005968083303C4BB422246F7D11B78314609
:1045B800237028460D4B0E4A02F054FE014600288F
:1045C800C5D00C48B6E700BFFF6F0700B44800200D
:1045D8001F700700AC6F0700EC6F0700F46F07004F
:1045E80050700700617007003027070094480020CA
:1045F800A00100207D70070038B504460D460E481E
:1046080050F050F92946204602F014FF204651F098
:10461800A9FA0A490A4B0B600A4B186824F044FAB5
:10462800014620B1BDE83840074850F03BB907487B
:10463800BDE8384050F036B9977007009048002020
:104648009D440000B4480020B4700700D2700700F1
:1046580013B50A4C23787BB1CB88094800938B8823
:104668004A88098850F01EF900232370054802B0D3
:10467800BDE8104043F0F0BD02B010BDDA81002063
:10468800E8700700A814002008B50B460A785B7884
:10469800042A96BF0849094951F82210042B96BFED
:1046A800054A064A52F82320054850F0FBF8BDE8B1
:1046B8000840044843F0D0BDF82F07002A710700CE
:1046C80032710700A814002008B5044850F0EAF831
:1046D800BDE80840024843F0BFBD00BF587107005D
:1046E800A8140020F0B5354B85B01B6843B9344990
:1046F800344850F0D7F86FF00D04204605B0F0BDEF
:10470800314B1B7823B9314850F0CCF80024F4E73A
:104718002F4850F0C7F801222E492F4851F03EFA91
:10472800044618B12D4850F0BDF8E6E74FF097FD64
:104738000546284E284F314640F2EF12384651F0D0
:104748002DFA014620B3264850F0ACF84FF087FD0B
:10475800451B61F10006234850F0A4F833462A4669
:10476800E000610FFEF76EFDA70ACDE902013A46A7
:1047780021461D48CDE9005650F094F8164802F03D
:10478800B3FE044690B10146184850F08BF8B4E7E0
:104798004FF065FD44F62162401B63EB0303904232
:1047A80073F1000304F2EF14C5D3CFE74FF42022CE
:1047B80000230F4843F076FDA8E700BFB448002067
:1047C800A0710700CF710700D9810020E9710700A7
:1047D80038720700EA7F0020944800205D720700C5
:1047E80078720700937207009A720700D172070067
:1047F800A81400202DE9F04104461F4D00AF2846BB
:1048080003211E4A4FF03DFD284603211C4A4FF064
:1048180038FDD4E90A01236B26684FF47A725E43A7
:104828000023FEF70FFDE8468AB06A46154BC2E939
:104838000801C2E905360623284642F8103F4FF41E
:1048480043514FF020FD2846C546236803210E4AF0
:104858004FF015FD2846A36803210C4A4FF00FFDC1
:104868000321284663680A4A4FF009FD094843F0C6
:10487800F3FCBD46BDE8F0811C2507001D73070049
:1048880040730700507307006473070074730700D0
:1048980084730700C01400200346022B084607D083
:1048A800032B07D04BB90321044A05484FF0E9BC54
:1048B800FFF7A0BF0121034AF7E770479873070085
:1048C8001C250700B07307002DE9F04786B000AF3C
:1048D8002AF004FE644D014648232A46634861F0E5
:1048E80077FA40B10321624A62484FF0CAFC183790
:1048F800BD46BDE8F08703215F4A5E484FF0C1FC22
:1049080003215E4A5B484FF0BCFC28782AF098FAED
:104918006E4688B06A464FF4007A594BDFF86491C6
:10492800C2E90530A2F81CA04FF4E651514842F8FC
:10493800109F4FF0A8FC2B68B546052BD7DD95F8DE
:1049480034002AF089FA88B06A464F4BA2F81CA0B6
:10495800C2E905304FF4E65142F8109F45484FF040
:1049680092FCB54695F835002AF082FA88B06C4674
:10497800A046464BA4F81CA0C4E9053048F8109F8F
:1049880042464FF4E6513B484FF07DFCB546A546FC
:104998003F4B4246636105F10803A3614FF4E651BA
:1049A8003448A4F81CA0C4F810904FF06CFC1223F3
:1049B800B54606213A1D05F128002CF07FFCA546D6
:1049C800344B4246C4E905304FF4E6512948A4F86F
:1049D8001CA0C4F810904FF056FCB54695F82E0070
:1049E8002AF022FAA5462C4B4246C4E905304FF47A
:1049F800E6512048A4F81CA0C4F810904FF043FCDE
:104A08000321B5462B6B254A1A484FF038FC95F818
:104A180036002AF0F1F9A546214B4246C4E9053093
:104A28004FF4E6511348A4F81CA0C4F810904FF0B6
:104A38002AFCB54695F837002AF0EAF9A546194B3D
:104A48004246C4E905304FF4E6510A48A4F81CA0D0
:104A5800C4F810904FF017FC0321B546AB6B124A0F
:104A680004484FF00CFC42E7B848002006005651B5
:104A7800C27307001C250700D9730700ED730700F0
:104A880001740700030000010C7407001F7407007D
:104A98002D74070039740700437407004C7407002D
:104AA80058740700657407006D740700B0B5284B8B
:104AB80000AF994204D0013399421AD0BD46B0BD27
:104AC80083681B6853B10121224A23484FF0D7FB62
:104AD800FFF7FAFE214843F0BFFBEFE7204A032126
:104AE8001D484FF0CEFB1F4A137843F001031370A3
:104AF800EEE71C4C8268237813F002051FD011687A
:104B0800194B1A4A6D468AB0002908BF13466A46EF
:104B18001748D161C2E905034FF400731384154B9C
:104B28004FF4135142F8103F0B484FF0ACFBAD4621
:104B380023786FF341032370FFF7C6FEBEE7032116
:104B48000D4A05484FF09DFB237865F30003F2E713
:104B5800030056D17B7407001C250700F0140020C1
:104B68009A740700DB810020738F090076740700B0
:104B7800A474070004000001C274070090B5124B2A
:104B8800A1B0994200AF1BD18168283180233A46F1
:104B980001202CF0BFFB6C4688B06A460B4B4FF4E3
:104BA800E651C2E905374FF400739383084B09486F
:104BB80042F8103F4FF067FBA546074843F04CFB0F
:104BC8008437BD4690BD00BF080004E0CF740700DD
:104BD800030000011C250700F0140020F8B50C465E
:104BE800054600AF88B16E4688B06A46284B4FF438
:104BF800E651C2E905304FF400739383254B2648EC
:104C080042F8103F4FF03FFBB5464FF47A734FF42C
:104C1800004640F2E73000215C434FF47A720023EB
:104C2800E4FB0601FEF70EFB02460B461B4843F069
:104C380039FB6E460446B0B18AB06A46184BD0615B
:104C4800C2E905354FF400731384164B4FF4115124
:104C5800114842F8103F4FF016FB4FF0FF34B546AD
:104C68002046BD46F8BD88B06A460F4B4FF4E65162
:104C7800C2E905354FF400739383064B064842F8A2
:104C8800103F4FF000FBB546044843F031FBE7E71F
:104C9800DE740700030000011C250700F014002043
:104CA800ED740700040000010A7507002DE9F047BC
:104CB80000249A489A4B94B09A4D43609A4B02AF9D
:104CC80003612C702CF0E4FD9848994B6E464360C4
:104CD800984B03612CF0DCFD214601203BF024F9C0
:104CE800954B964A1B688AB0B3FBF2F302AA944923
:104CF800944851619449C2E906134FF40073138430
:104D0800924B4FF4135142F8103F4FF0BCFAB5469E
:104D180000214FF4004044F0E3F8012303218C4ABA
:104D28008848009450F039FD012036F07FFA044697
:104D380050B10346874A012182484FF0A0FA204625
:104D48004837BD46BDE8F0872CF0FCF823460146FD
:104D5800224681483AF08AFE38B301217F4A7948D1
:104D68004FF08FFA64217E48FFF738FF0028E6D11C
:104D78003C217C48FFF732FF0028E0D103217A4A22
:104D880070484FF07EFA0321784A6E484FF079FA5E
:104D98000121084636F0C2F9064648B10121744A95
:104DA80068484FF06EFA3446C9E70321714AD6E7DE
:104DB800714B93F82E3018464FF068FAFF28824658
:104DC80002D103466D4AB6E718462AF02DF86E461A
:104DD80088B002AA4FF40079694BDFF8A881C2E9CC
:104DE8000530A2F81C904FF4E651564842F8108F4F
:104DF8004FF049FA01225046B546114636F0CCF933
:104E0800824638B1034601215F4A4E484FF037FACF
:104E1800544694E703215D4A4A484FF032FA44F673
:104E2800206242F21073C7E907234FF48063BB8402
:104E3800DFF85CA101205146564A2CF06BFB002894
:104E480026DA88B002AA4FF4E251534BA2F81C901C
:104E5800C2E9053A42F8108F3A484FF014FA4D4922
:104E6800B54601202CF040FB4C4A3B1D92E803005C
:104E7800002283E803001846494933F0ADFF06468F
:104E880090B103460121474A2E484FF0F8F98AE7C6
:104E980088B002AA444BA2F81C90C2E9053A4FF424
:104EA800E65142F8108FD7E74FF0FF324FF0FF334B
:104EB8003E4843F0F7F9F8B101213D4A21484FF047
:104EC800E0F903213B4A1F484FF0DBF92AF006FBC3
:104ED8002B78014643F002032B70002336481A460C
:104EE80060F066FFC0B12B7878306FF341032B7008
:104EF80005D1324A032104E00321314ADEE70121CA
:104F0800304A10484FF0BDF936F0C8F903212E4A4F
:104F18000C484FF0B6F912E72C4AEBE71449002089
:104F2800B54A0000DB810020070056D10049002067
:104F3800854B0000080004E0600E002040420F008E
:104F4800117507001C2507003875070004000001CB
:104F58003C7507005E7507006E00565186750700A0
:104F6800B5750700C67507006AFF0800D175070008
:104F7800F1750700A0750700B848002025760700DE
:104F88003D760700030000015F7607008A76070078
:104F9800B1760700B0010020BF760700AC01002001
:104FA800A1480000E8760700D8760700C014002062
:104FB8000D77070038770700030056514D77070033
:104FC8002377070062770700917707007C7707004F
:104FD8002DE9F04F91B0009302F004030293C2F35D
:104FE800C2030133840705460E46DDF86890039234
:104FF800059340F0BB81041D30B1072909D86FF033
:105008001B0011B0BDE8F08F01F00706341DC6F192
:105018000806009B4FF000084FF0040A591E4FF095
:10502800FF3347460193C3465346CDF810800DB170
:10503800009A22600598002800F3E8809848009AB2
:10504800824203D397488242C0F0E080039AA4EBDF
:10505800050E92074FEA9E0000F103810F2F00F220
:10506800B180002D00F0058107F140020DEB020C24
:10507800019A0CF8200C0CF8102C049801300490BC
:10508800E7E07A285DD84B280ED8472859D8292830
:105098002DD8252852D054D820287AD02338D0F1BA
:1050A800000B4BEB000B74E04C382E2849D8DFE896
:1050B80000F07048484848484848484848484B48DD
:1050C8004848484848484859484B4B595959704BE3
:1050D8006D487048184B184848827F4B48484B48E1
:1050E8007F0000204FF0000B4FF0040A38E0012247
:1050F8002A38C0B202FA00F010EA0E0F49D110F0B7
:10510800625C2FD110EA020B43D06046013C544444
:10511800B4FBFAF40AFB04F4002D61D0A3EB050CF0
:10512800A444B4453FF66BAF002868D1042B47D19F
:1051380059F8043B2360042304342AE0019A013A15
:1051480001924FF0000B24E011F8010C6C2834D1C7
:10515800002011F8023C83466C2BC5D14FF0080A99
:105168005346D3E709F1070929F00709073424F062
:105178000704F9E802AB35B106982044B0423FF67F
:105188003EAFC4E900AB4FF0000B08344FF0080AFB
:10519800534611F8010F002878D0BBF1000F7FF4B7
:1051A80070AF2528F5D14FF0010B019B0133019316
:1051B8004FF0040AECE7584694E700208346A5E739
:1051C800082B02D06FF015001BE709F1070929F039
:1051D8000709F9E80223C4E9002308230834D8E7BB
:1051E80068B9042B02D109F10409A4E7082BE9D115
:1051F80009F1070929F0070909F10809EDE7059AF6
:10520800013A059259F8042B009210E7039A900787
:1052180020D54FF0010CA4EB050E4FEA9E00BEF519
:10522800007FCFD20F2FCDD8F5B107F140020DEB9B
:10523800020E019AC0B20EF8200C0EF8102CBCF128
:10524800000F3FF41AAF60F07F000EF8200C08F151
:1052580001080137C5F108024FF6DA7E04340692D8
:1052680097E74FF0000CDAE7BCF1000F01D00136E8
:10527800EFE7029802360028EBD10098CDE9063115
:10528800FEF72AF8DDE906310644E2E7631BB3F5C9
:10529800806F97D245B9A6F10804E018B1E600BFBF
:1052A8005C1F070000940900029A9B0828602B7075
:1052B8009DF81030C2B1EB7085F80280B8F1000F8C
:1052C80005D0002208A8C5F1010C97420ED14FF075
:1052D800000AC5F101030DF1200901930DF1300B0E
:1052E800574512D1601B8CE66B70E5E710F8013B5F
:1052F800190608D504EB0C0EB64503F07F033FF6FC
:105308007EAE04F8013B0132DFE7B8F1000F03D0AD
:1053180099F90020002A17DB029BD3B11AF80B2059
:1053280004F8012B0022019B98182044B0423FF654
:1053380066AE99F80000009904F8010B2046039224
:105348006CF0D4FA039A14440AF1010A09F101092C
:10535800C6E799F8002055F822300093029B009880
:1053680045F82230FDF7B8FF421CDCE76FF00D006E
:1053780047E600BF2DE9F04F97B000AFD7F880B0EF
:105388003B62CBF3C0030446894690F802A0FA6258
:10539800BB6141B9457800780AEB800020444D454F
:1053A80017D8A0EB0409E378FB61BAF1000F02D02B
:1053B8001BF0010F16D1FB6953BBFB6A1BB14946B1
:1053C80020463A6A98474D4628465C37BD46BDE8B0
:1053D800F08F461C3046FDF77FFF0130304409F15D
:1053E8000109DCE7626823787A62FA6A99007961D0
:1053F80004EB8301002A40F001810E464FF00008BB
:105408004D4601EB0A094E454CD101EB0A0610E066
:105418001BF0020FD1D023789A007A61626804EBFE
:1054280083017A62FA6A002A77D14D46904601EBE9
:105438000A061BF0050F0CBF02230123FB62FB6960
:1054480006EB430A0BF00203BB625645BCD016F8C4
:10545800021B16F8013C54F82390AF4B994502D330
:10546800AE4B994536D3BB69002B40D0786A4FF0D4
:10547800F0F900283BD0E9468AB06A46A84B536148
:105488007B6AC2E906314FF400731384A54B42F8D6
:10549800103F00234FF41251A34801F0FBF9023DDD
:1054A800CD46D2E716F8013BF96254F82300FDF720
:1054B80013FFD7F88430F96A01304BB1D7F8883038
:1054C80098453EBFD7F8843023F8180008F1010842
:1054D800054498E7BB6923B1786A4FF0BAF9002808
:1054E800C9D11BF0010F05D1FB6AED1AADE7BB6A04
:1054F800002BAAD04846FDF7EFFED7F8843053B109
:10550800D7F8883098453FBFD7F88420431C22F845
:10551800183008F10108054497E7BAF1000F73D075
:105528001BF0040673D0D046002607F14800524607
:105538003B61B9626CF0DAF9B96A3B6901EB0A02BE
:10554800BA62FA69F9695200FA60BA6A02EB410272
:105558003A610BF00202BA603A69B96A8A4258D1D4
:1055680062781BF0020F18BF00217A6208BF4FEA69
:105578005801B2181BF0010FD2B240F09F801BF007
:10558800040F14BF40460020BB616270A070E17038
:1055980020463A6A7969FB6A9847051EFFF614AFF8
:1055A800BB69414623707B6A3A6A6370FB6984F879
:1055B80002A0E37007F14800FB6A9847B0F10008C1
:1055C800C0F2B4807B69A9EB0A01C91AFB683A6A80
:1055D800C91AD7E90A0398470028C0F2A9804FF0F2
:1055E800000BA84408EB000507F1380AB34567D358
:1055F80000213A6A0846FB6A9847E5E656464FF0A6
:10560800000807F1380092E75646D04696E7B046BC
:1056180094E7BA6A12F8021B12F8015CBA6254F8ED
:1056280025003D4A904202D33C4A90421ED3BA69B3
:1056380032B1786A7B604FF00CF97B6800288BD117
:10564800BA6802BB08F1280207F1300C08F1010022
:10565800944407F1580208F1020852FA80F00CF855
:10566800101C5FFA88F800F8105C75E7BA693AB15F
:10567800786A7B604FF0EDF87B6800287FF46CAFA8
:105688001BF0010F09D006F1280207F13000711C48
:10569800161806F8205CCEB25EE71BF0040F3FF444
:1056A8005BAF08F1280207F1300008F1010102EBB5
:1056B800000808F8105C5FFA81F84DE7002063E7FE
:1056C8001BF80A3054F8239087F83730D7F884301D
:1056D800FBB133F81B8001213A6AFB6A07F13700F6
:1056E8009847002824DB0544B8F1000F06D1484646
:1056F800FDF7F2FD00F101081FFA88F84146484617
:105708003A6AFB6A9847002812DB05440BF1010B43
:105718006CE7D7F88480DEE75C1F07000094090077
:10572800C1770700040000010C25070045464BE639
:10573800054649E6014B1860704700BFB4010020D8
:1057480080B505460E461746984643F005FC0346C5
:105758006CF0F6FB0446DFF81890424649F8003032
:1057680039463046A84754F809001CF0C3FB00BF6F
:105778000800000000B516226CF0E2FB024B1A503C
:105788004FF0FF305DF804FB0C0000000F2800B557
:1057980008D96CF0D5FB0922074B1A504FF0FF309F
:1057A8005DF804FB3022054B02FB0033D3E8AF3F22
:1057B800002BEED00020F3E70C000000C001002011
:1057C8003023434330B50D4908330B44D3E8AF2F9A
:1057D80092B1541ED3E8EF5F954204D1C3E8EC4F71
:1057E800BCF1000FF6D1F1D1012A05D1302358437D
:1057F80000230A180B50536030BD00BFB8010020C9
:1058080038B504461546FFF7C1FF00280BDB094AE7
:1058180059B1302303FB04235B688B4205D06CF03D
:105828008FFB054B1D50002038BD30235C431059B9
:10583800FAE700BFB80100200C0000002DE9F04194
:10584800184E90461F46002435463368984202D1C8
:10585800736899420BD00134102C06F13006F4D14C
:105868006CF06EFB17224FF0FF340F4B1A50204696
:10587800FFF78CFF002812DBB8F1000F05D03021AC
:1058880001FB04510C31C8F8001017B90120BDE81C
:10589800F081302303FB045520353D60F6E70020F6
:1058A800F5E700BFB80100200C00000038B5044639
:1058B8001546FFF76BFF00280DDB30236343074ACB
:1058C800D0184068086015B10C3313442B6030239E
:1058D8005C43105938BD0020FCE700BFB801002028
:1058E80070B500254FF0FF334FF0FF3217484EF0E8
:1058F800F9FF174BD3E8AF2F82B10135102D03F113
:105908003003F7D16CF01CFB17224FF0FF35114B19
:105918001A500E484EF0E8FF284670BD30246C43FC
:10592800D3E8EF0F0130C3E8E10F0029F8D10A4EA0
:10593800331932515A6004F10C00304467F0AAFB65
:1059480004F12000304467F0E7FDE2E7A0120020F0
:10595800C00100200C000000B801002030B404464B
:10596800302510466C43084A151911516860EB62DE
:1059780040B1C36833B10C34131940F2051230BC7E
:105988004EF09FBF30BC7047B8010020F8B50546FF
:10599800FFF7FCFE00281ADB30246C430D4F04F19E
:1059A8000C063E444FF0FF324FF0FF3330464EF0C6
:1059B80099FF3B195B6838599B68984704463046FD
:1059C8004EF092FF2846FFF7FBFE2046F8BD4FF049
:1059D800FF34FAE7B80100202DE9F047058B0446AB
:1059E8002807904611D4022905F0070540F0CC801D
:1059F80020464FF02BFB78B10138218B042811D8B1
:105A0800DFE800F0C2106D85950001290CBF45F054
:105A1800100545F02005258388F31188BFF36F8FA3
:105A2800BDE8F08701F0070AAA4500F0A580002725
:105A3800B9463E46A368002B00F0BC8041F008013F
:105A4800218388F31188BFF36F8FA168002900F0C4
:105A5800BA800D68002900F0B680334652462046C9
:105A6800D1F80480C047002D76D02B6829461D4602
:105A7800F0E701F007035A1F012A1BD8002221F082
:105A88000701062B276889B2C4E9002209D13B46E1
:105A980003E0628B013262831B68002BF9D141F06D
:105AA8000201204621834FF0D1FA00287AD041F034
:105AB800200176E0042B0AD121F0070189B22046A3
:105AC80021834FF0C3FA10B141F020012183218BCB
