:020000040000FA
:10000000589D0420F1220000A5860000DD2200009A
:10001000DD220000DD220000DD220000DD220000E4
:10002000000000000000000000000000912400001B
:10003000DD2200000000000051240000DD2200004D
:100040000D2600000D2600000D2600000D260000E4
:100050000D2600000D2600000D2600000D260000D4
:100060000D2600000D2600000D2600000D260000C4
:100070000D2600000D2600000D2600000D260000B4
:100080000D2600000D2600000D2600000D260000A4
:100090000D2600000D2600000D2600000D26000094
:1000A0000D2600000D2600000D2600000D26000084
:1000B0000D2600000D2600000D2600000D26000074
:1000C0000D2600000D2600000D2600000D26000064
:1000D0000D2600000D2600000D2600000D26000054
:1000E0000D2600000D2600000D2600000D26000044
:1000F0000D2600000D2600000D2600000D26000034
:100100000D2600000D2600000D2600000D26000023
:100110000D2600000D2600000D2600000D26000013
:100120000D2600000D2600000D2600000D26000003
:100130000D2600000D2600000D2600000D260000F3
:100140000D2600000D2600000D2600000D260000E3
:100150000D26000053B94AB9002908BF00281CBF6A
:100160004FF0FF314FF0FF3000F00CB8ADF1080C4C
:100170006DE904CE00F008F8DDF804E0DDE90223C3
:1001800004B07047704700BF2DE9F04786468C46A3
:100190000846089E154674461946002B40F0C1805B
:1001A0008542B2FA82F245D94AB1C2F1200300FA7F
:1001B00002FC954094402EFA03F343EA0C0C4FEAFC
:1001C000154EA8B2230CBCFBFEF80EFB18CC08FBA6
:1001D00000F943EA0C43994528D9EB1808F1FF3799
:1001E00004D2994502D9A8F102072B44A3EB0903D5
:1001F000A4B2B3FBFEFC0EFB1C330CFB00F044EA84
:100200000344A04214D92C190CF1FF3304D2A042AC
:1002100002D9ACF102032C44241A43EA07401EB170
:10022000D440002334607360BDE8F0874746DDE7C3
:100230006346F1E792BB431B01214FEA154EAFB273
:10024000200CB3FBFEFC0EFB1C330CFB07F840EA52
:100250000343984561D9EB180CF1FF3004D298455F
:1002600002D9ACF102002B44A3EB0803A4B2B3FB08
:10027000FEFC0EFB1C330CFB07F744EA0344A742C9
:100280004DD92C190CF1FF3304D2A74202D9ACF19D
:1002900002032C44E41B43EA0040C0E7C2F1200300
:1002A0009540944020FA03F12EFA03F34FEA154EDD
:1002B0009040AFB20343B1FBFEFC0EFB1C10190CC7
:1002C0000CFB07F841EA0041884522D969180CF176
:1002D000FF3004D2884502D9ACF102002944A1EBD9
:1002E00008019BB2B1FBFEFC0EFB1C110CFB07F7D7
:1002F00043EA01439F420ED9EB180CF1FF3104D2BF
:100300009F4202D9ACF102012B44DB1B41EA0041C0
:1003100093E76046E3E76146F7E76046A4E7634694
:10032000B8E7834206D916B9002108467CE7C6E93A
:1003300000E0F9E7B3FA83F78FB9834201D372453E
:1003400008D8BEEB020460EB030301209C461EB9F3
:10035000002169E73846FAE7C6E9004CF8E7C7F13B
:10036000200CBB400EFA07F522FA0CF42EFA0CF121
:10037000BA401C4320FA0CF3B8404FEA1449014339
:100380001FFA84FEB3FBF9F809FB18300B0C08FBCD
:100390000EFA43EA00439A4540D9E31808F1FF30CA
:1003A00004D29A4502D9A8F102002344A3EB0A0320
:1003B00089B2B3FBF9F809FB183308FB0EFE41EADA
:1003C00003418E452CD9611808F1FF3304D28E45C4
:1003D00002D9A8F10203214443EA0040A1EB0E0137
:1003E000A0FB02984145CE46434602D306D14D4577
:1003F00004D20138B9EB020E68EB0403002EA7D03B
:10040000B5EB0E0261EB030101FA0CFC22FA07F3D3
:10041000F9404CEA0303C6E9003199E74046C5E7D5
:100420004346D9E7F0B54D4B4D4A85B0C2F800368A
:10043000C2F80436C2F80836C2F80C36C2F81036D4
:10044000C2F81436C2F81836C2F81C3602F58052CB
:10045000C2F80036C2F80436C2F80836C2F80C36C4
:10046000C2F81036C2F81436C2F81836C2F81C3674
:100470003C4C4FF400322669A56833680A2123F406
:10048000806333602B682046984733685B054FF4E0
:100490008061204654BFEB682B69984700214FF4D8
:1004A000004007F059F901212F4801F0C3FB002259
:1004B00006212E4808F0A9F800214FF4004007F06B
:1004C0004BF900220721294808F09FF8002126480F
:1004D00001F0B0FB00F076F801A800F08DFF244B8E
:1004E0001B68834204D04521224807F0E1FFFEE764
:1004F0004FF48031002004F035FA044620B1452144
:100500001D4807F0D5FFFEE7012004F011FB694606
:100510009DF8080000F034F8009B039D1D44019BEA
:100520001E8904F007FAAF1900F0E6FF00F0C8FFDB
:1005300001F00EFF84F30B8884F30A88AB5983F330
:10054000088884F31488BFF36F8FBFF36F8F7B68C5
:1005500098474521094807F0ABFFFEE73546526E44
:1005600000800150C0BA000068BB0000C6C3000094
:1005700088250020CCC30000EFC3000022C4000087
:10058000024608B538B105480023452107F090FF21
:100590006FF0150008BD0860FCE700BF45C400000F
:1005A00021B1012906D06FF015007047044B53F8B4
:1005B00030007047024B03EBC0035868704700BF20
:1005C000D8BD00004FF4C051014805F005B800BF88
:1005D000FC5200202DE9F04FDFF8FC91F9B038A86B
:1005E000DDE9848A17461D46869CD9F800600AF02A
:1005F00061FD002138A805F025F9B8F1000F07D0FA
:10060000BAF1000F04DD5246414638A80AF05BFDFE
:100610004FF000083B897A89D7F80CB013449B440B
:10062000C34564D80DA938A80AF08CFD38A80AF093
:1006300045FD24B1202220460DA908F0C1F8002371
:100640002A46009339464FF6FF7307A807F0C7FC08
:10065000804600285BD128460C9C07F06FFD844241
:1006600055D84FF0FF34DFF874B1DFF874A10DF105
:10067000160305AA06A907A807F0FFFC002846DB19
:1006800040F0A280069907A807F043FD50B94FF645
:10069000FF71BDF81600534A32F8023B8B4236D048
:1006A0009842F9D1BDF81670102F3AD0202F6DD096
:1006B000012FDCD1BDF81430202B28D8284606990C
:1006C00038AA07F030FF044608BB9DF81430202BF1
:1006D000029309D8DAF80030434F0393039B1DA817
:1006E0009C4236DB0AF0EAFC4FF0FF34BFE7839B05
:1006F000ABEB080A9A4528BF9A464146534628461E
:10070000829A07F010FF28B138A80AF0D7FCD9F870
:1007100000605CE05246829938A80AF0D4FCD044CC
:100720007EE7BDF81470202FF1D13B46284606998C
:1007300038AA07F0F8FE0028E9D13A4638A90DA8F2
:1007400007F0F5FCDBF800308342E0D14FF0010800
:100750008DE70AF0AFFC00211DA805F073F87A6858
:100760001DA8126857F8081B0AF0ADFC15A91DA8B2
:100770000AF0E8FC029A38A915A808F011F818B98F
:100780001DA80AF09BFC72E70134A7E7631C3FF445
:100790006EAFDAF80030A342A6DDBDF81430B3F531
:1007A000807FB4D12846069938AA07F0BCFE0028FD
:1007B000ADD1E4B23946BDF81430009438AA0DA882
:1007C00000F014F806468FE7B8F1000F9FD03046CE
:1007D00079B0BDE8F08F00BF0820002088250020F8
:1007E000E8BD000098C30000ECBD00002DE9F04F0B
:1007F000DFF8E4A1ADF5417D07462AA81E469DF825
:1008000028B389469046DAF800500AF00CFC092219
:1008100001212AA804F092FF704B80AA53F83B40B4
:1008200003EBCB035B6805941B6805A81C442146B9
:10083000302309F0E3FC002840F0C580059B809A36
:1008400013449C4240F0BF8021462CAA05A809F021
:10085000E9FC002840F0B7800DF1B80B5A4621465C
:1008600005A809F0DFFC0390002840F0AC802CA81C
:100870000AF086F8059A2B90944240F0A480039BDE
:10088000CDF804B01A4600932CA92AA80AF088FBD8
:10089000002840F098802AA804F066FF002840F065
:1008A00092802CA80AF06CF82B902AA80AF0C5FBBD
:1008B000864240F08880B6F5807FDAF8005040F03C
:1008C0008280B9F1200F7ED1414680AA2AA804F087
:1008D00071FF0446002876D19DF8FF32BC2B72D1FF
:1008E000DF2606900DF590790FA80AF0E3FB0021B2
:1008F0000FA804F0A7FF20220DF2DF210FA80AF0B5
:10090000E2FB042206A90FA80AF0DDFB07A90FA845
:100910000AF018FC202EB046A8BF4FF020089DF822
:100920001B3048460133424607A9A6EB08068DF85E
:100930001B3007F045FF002EC144D5DC0FA80AF09C
:10094000BDFB48AB184600219C4680AA067812F8E9
:1009500001EB013186EA0E06DF2900F8016BF5D1C3
:100960001A7802F07F021A7013F8016B5EBB013433
:10097000BE2CF9D19CF8BE30012B24D10FA80AF06F
:1009800099FB31460FA804F05DFF082214490FA817
:100990000AF099FB394620220FA80AF094FB202286
:1009A0000DF2DF110FA80AF08EFB07A90FA80AF0BD
:1009B000C9FB0FA80AF082FB20220DF2DF2107A855
:1009C00007F0B5FB05462AA80AF039FB28460DF5C5
:1009D000417DBDE8F08F00BF08200020ECBD000085
:1009E0006BC40000034637B54FF48072084693F895
:1009F000B84013490192620051F82250A8420ED12A
:100A0000582101FB043201FB0434526A283401A945
:100A100001F07EF908B9019B236003B030BD0132BB
:100A200051F82220904208D1582101FB043201FBE9
:100A30000433126D03F15404E9E70120EDE700BF30
:100A4000F4BD000070B590F8B850104E6D0056F827
:100A500025100446FFF7C6FF98B9013556F8251052
:100A60002046FFF7BFFF054668B9582294F8B83012
:100A700002FB0343186A07F098FDC4F8B400284647
:100A800070BD0125FBE70925F9E700BFF4BD0000B3
:100A90002DE9F04FDFF898B189B0044690F8B8001E
:100AA0000E46DBF80050FFF77BFD06A98146C0B279
:100AB00001F006F9B0B93146204694F8B8A007F025
:100AC00084FB50B158222C2102FB0AF301FB0633B0
:100AD00023441D6915F0100508D0564B1D68069873
:100AE00007F020FD284609B0BDE8F08FDEB194F88C
:100AF000B80010FB02F000F1140140302144204402
:100B000007F04DFB00280EDA2946204607F05DFB72
:100B100048B14521484807F0CBFC0698002182687F
:100B200007F02BFDD9E74FF02C08582208FB06F8F8
:100B300002FB0A83E158E018404B99420FD1C1688B
:100B400003895B180BD24189C91808D2069B9B68A0
:100B5000994204D240F60C6703691F4011D0DBF8BC
:100B60000050374B1B68AB422BD046B30698002190
:100B7000826807F002FD334A4521334807F098FCAC
:100B8000ABE7314694F8B80003F0DCFF05462F4B85
:100B900058221B689842E4D14FF480730AFB02820A
:100BA0000193CDE903772A4B029700933846069BC1
:100BB00094F8B8102244FFF70DFD0546D1E7254A09
:100BC000DAE794F8B830244A02EBC3025268914540
:100BD00085D158225343E218176A002207922C222B
:100BE00002FB0633234419890423069807AA1944F3
:100BF00007F099FC00287FF470AF94F8B830012B0F
:100C000012D0002B7FF46BAFD7E90123134407996F
:100C1000914202D399427FF662AF45210F4807F017
:100C200047FC45210E4876E74FF082730D4AEEE708
:100C3000082000200420002085C400003DB8F39661
:100C4000882500207BC40000B1C4000000200020E3
:100C5000FC6A002073C40000F4BD0000D9C4000089
:100C600022C50000008800012DE9F84F8846914612
:100C70009A460026DFF88CB0234D244C0B9B9E42F5
:100C800001D300200FE00B9B40469F1BB7F5806F00
:100C900028BF4FF480671B4A3B4606EB0A0107F06A
:100CA00042FC10B10120BDE8F88F0A993B465A4634
:100CB0004846711807F04CFC0028F3D1144BC5F8D6
:100CC00000463E44C5F80446C5F80846C5F80C463B
:100CD000C5F81046C5F81446C5F81846C5F81C46B0
:100CE000C3F80046C3F80446C3F80846C3F80C46E8
:100CF000C3F81046C3F81446C3F81846C3F81C4698
:100D0000BCE700BF8C250020008001503546526EA4
:100D1000009001502DE9F04F002604460D46B046E4
:100D2000DFF85C92DFF85CB295B0012E84F8B86011
:100D300029D90026944F17F8011B012918D13046F4
:100D4000FFF72EFC0EA9C0B200F0BAFF0346002840
:100D500040F005810E981946826807F00EFC0346A4
:100D6000002840F0FC8032464521884807F0A0FB6F
:100D7000002E00F0F280B8F1000F00F07A81002020
:100D800058262C27F7E0A31993F8B930002B57D138
:100D9000582707FB064109EBC6224A6202F580523A
:100DA0000A65304619460293FFF7FAFB94F8B8102B
:100DB000824607FB0141C0B2203100F081FF029B57
:100DC00070B901213046FFF7EBFB94F8B81082466A
:100DD00007FB0141C0B24C3100F072FF48B1012362
:100DE000CDE90030524633464521694807F060FBA3
:100DF000FEE72046FFF726FE064698B90022204669
:100E0000114607F09DF90746F8B15721584694F866
:100E1000B82007F04DFB012294F8B830234483F842
:100E2000B0200DE04FF4807257215A4807F040FB84
:100E3000012294F8B8309642234483F8B020DDD1E3
:100E400094F8B8600136F6B26FE7204600F0E4FA95
:100E50000028E0D00AA807F0E4F907F0EBF906460D
:100E6000C8B994F8B8302BB9002120460AAA07F077
:100E700067F9D0E794F8B020042A04BF012284F86F
:100E8000B020012BF0D094F8B130042BECD1012329
:100E900084F8B130E8E79DF82F30012B4BD1582270
:100EA00094F8B8300E9702FB03433B4AD96AD86CDA
:100EB00091422AD1998E04230EAA194407F033FBDC
:100EC000F0B1052794F8B830234483F8B07094F853
:100ED000B8306BB1E21892F8B020012AB0D0042AE1
:100EE0000CD094F8B020042A02D1012284F8B0205A
:100EF000234493F8B030023B022BA1D8B0469FE7C1
:100F0000022194F8B830204AD15494F8B80003F084
:100F1000C3FE831E022B0746D4D801212046FFF7CB
:100F2000B7FD1E4B1B689842CCD01D4B1B689842E6
:100F3000C7D10127C6E701212046FFF7A9FD174BBE
:100F40001B68984218BF052294F8B83008BF9DF876
:100F50002F20234483F8B020B9E70126EBE6324680
:100F60004521104807F0A4FA02E7231893F8B920A6
:100F7000D2B10130C0B2012884F8B800F5D978E0C8
:100F80008C290020D8C50000FC6B002004C600009E
:100F900049C5000096C500003DB8F396882500209D
:100FA000042000202FC6000093F8B08008F0FB0852
:100FB000B8F1010818BF4FF001084146FFF7F0FAF9
:100FC00005A9C0B200F07CFE00284FD107FB08F154
:100FD00094F8B830059A03FB0611012321440093CD
:100FE0000EA8402306F0FBFF8046002859D10023BD
:100FF0000DF1120206A90EA807F03FF8002838DB11
:1010000005985BD1BDF812300C2B55D1069907AA73
:1010100007F089FA00285AD19DF81C20012A59D8D6
:10102000A31893F8B03008A9023B022B94BF2C23DD
:10103000002306FB02331433E01807F0B0F8B0F1D8
:101040000009D4DA94F8B830234493F8B020012A88
:101050000AD0023A012A02D8012283F8B02005986A
:1010600007F060FAC8461FE00422F6E7059807F08B
:1010700059FA00264FF0FF085827012E84F8B8606F
:101080002BD90023DFF8EC82BB4EBC4F0E93012B13
:1010900084F8B83040F230810E9A022A00F089813B
:1010A000FEE7059807F03EFAB8F1030FE1D140F2F0
:1010B0000113A4F8B030DCE74FF00308059807F0FF
:1010C00031FAB8F1000FEFD194F8B80051E74FF0C2
:1010D0000108F3E74FF00708F0E7A21992F8B930DA
:1010E000002B40F004810AA807F09BF892F8B0307A
:1010F000042B8DF82F3006D8012B06D800F0AD80D8
:1011000082F8B080A9E0052BF8E707FB06431946F3
:1011100030462C31DA6C08F0C1FF0128014640F05E
:101120009C8094F8B800FFF73BFA07A9C0B200F022
:10113000C7FD002800F09D804FF000094FF0580BCC
:10114000079807F0EFF994F8B86007A90BFB06437E
:101150001B6A187800F0B4FD894B0EA903EBC60397
:101160000026B246187900F0ABFD94F8B8300BFBBE
:1011700003439B6A534519D094F8B82031460BFBC2
:101180000242526A079802EBCA0252680393029223
:1011900007F0F3F9029A039B16444E45C0F0A48071
:1011A000D4F8B460B9FBF6F906FB0966D4F8B400CC
:1011B00006F0BFFF582394F8B82003FB0242536A9D
:1011C000926A1968013A03EBC2030022D3F804E0E3
:1011D0009C4672449042A3F10803F7D8DCF8003033
:1011E0000798591A07F0C9F900232046079A0E9963
:1011F00001960093FFF738FD78BB079803F0D6FC03
:1012000058BB4FF0580994F8B800324609FB004328
:10121000196A08F051FF0146F8B994F8B8300E98F1
:1012200009FB03431B6D5A6807F0A7F994F8B8301F
:1012300009FB0343D3E91423013B52F8331002EBBB
:10124000C30013684268C91A0E9807F096F9079808
:1012500007F068F90E9807F065F994F8B830234460
:1012600093F8B030FF2B42D14521464807F020F9D2
:10127000FEE794F8B830079807FB03439E8E9B6BFC
:101280000EAA1E443146042307F04DF900287FF4CE
:1012900053AF94F8B830BDF8382007FB0343B3F8D8
:1012A00036A046F608139A42079819D1BDF83A308D
:1012B0009A457FF441AF04230EAA0AEB060107F01A
:1012C00032F900287FF438AF46F60713BDF838200E
:1012D0009A427FF431AFBDF83A90D144B1442DE742
:1012E000BAF1000FF0D027E70AF1010A42E794F8BB
:1012F000B8600136F6B2C0E6234493F8B9208DF801
:101300001C209DF81C1001F0FF0239B10E9B013327
:101310000E9394F8B8300133DBB2B8E693F8B030EE
:10132000012B15D01146204606F00AFF80B1D8F8EF
:101330000050102200210AA807F04DFA5826002379
:10134000012B84F8B8301FD9284615B0BDE8F08FBE
:1013500000212046FFF79CFB33689842E7D1D8F87C
:1013600000309842E3D03B689842CFD1DFE784F861
:10137000B8203BE008200020882500200420002021
:10138000F4BD000066C60000E21892F8B9205AB910
:1013900006FB0343D86C07F0C5F894F8B83006FB99
:1013A0000343186A07F0BEF894F8B8300133DBB293
:1013B000C6E794F8B93023B194F8BA30002BD6D1EF
:1013C0000123582606FB034284F8B830106A06F061
:1013D00004FE287194F8B83006FB03431B6A5B686F
:1013E000AB6094F8B83003FB06462E60014B1D68D5
:1013F0009FE700BF8825002038B5064D0446BC2273
:101400000021284607F0E7F921462846FFF782FC2D
:1014100038BD00BF8C4900205822F8B590F8B8308C
:1014200002FB0300D0F828C0466DBCF5807F02D8CF
:10143000B6F5807F36D957211E4807F039F80020CD
:10144000F8BDA54216D1476A07EBC2077F68013293
:101450003D44076D07EBC3077F6801333C44944567
:10146000EFD89E42EDD8944501D19E4220D057211D
:101470001148E2E70CD2476A022907EBC2077F68EE
:101480003D4402D157210D48D7E701210132E6E75B
:10149000076D012907EBC3077F683C44F2D00221A6
:1014A0000133DCE700210B460A460C460D46D6E721
:1014B0000120C5E772C60000D8C60000A1C6000022
:1014C000BFF36F8F72B600234FF0FF30094A03F16C
:1014D00020010133102B42F82100F8D100234FF0F6
:1014E000FF30044A03F160010133102B42F8210060
:1014F000F8D1704700E100E02DE9F8434FF0FF35E7
:1015000001274FF00008204BDFF880905F60C3F8A0
:101510004853C3F8085303F580535F60C3F848533A
:10152000C3F8085359F8044B002644F30730C4F8B5
:10153000085300F0CBFF80226760C4F84C61D4F8F8
:101540004C31C4F81061D4F81031C4F8446131460C
:10155000D4F84431A018C4F8006507F03CF98022A3
:10156000314604F5C07007F036F9B8F1000F08D025
:10157000074BC3F808554FF05023C3F80853BDE894
:10158000F8834FF00108CDE70040015008BE00008D
:1015900000700150014B1B68184700BF0C20002051
:1015A000014B1860704700BF0C20002007B50B46A8
:1015B000002102460091034800F006F803B05DF8F0
:1015C00004FB00BF951500002DE9F04F82464FF057
:1015D00000098DB01D46531E01910393039B58785B
:1015E0005C1C252819D100204FF0FF381E464446C8
:1015F00003460236029031780396392955D81F29BF
:1016000014D8002900F0EF8101992520D0470199D5
:101610003078D04709F10209E0E7002800F0E381C3
:101620000199D04709F101090394D7E7A1F12002FC
:10163000192AE9D801A757F822F000BFA516000023
:101640000916000009160000A51600000916000082
:1016500025170000091600000916000009160000F1
:101660000916000071170000A516000009160000F9
:101670008517000031170000091600003F17000011
:101680005F1700005F1700005F1700005F17000082
:101690005F1700005F1700005F1700005F17000072
:1016A0005F17000008460136A5E7582900F0EB80D7
:1016B000A1F16302D7B2172FA6D8172AA4D801A781
:1016C00057F822F02D190000AB1700000916000092
:1016D00009160000091600008B170000AB17000068
:1016E00009160000091600008B17000009160000FB
:1016F0000916000009160000611800000916000014
:10170000091600000119000009160000AB170000BF
:1017100009160000091600006118000009160000F3
:101720008B17000025200199D04709F1010955E7E1
:10173000029A4FF0000802F0FE020292B3E7002C7A
:101740000DDAB8F1000F0DDA029A002A00F0438199
:101750000A2224EAE47402FB0414303CA3E7B8F143
:10176000000FF5DB0A2202FB0812A2F130089AE70B
:10177000B8F1000F55F8042B80F22F81002A80F277
:101780002E815442022202928DE7682903D1682BF0
:1017900006D1482387E76C2902D16C2B00F0218108
:1017A000002B7FF431AF0B467DE77A2B06D17529EC
:1017B00055F8046B14D14FF0000B0CE06C2BF6D0F5
:1017C0004C2BF4D1073525F00703752903F10805E3
:1017D000D3E9006B06D120283BD1854F013C09E0BD
:1017E0004FEAE67BBBF1000FF5DA7642814F6BEBF7
:1017F0004B0B013C0DF12D03059300230493304660
:1018000059460A220023FEF7A5FC059BB446303258
:1018100003F8012D5A460593049BBCF10A0F8B4631
:1018200072F1000203F1FF3106460491E7D2C3F1E1
:10183000010B30330DEB0306B8F1000FA6F10406DF
:101840006DDA029BD9077DD4A8EB0B03A4EB0B0444
:1018500013E02B280ABF684F684F04F1FF34C9E733
:1018600070290FD155F8042B0023FAB96FF0040347
:101870004FF0050B614F624E053C029A920770D4FF
:10188000A04666E078216C2B03D1002355F8042B89
:1018900008E04C2BF9D1073525F007031D465B689E
:1018A00055F8082B232825D1880621D5554F023C11
:1018B000002601F06001A1F1390B0DF12D0E02F0AF
:1018C0000F01092988BF594430310EF8011D102A33
:1018D0004FEA121141EA03714FEA131C73F100033E
:1018E00006F1FF3008D2C6F1010B06F13003A1E783
:1018F000454FDCE7414FDBE706460A466346DEE735
:1019000055F8046B304606F031FFB8F1000F8346FE
:1019100002DB4045A8BFC3464FF00008374FA8EB95
:101920000B03002B92DDA4EB0804A6E755F8043B5B
:101930004FF0010B8DF81830304F4FF0FF33013C62
:1019400006AE9AE7A046EAE7029320200199D04725
:10195000029BB8F10108F7D524EAE472013C9144F6
:10196000A41AB84606E0049302920199D047029A5D
:10197000049B9046424612F8010B0028F3D11A4608
:10198000013A15D5002BACBFC7EB03077F425B467E
:10199000013B15D5BBF1000FA8BF5F4426464F445D
:1019A000013E14D5002CA8BF3F1907EB080915E626
:1019B0000493029230200199D047049B029ADFE7FA
:1019C0000293019916F8010BD047029BE0E70199B9
:1019D0002020D047E4E70122D5E6904663E614468E
:1019E00061E64C235FE648460DB0BDE8F08F00BFCE
:1019F00016C8000014C8000018C8000071C6000016
:101A000020C800001AC800001DC800002DE9F047DA
:101A1000058B04462807904611D4022905F00705D6
:101A200040F0CC80204606F06BFC78B10138218B69
:101A3000042811D8DFE800F0C2106D859500012957
:101A40000CBF45F0100545F02005258388F311886B
:101A5000BFF36F8FBDE8F08701F0070AAA4500F0D9
:101A6000A5800027B9463E46A368002B00F0BC8045
:101A700041F00801218388F31188BFF36F8FA168BB
:101A8000002900F0BA800D68002900F0B6803346C6
:101A900052462046D1F80480C047002D76D02B68EE
:101AA00029461D46F0E701F007035A1F012A1BD8FB
:101AB000002221F00701062B276889B2C4E9002221
:101AC00009D13B4603E0628B013262831B68002B25
:101AD000F9D141F002012046218306F011FC0028D3
:101AE0007AD041F0200176E0042B0AD121F00701E1
:101AF00089B22046218306F003FC10B141F0200199
:101B00002183218B01F0070AAA454FD00027B9464F
:101B1000AAE7236921F0070141F00601062DD3F859
:101B2000009021832DD1B9F1000F3FD041F0080181
:101B3000218388F31188BFF36F8F20463949C84746
:101B400029E021F00701236941F0040189B2042D45
:101B5000D3F804902183E6D000274FF0040A3E46D4
:101B600082E721F00701236941F0050189B2052DC3
:101B7000D3F808902183D6D000274FF0050A3E46BF
:101B800072E700274FF0060A3E466DE72B4687E7CF
:101B9000B9F1000FD1D1EFF31188202383F312881C
:101BA000BFF36F8F238B23F008032383258BEA0673
:101BB0002ED525F01003238305F007056669218BD8
:101BC000002EBFF670AF00232768C4E9003321F070
:101BD000070141F001012183218B4FF0000901F041
:101BE000070AAA457FF440AF002F9CD041F00801BE
:101BF000218388F31188BFF36F8F002FC8D03D6811
:101C0000394633465246204606F0A6FB2F46F4E7F7
:101C1000AB067FF51BAF25F02003238305F00705F6
:101C200000E700BF85830000014B03600020704780
:101C300010BE000070B544690D469CB31E4A23795E
:101C4000565CB34231D01D4A525C9A4230D1A368EF
:101C50009847002810DA022D0CD0032D0BD110F17B
:101C6000860F07D0D4E8EF3F43F00203C4E8E23F19
:101C7000002AF6E7267170BD022D267101D00020E2
:101C8000F9E7D4E8EF3F23F00403C4E8E23F002A79
:101C9000F7D1D4E8EF3F23F00203C4E8E23F002A83
:101CA000EDD0F6E76FF05700E5E76FF07700E2E779
:101CB0006FF08500DFE700BF2AC8000026C80000DB
:101CC00070B5114B0D461C68DCB1104B1968002330
:101CD0008B4202DB6FF0010070BD224612F8106BE0
:101CE000864202D014460133F2E7E06810B96FF083
:101CF0001200F1E709F0B3FC0028F8D000202C60B6
:101D0000EAE76FF00C00E7E71820002010BE0000A3
:101D100070B588B005460C46C0B269461646FFF756
:101D2000CFFF00281BDB0098C8B1436822680293EC
:101D300083680195CDE903360023CDE90623059399
:101D4000C56806F0EFFB6DB12846084901AA07F007
:101D500006FC079808B9059B236008B070BD6FF0BA
:101D60001500FAE76FF01200F7E700BFC785000023
:101D70002DE9F041064606F0F9FC0546EFF311881F
:101D8000202383F31288BFF36F8F104F3C68BC424F
:101D90000AD1002412E0A06806F0E8FCA84206D0B0
:101DA0007B689C42F5D02468002CF4D1F1E72A46E8
:101DB0003046A16806F0E1FC0028F1D188F31188D3
:101DC000BFF36F8F2046BDE8F08100BF10200020D8
:101DD00010B5044610B96FF0150010BD80680028DA
:101DE000F9D0FFF7C5FF0028F5D1A082EFF31181EC
:101DF000202383F31288BFF36F8F054B5A68C4E921
:101E0000003214605C6081F31188BFF36F8FE4E7E8
:101E10001020002008B5054806F05BFA044806F0DB
:101E200058FABDE80840034806F053BA2EC800002F
:101E30005FC8000092C80000014805F08BBF00BFDA
:101E4000B4BE000038B5044618B90F4B0F485B68A4
:101E500098476168B1F5683F10D0B1F5680F0DD0B3
:101E60000B4DA9420AD011F46861206807D00146E1
:101E7000084809F04FFC00232360656038BD142238
:101E800006F0A9FCF9E700BFC8220020C0C8000086
:101E90002C5F5CA9484F002008B560B34368B3F5D8
:101EA000683F0ED0B3F5680F18D0144A934220D083
:101EB00000684FF0FF324FF0FF3305F07FF858B164
:101EC00015E001220368D3E8EF1F002903D1C3E81E
:101ED000E02F0028F7D10AD1002008BD0368084A86
:101EE0001B7803F5807352F82330002BF4D005489B
:101EF000F3E70548F1E76FF4E040EEE72C5F5CA9FB
:101F000000000350E98FFFFFEA8FFFFF08B520B301
:101F10004368B3F5683F09D0B3F5680F13D0114A91
:101F200093421DD0006805F0C1F814E00022036858
:101F3000D3E8EF1F012903D1C3E8E02F0028F7D130
:101F400009D0094808BD00210368084A1B7803F539
:101F5000807342F823100020F4E76FF4E040F1E7CB
:101F60000348EFE72C5F5CA9E98FFFFF00000350F7
:101F7000EA8FFFFF10B5044618B91D4B1D485B687A
:101F800098476368B3F5683F2FD0B3F5680F2CD03E
:101F9000194A934219D1236803BB4FF0FF324FF027
:101FA000FF332146154804F0DBFF08B923681BB94D
:101FB0000F4B13485B68984714220021206806F0F5
:101FC0000AFC4FF46863636008E0B3F5683F0DD81E
:101FD0003A2B03D040F6BA629342DED1206809F072
:101FE000D1FB636843F03A03636010BD054AF3E731
:101FF000C8220020C0C800002C5F5CA9484F002008
:10200000E6C800003A00003A08B506494023142209
:10201000054809F071FBBDE808400449044805F093
:102020000BBF00BF484A0020484F0020BCBE000044
:10203000D0BE000030BFFFF7FDBF00BF074A936866
:1020400093F90E10002907DB526993421FBF044A1F
:10205000536843F080535360704700BFF450002032
:1020600000ED00E0154B9A6A12F0007F9A6A14BFE7
:102070001E201D2012F0807F9A6A18BF1F2012F4C4
:10208000801F9A6A18BF022012F4002F9A6A18BFA4
:10209000212012F4802F9A6A18BF222012F4003FE8
:1020A0009A6A18BF232012F4803F9A6A18BF24202E
:1020B0006FEA02426FEA12429A62704700ED00E056
:1020C00010B5194B0246986A9C6A10F4805F14BFE1
:1020D0001720162014F4006F9C6A18BF1820A4055E
:1020E00009D5986B986A000404D51AB19A6A22F44B
:1020F00000429A6219200C4B9A6A12F4806F9A6A15
:1021000018BF1A20D2050CD49B6A13F4005F18BFC5
:102110001C20054A936A43F47F43936200230B70AB
:1021200010BD1B20F5E700BF00ED00E010B51C4B13
:102130000246986A9C6A10F0100F14BF11201020FC
:1021400014F0080F9C6A18BF1220A40709D5586B19
:10215000986A000604D51AB19A6A22F080029A623F
:1021600013200F4B9A6A12F0010F9A6A18BF1420BD
:1021700012F0200F9A6A18BF1520D40658BF9B6A28
:10218000074B9A6A920642BF5A6A22F400525A6278
:102190009A6A42F0FF029A6200230B7010BD00BFE2
:1021A00000ED00E070B5444B06465B6800258AB040
:1021B000C3F3080385F31188BFF36F8F02F07F40EC
:1021C000B0F17F4F11D102F00C0008280DD010079C
:1021D0004CBF0E4601250022033B8DF80720032B40
:1021E00005D8DFE803F01E5C60592E46F3E70024B3
:1021F0009DF807309BB92022314602A806F0E0FA8C
:10220000099B002D53D0C3F3080222B96FEA532370
:102210006FEA43230993204602A906F039FA0AB06F
:1022200070BD254BDA6A9107E1D4DA6A002ADEDB59
:10223000DA6A5200DBD55A69B16942F480725A6198
:10224000BFF34F8FBFF36F8F5A6931F8021C22F42E
:1022500080725A61BFF34F8FBFF36F8F4DF60272DA
:10226000914209D09A6AD2B242B101200DF1070120
:10227000FFF75CFF0446BBE73468B9E79A6A12F4DB
:102280007F4F05D001200DF10701FFF719FFF1E79E
:102290009B6AB3F5803FAAD3FFF7E4FEEAE700208C
:1022A0000DF10701E4E700200DF10701EDE723F44C
:1022B000FF7323F00103ADE700ED00E0064B5A6920
:1022C00042F010025A615A6942F480625A615A69B6
:1022D00022F008025A61704700ED00E0EFF3088039
:1022E000EFF3098101B57246FFF75CFF01BD00BF46
:1022F000002080F31488BFF36F8F002080F30A88DA
:1023000080F30B8803F0AEFB00200E490860BFF39A
:102310004F8F0D4880F3088800F02CF8202080F3C0
:1023200011880A484FF40061401880F30988EFF3E0
:1023300014800221084380F31488BFF36F8F00F0EC
:10234000FDF8000094ED00E0589D0420186C042076
:10235000002318460649D1F89020C2F30722934281
:1023600000DB7047C1F89830C1F8A0000133F6E7F0
:1023700000ED00E010B572B6002484F31388FFF777
:10238000E7FF23464FF0FF300C4A03F120010133F1
:10239000102B42F82100F8D100234FF0FF30074AFC
:1023A00003F160010133102B42F82100F8D162B62D
:1023B000BFF34F8FBFF36F8F10BD00BF00E100E090
:1023C000084B9B6883420BD1EFF3058343B1064B67
:1023D0005A6842F080525A605A6A22F400425A62A5
:1023E00009F0B5BAF450002000ED00E06FF00A01EA
:1023F000084A93689967084958674B6843F08053C7
:102400004B60002383F31188BFF36F8F9368986F3D
:10241000704700BFF450002000ED00E0EFF311839F
:10242000202383F31288BFF36F8F4FF00061064AB9
:1024300053699360054A516000215A6F596782F3CE
:102440001188BFF36F8F7047F450002000ED00E05B
:102450000E498A684FF030001044EFF3098C80E891
:10246000F01F74467046FFF7D9FFA64607498A68F1
:1024700002F1300090E8F01F8CF3098802F10000AF
:1024800004B506F01AF9BDE804407047F450002086
:102490001EF0040F0CBFEFF30880EFF30980816991
:1024A00011F8021C0229FFD001B506F0F7F801BDB2
:1024B00040B2002807DB01234109034A00F01F0056
:1024C000834042F82130704700E100E040B200282C
:1024D0000CDB01220649430900F01F008240203333
:1024E00041F82320BFF34F8FBFF36F8F704700BFBA
:1024F00000E100E0054B420953F82220012300F0DF
:102500001F0003FA00F01040704700BF00E100E038
:1025100040B2002801F10101ACBF00F16040064B60
:102520004FEA4111C9B2ABBF00F5614000F00F00A6
:1025300080F800131954704714ED00E00B4A08B5F9
:102540000B4B22F07F029A60BFF34F8FBFF36F8F68
:10255000D3F8882022F47002C3F8882004F040FCED
:1025600005F0A4F900F046F804F07AFC0000000041
:1025700000ED00E042F8203C009B0B4942F81C3C77
:10258000019B21F0010142F8183C029B42F8081C13
:1025900042F8143C4FF0807342F8043C0023203A88
:1025A00002654367704700BFED82000000B50B4B2A
:1025B0000E4698601546436E83F30B882C4686F3CF
:1025C00009884FF00000064B984720464FF0000165
:1025D0004FF000024FF00003024C2047F45000205F
:1025E000C3860000ED8200001022014B1A61704783
:1025F00000ED00E0002320210348C2180133452BE1
:1026000082F80013F9D1704700E100E008B5EFF35C
:102610000583064A103B02EBC30152F833004968B8
:102620008847BDE80840FFF709BD00BF98BB000020
:102630001FB5094C094A23460121094800F0FAF860
:1026400000230393074B0121E41A01A8019302948C
:1026500000F0FAF804B010BD0000072000200020B0
:10266000E0BE0000C823002010B50C7A0B6804F00F
:102670001F0223F01F031A43CB68640923F01F03D2
:10268000054943EA440343F00103C1F89800C1F847
:102690009C20C1F8A03010BD00ED00E010B5074B44
:1026A000D3F89030C3F30723013B984202D8FFF7D9
:1026B000DBFF10BD6FF01500FBE700BF00ED00E091
:1026C0002DE9F04F0F46144606464FF000084D4DD9
:1026D00085B0B84580F29280D6F80490B9F1000F29
:1026E00036D0B9F11F0F40F2878019F01F0F40F06C
:1026F0008380D6F800A01AF01F0F7DD1504606F057
:1027000013F8834609EB0A00013806F00DF88345FB
:1027100072D11BF1160F6FD05C456DDDC5F898B016
:10272000D5F89C10C5F898B0D5F8A03021F01F015D
:1027300043F01F0AD6E900321A44994202F1FF39E8
:102740001ED1CA4508D131465FFA8BF005F0F5FF7E
:1027500008F101080C36BCE73146C5F898B0D5F849
:102760009C3022F01F0203F01F031343C5F89C3076
:10277000E0B205F0E2FF10F1160F3DD0441CE7E790
:10278000C5F898B0D5F8A020013B23F01F0302F054
:102790001F021343CA453146E0B2C5F8A030E8D065
:1027A00005F0CBFF10F1160F26D0C5F898B0D5F87C
:1027B0009C209DF808300AF1FF3A62F304038DF87B
:1027C0000830D5F8A0309DF808205B0863F3471265
:1027D0008DF80820D6E900321344009323F01F033C
:1027E0005344A3EB0903013023F01F036946C0B231
:1027F0000393FFF753FFBEE76FF01504204605B0C3
:10280000BDE8F08F00ED00E00522044BC3F89420F2
:10281000BFF34F8FBFF36F8F704700BF00ED00E035
:10282000BFF35F8F0022024BC3F89420704700BFB4
:1028300000ED00E010B5034C2278FFF741FF207057
:1028400010BD00BFFE6B00202DE9F74F294D8A46D1
:1028500006464FF00008AB46274FD0451BDAD6F8A6
:102860000490B9F1000F3FD031680846019105F09E
:102870005BFF0199044609EB0100013805F054FFA4
:1028800084424FF014021D4B08D002FB08F36FF096
:1028900015024BF8032003B0BDE8F08F14F1160FBA
:1028A0002C60F8D01978A142F5DD02FB08B0C7F81A
:1028B0009840C7F89840D7F89C4000F10801007B89
:1028C00064F304000871D7F8A0000C79400860F3A5
:1028D00047140C71D7F89C1021F01F016960D7F8DC
:1028E000A01021F01F01296108F1010814350C36F0
:1028F000B3E700BF644F002000ED00E0FE6B002056
:10290000F0B54149414CD1F890302568C3F3072315
:102910009D4287B075D80020FFF782FF3C4BC1F87D
:10292000C030854216D13B4C01A82570FFF77CF9D9
:1029300000250646384FAE4213D100202378324995
:10294000D1F89020C2F30722934254DBFFF75CFFDB
:1029500000202FE0616801EB0011FFF785FE0130D8
:10296000DFE70199280101EB0513DA683A40B2F577
:10297000001F21D0B2F5800F2BD0B2F5801F38D1C7
:102980005A689B680958013B22F01F00034401204C
:10299000844623F01F0340EA4C10CDE902218DF854
:1029A000100002A920780593FFF778FE00281DDAB1
:1029B0006FF0150007B0F0BD5A689B680958013BDD
:1029C00022F01F0003444FF0020C012023F01F03EC
:1029D000E1E75A689B680958013B22F01F00034455
:1029E0004FF0000C022023F01F03D4E723780133BB
:1029F000237001359FE7C1F89830C1F8A00001337A
:102A00009EE74FF0FF30D5E700ED00E0ECBE0000A0
:102A1000AAFF4400FE6B00200000F0FF014B18608D
:102A2000704700BF3C20002007B50DF1070003F000
:102A300067F9114B98421CD14FF480620F4B10493B
:102A4000C3F8B8254FF40062C3F83C259DF8070091
:102A500008F023FC0B499DF8070008F019FC012041
:102A60009DF80730984003F045F9002003B05DF869
:102A700004FB6FF00B00F9E70000AD0B00A0025063
:102A80002CA0025028A10250054B03EB8000D0F887
:102A9000003223F0E04343F04053C0F80032704767
:102AA000002584500122022108B5074B0020C3F8FD
:102AB000002503F54053C3F8D016FFF7E5FF104695
:102AC000FFF7E2FF002008BD0010005048B1054BA1
:102AD000054A1B68B3FBF2F35843044B43F0010370
:102AE000184770472022002040420F00D0BD000050
:102AF0000149024805F053BC14BF0000784F002084
:102B00004FF47F032DE9F041D3F830210646072A20
:102B10000D46D3F8343120D1023B032B02D8124AA0
:102B2000D35CD3B14FF050244FF0010800270520AB
:102B3000C4F81886C4F8147608F0A8FB4046C4F818
:102B4000148608F0A3FBC4F81476C4F8187630464F
:102B50002B46BDE8F041002118474FF050230022DA
:102B6000C3F81426F3E700BF22C90000002370B5A4
:102B700043600223037240F20113438190F837301F
:102B80000446DA0700F1040625D413F0020F0CBF47
:102B9000032502250123EDB2314620686573637277
:102BA00005F02DFEC8B9206B05F04AFE0223314620
:102BB0002068637205F023FE78B9A4F86E002574CE
:102BC000206B05F03DFE054B314663602068BDE893
:102BD000704005F014BE0125DCE770BD801A0600C8
:102BE00070B505460E4C286805F001FF78B90C2633
:102BF000013E04D1A4F5F414A4F5906407E028463E
:102C000005F024FF0128F3D048B17430F2D07D20C4
:102C10007D3C08F01FFD002CE5DC6FF00F0070BD5F
:102C200080969800372310B58AB0002201931123B3
:102C3000CDE90732C823090404460291006801A9BE
:102C4000099305F0C6FE88B9079B012B03D10A4BF7
:102C5000039A134063B994F84C302BB9039B13F0DB
:102C6000200F08BF6FF085000AB010BD0120FBE700
:102C70006FF00400F8E700BF0880F9FD2DE9F04788
:102C8000144699461A44436E05469A428A469EB0B7
:102C900070D890F86D30012B6FD000F114064FF40E
:102CA000A0220023304604F089F9002868D1B9F148
:102CB000010F0CBF18231923B5F86E200C93910750
:102CC00048BF2246B5F868304FF0110858BF04FBE2
:102CD00003F20D920322C827CDF8089042F2107932
:102CE000CDE9128228686A460CA9CDE90043149701
:102CF000CDF810A0CDF8149005F06BFE88B32846EF
:102D0000FFF76EFF044628BB2846B5F86210FFF7B0
:102D100089FF0446F0B916230422CDE915300123BA
:102D2000CDE91B80CDE90723069005F190032868C3
:102D300006AA15A9CDE90A391D9705F04AFE0446F1
:102D400040B91B9B012B03D10F4C179B1C400CB9A6
:102D50006FF00404304605F077FE20461EB0BDE853
:102D6000F0872846FFF73CFF04460028F2D06FF0BA
:102D70007304EFE76FF01504EFE76FF08504ECE7FD
:102D80006FF00F04E9E700BF0880F9FD2DE9F04F6F
:102D900090F84C30054691B0002B00F09D81002149
:102DA00005F073FF0446002840F0FE80B5F86E6021
:102DB00085F86D00C6F3C006B607642008F04AFC2B
:102DC0002923CDE9073614230D93C823CDE90E43FB
:102DD00000212846FFF726FF0128024600F09980CF
:102DE000002840F07E81286807A905F040FF0246D0
:102DF000002840F0768195F84C20002E00F0738179
:102E0000099B002A7DD0D8077ED43146284605F09C
:102E10003CFF0446002840F0C7802B6D284659002F
:102E200042BFB5F86E2042F00202A5F86E20DA012A
:102E300042BFB5F86E2042F02002A5F86E209F0335
:102E400042BFB5F86E3043F04003A5F86E3005F090
:102E500073FE0446002840F0A780284605F034FEA3
:102E60000446002840F0A0802F46AA6AA04B9A4250
:102E700094BF47F8042F47F8043F3946286805F007
:102E8000FDFE0446002840F08F800146242207A85A
:102E900005F0A1FC2146182201A805F09CFC28465B
:102EA000B5F86210FFF7BEFE044600287CD133233C
:102EB000CDE9073011230D93C8230826CDE90E0371
:102EC0000123CDE9026342F21073286805F19008EE
:102ED00001AA07A9CDF81480069305F0C8FE0446A0
:102EE000002861D1D5F890100ABA11F4000F01F052
:102EF0000F03D2B215D1012B5AD0022B15D10423C6
:102F000015E0002BC0F2EB804FF4A470002104F018
:102F100023FC0134B4F57A7F7FF45AAF6FF0730469
:102F200042E0012B44D0022B44D013B9012385F891
:102F30006A304C0542BFB5F86E3043F00403A5F883
:102F40006E30D00742BFB5F86E3043F48073A5F8F9
:102F50006E30910742BFB5F86E3043F08003A5F89C
:102F60006E30B5F86E4014F0020418D121461822D4
:102F700009A8D5F800904FF4007605F02CFC10233A
:102F8000CDE9073611230D93C8232246484607A9E9
:102F90000F9305F06CFE044630B9A5F8686095F80B
:102FA00036309B0608D40024204611B0BDE8F08FCF
:102FB0000223BCE73346BAE795F86A30012BF2D911
:102FC0006E6D002EEFD095F85C30182203F00203EE
:102FD000002B14BF012400244FF0000185F86B4042
:102FE00009A80CBF4FF0010A4FF0020AD5F800B053
:102FF000D5F8289005F0EFFB1022002101A805F07C
:10300000EAFB0623079311230D93C8234FF0400ECC
:103010000F930123CDE902E342F2107344F0004420
:1030200044F47F0444F47F4444F0F004584601AA79
:1030300007A90894CDF81480069305F018FE0446FD
:103040000028B1D195F8A03095F86B2003F00F035C
:103050009A4232D0B5F86E305807A4D52422002108
:1030600007A805F0B8FB2846B5F86210FFF7DAFDAF
:103070000446002898D10623079301230D93C82303
:10308000CDE90E030223024607A92868089305F03C
:10309000EEFD0446002887D10D9B012B05D1154C70
:1030A000099B1C40002C7FF47FAF0423394628681D
:1030B000AB7205F0E3FD044676E73946286885F8EB
:1030C0000BA04E4594BF6E60C5F8049005F0D6FD88
:1030D00004460028BED067E76FF0850464E72B65DF
:1030E0009BE6144660E7002A3FF497AE8DE600BFEA
:1030F00040787D010880F9FD0346002102690448FB
:1031000082F8D0100361D2F8D4308360FEF760BE3D
:1031100018210020084B70B5C31A0D4607499B10B3
:10312000044659434022064805F016FE2B46014648
:103130002046BDE870401847A84F0020B76DDBB6A9
:10314000A8BA0000402373B50B4C0093041B0B4638
:103150000D460A49A41061430646094A094805F08C
:1031600026FE011E05DA30462B4602B0BDE870404F
:10317000184702B070BD00BFA84F0020B76DDBB686
:10318000178E0000A8BA000010B5EFF311842023B9
:1031900083F31288BFF36F8F074A136823F002018D
:1031A000DB07116002D4012008F034F984F31188A0
:1031B000BFF36F8F10BD00BF485000202DE9F843CA
:1031C0000022012106460520FFF7A2F9144802F06B
:1031D0009DFD144B98421FD14FF0502349F6A53264
:1031E000C3F85C2502F0A2FD00244FF01C090C2757
:1031F000DFF834803569414609FB045005F0CFF80B
:10320000002807DB012307FB04551C44042CAB6793
:10321000F0D10020BDE8F8836FF00400FAE700BFAA
:10322000253300000000AD0B38BF00001FB50022A1
:103230000123CDE902236B46084ACDF800D0CDF832
:1032400004D005F0E1FD002805DB4FF480420023A7
:10325000684603F08BFF05B05DF804FB4D8E00005F
:103260000C22104B014602FB0033002030B4D3E99E
:103270001C521867EFF31180202484F31288BFF3E7
:103280006F8F9C6F04F0C00444F002049C6780F3CD
:103290001188BFF36F8F1DB12B4630BC0248184711
:1032A00030BC7047A84F0020A8BA000010B4EFF35C
:1032B0001182202383F31288BFF36F8F17480168B0
:1032C00041F002040460C80707D482F31188BFF3F9
:1032D0006F8F012010BC02F041BD4FF05021D1F89A
:1032E0000C04D1F80C14C907EFD5EFF3118083F368
:1032F0001288BFF36F8F0A498B6F03F0C00343F04E
:1033000002038B6780F31188BFF36F8F82F31188FC
:10331000BFF36F8F002010BCFFF7A2BF4850002002
:10332000A84F0020062812D8DFE800F0040F111182
:10333000110D0B00064B986F10F0070007D1FFF737
:103340008FBF0220FBE70320F9E70120F7E7704772
:10335000A84F00202DE9F041012207463649D1E867
:10336000EF3FC1E8E02F0028F9D133B933493448A1
:103370004B60CB608A6005F025F87B1E012B2BD8B3
:10338000012F07D14FF05023D3F81C3403F003036F
:10339000022B21D008F009FA0546F8B9294B1B7811
:1033A000E3B14FF0502302220646C3F808234FF042
:1033B0005024DFF89480D4F81824D4F81834D203B9
:1033C00015D503F00303022B01D0012F0FD16DB3EC
:1033D00086F31188BFF36F8FBDE8F081EFF311869C
:1033E000202383F31288BFF36F8F0125DFE7C5B178
:1033F000304605F082F9D4F81835DBB2012BDAD16A
:10340000D4F80421002AD6D00022C4F80421D4F82C
:1034100004210222C4F818252022C8F88021A360C4
:10342000C9E70021212004F097F9E4E74FF0502389
:103430000222C3F80423CFE7A44F0020944F0020BA
:10344000C44F0020116C042000E100E008B50748DB
:1034500008F005F938B10648FFF7E0FA0448FEF72E
:103460009FF8002008BD6FF01200FBE7F0BA0000E3
:10347000753400000A2838B50446074D04D1AB68FE
:103480000D2128465B689847AB6803485B68E1B24A
:103490009847204638BD00BFF0BA0000004870478A
:1034A00014C0000010B5044600694FF0FF3201213E
:1034B00008F06FF9636893F8402091060AD46368B6
:1034C00093F84020520614D42046BDE8104010491D
:1034D00005F010B8186B08F0C2F838B160684FF406
:1034E000D011303005F0B5FC0028E8D06FF01200A4
:1034F00010BD986B08F0B3F80028F7D060684FF45F
:10350000B011383005F0A5FC0028DDD0EEE700BF93
:10351000D9920000024B0B6001231360704700BF7B
:103520001CC000000048704724C000002DE9F7438C
:103530001C460B44B3F5802F0D4617462CD80029A6
:103540002ADB41EA040616F0030625D10422FF21F6
:103550000DEB020005F03FF9DFF8448008EB0509A8
:10356000A64209D33A4608EB05033C44A2420CD1DB
:10357000002003B0BDE8F083042209EB06010DEB47
:10358000020005F00DF90436EAE7197812F8010B8C
:10359000014003F8011BE9E76FF01500E9E700BF00
:1035A000FF6B0020104608B51A460B44B3F5802F78
:1035B00007D8002905DB044B194405F001F9002068
:1035C00008BD6FF01500FBE7FF6B00208B18B3F50B
:1035D000802F70B51BD8002919DB42EA0106C6F31B
:1035E0000B06A6B90B4C21F47F6121F00F01150BDE
:1035F0000C44AE4201D1002070BD20464FF48052F1
:10360000FF2105F0E8F8013604F58054F1E76FF08A
:103610001500F1E7FF6B002008B54FF48022FF2171
:10362000024805F0D8F8002008BD00BFFF6B00205D
:103630004FF4802301480B60704700BFFF6B0020F0
:10364000024B0B6001231360704700BF68500020DD
:103650000048704764C0000010B5012206481146BA
:1036600008F097F807F072FF044C206007F06BFF3A
:103670006060002010BD00BF705000206850002026
:1036800070B50C46154607F05EFF294606462046F3
:1036900005F040FF08B3B4FBF6F306FB1343E3B9B0
:1036A000B5FBF6F306FB1353BBB9AE4201D90020BC
:1036B00070BD4FF0FF324FF0FF33094803F056FD65
:1036C00007F041FF0646204603F018F8AD1B3444CE
:1036D000F9D1034803F026FDE9E76FF01500E7E7AD
:1036E00070500020F8B50E461946304617461C4665
:1036F00005F010FF08B344EA060515F003051CD1D8
:10370000A4B14FF0FF324FF0FF330D4803F02EFD10
:1037100024F00304A54206EB050009D1094AD2F8BA
:103720000034DB07FBD5064803F0FCFC0020F8BDA5
:10373000795903F001F80435ECE76FF01500F6E76E
:103740007050002000900350C3780F2B14D9C96B20
:103750000B480B0E13708B0200EA911003F47C03EC
:103760000906034301F0FE4110680B43054901407F
:103770000B430020136070476FF08500704700BF57
:1037800000FF0300FF000080F0B5406801F01F0457
:10379000057B87B044EA45140569002D63D0B2F576
:1037A000001F00F1100506D12146284607F0C3FE90
:1037B000002007B0F0BD0027B2F5800F01AE0197E1
:1037C000776039D1B3F1007F14BF052304238DF84E
:1037D00004300023CDE904630393836823FA01F1E5
:1037E00011F001011AD1B2F1A07F17D104F01F032B
:1037F000620903F180032AD0012A3AD11E4A52F805
:103800002330DB070AD40DF1030632462146284651
:1038100002F0CAFD194B98421BD002962146284659
:1038200003AA02F07DFC164B98421FD101222146CB
:10383000284602F01BFEBBE7B3F1C06F05D0B3F121
:10384000007F14BF01230223C1E70323BFE70D4A12
:10385000D5E73146284602F003FE094B9842DCD0FA
:103860006FF00B00A5E76FF08500A2E76FF0150081
:103870009FE751F82330FFDE002884500400AD0B91
:103880000000AD0B0025845038B545682B69B3B1F5
:103890001035284602F0D4FD044680B9014628467A
:1038A00002F09CFD084B98420BD12246284607495E
:1038B00002F074FD224605210D20FEF729FE0020AE
:1038C00038BD6FF00400FBE70000AD0BD1380000FD
:1038D0004209034670B502D0012A17D070BD0D4EC3
:1038E000326951680029F9D0012503F01F030C68E3
:1038F0009D400029F2D08A682A4002D030464B68A9
:1039000098472CB1236821461C46F2E7024EE7E7B0
:103910002346F8E7D8BA0000C0BA00002DE9F0430A
:1039200040F206354668D00648BF0320337B02EAE2
:10393000050558BFC2F3401087B001F01F07B5F569
:10394000837F144647EA43178DF8030044D00FD80D
:10395000062D18D007D8B5B1022D3FD06FF0150055
:1039600007B0BDE8F083B5F5807FF7D101250AE007
:1039700040F20222954233D0B5F5407F32D0B5F502
:10398000007FEBD102250123220303FA01F12BD59D
:1039900073689960326972BB07F01F037F0928D0F2
:1039A000012F75D13C4A02EB830284F48033D2F8B4
:1039B0000012C3F30043C4F3404444EA430421F437
:1039C000706144EA800421F00F0144EA05230B43AF
:1039D000C2F800320020C3E70725D4E70425D2E768
:1039E0000525D0E70325CEE7630344BF7368D9609C
:1039F000D0E72A4AD7E71036394630460DF10202A1
:103A000002F0D2FC14F4403F80460CD139463046D7
:103A100007F08FFD224B9845DCD130469DF802100F
:103A200002F018FDD6E74FF0000901AB39463046E9
:103A300003AACDE90439CDE90199CDF80C9002F043
:103A40006FFB174B984289D114F4003315D09DF8C1
:103A5000033084F48034C4F300448DF80E303946CA
:103A60004B46304603AA8DF80C508DF80D4002F0FD
:103A700013FC0B4B9842CDD070E7CDE904333946A7
:103A80000DF10303304603AA039302F049FBF0E76C
:103A9000803352F82330FFDE002884500025845004
:103AA0000000AD0B10B50B4C204607F0D8FD70B1EF
:103AB0002269A1681368204623F4806313600B68B1
:103AC0004FF420220A21984700EAE07010BD6FF001
:103AD0001200FBE7C0BA0000036803F01F025B0995
:103AE000026004D0012B034818BF00207047024831
:103AF000704700BF00288450002584502DE9F04F06
:103B00001546834640F2FF18DFF87491DFF874A180
:103B100085B000EB8101594503D1002005B0BDE817
:103B2000F08FDBF80030C3F3C322082AC3F3080484
:103B300000F2A0801B0E444508BF4FF0FF3419F877
:103B40000270222B00F29980DFE803F01221282B6B
:103B500032382B9797979747749797979797979798
:103B6000777A979797979797977D8386898C8F0019
:103B7000C5F80C45621C0ED0012603A80394FFF77C
:103B8000ABFF039B06FA03F3836032462EE0601C12
:103B9000C5F814456CD10BF1040BBCE7C5F808451A
:103BA000E8E7C5F81045601CF5D0002600221DE0AE
:103BB000631CC5F80845EED0002604E0C5F80C45A6
:103BC000661CE8D0012603A80394FFF785FF0122B5
:103BD000039B02FA03F3C36008E0C5F80845002F11
:103BE000E1D1621CD7D0002606273246DBF8003030
:103BF000039403F40040002818BF002203A818BF54
:103C0000012601930092FFF767FF039C019B00EBE5
:103C10008400D0F80042C3F3412C009A3B0243EAEF
:103C20008C03134304EA0A04234343EA4603C0F81F
:103C30000032B0E7C5F80C45D1E7C5F84045BFE70D
:103C4000C5F84445AFE7C5F82445631CA3D0012659
:103C5000ACE7C5F828458DE7C5F83045F5E7C5F868
:103C60003445F2E7C5F83845EFE7C5F83C4581E74C
:103C700000268AE76FF0150050E76FF085004DE7EA
:103C8000ADC90000F0F0FCFF0369024A5B68002048
:103C90001A607047801A060038B50C46456828221D
:103CA0000021204604F097FD074B00206360EB687D
:103CB00023602B69A360E37B43F00103E3730123DB
:103CC00084F8243038BD00BF801A060073B50C4C50
:103CD000456806690123716828680DF1070205F03F
:103CE000F7FC28B99DF80700FF2803D1013CF1D269
:103CF00002B070BD002CFBD16FF07300F8E700BF7D
:103D000040420F002DE9F84305690B680C466968CD
:103D100006460A684768934214D0FA68934203D96A
:103D20006FF08500BDE8F88363B105F108084145EF
:103D300005F11C091DD114224846AB6004F040FD7A
:103D4000C5F804902379022BEAD163792A789A4244
:103D500007D0022B16D07A686379002A36D16379AE
:103D60002B70A379012BDBD1637A012BD8D10020F2
:103D7000D8E7142249464046EB6104F021FDC5F81E
:103D80000480DFE73269D6F80490566833680BB9CF
:103D9000134B3360B388314643F48043B380D9F882
:103DA00000000A23303205F093FC8046D9F8000069
:103DB000836831465B689847B38858EA000023F46B
:103DC0008043B380C7D06FF00400ABE7022B0CBF79
:103DD00001210021381D05F061FC0028BFD0F2E769
:103DE000801A0600F8B50546002201210820FEF7DA
:103DF0008FFB0820FEF75CFB6B681A691868C0F837
:103E00002425997D5A7D0A43198B1B7D0B4313434F
:103E1000C0F86C356E68D6E9004313F001032BD06F
:103E20002F6907F1080001F06BFF224B98423DD14A
:103E3000387A04F10C0204F5907107F033FA387AFD
:103E4000012707FA00F001F055FF0823C4F80035F8
:103E5000F369C4F844350023C4F84835A760D4F8A2
:103E60005831002BFBD00023C4F800352846BDE8AC
:103E7000F840114904F03EBB0822C4F80025F2695D
:103E8000C4F84425C4F848350123A360D4F8203190
:103E9000002BFBD00023C4F82031D4F820310123BB
:103EA000E3604FF48073C4F80433D8E76FF0040084
:103EB000F8BD00BF0000AD0BD19C00002DE9F3411F
:103EC00004460D46476807F070FC4FF0200888B99B
:103ED0002A4B1B7873B16426606805F0B9FEF0B90F
:103EE000012007F0D3F9013EF6D10021212003F093
:103EF00033FCF0E7EFF311810E4688F31288BFF32D
:103F00006F8F606805F0A4FEA8B981F31188BFF334
:103F10006F8FEFE781F31188BFF36F8FE5E7EFF362
:103F200011810E4688F31288BFF36F8F606805F029
:103F30008FFE0028EED0FB6920461D7063680DF1EE
:103F400007011D68FF6904F0C0FA9DF807306BB9DE
:103F50000122C5F84475C5F84825C5F82031D5F8C3
:103F60002011C5F85831D5F85831AA6086F3118868
:103F7000BFF36F8F02B0BDE8F08100BF116C042069
:103F80002DE9F8434468066905460021606B05F099
:103F900031FF002821DBA16B481C15D10127E36A02
:103FA0009847B4680834D6E9023203EBC203A4F19F
:103FB0000802934213D8304605F07DFF2846BDE83D
:103FC000F8431E4904F096BA04F13C0000F07CFA74
:103FD00010F1130F01D0411DE0D1BDE8F88354F872
:103FE000080C07F03CFB28B354F8080C14F8041C28
:103FF00034F8023CD0F810E0DA0754BF43F4B013B1
:1040000083F4D013DEF800C023F4801207FA01F81D
:10401000DB074CBF48EA0C032CEA0803D0F80890F1
:10402000CEF80030D9F800309847002804F1080491
:10403000B9DAD2E76FF01200CFE700BF139E00009D
:104040002DE9FF4105690646D0F80480A86C2B6D68
:10405000002835D1002B53D0B8F830406A6C9C4210
:1040600028BF1C46EF6CEB6C53B1296D41B107F0D2
:104070006041B1F1005F03D0082C28BF08246F6EA7
:1040800000926A6CAC651AB1AA6C002A18BF22466D
:10409000CDE901271BB12B6D002B18BF2346002251
:1040A00069464046039302F02DFD184B984229D0F3
:1040B0006FF00401304604B0BDE8F04105F01DBFCB
:1040C000696CEF6C0A46B8F83040ABB1834228BF48
:1040D00003469C4228BF1C460029C4D001F060431F
:1040E000B3F1005FBFD0082C28BF0824286E2246F9
:1040F00004F066FB2A6EB6E7844228BF0446EBE76D
:104100001946D7E704B0BDE8F08100BF0000AD0B51
:104110002DE9F04F8DB001934368884602938B8858
:10412000064699049146046900F124814FF0FF325C
:104130004FF0FF3304F1100003F018F8C4F80480C6
:10414000D6F810A0D6F804B09AF85D30DBF8085025
:1041500023B1DAF80030984500F09180B8F804E017
:104160001EF4006F40F03A811EF0090F40F03381D9
:10417000CEF34513082B40F02E81D8F8003003937E
:10418000039AAE4B9A4240F22681AD4B9D4207D92D
:104190004FF05022D2F8582512F0030F18BF1D46D9
:1041A00004AF0BF10C0CBCE80F000FC79CE80F002C
:1041B00087E80F00039BAB4228BF2B461D46A14B4F
:1041C0009D421BD29E4B9D4218D29F4B9D4215D2C1
:1041D0009E4B9D4200F2D7809D4B9D4200F2D580C0
:1041E0009C4B9D4200F2D3809B4B9D4200F2D180BC
:1041F0009A499B4B9B4A8D4288BF13461EF0020F83
:1042000009930EF0040300F0C680002B14BF0323B3
:1042100002238DF82830CEF300138DF82930DBF817
:1042200000301EF0020FD3F80825CEF340014FEA0C
:10423000521302F01F0240F0B480002B00F0AF8058
:10424000012B40F0F580884901239340CB609AF818
:104250005D302BB1584602F01BFC00238AF85D301C
:1042600033465846814A04A902F0DEFB804B98424F
:1042700040F0A1800123CAF800808AF85D30012354
:1042800084F85C30029B996B4A1C03D003F13C001C
:1042900005F09DFEB9F1000F40F0A380C4F8349002
:1042A0000023A36304F1480204F1380104F134004F
:1042B00005F08DFD019B6064002B40F09B80E36363
:1042C0000023236404F1500204F1400104F13C0096
:1042D00005F07DFD002501212A46E0642563204686
:1042E00005F0C9FD3046FFF7ABFE2A462B46A06B12
:1042F000834240F0888000231946256CA94240F093
:104300008980934238BF134627464FF4FA524FF044
:10431000000802FB03F557F8203B4FF4004C1B68E4
:104320004146B5FBF3F540F2E730C8354FF47A72F9
:104330000023E5FB0C01FBF70DFF02460B46384658
:1043400002F014FF024618B9256B15F1740F68D1FD
:104350000298C4F8588002F09BFB6FF0730130465E
:1043600084F85D8005F0C9FD384602F025FF6FF046
:10437000730522E0A369002B7FF4D8AE63689845EB
:104380007FF4D4AEDCE63B4B38E73B4B36E73B4BA8
:1043900034E73B4B32E7003B18BF012339E739498B
:1043A00052E733B1012B45D12F49012393408B6054
:1043B0004DE73449F9E76FF0040523689B8813F44F
:1043C000005304D1636004F1100002F0ABFE2846F4
:1043D0000DB0BDE8F08F6FF01505EEE76FF08505C5
:1043E000EBE7D9F800306363002B3FF459AFD9F8FD
:1043F000043056E7019B1B68E363002B3FF460AF7A
:10440000019B5B685DE7616B01EBC30149680133A8
:104410000A446DE7E06B00EBC100406801310344E2
:104420006CE7002DC9D00146306905F024FDC4E7D2
:10443000C960FFDE00239B60FBE700BF47E8010087
:104440000024F4000048E80100127A00FF083D0053
:104450007F841E003F420F001FA107008FD0030082
:1044600048E8010090D00300002884501D9F000000
:104470000000AD0B00093D0080841E0040420F008B
:1044800020A107000025845000F01F0240090DD034
:1044900001280DD1094B03EB8203D3F80002084A2F
:1044A000024042EA8102C3F800227047054BF2E75E
:1044B0000023803253F82230FFDE00BF00288450F2
:1044C000F0F0FCFF002584500123F0B587B08DF893
:1044D0000230022300248DF804306B4403930F460E
:1044E00001AB0DF10301049305460291059401F01F
:1044F000B7FF0C4B064698420FD13946284603AA0F
:1045000001F00EFEB0420BD028469DF8031001F0DA
:10451000A1FF6FF0040007B0F0BD6FF01200FAE7E2
:104520002046F8E70000AD0B0123834070B5DC4363
:104530000B4AD2E8EF1F01EA0405C2E8E65F002E4D
:10454000F7D14FF4803282400648C0F80823BFF309
:104550005F8FBFF36F8F0B4214BF0120002070BD2F
:10456000A85000200050015070B40E4922F07F4640
:10457000D1E90034D01AC31844F10004C1E9003471
:10458000A6F50013B3F5400F09D2074B1B681A0AB2
:104590001B069C19054B42F10005C3E9004570BCA0
:1045A00003F05EBAD8230020AC500020E0230020A6
:1045B000D9B101230D4A8340D2E8EFCF4CEA030C76
:1045C000C2E8E1CF0029F7D14FF48033084A834095
:1045D000C2F80433074BD3E8AF3FC340DB0742BF09
:1045E0004FF40012044BC3F800217047A85000207C
:1045F00000500150A450002000E100E00D4B18686D
:10460000010A0006BFF35F8F0B4BD3F8043518186F
:1046100041F10001B3F5801F0AD2084BD3E9002312
:10462000904271EB030303D210F1807041F100015D
:10463000704700BFAC50002000500150E023002024
:104640002DE9F04F85B016461F4604469DF840A060
:10465000FFF76AFF0190FFF7D1FFB04271EB07034C
:1046600052D23B4B301A67EB0101984271F10001C5
:104670004DD2384B03EB0413D3E902239F4208BF0A
:10468000964258D04FF48038334908FA04F820464F
:1046900026F07F4BC1F8488305F0C1FC4FF00309B9
:1046A000584604F15005AD00ADB205F1502504F5B2
:1046B000A87305F580350293029A20F07F4341F8F4
:1046C0002230C1F84483D1F80435244AC01A033893
:1046D00020F07F4090422ED9286868B1D1F8043587
:1046E000A3EB0B0020F07F40B0F5000F039322D91D
:1046F000204605F094FC039BBAF1000F07D109EBAB
:10470000030009F10109D7E7BAF1000F09D06FF0F2
:10471000150520460199FFF74BFF284605B0BDE877
:10472000F08F01230E4AA340D2E8EF0F1843C2E8EE
:10473000E10F0029F8D107490E982301C8500F9BBB
:1047400001EB04120025C2E902675360E1E700BFF4
:1047500001008000C823002000500150FDFF7F00B1
:10476000A45000207FB500254FF0FF304FF0FF31FF
:10477000194C1A4B0226C4F80833C4F84833184BB6
:10478000C4F80855C3E902014FF480334FF4001216
:10479000C4F80433134B0121C4F804631520C3F893
:1047A00080212A46FDF7B4FE1520FDF781FE012386
:1047B0000D4AA360236013600C4B0D4A00932846FA
:1047C0000023CDE90155FFF73BFF3046FEF7C2FD60
:1047D000284604B070BD00BF0050015003000F0018
:1047E000C823002000E100E0A85000206945000037
:1047F000FFFF7F002DE9F7432E4BD3F804239007EA
:104800000BD5D3F8042142B10022C3F804212A4A6F
:10481000D3F80431136801331360264AD2F8043305
:10482000D90326D5254BD3E8EF1F21F00100C3E8BB
:10483000E40F002CF7D1CB0702D4D2F84031C3B13A
:1048400000251C4CC4F84051D4F84031FFF7D6FE87
:10485000EFF31182202383F31288BFF36F8F184B7D
:10486000D3E90267B042B94106D282F31188BFF39F
:104870006F8F03B0BDE8F0834FF0FF38D3E900102D
:104880004FF0FF391D60C3E902894FF48033C4F84B
:104890004833C4F84051D4F8403182F31188BFF353
:1048A0006F8F0029E5D0009032463B462846884766
:1048B000DFE700BF00500150AC500020A4500020A2
:1048C000C823002030B5431C124C85B005D084426B
:1048D000A8BF0446012CB8BF0124FFF78FFE0E4B82
:1048E0000C4DD3E90013401AB0F5000F0FD2221877
:1048F000AA4228BF2A46002052180849CDE90100E3
:10490000009143F10003FFF79BFE05B030BD2A463E
:10491000F1E700BFFFFF7F00D823002069450000BA
:1049200008B5FFF76BFE024B1B68C01A08BD00BF3D
:10493000D8230020012310B5074C15206360FDF734
:10494000C5FD4FF40012054BC4F80833C4F84833D2
:10495000034BC3F8802110BD0050015003000F002D
:1049600000E100E040EA0103C3F30D0330B58BB969
:1049700040F21515094C890BC0F38730994201D1DB
:10498000002030BDC218D2B202F5C07244F82250E5
:104990000133F3E76FF01500F3E700BF003000507C
:1049A0004FF0005318680D4B984210D003F11C5380
:1049B000A3F58B13A3F6CC5398420AD0084B984228
:1049C00009D0084B98420CBF0420022070470020F9
:1049D0007047032070470120704700BFB6B3B4B5DD
:1049E0005DCE03F1EC49F2B608B5FFF7D9FF30B15F
:1049F000034806F0E9FF0022024BC3F8402408BD3B
:104A000040230020003000502DE9F0414FF05023AA
:104A100015460122C3F81426002858D0002956D084
:104A20004FF0005302F13642A2F14B12A2F5984228
:104A3000C3E900204FF408429960DA60FFF7B0FF45
:104A40004FF47F03D3F830210646072AD3F83431D8
:104A50002DD1023B032B02D81E4AD35C3BB34FF04F
:104A600050244FF0010800270520C4F81886C4F828
:104A7000147606F00BFC4046C4F8148606F006FCDB
:104A8000C4F81476C4F81876FDB1134C204606F02D
:104A9000E1FDFFF785FF8642F8D002280F4B0CD1CD
:104AA00000226FF00D00C3F84024BDE8F0814FF004
:104AB00050230022C3F81426E6E74FF050220121CC
:104AC000C2F814160022C3F840240020EDE76FF06E
:104AD0001500EAE7D0C9000040420F000030005046
:104AE00010220B4B13B5C3F840240022FFF78CFFB4
:104AF000044650B94FF4004200230648CDE9002394
:104B000003F09EF8044806F0A5FD204602B010BD53
:104B1000003000504023002040420F001022034B81
:104B2000C3F840240122FFF76FBF00BF00300050E0
:104B3000034B000240F00400C3F80007704700BFB9
:104B400000300050012803D111B9024B186870479A
:104B5000014BFBE7882500200020002013B5044608
:104B6000104806F07CFDB0B1002001A9FEF760FD01
:104B70000D4B02689A4211D10389C16818444368F9
:104B8000B3F1807F0AD91CB1FFF7C8FF02B010BD96
:104B9000FFF7A6FFFAE76FF01200F7E76FF03C00AF
:104BA000F4E700BF08BB00003DB8F39630B581685C
:104BB00085B0103921F00704054603F0FDFC1022F2
:104BC0000146684603F007FE10226846064903F0D6
:104BD000F7FD10236A462146284603F0B9FC003849
:104BE00018BF012005B030BDB6C3000030B50D467A
:104BF000816887B0102302AA1039044603F093FCA1
:104C0000002802DA012007B030BD1022204602A998
:104C100005F077FA00283AD110221E4902A803F0C5
:104C2000BFFD00280CBF012302232B70204605F096
:104C300054FA012301460DF10702204603F073FCEC
:104C40000028DFDB9DF80730204603F00F021B0928
:104C50006A702B7101220DF1070105F052FA10B9AB
:104C60006B78042B03D901236B7000232B71A2688E
:104C70002046183A22F00702083AA91C05F054FA17
:104C80000028BFD12046E91C05F06AFABBE70323E0
:104C9000CBE700BFB6C300007FB56946044605F008
:104CA000FFF9012805D1264B694653F8340005F079
:104CB0005DFA002836D1224B02A903EBC4035868E1
:104CC00005F054FA01282BD103238DF808308DF814
:104CD0000B3000249DF800509DF80860194A2946C1
:104CE000107805F000FA18B33146507805F0FBF95A
:104CF000F0B19378042B03D09DF80310994217D19B
:104D0000D378042B03D09DF80B10994210D113795E
:104D1000042B09D15079831E022B03D804B070BD37
:104D20000028D6D0FF20F9E79DF802109942F1D073
:104D30000134032C02F10602D1D10120EEE700BFBD
:104D4000E4C10000D4C90000044B1B68584043086C
:104D50005B4240421843C017704700BFB05000206C
:104D60008842F0B504D00025084F0438AA4200D18B
:104D7000F0BD3E6850F8044F5E4024EA060451F846
:104D8000256001351E4034430460EFE7B050002039
:104D90002DE9F04F8DB01D46189B8346B3F12A3F95
:104DA0008A46179F1A9E059240F08D8039461698C4
:104DB00005F04BFA012838BF0120470900F01F0415
:104DC0004FF001097B01502B34BF4B4603230A935C
:104DD00009FA03F30B930A9B059805FA03F306EB14
:104DE0008303069303EB8503079305F006FC4FEA64
:104DF0008508424600210890304603F0ECFC079BF2
:104E0000C6F800900393089B3146CDE90153059BFA
:104E10003046199A009306EB08092B4605F0FEFB75
:104E200051464246484603F0CBFC022349460993CB
:104E30000B9B099A934248D142463146584603F0AB
:104E4000BFFC4FF00009CA46079B5A460393089BD4
:104E50005946CDE90153059B584600932B4605F072
:104E6000DDFB002C47D11F24013F169B0AF1010AEC
:104E700053F82730E34003F0010343EA49090A9B52
:104E8000534503D0002CDFD1002FDDD1189BB3F1A7
:104E90002A3F32D1424609FB0861069803F090FC94
:104EA000079B59460393089B5846CDE90153059B40
:104EB000069A00932B4605F0B1FB002CC1D1BFB977
:104EC0000DB0BDE8F08F00247AE7079B01EB080ADC
:104ED0000393089B4A46CDE90153059B5046009336
:104EE0002B4605F09BFB099B5146013309939FE735
:104EF000A146A246A8E7013CB7E731464FF0000AB9
:104F00000A4B2A4618681B68584080EA090080EA64
:104F10000A00FFF719FFC3430698FFF721FF099B1B
:104F20000AF1010A53454144EAD1B9E7B0500020E3
:104F3000054B01311B680132434022EA030208405D
:104F40000243501E00B27047B05000202DE9F04FD0
:104F5000834699B00F46184600211646039305F084
:104F6000CEFD002800F0898100240125774B3046D2
:104F70001493039915ABCDE90B45CDE90D45CDE96A
:104F80000F45CDE91145139305F042FDA04228DA03
:104F9000BBF1000F05D1E7B90024204619B0BDE8E8
:104FA000F08F2146584605F0BBFC04460028F2D09D
:104FB0000BA805F002FC0DA805F0FFFB0FA805F0FB
:104FC000FCFB11A805F0F9FB0C2115A800F038FB3B
:104FD000E3E73146384605F06EFC04460028E7D189
:104FE000DAE731460BA805F066FC04460028DFD15D
:104FF00003990DA805F05FFC04460028D8D1F1887C
:105000000FA80231ADF83850ADF8305005F0E3FB91
:1050100004460028CCD101460FA805F081FC0446C7
:105020000028C5D1F18811A8023105F0D4FB04464F
:105030000028BDD10DA805F09FFC00F01F001F281F
:1050400073D0C0F11F0319460BA8019305F0BAFCF9
:1050500004460028ACD101990DA805F0B3FC044624
:105060000028A5D1BDF83250BDF83A800DA8A5EBB7
:10507000080A4FEA4A19494605F0A4FC04460028EC
:1050800096D14FEA8A0A0DA90BA805F0F0FC00287A
:105090004DDA49460DA805F0B2FC0446002887D138
:1050A00008F1FF3305939B0005F1FF3A069305F1E4
:1050B000804508F18043023B013D9B00A5EB0805BC
:1050C0000893AB000293059B9A4541D8BBF1000FB2
:1050D0000DD058460FA905F0EEFB002840F0C9801E
:1050E000039AB388928813FB02F3ABF80430002FC5
:1050F0003FF45EAF01990BA805F081FC002840F059
:10510000B880B3880BA93846ADF8303005F0D3FB32
:105110000146002840F0AF80384605F0F0FC00283A
:105120007FF446AF0123BB8042E701949AE70F9AD0
:105130000BA952F80A300846013342F80A300DAA8A
:1051400005F0C2FD044600289DD031E701000300B0
:105150000D9B069A04931344DDF82C900793049B4F
:105160004FEA8A089A5859F82A10A8F104030F9DAB
:105170000993029B91421D4476D2A8F104000023BA
:1051800059F80000FAF7E6FF002914BF4FF0FF338B
:105190000346BAF1010F2B600EBF002309EB080391
:1051A00053F8083C1593A8F1040359F803301693FB
:1051B00059F80830DDF8108017932B6801332B6005
:1051C000089B98442B680021013B2B6011A805F037
:1051D000A7FB00284DD1059B002B48D0D8F8002014
:1051E000119B11A91A60079A084612685A602A682A
:1051F00005F06EFD00283CD113A911A805F037FC7D
:105200000028DFDC2A680DA911A805F061FD80BB2C
:10521000029B11A84FEAC308414605F0D3FB40BBEF
:105220000BA9084611AA05F04FFD014618BB0BA8B3
:1052300005F065FC002812DA0DA911A805F03BFB6A
:10524000B8B9414611A805F0BDFB90B90BA90846B5
:1052500011AA05F036FD60B92B68013B2B60029B5B
:105260000AF1FF3A043B2DE74FF0FF3391E7059A2F
:10527000B6E704469CE60C469AE66FF00B048CE613
:105280002DE9F74F90461F4A064615680F464540E0
:10529000ED43002B14BF9A468A4600240C9B04F170
:1052A00004094B4505D20C9B9C4220D303B0BDE8BA
:1052B000F08F042208EB04010DEB020003F080FAEA
:1052C000019A0AEB040106EA020B04220DEB02002C
:1052D00003F076FA019A38192A4042EA0B02019249
:1052E00004220DEB020103F06BFA4C46D6E718F8E6
:1052F00004301AF8042033402A4013433B5501344C
:10530000D1E700BFB0500020082804D00928034886
:1053100018BF002070470248704700BFE6C9000070
:10532000E9C9000001680E4A0346914215D1C169DE
:10533000A2F11022A2F1EF1291420ED18268012A4D
:105340000BD8C26812B101698A4206D0586928B1E7
:105350009B691B1A5842584170470120704700BF93
:1053600055AA00FF70B50D4B9E68A6B13046FFF7F9
:10537000D9FF044678B9F3686BB935690DB9204691
:1053800070BD2846FFF7CEFF28B9EB68B34202D1C3
:105390002E462D69F2E70124F1E700BFB45000204A
:1053A0002DE9F8433F4F3C68D4B1BC68C4B1002834
:1053B0004AD0002948D001FB00F5B5FBF0F0884247
:1053C00042D1281D40D8A9070DD025F00306043688
:1053D000FC6803E06368B34238D2A469002CF9D1B9
:1053E0002046BDE8F8832E46F2E7FB6041E006F177
:1053F00020016318203A5A600022C3E902242A4897
:1054000022691A6160502949D96102B1D360626989
:105410005A61A1699961AAB193619A6902B1536114
:105420004FF0010923610023C4E90169C4E9053390
:105430003B69DB072ED5FFF795FF58B31C4B484659
:105440001B6826E0FB60E8E70024C9E7A3681BB1FE
:10545000174B01201B689847626804F12008921BD3
:10546000232AC4D80123A360D4E90523002ABCD091
:105470009361A3690BB162695A610023C4E90533E2
:105480003B69DA0706D5FFF76DFF18B10120084B1D
:105490001B6898472A4600214046444603F09BF982
:1054A0009EE700BFB450002055AA00FF669911EE98
:1054B0001422002070B50546002800F08880444E74
:1054C0003368002B00F08380B268002A7FD08342CB
:1054D00003D872681344984203D33E4B01201B68E3
:1054E0009847A5F120042046FFF71CFF18B1394B5F
:1054F00001201B68984755F8183C012B03D0354B09
:1055000001201B689847002345F8183C55F8143CC7
:105510003BB39A682ABB55F81C2C02F120015A684B
:105520000A445A6055E905321A6155F8145C2B6932
:1055300003B1DD6020220021204603F04CF92869E8
:1055400010B18368002B2ED033699B073FD5FFF73E
:1055500009FF00283BD0BDE870401E4B01201B68AE
:10556000184755F8100C00282AD0836843BB4268BE
:10557000636813442033636003692361D4E905231E
:105580009AB9CBB9436963618269A261B3B19C6185
:10559000A36903B15C61236903B1DC6020220021AF
:1055A00003F019F9D0E72C46E1E79361A369002BDA
:1055B000E8D062695A61E5E7F360F7E7F460E7E78E
:1055C000F36845F8083C03B15C61F460BCE770BD6A
:1055D000B45000201422002038B50C4614220021BB
:1055E0000546134803F0F7F81249134800F040F855
:1055F000232C1CD915F003031FBF043CE418C3F18E
:105600000403ED1822460021284603F0E4F8084B75
:105610000A49C3E90054203C9D606C609A6811609F
:105620009A68A1F11021A1F1EF11D161DA6038BDC2
:10563000B4500020B5540000A153000055AA00FF4B
:1056400010B50A46044619B1024B00211B68984761
:1056500010BD00BF10220020014B1B68184700BF7F
:105660001C220020014B1B68184700BF1822002095
:10567000024B1860024B0020196070471C2200206A
:1056800018220020F8B500F10806476804463046A5
:105690000D4605F075F987424BD16368B3F5807FFD
:1056A00047D80021304605F02AFA002841DD0021C4
:1056B000304605F051F9E0B345B9294604F1100030
:1056C00005F01DFA002834DD0020F8BD04F12005A6
:1056D0000021284605F013FA00282ADD002128467B
:1056E00005F03AF928B304F128050021284605F011
:1056F00006FA00281DDD0021284605F02DF9C0B16D
:10570000002104F1100005F0FAF9002811DD002154
:1057100004F1300005F0F3F900280ADD002104F15E
:10572000380005F0ECF9002803DD002104F1400009
:10573000C6E70148C9E700BF80BFFFFF012938B5B0
:105740000546144601D0074838BD22B90123002080
:10575000C5E91C34F8E71046FFF7D6FD0028F5D15F
:10576000F1E700BF00BFFFFF70B500210446FFF75F
:1057700089FF054610B10E4D284670BD04F108069C
:10578000304605F0F9F87F28F5D91034294620462F
:1057900005F0E2F80028EED0204605F0EDF80128EB
:1057A000E9D93146204605F062F90028E4DBE2E75A
:1057B00000BEFFFFF0B50C4685B000210546164639
:1057C000FFF760FF002839D102A804F0F1FF21465D
:1057D0006A6802A805F0DAF8044618B102A804F0D5
:1057E000ECFF0CE005F10804214602A805F03FF9A2
:1057F000002807DB02A804F0E0FF6FF00304A4F523
:10580000854418E005F1480302A96F680846009333
:1058100005F11002234605F0ABFB04460028DDD15C
:105820003A46314602A805F0C7F8044602A804F03B
:10583000C4FF002CE3D1204605B0F0BD004CFAE7D0
:1058400080BFFFFF012903462DE9F04143D8234AD9
:10585000002918BF9046224A224F18BF964602F1EF
:10586000794202F5740202F5016218BF94461E4A9D
:105870001E4818BF17461E4A1E4E18BF164602F194
:10588000D14208BF804602F5C0121B4802F51E62D5
:1058900008BF8646194D1A4818BF1546194A08BF51
:1058A0008446194C194818BF1446A2F11162A2F59A
:1058B0000C22A2F28E2218BF02460020C3E9128EEB
:1058C000C3E91000C3E914C7C3E91665C3E9184268
:1058D0009966BDE8F0816FF07300FAE7D89E05C1C4
:1058E00007D57C363AF54FA539590EF767E6096AB0
:1058F000310BC0FF7F520E5185AE67BB8C68059B94
:1059000072F36E3CA78FF964ABD9831FA44FFABE24
:105910002DE9F04FCFB000F1640300F144070DF51D
:105920008A7900934A463B46019153F8041F42F896
:10593000041F00999942F8D104AD4FF000082C469D
:10594000DFF8F8A0B8F10F0F61D8019B042203EB38
:10595000880103A802F034FF039805F0A9FBA860B2
:10596000D4F818C1D4E947634FEAFC227340D4F855
:10597000206182EABC1203EA0C0382EA7C62734073
:105980001344D4F824215AF8041B1344D4F81061AA
:105990000B440344D4E9421E4FEA713041EA0E023F
:1059A00080EAB100324001EA0E0B80EAB15042EACF
:1059B0000B020244D4F81401626018441344D4F872
:1059C000202108F10108C4F82421D4F81C21B8F1E1
:1059D000400FC4E947C2C4E944E6C4E94231236048
:1059E000C4F8180105F10405ACD157F8043F59F883
:1059F000042F13443B60009BBB42F6D104A84FF434
:105A00009471FFF71DFE00204FB0BDE8F08F2B68AA
:105A100055F8382C4FEAF34080EA734080EA93202F
:105A200055F8143C55F8341C134418444FEAB1435C
:105A300083EAF11383EAD103184490E7F4C100002C
:105A40004FF47F03D3F83021D3F83431072A05D13E
:105A5000023B032B02D8024AD05C704700207047FB
:105A6000F4C9000008B5FFF7EBFF58B1784BD3F845
:105A7000202A3AB90D21C3F8201A0121C3F81C19B4
:105A8000C3F81C290022D30003F57F03D3F80013C9
:105A9000013107D0D3F800130132D3F80433202AA0
:105AA0000B60F0D1FFF7CCFF002840F0B980FFF782
:105AB000C7FF40B1674B684AC3F830254FF0502309
:105AC0000122C3F858254FF47F03D3F83021D3F8CF
:105AD0003431072A09D1023B032B06D85F4AD35C35
