:020000040100F9
:10000000880D0021A10F0001513900018D0F000161
:100010008D0F00018D0F00018D0F00010000000009
:100020000000000000000000000000006910000156
:100030008D0F0001000000008D0F00018D0F0001E9
:100040009D1100019D1100019D1100019D110001F4
:100050009D1100019D1100019D1100019D110001E4
:100060009D1100019D1100019D1100019D110001D4
:100070009D1100019D1100019D1100019D110001C4
:100080009D1100019D1100019D1100019D110001B4
:100090009D1100019D1100019D1100019D110001A4
:1000A0009D1100019D1100019D1100019D11000194
:1000B0009D1100019D1100010000000000000000E2
:1000C0000000000000000000000000000000000030
:1000D0000000000000000000000000000000000020
:1000E0000000000000000000000000000000000010
:1000F0000000000000000000000000000000000000
:1001000000000000000000000000000000000000EF
:1001100000000000000000000000000000000000DF
:1001200000000000000000000000000000000000CF
:1001300000000000000000000000000000000000BF
:1001400000000000000000000000000000000000AF
:10015000000000000000000000000000000000009F
:10016000000000000000000000000000000000008F
:10017000000000000000000000000000000000007F
:10018000000000000000000000000000000000006F
:10019000000000000000000000000000000000005F
:1001A000000000000000000000000000000000004F
:1001B000000000000000000000000000000000003F
:1001C000000000000000000000000000000000002F
:1001D000000000000000000000000000000000001F
:1001E000000000000000000000000000000000000F
:1001F00000000000000000000000000000000000FF
:10020000DEE61E284CBBCE8F023500003C0000000D
:10021000BC4A0000010000000000000100000001D5
:10022000FFFF02910000000000000000000000003D
:1002300000000000000000000000000030B44FF09B
:10024000000310F8014B11F8015B013A84EA050440
:1002500043EA0403F5D1A3F101034FEAD37030BCA4
:10026000704700BF4FF0000310F8012B013943EA3B
:100270000203F9D1A3F101034FEAD370704700BF25
:1002800030B411F8014B12F8015B6C4000F8014BDF
:10029000013BF6D130BC70472DE9F04F90E8F00FEC
:1002A00000F140004FF0040E59E0F0B4826BC36BD4
:1002B00004680525242687593C444FEA724787EA9B
:1002C000F24787EA92273C4442684FEAF21787EAEE
:1002D000B24787EAD2073C4440F8044B032D08BFDD
:1002E0006FF01B0687593A444FEA734787EAF34792
:1002F00087EA93273A4443684FEAF31787EAB347FC
:1003000087EAD3073A4440F8042B87593B444FEA25
:10031000744787EAF44787EA94273B4444684FEAE6
:10032000F41787EAB44787EAD4073B4440F8043B14
:10033000013DC0D1A0F13C00076A3C444FEA72473E
:1003400087EAF24787EA92273C4402684FEAF217AD
:1003500087EAB24787EAD2073C44C463F0BC4FF057
:10036000020288EA781C8CEAF84C0BEBBC1C8AEA87
:10037000090303EA080383EA0A039C4450F8043B98
:100380009C4451F8043B9C44674444EA050B0BEA47
:10039000060B04EA05034BEA030BE34484EAF42367
:1003A00083EA34530BEBB30B87EA771C8CEAF74CE8
:1003B0000AEBBC1C89EA080303EA070383EA090382
:1003C0009C4450F8043B9C4451F8043B9C446644D4
:1003D0004BEA040A0AEA050A0BEA04034AEA030A9A
:1003E000E2448BEAFB2383EA3B530AEBB30A86EA37
:1003F000761C8CEAF64C09EBBC1C88EA070303EA7E
:10040000060383EA08039C4450F8043B9C4451F8DB
:10041000043B9C4465444AEA0B0909EA04090AEAD8
:100420000B0349EA0309E1448AEAFA2383EA3A53CF
:1004300009EBB30985EA751C8CEAF54C08EBBC1C8A
:1004400087EA060303EA050383EA07039C4450F89E
:10045000043B9C4451F8043B9C44644449EA0A0828
:1004600008EA0B0809EA0A0348EA0308E04489EAB3
:10047000F92383EA395308EBB30884EA741C8CEA45
:10048000F44C07EBBC1C86EA050303EA040383EA89
:1004900006039C4450F8043B9C4451F8043B9C44A4
:1004A000E34448EA090707EA0A0708EA090347EAB2
:1004B0000307674488EAF82383EA385307EBB30756
:1004C0008BEA7B1C8CEAFB4C06EBBC1C85EA040324
:1004D00003EA0B0383EA05039C4450F8043B9C4465
:1004E00051F8043B9C44E24447EA080606EA090640
:1004F00007EA080346EA0306664487EAF72383EA25
:10050000375306EBB3068AEA7A1C8CEAFA4C05EB01
:10051000BC1C84EA0B0303EA0A0383EA04039C4439
:1005200050F8043B9C4451F8043B9C44E14446EAA7
:10053000070505EA080506EA070345EA03056544D9
:1005400086EAF62383EA365305EBB30589EA791C7C
:100550008CEAF94C04EBBC1C8BEA0A0303EA09039E
:1005600083EA0B039C4450F8043B9C4451F8043B41
:100570009C44E04445EA060404EA070405EA06034D
:1005800044EA0304644485EAF52383EA355304EB23
:10059000B304013A7FF4E5AEA0F14000BEF1010ED4
:1005A0007FF483AEA0F1400C9CE80F0000194919BC
:1005B0009219DB19ACE80F009CE80F004044494455
:1005C00052445B44ACE80F00BDE8F08F2DE9F043E6
:1005D00085B0304803F0E4FB30B92F4803F056F8FB
:1005E000002005B0BDE8F0834FF408414FF0807063
:1005F00003F017FB28B1294803F048F801F054FD37
:10060000EEE701F037FD054601F056FDE8B903F0CD
:1006100095FB04460146284603F031FB10B92146FC
:100620001F4805E01B4801F06BFD014618B11D484D
:1006300003F02CF8E2E72946284603F020FB10B12E
:1006400001F082FDFEE72946EAE74FF45E311648E5
:1006500003F0E7FA014608B11448E9E70446DFF879
:100660005090DFF8508001AF59F8046B98E807000C
:100670002E4487E807000C223946304603F0D3FBAE
:1006800000B91EB90134072CEED10026304601F026
:100690007BFBA5E7583F0001804200019842000122
:1006A000C6420001F0420001008800010F43000132
:1006B000B840000170400001B2F5802F2DE9F041F3
:1006C0000CD2042A20D83D494FF4F9723C4802F07C
:1006D000F3FF4FF4F971394802F0E5FF0823D21A0D
:1006E000CC1D114424F0070421F00701091B172930
:1006F0004FEAD1060AD8314940F2FB12304802F0E5
:10070000DBFF40F2FB11E6E70423E8E70027046083
:1007100031463046A660E76002F068FF0121421DC5
:100720008046304602F059FF9200D51DED0828445E
:10073000B0423AD8B8F1FF3F3946A2F1100204F1B5
:100740001000B8BF3A4603F066FB2A4639462046F9
:1007500002F03FFF3B463A463946204602F010FF82
:10076000A6EB050820463946012202F01AFF424650
:10077000294602F02EFF2B463A462946204602F033
:10078000FFFE3146204602F024FF43463A463146FA
:10079000204602F0F5FE31462046012202F001FF1C
:1007A0002946BDE8F04102F02DBF04494FF4037221
:1007B000034802F081FF4FF403718CE731430001DD
:1007C00054430001014B1B68184700BF0000002183
:1007D00030B585B004460D4610220021684603F06E
:1007E0001AFB02238DF80230044B2A462146684644
:1007F000019302F05FFC05B030BD00BFC5070001EA
:100800002DE9F0471646028B0446100712D4022940
:1008100002F007025BD1204602F05BFF88B101388D
:10082000042800F21081DFE810F052000E0174007D
:10083000B300E00001290CBF42F0100242F0200298
:10084000228386F31188BFF36F8FBDE8F08703F032
:100850000701481F01281ED8002006292768C4E97F
:10086000000014D1394603E0608B013060830968D1
:100870000029F9D123F0070343F002012046218328
:1008800002F027FF90B341F0200121832EE023F0F6
:10089000070399B2F2E7042930D123F0070399B294
:1008A0002046218302F015FF10B141F02001218381
:1008B000238B03F00709914540F0CE80228BD106AF
:1008C00040F1F48022F01003238302F00702D4F8F1
:1008D0001480238BB8F1000FB9DA0021276823F0C8
:1008E0000703C4E9001143F001032383238B03F0C2
:1008F0000709914500F0E380002536E07B4940F28E
:100900001B127B4802F0D8FE40F21B11774802F020
:10091000CAFE42B175494FF4AB72754802F0CCFE85
:100920004FF4AB71F2E7236843B9704940F25712B4
:100930006F4802F0C1FE40F25711E7E723691D68D6
:1009400045B96A494FF4AD72694802F0B5FE4FF4FB
:10095000AD71DBE7174690464FF00609238B23F075
:10096000070343F006039BB22383A268002A76D1D3
:10097000002F40F0A880002DA0D043F0080323836F
:1009800086F31188BFF36F8F20465A49A84781E04C
:10099000022A08D0554940F25D12554802F08CFEFB
:1009A00040F25D11B2E7678B47B150494FF4AF7227
:1009B0004F4802F081FE4FF4AF71A7E723695D68ED
:1009C00045B94A4940F26112494802F075FE40F2C9
:1009D00061119BE7238BB84623F0070343F0040320
:1009E0009BB24FF004092383BFE7012A08D03F4997
:1009F0004FF4B2723E4802F05FFE4FF4B27185E7E9
:100A0000236843B9394940F26512394802F054FE6F
:100A100040F265117AE723699D6845B933494FF47F
:100A2000B472334802F048FE4FF4B4716EE7002709
:100A3000238BB84623F0070343F005039BB24FF026
:100A40000509238391E7294940F26B12284802F0F7
:100A500033FE40F26B1159E700273D4685E743F02E
:100A60000803238386F31188BFF36F8FA16889B3CE
:100A70000E6879B343464A462046D1F804A0D047D1
:100A80001EB1336831461E46F3E73346FAE7002DC0
:100A90007FF47AAFEFF31186202383F31288BFF33C
:100AA0006F8F238B23F00803238307E793067FF5DB
:100AB000C8AE22F02003238302F00702ABE6002F2A
:100AC0003FF4FCAE002543F00803238386F311882E
:100AD000BFF36F8F002FDAD03E68394643464A464F
:100AE000204602F022FE3746F4E700BF6C430001C7
:100AF000544300015737000170B505460E4602F019
:100B000004FE041E14DBEFF31182202383F312880A
:100B1000BFF36F8F4FF6FF716B8B2C8B8B4204F002
:100B2000070407D182F31188BFF36F8F6FF00A04B7
:100B3000204670BD022C0CD101336B8382F31188E7
:100B4000BFF36F8F002322463146284602F0EDFDA9
:100B5000EEE7062C11D8DFE804F0041E101004257F
:100B60000400002333606B6893B9C5E9006604BBD9
:100B700002212846FFF744FEDAE7104910484FF4F7
:100B8000E47202F099FD4FF4E4710C4802F08BFD21
:100B90001E606E60EBE782F31188BFF36F8F6FF01A
:100BA0000404C5E782F31188BFF36F8F6FF08504EB
:100BB000BEE782F31188BFF36F8FB9E76C43000182
:100BC0005443000108B54268034602F00302032AB9
:100BD000816002D02AB1002000E0006800225A6043
:100BE00008BD04490448452202F066FD452101483C
:100BF00002F059FD91430001544300012DE9F347F0
:100C00000D46DDE90A7891461E46044620B96FF08C
:100C10000D0002B0BDE8F0870029F8D0002AF6D018
:100C20000093002301938B680846DB6898470268AD
:100C30008246B6FBF2F302FB13636262002BE6D13D
:100C40006A462846144902F0B9FF019A002ADED00C
:100C500007EB08039A42DAD3616AB7FBF1F301FBB1
:100C60001373002BD3D1C4E90096E5602361A36020
:100C70006761B8F1000F01D1A2EB07080C9BC4F823
:100C80001880E3614FF0FF3323629AF805300020AB
:100C900084F82830BDE700BFD537000108B5044807
:100CA00002F0F4FCBDE80840024802F0EFBC00BFCF
:100CB000B7430001EC43000130BFFFF7FDBF00BFA9
:100CC000154B9A6A12F0007F9A6A14BF1E201D20ED
:100CD00012F0807F9A6A18BF1F2012F4801F9A6A50
:100CE00018BF022012F4002F9A6A18BF212012F4B4
:100CF000802F9A6A18BF222012F4003F9A6A18BF08
:100D0000232012F4803F9A6A18BF24206FEA02421F
:100D10006FEA12429A62704700ED00E010B5164B80
:100D20009A6A9C6A12F4805F14BF1722162214F488
:100D3000006F9C6A18BF1822A40509D59A6B9A6A9D
:100D4000120404D518B19A6A22F400429A62192258
:100D5000094B986A10F4806F986A18BF1A2210F431
:100D6000807F986A40F47F4098624FF000030CBF88
:100D700010461B200B7010BD00ED00E010B51E4B9F
:100D80000246986A9C6A10F0100F14BF11201020C0
:100D900014F0080F9C6A18BF1220A40709D5586BDD
:100DA000986A000604D51AB19A6A22F080029A6203
:100DB0001320114B9A6A12F0010F9A6A18BF14207F
:100DC000D40602D49B6A9A070ED50B4B9B6ADB06AE
:100DD0000AD50A490A4840F2631202F06DFC40F25B
:100DE0006311064802F05FFC034A936A43F0FF0375
:100DF000936200230B7010BD00ED00E01A44000167
:100E000054430001F0B5564B04465B6800258BB097
:100E1000C3F3080385F31188BFF36F8F02F07F409F
:100E2000B0F17F4F08D102F00C00082804D012075F
:100E30004CBF0C46012554B94A494FF48B624A48CD
:100E400002F03AFC4FF48B61464802F02CFC002281
:100E5000033B8DF80720032B7BD8DFE803F00272F9
:100E6000765D3F4AD36A13F0020372D1D16A00293A
:100E70001ADBD36A5B005BD55369A16943F48073C5
:100E80005361BFF34F8FBFF36F8F536931F8021C6B
:100E900023F480735361BFF34F8FBFF36F8F4DF611
:100EA0000273994220D123689DF80720D2B92246C7
:100EB00002AE04F12007344610685168083203C4BA
:100EC000BA422646F7D1099A002D44D0C2F3080150
:100ED00021B96FEA52226FEA42220992184602A90A
:100EE00002F02CFD0BB0F0BD936ADBB233B10120F0
:100EF0000DF10701FFF742FF0346D5E7936A13F4AC
:100F00007F4F05D001200DF10701FFF707FFF3E741
:100F1000936AB3F5803F02D3FFF7D2FEECE71149A5
:100F200040F22A32104802F0C7FB40F22A318BE728
:100F30000C4940F22E320C4802F0BEFB40F22E313A
:100F400082E700200DF10701D4E700200DF1070131
:100F5000DBE70023A8E722F4FF7222F00102BCE7DE
:100F600000ED00E01A44000154430001064B5A69A9
:100F700042F010025A615A6942F480625A615A6919
:100F800022F008025A61704700ED00E0EFF308809C
:100F9000EFF3098101B57246FFF734FF01BD00BFD1
:100FA000002080F31488BFF36F8F002080F30A883D
:100FB00080F30B8801F090F900200E490860BFF320
:100FC0004F8F0D4880F3088800F02CF8202080F324
:100FD00011880A484FF40061401880F30988EFF344
:100FE00014800221084380F31488BFF36F8F00F050
:100FF0008DF8000094ED00E0880D002188010021AB
:10100000BFF34F8F0549064BCA6802F4E0621343F1
:10101000CB60BFF34F8F00BFFDE700BF00ED00E0E6
:101020000400FA0572B6002383F313884FF0FF30F3
:101030000C4A03F120010133102B42F82100F8D1B2
:1010400000234FF0FF30074A03F160010133102BFA
:1010500042F82100F8D162B6BFF34F8FBFF36F8F14
:10106000704700BF00E100E01EF0040F0CBFEFF37B
:101070000880EFF30980816911F8021C0229FFD072
:1010800001B502F061FC01BD40B2002807DB01237D
:101090004109034A00F01F00834042F821307047A5
:1010A00000E100E0054B420953F82220012300F043
:1010B0001F0003FA00F01040704700BF00E100E09D
:1010C0000131072908B508D90D490E48582202F008
:1010D000F3FA58210A4802F0E6FA40B20028ACBF01
:1010E00000F16040084B4FEA4111C9B2ABBF00F5B7
:1010F000614000F00F0080F80013195408BD00BFD4
:101100004C4400015443000114ED00E008B5084BC5
:10111000084A23F07F039360BFF34F8FBFF36F8FB5
:1011200001F0F2FB01F034FC00F02CF801F0F8FBC8
:101130000000000100ED00E0154680B506460C46B3
:10114000002282F30B88094FA7F5806888F30B888B
:1011500087F309884FF00000054988472046294653
:101160001A46B04703488047FEE700BF880D0021BC
:1011700069390001773900011022014B1A6170476B
:1011800000ED00E0002320210348C21801331E2B8C
:1011900082F80013F9D1704700E100E008B5EFF3E1
:1011A0000583064A103B02EBC30152F8330049683D
:1011B0008847BDE8084002F0D2BB00BF6C3F000189
:1011C00008B50649064821F00701C1F1045202F5AD
:1011D0008032FFF771FA002008BD00BF8F0D00219B
:1011E000D0000021064AD2F8AC3123F00043C2F807
:1011F000AC310022034BC3F84C21D3F84C3170477B
:1012000000200141006001410122024B0020C3F88F
:1012100040257047000008415023142213B51F4C8D
:101220000DF10700C4F80C351D4BC3F820214FF415
:1012300000621C4BC3F8BC254FF48062C3F838250C
:1012400001F000F9184B984225D118499DF8070084
:1012500001F0D0F816499DF8070001F0DFF81549B4
:101260009DF8070001F0C6F821469DF8070001F03F
:10127000D5F801209DF80730984001F0B5F84FF4FB
:10128000002200200C4BC3F84423C3F84C01D3F8D0
:101290004C3102B010BD6FF00B00FAE700B0004116
:1012A00000302041002001410000AD0B4C610141A4
:1012B000282001412C2101410060014173B5354BCB
:1012C000D3E84F3F00233449CDE90033334BD3F803
:1012D0000445BFF35F8FD1F80465BFF35F8FD3F888
:1012E00004259442F3D16B46224601212B4802F09B
:1012F00068FB324605460F21274801AB02F061FB2F
:10130000E0B1019B0DB9009302E0009A9342FAD339
:10131000009B22481C44013CD0F84C3524F07F440B
:101320009C421F4932D0FFF75DFFC0F84C451D4B72
:10133000009A9A4218D901230B7001E0002DE7D1E1
:10134000194AD2F8AC3143F00043C2F8AC31134B28
:10135000D3F84C2132B90121144A5160D3F84C31F1
:1013600003B1116001230DE0BFF35F8FD0F80435A6
:10137000E41A24F07F440E4B033C9C42DBD900234B
:101380000B7000230B4A137002B070BD0B78002B5A
:10139000F7D0D5E780010021001001410060014134
:1013A0007E010021FEFF7F000020014100B00041CE
:1013B000FBFF7F007F010021F8B51E490023C1E833
:1013C000423F52BB1C4B1D783DB305231B4E1C4FA7
:1013D00034780134B4FBF3F303EB8303E41A02F033
:1013E0001CFC184A137823B157F82430C01A072878
:1013F00013D9154BD3F8141141B10021C3F81411BE
:10140000D3F8143134700CB901231370347802F01E
:1014100004FC47F824002846F8BD0C4A0025D2F801
:10142000AC3123F00043C2F8AC310122084B5A60C2
:10143000F1E700BF800100217F0100217D01002133
:10144000DC0000217C01002100500041002001410E
:1014500000B0004120B1034B800143F00103184765
:10146000704700BFB0400001402373B50B4C0093A0
:10147000041B0B460D460A49A41061430646094A5F
:10148000094802F0CFFA011E05DA30462B4602B0B9
:10149000BDE87040184702B070BD00BF04010021D4
:1014A000B76DDBB6933A0001443F0001C9B2012990
:1014B00008B508D9084909487A2202F0FDF87A21CE
:1014C000054802F0F0F80C22036901FB0233186CA6
:1014D00000F0070008BD00BF834400015443000131
:1014E00070B5C9B2012903690AD91849184840F2F0
:1014F0005D1202F0E1F840F25D11144802F0D3F8F9
:10150000EFF31185202484F31288BFF36F8F0C262C
:1015100006FB0134246C14F0C00408D0A24206D0AB
:1015200085F31188BFF36F8F4FF0FF3070BD01223C
:1015300071430B441A6485F31188BFF36F8F4368BE
:101540000B445B6898470020F0E700BF834400012C
:1015500054430001084B70B5C31A0D4607499B1050
:101560000446594340220648FFF7BAFF2B4601467E
:101570002046BDE87040184704010021B76DDBB676
:10158000443F000170B50022012104460520FFF709
:1015900097FD0F4800F0CAFF0E4B984215D100F09E
:1015A000D5FF26690C49304602F0E2F800280BDB33
:1015B000012535642469084904F11C0002F0D8F8BB
:1015C000002801DB0020E56470BD6FF00400FBE73C
:1015D0005D1600010000AD0BD440000110B5EFF323
:1015E0001184202383F31288BFF36F8F074A136897
:1015F00023F00201DB07116002D4012001F042F860
:1016000084F31188BFF36F8F10BD00BF5401002118
:101610000C22104B014602FB0033002030B4D3E90A
:101620000E529863EFF31180202484F31288BFF3E5
:101630006F8F1C6C04F0C00444F002041C6480F33F
:101640001188BFF36F8F1DB12B4630BC024818477D
:1016500030BC704704010021443F0001012808B557
:1016600006D0042808D090B90E4B1B6C5B0717D12D
:10167000BDE80840FFF7CCBF0B4940F26E220B4893
:1016800002F01AF840F26E21074802F00CF8064901
:1016900040F27222054802F00FF840F27221F3E79F
:1016A00008BD00BF04010021834400015443000130
:1016B00010B4EFF31182202383F31288BFF36F8FEE
:1016C0001748016841F002040460C80707D482F398
:1016D0001188BFF36F8F012010BC00F05FBF11496C
:1016E000D1F80C04D1F80C14C907F0D5EFF3118030
:1016F00083F31288BFF36F8F0B490B6C03F0C003A9
:1017000043F002030B6480F31188BFF36F8F82F301
:101710001188BFF36F8F002010BCFFF779BF00BFA7
:101720005401002100500041040100212DE9F8433B
:10173000012206463D49D1E8EF3FC1E8E02F0028ED
:10174000F9D19BB93A493B484B60CB608A60FFF7BF
:10175000D3F900280ADA38494FF40C72374801F0FF
:10176000ABFF4FF40C71344801F09DFF6EB3731E54
:10177000012B52D8012E06D1314BD3F81C3403F083
:101780000303022B21D002F033FB0546F8B92D4BA1
:101790001B78E3B102220746294BC3F808234FF018
:1017A0000008274CDFF8A090D4F81824D4F8183497
:1017B000D20315D503F00303022B01D0012E0FD164
:1017C00035B387F31188BFF36F8FBDE8F883EFF36C
:1017D0001187202383F31288BFF36F8F0125DEE783
:1017E000384602F0D0F8D4F81835DBB2012BDBD143
:1017F000D4F80421002AD7D0C4F80481D4F80421F5
:101800000222C4F818252022C9F88021A360CBE762
:1018100002220B4BC3F80423D7E7074940F24222C8
:10182000064801F049FF40F242219CE700010021F7
:10183000F0000021200100218344000154430001F5
:10184000005000418101002100E100E0024B0B60EB
:1018500001231360704700BF580100210048704702
:101860002841000110B502F095FA034C206002F007
:101870008EFA6060002010BD58010021F8B50E46B8
:101880001946304617461D4602F015F9C8B146EA1A
:10189000050414F0030414D165B125F0030506F125
:1018A0008076A54206EB040006D1074AD2F8003440
:1018B000DB07FBD50020F8BD395900F073FF043475
:1018C000EFE76FF01500F6E7000008410D4B1868D0
:1018D000010A0006BFF35F8F0B4BD3F804351818CD
:1018E00041F10001B3F5801F0AD2084BD3E9002370
:1018F000904271EB030303D210F1807041F10001BB
:10190000704700BF680100210060014140000021D4
:101910002DE9F74302F084F82E4BD3F80423900707
:101920000BD5D3F8042142B10022C3F804212A4A7E
:10193000D3F80431136801331360264AD2F8043314
:10194000D90326D5254BD3E8EF1F21F00100C3E8CA
:10195000E40F002CF7D1CB0702D4D2F84031C3B149
:1019600000251C4CC4F84051D4F84031FFF7AEFFBD
:10197000EFF31182202383F31288BFF36F8F184B8C
:10198000D3E90267B042B94106D282F31188BFF3AE
:101990006F8F03B0BDE8F0834FF0FF38D3E900103C
:1019A0004FF0FF391D60C3E902894FF48033C4F85A
:1019B0004833C4F84051D4F8403182F31188BFF362
:1019C0006F8F0029E5D0009032463B462846884775
:1019D000DFE700BF006001416801002160010021D4
:1019E000280000212DE9F74F4FF0010808FA00F810
:1019F000144606461D466FEA0802DFF830A1DAE811
:101A0000EF3F03EA0201CAE8E01F0028F7D14FF4D4
:101A10008037DFF81C91B740C9F80873BFF35F8FB8
:101A2000BFF36F8F08EA03030093FFF74FFFA04255
:101A300071EB05034BD23F4B201A65EB0101984235
:101A400071F1000156D23C4B03EB0613D3E902239C
:101A50009D4208BF944243D04FF0000B24F07F4ECC
:101A6000F446032006F150039B009BB203F182432E
:101A700003F5B033C9F84873C3F800B01A6806F527
:101A8000A872019201992CF07F4249F821206FF051
:101A90000202C9F84473D9F80415521A6244DFF8F7
:101AA0009CC022F07F4262451AD91A685AB1D9F80F
:101AB0000415A1EB0E0222F07F42B2F5000F0FD900
:101AC000C3F800B01A6800EB010C0130DAE71C4BD8
:101AD000D3E8EF1F41EA0801C3E8E21F002AF7D16B
:101AE000154918483301C850002301EB0612C2E91A
:101AF00002455360009BABB1DAE8EF3F43EA0803CD
:101B0000CAE8E23F002AF7D1094BC3F804730C4B33
:101B1000D3E8AF3FF340DB0742BF4FF480020A4BEC
:101B2000C3F8002103B0BDE8F08F00BF64010021BD
:101B3000006001410100800028000021FDFF7F00BE
:101B400060010021CD1B000100E100E070B54FF005
:101B5000FF3000254FF0FF31174C184B0226C4F818
:101B60000833C4F84833164BC4F80855C3E90201DA
:101B70004FF480334FF48002C4F80433114B012139
:101B8000C4F804631620C3F880212A46FFF798FAA8
:101B90001620FFF779FA01230B4AA3602846236039
:101BA00013604FF480720023FFF71CFF3046FFF7ED
:101BB000BDFD284670BD00BF0060014103000F005D
:101BC0002800002100E100E064010021F8B514497B
:101BD00022F07F45D1E90063921B140A22F0FF0234
:101BE000921943F10003C1E90023A5F50011B1F5F5
:101BF000400F0AD20B4909684FEA112C09064E1909
:101C000009494CF10007C1E9006712F5807243F100
:101C10000003FFF7E7FE2046BDE8F84000F018BFDC
:101C200038000021680100214000002130B5024643
:101C300000240B490B4D0B6805EB0310D0F8080886
:101C4000C0B218B904B10B60002007E00133072BC4
:101C50004FF00104F0D96FF01B000B60136030BD32
:101C60006C01002100000841F7B5434D0646D5F848
:101C700020320C46B3F5006F174608D03F49404864
:101C8000212201F019FD21213C4801F00CFD01A8A1
:101C9000FFF7CCFF002867D1D5F82022B6FBF2F37E
:101CA00002FB1363002B61D1D5F82022B4FBF2F3C1
:101CB00002FB1343002B59D1D5F82022D5F824324A
:101CC0005343A34252D3002C50D0019B072B07D97A
:101CD0002C4977222A4801F0EFFC77212948D4E7E4
:101CE000D5F82012B6FBF1F201FB126232B12549A0
:101CF0007822234801F0E0FC7821EFE7D5F8202294
:101D0000D5F824124A43944206D91E4979221C4828
:101D100001F0D2FC7921E1E7D5F82012B4FBF1F211
:101D200001FB124232B117497B22154801F0C4FC75
:101D30007B21D3E71B0103F1824101F50021C1F8AA
:101D40000068C1F80448C1F80878D1F80028964224
:101D50000FD1D1F8042894420BD1D1F80838DBB266
:101D60009F4218BF6FF00D0003B0F0BD6FF015007B
:101D7000FAE76FF00D00F7E70000FF01F5440001FE
:101D8000544300012145000138B5044681692948C2
:101D900001F07CFC4FF0FF32274BC3F80823BFF360
:101DA0006F8F72B60023254903F120000133102BF9
:101DB00041F82020F8D100234FF0FF301F4A03F1F3
:101DC00060010133102B42F82100F8D14FF0E023DD
:101DD00000221A61D3F8042D03F5506342F000721B
:101DE0005A605A6A22F4E0225A62EFF31482920790
:101DF00007D5EFF3148222F0020282F31488BFF3B6
:101E00006F8FBFF34F8FBFF36F8FA26901219A606D
:101E10002046A56900F0F0F958B1002383F30B8840
:101E200083F30A882A6882F3088883F309886B6839
:101E3000984738BD534500010050004100E100E0E3
:101E40001FB50446074A01AB07CA83E807000C2206
:101E50001946204601F0E7FF00280CBF204600206D
:101E600004B010BD7C40000170B505460024054E4D
:101E700056F8040B2844FFF7E3FF10B90134072C90
:101E8000F6D170BD3041000137B5054690B1012053
:101E90000DF1060101F04FFF044630B1452107481E
:101EA00001F08BFC204603B030BDBDF806305B0866
:101EB0002B80F7E76FF01504F4E700BF65450001DC
:101EC0002DE9FF47074610460D4614469946D2F8BD
:101ED0000C801669FFF7B4FF38B94521524801F06C
:101EE0006CFC002004B0BDE8F087A369BB4202D0BF
:101EF00045214E48F3E7B9F1000F04D19D4202D0CD
:101F000045214B48EBE72846FFF7AEFF844202D05D
:101F100045214848E3E7226A474B9A4204D04521CD
:101F2000464801F04AFCDCE74921454801F045FC00
:101F30000DF10200FFF7A8FF024650B145214148CC
:101F400001F03BFC4921404801F037FC0023ADF88B
:101F500002306269BDF802309A4204D245213B4802
:101F600001F02BFCBDE714EB08080BD2731909D262
:101F7000A54207D8A34205D908F1FF38454501D845
:101F8000434502D845213248A9E7F619E3690BD247
:101F9000BB4209D3B34207D22B44DB1B5B68BB4275
:101FA00005D245212B489AE745212B4897E7B342B4
:101FB000F7D2D4F81090DFF8A48009EB050606F1FB
:101FC000050A01AF98E8070087E807000C223946A8
:101FD000304601F028FF00B9CEB901365645F1D19F
:101FE00045211F487BE745211E4878E706F110028E
:101FF0004946284601F027FE024610B145211A48FD
:102000008FE71A48492101F0D8FB01206AE7F268FE
:10201000A3699A42E7D101F00FFE02460028E5D0FD
:10202000452113487DE700BF8A450001AD45000109
:10203000E345000113460001FFFF02913F46000106
:10204000694600018D460001B7460001FD460001CA
:10205000404700019F470001704700018840000190
:1020600074480001CF47000128480001574800018B
:1020700005480001014BD3F8A80570470080000116
:10208000142210B5064B074CD3F8B03502FB0344BD
:10209000204600F0B5FB01280CBF2046002010BDF3
:1020A00000800001B48500014FF00053014A1A601E
:1020B000704700BF15FCBA254FF0005318680D4B50
:1020C000984210D003F11C53A3F58B13A3F6CC5305
:1020D00098420AD0084B984209D0084B98420CBF4E
:1020E0000420022070470020704703207047012021
:1020F000704700BFB6B3B4B55DCE03F1EC49F2B69C
:1021000010B54FF000540F4B226801469A42ADF5CE
:10211000107D14D10023CDE90133E36810AA0093A8
:1021200005A84FF40073FEF769FD28B9D4E9011240
:10213000012305A801F0BEFB0DF5107D10BD6FF069
:102140000D00F9E7B6B3B4B54FF00053014A1A6079
:10215000704700BF5DCE03F12DE9F043224885B002
:1021600001F0F0FD002604461F4B204FD3F83880C5
:10217000DFF87C90B04503D8002005B0BDE8F083BF
:10218000636A97E807001D6801AB83E807000C222B
:102190001946284601F047FE78B975B122692B69C6
:1021A0009A420AD1AB69A2699A4206D8E2699A4278
:1021B00003D963696A6993430CD0256A75B10D48E8
:1021C00001F064FA002383F31188BFF36F8F0423B7
:1021D000184602DFE36801361C44CBE7484601F0AD
:1021E00055FA636A1D60F5E70002000194400001A2
:1021F000DF480001B64800012DE9F04F87B00646E0
:10220000009198B301F09EFD00270446B36BBB42DA
:102210004ED94FF00008DFF8ACA04FF000095AF893
:10222000043BDFF8A4B05BF8045B01931D44274B2B
:1022300093E8070003AB83E8070019460C22284601
:1022400001F0F1FD019B00B9A5B909F10109B9F14E
:10225000070FE8D11E4B08F101089845DDD3009B1C
:1022600013B10022636A1A60236A3BB3002007B0EF
:10227000BDE8F08F2B6A174A9342EBD1AE42E9D00A
:10228000696B05F13C038842E4D025691A699542DF
:102290000AD19A69A569954206D8E569954203D99C
:1022A00062695D69AA4305D0DA6801301344EAE740
:1022B0000120DCE7009A0AB1626A1360E368013723
:1022C0001C44A3E78C4A00014C410001A0400001DE
:1022D00001000000FFFF02910022D30003F1FF7311
:1022E00003F58033D3F80013013107D0D3F800137E
:1022F0000132D3F80433202A0B60EED1224BD3E90C
:102300004C32072B26D1023A032A204B28D9D3F886
:102310000024D10732D41C4BD3F83021072A19D11D
:10232000D3F83431023B032B02D8194AD35C8BB16A
:102330007F23184A1849C2F818310023C1F8043E17
:10234000C1F8083EC2F82431C2F82C3102F57F22D0
:10235000C2F81031114B1A68114BC3F8442570476D
:1023600010498A5C002AD2D0D3F80024D207CED5F7
:102370000022C3F81421C3F81821C8E76FF0010246
:10238000C3F80024C7E700BF0000FF010050004170
:102390001249000100200041000008410080FF01B7
:1023A000006000411649000130B50468ACB1B4FAD0
:1023B00084F30122C3F11F03DBB29A4024EA020234
:1023C000D0E8EF5FA54204D1C0E8EC2FBCF1000FCC
:1023D000F6D1EAD102480B7030BD0248FCE700BFDD
:1023E0000000AD0B0200AD0B014BC3F804057047B4
:1023F00000F0004108B541B906490748482201F0FC
:102400005BF94821034801F04EF940F00040C1F863
:10241000800008BD4D4900015443000108B541B991
:10242000064907484E2201F047F94E21034801F0C2
:102430003AF940F00040C1F8800008BD4D49000164
:10244000544300010146014800F068B9040000212E
:10245000F7B5324B044650B1012825D030493148F8
:10246000DC2201F029F9DC212D4801F01CF90222BF
:10247000C3F8082301220646DA60C3F80401D3F842
:102480000431012342F21075244F8DF807306CB3EC
:10249000012C1AD0244923484FF4747201F00CF92E
:1024A0004FF474712048E0E70022C3F80803586035
:1024B000C3F80021D3F800310DF10706E1E70BB3B3
:1024C000012001F04BFC013D1CD0D7F80C3403F483
:1024D0008033002EF3D0D7F80C2402F001020FE075
:1024E00083B1012001F03AFC013D0BD0D7F818343C
:1024F00003F48033002EF3D0D7F8182402F003023F
:1025000032700BB903B0F0BD9DF807000128F9D176
:1025100001F024FC013DBAD1F4E700BF00500041B6
:102520008A49000154430001C7490001044B1A794C
:1025300022B9012218601A71024870470248704798
:10254000700100210000AD0B0C00AD0B08B50F4B66
:102550001A7952B90E490F484FF4987201F0ACF84D
:102560004FF498710A4801F09EF81B6833B10520BA
:10257000FEF798FD10B90520FEF786FD0122064BF7
:10258000C3F81825C3F8142508BD00BF7001002149
:102590008A490001544300010050004138B5354CD0
:1025A000237953B9344940F27F12344801F084F85A
:1025B00040F27F11304801F076F850B101284ED03A
:1025C0002D4940F2C3122D4801F076F840F2C311B4
:1025D000F0E72B4BD3F81814D3F81824C90323D5EC
:1025E00002F00303022B05D0012B02D00020FFF7DD
:1025F0002FFF0123224A0220C2F8183508224FF487
:102600008273002103F1824303F5A04319601D6822
:10261000012502F1824202F5A0421560226812B340
:10262000174BC3F804030FE0D3F81424D207E0D506
:10263000D3F81C2402F00302013A012AD6D82268FA
:102640001AB10222C3F8042338BDD3F80421002AAA
:10265000FBD00022C3F80421D3F80431F4E70022B0
:102660004FF48073CDE71A68002AFCD019601B680C
:10267000EAE700BF700100218A49000154430001CC
:102680000050004108B5094B1B7953B90849094866
:1026900040F2DD1201F010F840F2DD11044801F0C3
:1026A00002F8BDE80840FFF7D3BE00BF700100216B
:1026B0008A4900015443000110B5164BD3F800219C
:1026C00052B10020C3F80001D3F800210122C3F861
:1026D0000823114B1B6898470E4BD3F8042182B195
:1026E0000022C3F80421D3F80421D3F81824D3F826
:1026F0001824022102F00302012A03D1C3F818159D
:102700009A6010BDC3F80813034B0120BDE81040C8
:102710001B68184700500041700100210079024BEE
:1027200003EB0010FFF740BE0C000021044AD2F872
:102730000034DB07FBD50160BFF35F8F704700BF3C
:102740000000084108B500F17F43B3F5802F04D2A3
:10275000C0F30A0363B10E4819E00E490E4840F277
:10276000071200F0A9FF40F207110A4800F09BFF92
:1027700002220A4BC3F804254FF0FF320260D3F85F
:102780000024D207FBD500220548C3F8042508BD64
:102790000A00AD0BFB490001544300010000084151
:1027A0000000AD0BF8B50D460121044601F0D8FA42
:1027B00050B9104940F295120F4800F07DFF40F2E9
:1027C00095110C4800F06FFF14F0030708D0094979
:1027D0004FF4CB72084800F06FFF4FF4CB71F0E775
:1027E000064E2046C6F804152946FFF79FFFC6F897
:1027F0000475F8BDFB490001544300010000084185
:10280000C10708B50AD5094909484FF4F67200F026
:1028100053FF4FF4F671054800F045FF20F0030325
:102820001B6882070CBF98B2180C08BDFB49000159
:102830005443000108B5084A084B93420AD9084995
:102840000848182200F038FF1821054800F02BFF37
:102850001433F2E7FCD308BD6C3F0001443F000194
:10286000374A00015443000138B50446EFF311859F
:10287000202383F31288BFF36F8F01F0D5F9042C66
:1028800008D107490748872200F016FF872104482E
:1028900000F009FF85F31188BFF36F8F38BD00BFCB
:1028A0005A4A00015443000138B5094B53F82040FF
:1028B000013053F82050A54200D838BD636823B1D9
:1028C000204601F078FA0834F5E723689847FAE7DC
:1028D00068410001012208B5094B03201A70FFF777
:1028E000E3FFFEF7DBF901F082FA0420FFF7DCFFDB
:1028F000FDF76CFE034A137B23F00103137308BD3D
:10290000810100214800002108B50348034A002145
:10291000121A01F068FA08BD280000218401002184
:1029200008B50020FFF7C0FF164B03F5006282F3E5
:10293000088883F30A880025E023134C84F82230AA
:10294000E57725766576A57684F82050636A43F4AA
:10295000E023636284F82350FEF708FBFEF70CFCCB
:102960004FF0FF33A362E362FFF764FF0120FFF73C
:102970009BFF0220FFF798FF2B462A462946034873
:10298000FEF7DAFB8801002100ED00E0D528000108
:1029900008B50648064A0749121A01F026FABDE8AA
:1029A0000840054A0549064801F01FBA0000002109
:1029B00028000021904A000100000000904A000118
:1029C00000000021034B1B680BB901F024B9002063
:1029D000704700BF7801002130B570B10B4B5B68C8
:1029E00098420AD0036843B1D3E90421D0E90445F1
:1029F000121941EB0501C3E90421D0E9003213604B
:102A00005A600023C0E9003330BD00BF1C00002124
:102A100010B50E4B1C689C4204D1FFF7D3FF6FF03A
:102A2000004010BDFFF7CEFF002CF8D0D4E90432EF
:102A30001B1A62EBE072B3F1004F72F10001EEDAA3
:102A4000002AACBF18460020EBE700BF1C000021A5
:102A50002DE9F84FEFF3118C202383F31288BFF395
:102A60006F8FDFF8ACA0DFF8AC900024C9F800004D
:102A7000DAF800000025504508BF0020264FE04648
:102A8000D7E90021D9F8003078B3D0E9046C4FEAD7
:102A9000E37EB3427EEB0C0B05DAF61A6CEB0E0408
:102AA000C0E9046421E0B21841EBE671C0E90445D5
:102AB000C7E90021FFF790FF88F31188BFF36F8FFC
:102AC00083689847EFF31188202383F31288BFF3BC
:102AD0006F8FD9F80030DAF800009B1B5045C446D0
:102AE000C9F80030CBD1D7E9002100249A1841EB76
:102AF000E373C7E90023C9F80040FFF789FF2146C7
:102B000001F088F888F31188BFF36F8FBDE8F88F64
:102B10001C00002178010021C80000213F2A2DE976
:102B2000F041904652D905460C46A2F1400626F0E7
:102B30003F064036274F0E44236840341BBA2B64AF
:102B400054F83C3C39461BBA6B6454F8383C284670
:102B50001BBAAB6454F8343C1BBAEB6454F8303CF9
:102B60001BBA2B6554F82C3C1BBA6B6554F8283CF7
:102B70001BBAAB6554F8243C1BBAEB6554F8203CF7
:102B80001BBA2B6654F81C3C1BBA6B6654F8183CF5
:102B90001BBAAB6654F8143C1BBAEB6654F8103CF5
:102BA0001BBA2B6754F80C3C1BBA6B6754F8083CF3
:102BB0001BBAAB6754F8043C1BBAEB67FDF76CFB20
:102BC000B442B9D108F03F00BDE8F0811046BDE83D
:102BD000F08100BF804100010A4610B514681A490F
:102BE00024BA0464546824BA4464946824BA84649B
:102BF000D46824BAC464146924BA0465546924BA34
:102C00004465946924BA8465D46924BAC465146A95
:102C100024BA0466546A24BA4466946A24BA846660
:102C2000D46A24BAC466146B24BA0467546B24BAF9
:102C30004467946B24BA8467D26B12BAC267FDF7FB
:102C40002BFB002010BD00BF804100012DE9F041A9
:102C50000027B54CB54BB2B0CDE90043B44BB54EEF
:102C60000293B54B1446CDE90363B44B0546059377
:102C7000B34B3097069303F17453A3F52303A3F6E4
:102C8000924331920793002A40F0848080224FF0D3
:102C90003A0C01236E460DEB02078DF880200020D0
:102CA0004FEA9C0203F1800E012A06EB0E0146F862
:102CB0000E0024D0022A486021D0032A88601ED04A
:102CC000042AC8601BD0052A086118D0062A48616A
:102CD00015D0072A886112D0082AC8610FD0092AA6
:102CE00008620CD00A2A486209D00B2A886206D0F2
:102CF0000C2AC86203D00E2A086308BF48631CF080
:102D0000030F16D02CF0030C6344002103F1C8021A
:102D10006A443A2B02F8481C0BD003F1C9026A44FA
:102D2000392B02F8481C04D0CA330DEB030202F819
:102D3000481C0023620F62F30703620D62F30F2346
:102D4000620B62F317436209394662F31F63304630
:102D5000E400CDF8BB308DF8BF40FFF73DFFDDE963
:102D60000001DDE9022306BA14BA18BA09BADDE98E
:102D7000042312BA69602A6119BADDE9062312BA7E
:102D80001BBA2E60AC60E8606961AA61EB6132B089
:102D9000BDE8F0816E4630468846FFF7BFFE241A34
:102DA00008EB0403002800F0F580421E022A53D9E4
:102DB00058F8042020928208012A00F0E680596821
:102DC000022A219100F0BE809968032A229100F026
:102DD000E780D968042A239100F0E7801969052A61
:102DE000249100F0E7805969062A259100F0E780D8
:102DF0009969072A269100F0E780D969082A279166
:102E000000F0E780196A092A289100F0ED80596ADC
:102E10000A2A299100F0B180996A0B2A2A9100F0C0
:102E2000F480D96A0C2A2B9100F00381196B0D2ACA
:102E30002C9100F00981596B0E2A2D9106D00F2A92
:102E4000996B18BFDA6B2E9118BF2F9220F00307F1
:102E500082073B4400F0DE80197807F1C8026A441B
:102E600002F8481C7A1C90420FD9591C0978C832C4
:102E700002376A44B84202F8481C06D99B7807F129
:102E8000C8020DEB020707F8483C8021431C00F103
:102E9000C8026A44382B309002F8481C6AD93F2B8C
:102EA0002CD80022C8336B443E2803F8482C25D088
:102EB00000F1CA030DEB03013D2801F8482C1DD099
:102EC00000F1CB036B443C2803F8482C16D000F1EA
:102ED000CC036B443B2803F8482C0FD000F1CD0302
:102EE0006B443A2803F8482C08D000F1CE036B4419
:102EF000382803F8482C01D18DF8BF2020AF39467F
:102F00003046FFF769FE3A2803463CD8319CC3F1AE
:102F10003A02022A7FF6F9AE5A1C3B2AC3F13B0C57
:102F200088BF4FF0010CBAE667E6096A85AE67BB59
:102F300072F36E3C3AF54FA57F520E518C68059B9B
:102F4000ABD9831F082854D008273B4419467A1C64
:102F500011F801CB07F1C8046C44904204F848CC46
:102F600084D8802100F1C8030DEB03023090431C8C
:102F700002F8481C319C20AFC9E7282800F088805F
:102F800028273B44E2E7319CD3E6042826D00427D7
:102F90003B44DBE78022012330908DF88020E9E775
:102FA0000C282CD00C273B44D0E710283BD010270E
:102FB0003B44CBE7142841D014273B44C6E71828EC
:102FC00047D018273B44C1E71C2849D01C273B4465
:102FD000BCE7202850D020273B44B7E780220523B8
:102FE00030908DF88420C5E724283FD024273B4427
:102FF000ACE78022092330908DF88820BAE7802240
:103000000D2330908DF88C20B4E72C283AD02C2753
:103010003B449BE7802100F1C8026A443090431C86
:1030200002F8481C3BE78022112330908DF8902055
:10303000A0E7302832D030273B4487E78022152391
:1030400030908DF8942095E734282DD034273B44D8
:103050007CE718218022192330918DF8982089E788
:1030600080221D2330908DF89C2083E78022252329
:1030700030908DF8A4207DE78022212330908DF8B8
:10308000A02077E780222D2330908DF8AC2071E7C7
:103090008022292330908DF8A8206BE780223123ED
:1030A00030908DF8B02065E78022352330908DF880
:1030B000B4205FE72DE9F04F43688DB01546804698
:1030C000029383789A0740F10D8100240E78002E38
:1030D00000F00A81252E0BD04B1C0393013441468E
:1030E0003046029B98470028C0F2F6800399EDE72E
:1030F0004E788B1C252E0393F0D00027B946BB4693
:10310000BBF11F0F38D8A6F12003102B0AD8DFE837
:1031100003F02A0909300909092109090928092D9B
:1031200009091F00A6F13003092B33D92A2E37D104
:103130001BF0400F55F8043B40F08280002BA7BFE6
:103140004BF0200B9946C3F100094BF0280B01E02E
:103150004BF0010B039B13F8016B0393002ECFD1AF
:1031600030E04BF0020B4BF0040BF3E74BF0080B95
:10317000F0E74BF0100BEDE7BBF17F0F19D8A6F18C
:103180003003092BD2D81BF0400F03D00A2101FBDA
:103190000737DFE70A214BF0200B01FB0939D9E79C
:1031A0002E2E06D11BF0400F40F09E804BF0400BBE
:1031B000D0E76C2E31D02BD8682E36D06A2E3CD07A
:1031C0004C2E3AD0002F46F02003B8BF2BF040021F
:1031D000A3F16501BCBF00271FFA82FB022901D9B8
:1031E000612B2FD107350727DFF8ACA225F00705A3
:1031F00008351BF0080F66D00AEB070B56465E45F4
:1032000063D1A4EB0A0AA9EB070906EB0A026FE1F6
:10321000742E9FD07A2E9DD0D4E71BF0800F18BF5C
:103220004BF4007B4BF0800B94E71BF4807F18BFBE
:103230004BF4007B4BF4807B8CE74BF4207B89E7DD
:103240001F4687E7A6F16301122900F2F080DFE84C
:1032500011F013004F00EE00EE00EE00EE004F0004
:10326000EE00EE00EE00EE00EE00FE00E900EE00E3
:10327000EE001B00EE00AF0055F8043B01270DF1F6
:10328000180A8DF81830B4E755F804AB834BBAF13F
:10329000000F08BF9A461BF0400F504614BF394636
:1032A0004FF0FF3100F0CFFD0746A2E74146202056
:1032B000029B984700280FDB013EB742F6D34C44EF
:1032C000B146A41B98E74E46F7E7414616F8010BB6
:1032D000029B9847002892DA98F8023043F00403E2
:1032E00088F802304FF0FF3420460DB0BDE8F08F73
:1032F0001BF0800F34D01BF4007F2CD0073525F055
:103300000705AA4669685AF8080B2BF01005002932
:10331000ADB237DA404245F4806561EB41010DF111
:10332000180B0A235A4600F09AFDA0EB0B030193F9
:103330006B0662D5019B25F001019F4289B240F3E3
:10334000A180002E00F0998015F0100240F09C80C2
:10335000BB460D4623E0AA465AF8040BC117D4E732
:10336000AA461BF4807F5AF8041B01D10846F5E7F2
:103370001BF4007F19BF48B241F3C01108B241F3FA
:10338000C031C2E750EA0103C9D11BF0400FC6D0DB
:10339000002FC4D12BF01102BB46019795B240F229
:1033A000064115EA01021CBF0BF1010B00222CE0C3
:1033B0002BF010020A231FFA82FB1BF0800C49D06D
:1033C0001BF4007115BF0735AA4625F007055AF80A
:1033D000040B1EBFAA4669685AF8080B50EA01059B
:1033E00045D12BF016051BF0400FADB242D0002F97
:1033F00040D12BF01702019795B215F0100248D07A
:10340000019B002E42D103F1010B29075AD4EB078F
:1034100006D5D9456FDDA9EB0B030199CB465F18A3
:103420005B4649E04BF0100B10237826C5E7782B5C
:1034300004D1C6F1780343F01003BEE741462520CE
:10344000029B98470028FFF647AF023447E608235F
:103450000026B2E7AA461BF480715AF8040BBDD0CF
:103460001BF400711ABFC0B2614680B2B6E72BF000
:10347000060295B20DF1180B54E725F01105BB4675
:10348000ADB28CE70D46B8E73B460D4603F1020BA3
:10349000BBE7DDF804B082E7834A00017C4A000103
:1034A000CDE9043241462020029B98470028FFF6D0
:1034B00013AF049B059A01339945F1DCA4EB0B0192
:1034C0009B46CC180AB341463020029B98470028FF
:1034D000FFF602AF8EB901342744391B019B994294
:1034E00024DC1D4655BB019AA9EB0B095546224425
:1034F0001446914433E0019F92E70234414630463E
:10350000029B98470028E7DAE6E640F206410D42C2
:10351000E2D015F0020F04F10104414614BF2B2044
:10352000202015F4806F18BF2D20E9E74146302098
:10353000029B013498470028CFDACDE606AB013D67
:103540004146585D029B98470028CBDAC4E64146C5
:103550002020029B013498470028FFF6BDAEA9EB5E
:103560000403002BF3DCC1E57047836800EBC10165
:10357000B3F5004F2CBF51F8220031F8120070470C
:1035800000EBC1018068B0F5004F2CBF41F822303C
:1035900021F812307047012208B5FFF7E6FFD0404E
:1035A00008BD836800EBC101B3F5004F08D34B6839
:1035B0001AB143F001034B60704723F00103FAE7AF
:1035C0004B881AB143F001034B80704723F001038D
:1035D000FAE753000122FFF7D3BFB0F5004F34BF25
:1035E000042308230731C818C00870470A4608B5E5
:1035F0000121FFF7F2FF0132121AB2FA82F0C0F194
:103600001F0008BD2DE9F0410D4686680446FFF70E
:10361000C2FFB6F5004F014601D3012832D0304633
:10362000FFF7E4FF04EB80010E6996B90122E3681D
:1036300082401343E36002220D612B462946204657
:10364000FFF79EFF032229462046BDE8F041FFF721
:1036500097BF022231462046FFF787FF0746034601
:1036600029462046FFF78CFF032233462946204691
:10367000FFF786FF39462B462046FFF781FF0222DF
:103680003146E1E7BDE8F081002070470FB407B58F
:1036900004A951F8040B0191FDF79AF803B05DF805
:1036A00004EB04B07047002383F31188BFF36F8FDE
:1036B0000423184602DF70470FB407B504A951F878
:1036C000040B0191FDF784F803B05DF804EB04B03E
:1036D0007047038B13F0070305D10368002B0CBF61
:1036E000002003207047022B05D1408BB0FA80F0F8
:1036F000400980007047012B05D10368002B0CBFE7
:103700000020052070470020704710B50C4600B11E
:1037100011B96FF0150010BD081D00F03CF800282D
:10372000F9D1A368032BF6D9F3E72DE9F0410D4653
:1037300007461946281D90461E46FDF743FA0446E3
:1037400038B13346424629463846A446BDE8F041E2
:103750006047BDE8F08110B4EFF31182202484F3B8
:103760001288BFF36F8F416110BC0121FDF748B88B
:1037700038B50C46054658B151B10B6843B14B689A
:1037800033B11C22002100F046FB00202C6138BD23
:103790006FF01500FBE7034658B1426802F00302E0
:1037A000012A03D0032A04D1026812B100209860D4
:1037B00070476FF01500704770470FB407B504A944
:1037C00051F8040B0191FDF703F803B05DF804EB29
:1037D00004B0704743680A689A428FBF00234A6862
:1037E00001209B1888BF18464B60704730B50546CE
:1037F00085B0C06801AA00F0DDF9044660B90199FE
:103800002B6A8B4208D0E868029A83689B6833B1C0
:10381000984738B9019B2B62204605B030BD6FF048
:103820005704F9E70446F7E770B58168044641B3E9
:10383000D0E9043601391E443144FFF7D7FF002890
:1038400020DB626AA368B3FBF2F502FB15353DB1DC
:103850002068551B2A4694F82810184400F0DBFA1B
:10386000A368E06822682B4481684D683146A84708
:1038700040B9E3695BB92369A2681344236100235B
:10388000A360002070BD135CDB4313540130A368B8
:1038900022688342F7D8E06881680D683146A847FE
:1038A0000028EFD13246E369A168206898470028D4
:1038B000E1D0E7E72DE9F0478946164698460446E9
:1038C00098B382680369134482693344934230D8C1
:1038D0000025D4E90170A6EB050A3F1ABA4515D2B6
:1038E000B54209D223685246184409EB050100F09D
:1038F00085FAA3685344A360B8F1000F1CD0A068F8
:10390000A8B12046BDE8F047FFF78EBF23683A46CE
:10391000184409EB050100F071FA63682046A360C2
:10392000FFF782FF18B93D44D3E76FF00D00BDE803
:10393000F0876FF00B00FAE74046F8E7012801D165
:10394000EFF30583FEF790BF01460068FFF7F6BF6F
:1039500008B5FDF7B1F9BDE8084000F000B87047C0
:1039600000210120FFF7EABF61B662B680F311883B
:10397000BFF36F8F7047EFF31180202383F312881A
:10398000BFF36F8F704710B50446FDF797FC72B612
:10399000002383F31188BFF36F8FFDF70DFD50B146
:1039A000BFF34F8F20BF00BF00BF00BF00BF00BFED
:1039B00000BF00BF00BF84F31188BFF36F8F62B6F2
:1039C00010BDF0B5D0F80473064617F002001CBF16
:1039D000C2F1807018604FF0000518BF01204FF051
:1039E000010C4FF4803E0CFA05F40C4214D00EFA90
:1039F00005F43C4210D005F5A87456F82440A41AEA
:103A000034F07F4408BF4FF0807408B91C6002E0B6
:103A10001868A042FAD801200135042DE3D1F0BD89
:103A2000FDF7E0BBF8B5069F0469C9B2EFF3118654
:103A3000202585F31288BFF36F8F0C2569430C4452
:103A4000256C05F0070CBCF1010F0BD1276486F340
:103A50001188BFF36F8FC4E90E2343685B58984702
:103A60000020F8BD05F0C005AF4286F31188BFF312
:103A70006F8F0CBF6FF077004FF0FF30F1E713B599
:103A800080240094FFF7CEFF02B010BD6FF08500D8
:103A9000704710B41C240069CBB203FB0400002162
:103AA00010BC10470020FEF779BD0020FEF7EABDEC
:103AB0008022FDF715BD38B505460C4600F064F9C7
:103AC000002D07DBA84205D9401B84428CBF002093
:103AD000012038BD0020FCE770B50C46154600F00B
:103AE00056F9294606462046FFF7E5FFC8B1B4FB64
:103AF000F6F306FB1343A3B9B5FBF6F306FB13532A
:103B00007BB9AE4201D9002070BD00F040F90646F5
:103B100004F180742046FEF715FEAD1B3444F9D144
:103B2000F1E76FF01500EFE770B50D46194628462E
:103B300016461C46FFF7BFFF40B12CB12246304667
:103B400005F1807100F05AF9002070BD6FF015008A
:103B5000FBE7F7B51C460023164682682360A36086
:103B60000D461369694601AA9847019B5A1E0192A6
:103B70001BB96FF0150003B0F0BD0098A26847684C
:103B80002168676085B9B31AD0F800C0634528BFC3
:103B9000634603FB07111A442160A26002689A423F
:103BA00006D808300090E0E76B1AB3FBF7F3EBE7B9
:103BB0000020E0E713460022FFF7CBBF2DE9F047D6
:103BC0000024836886B0884691461B6902AA01A931
:103BD0009847A2462546029BAB4202D806B0BDE8F4
:103BE000F0870026019F07EBC5077B6804933A68BE
:103BF0000AEB0603B24202D89A460135EBE7494682
:103C00000394059303A8C0470028E7D0049B01361E
:103C10001C44ECE770470020704708B5FDF756FEDE
:103C200008BD0222FEF720B8002008B5FDF7E8F92C
:103C3000002070470020704708B5FFF7F9FF08B96A
:103C4000FFF7F8FF08BD30B589B0154601230A46D5
:103C50000146684600F00EF8044640B92022694645
:103C60002846FCF7EBFA002808BF6FF064042046F2
:103C700009B030BD08B5FEF7E9FF002008BD70B5FA
:103C8000054608460C46FEF7EFF82146024601239A
:103C90002846BDE87040FEF713B92DE9F04107460C
:103CA000FEF7EEF918B900242046BDE8F0814FF088
:103CB0000008041D861C3046FEF7A2FD4045F2D9DF
:103CC000A01CFEF79DFD05462046FEF799FD8742A4
:103CD000EAD0023504EB450408F10108EBE72DE9D1
:103CE000F8430D461646FFF7D8FF044600B3FDB172
:103CF0000230FEF785FD00278146B8460434BBB28A
:103D0000994507D8002406B134600020A5F800804A
:103D1000BDE8F8832046FEF773FDC3439BB201372D
:103D2000A21C002BEFD0984538BF98461446E6E712
:103D30006FF01500ECE70022FFF7D1BF4FF0005302
:103D40005868704703465A6B00233C309A4200D1B2
:103D50007047C16801330844F8E7004700F01CB819
:103D6000034603F17F42B2F5802F08460AD351B1D2
:103D700003F17E4000F50040B0F5607F2CBF0020CD
:103D800001207047012070474FF4802070474FF4A6
:103D9000006070478020704708B1FDF75BBB70473B
:103DA00040B1C368587810F001001EBF1878B0FA0F
:103DB00080F04009704710B5D0E9003433B90020D5
:103DC000E268537843F00103537010BD20469847D2
:103DD0000028F4D00028B8BF4042FF28A8BFFF2029
:103DE000E3681870ECE700F016B800F007B8704709
:103DF000EFF30580003818BF012070470A44431EC6
:103E0000914200D1704710B511F8014B914203F86F
:103E1000014FF9D110BD02440346934200D17047CF
:103E200003F8011BF9E70139024410B5904201D1B2
:103E3000002005E0037811F8014FA34201D0181BC0
:103E400010BD0130F2E70246014410B58A42134624
:103E500003D01C780132002CF8D1181A10BDF0B52F
:103E6000C3F13707044603F01F031046FFB2082BC7
:103E7000E6B232D0102B3DD06508A40845EAC175E2
:103E800044EA81748A082D1942EB5102290941EA5A
:103E900002716D1842EB1212290A41EA02616D1893
:103EA00042EB1222290C41EA02416D1842EB124208
:103EB000AD1842F10002EC0844EA4274D10804EB68
:103EC0008402A6EB4205EDB2092D0CD90134A5F10F
:103ED0000A0541F10001EDB212E0E40806F0070521
:103EE00044EA4174C908303554EA010200F8015B24
:103EF000BDD1F0BD240906F00F0544EA017409099B
:103F0000092D84BFED19EDB2EDE7000009120001A3
:103F10000000000085150001443F00014D1B000119
:103F2000000000001912000100000000C111000192
:103F30000000000065180001583F000159210001F0
:103F400000000000C0440001E0400001F840000112
:103F50002400002104010021DB44000100000000D6
:103F600014410001260000210000000000000000B4
:103F7000613900010000000061390001000000000B
:103F800061390001000000006139000100000000FB
:103F900061390001B92600015B3D0001000000000D
:103FA00061390001000000006139000100000000DB
:103FB00061390001000000006139000100000000CB
:103FC00061390001000000006139000100000000BB
:103FD00061390001000000006139000100000000AB
:103FE000613900010000000061390001000000009B
:103FF000613900010000000061390001000000008B
:10400000613900010000000061390001000000007A
:10401000613900010000000061390001000000006A
:1040200011190001000000006139000100000000CA
:10403000613900010000000061390001000000004A
:10404000613900010000000061390001000000003A
:10405000613900010000000061390001A848000139
:044060000300000059
:10407000DEE61E284CBBCE8F02350000DEE61E2891
:104080004CBBCE8F02350000DEE61E2883845186AD
:1040900002350100DEE61E28EAAC45B80235000014
:1040A000DEE61E284CBBCE8F02350000000000006B
:1040B0000338FDD870470000000000000002000037
:1040C000000400000006000000080000000E0000D0
:1040D00000100000691400015515000100000000E7
:1040E000B1160001DD150001CF440001A53A000121
:1040F000AB3A0001D54400018D3A0001B13A00010C
:104100007F3A000100000000AD1400010000000033
:1041100000000000293B00017D180001D93A000190
:104120005D1800014D1800010400000000FF0000B0
:104130000000000000020000000400000006000073
:1041400000080000000E0000001000000000000049
:10415000000200000004000000060000000800004B
:10416000000E0000001000000C3F00010C3F000199
:104170001C3F0001243F0001443F0001443F000177
:10418000982F8A4291443771CFFBC0B5A5DBB5E9C2
:104190005BC25639F111F159A4823F92D55E1CAB36
:1041A00098AA07D8015B8312BE853124C37D0C55C4
:1041B000745DBE72FEB1DE80A706DC9B74F19BC10C
:1041C000C1699BE48647BEEFC69DC10FCCA10C24FC
:1041D0006F2CE92DAA84744ADCA9B05CDA88F976E0
:1041E00052513E986DC631A8C82703B0C77F59BF4A
:1041F000F30BE0C64791A7D55163CA066729291476
:10420000850AB72738211B2EFC6D2C4D130D385312
:1042100054730A65BB0A6A762EC9C281852C7292D4
:10422000A1E8BFA24B661AA8708B4BC2A3516CC702
:1042300019E892D1240699D685350EF470A06A103B
:1042400016C1A419086C371E4C774827B5BCB0348A
:10425000B30C1C394AAAD84E4FCA9C5BF36F2E6828
:10426000EE828F746F63A5781478C8840802C78CB7
:10427000FAFFBE90EB6C50A4F7A3F9BEF27871C6BA
:10428000466C61736820646576696365206E6F743F
:104290002072656164790A004661696C6564207406
:1042A0006F2070726F746563742062306E20666C6C
:1042B0006173682C2063616E63656C207374617236
:1042C0007475700A0D00556E61626C6520746F2004
:1042D00066696E642076616C6964206669726D77C8
:1042E00061726520696E736964652025700A0D002E
:1042F0004661696C656420746F207472616E7366C8
:10430000657220696D6167653A2025640A0D004673
:1043100061696C656420746F2070726F746563747A
:104320002061707020666C6173683A2025640A0D04
:1043300000574553545F544F504449522F7A65708B
:104340006879722F6C69622F686561702F6865618A
:10435000702E6300415353455254494F4E204641FD
:10436000494C20402025733A25640A005745535490
:104370005F544F504449522F7A65706879722F6CA0
:1043800069622F7574696C732F6F6E6F66662E632A
:1043900000574553545F544F504449522F7A65702B
:1043A0006879722F6C69622F7574696C732F6E6FE8
:1043B000746966792E63002A2A2A20426F6F746915
:1043C0006E67206E524620436F6E6E656374205395
:1043D000444B2076322E392E302D37373837623223
:1043E000363439383430202A2A2A0A002A2A2A2048
:1043F0005573696E67205A6570687972204F532033
:1044000076332E372E39392D316638663364633270
:1044100039313432202A2A2A0A00574553545F542E
:104420004F504449522F7A65706879722F617263D8
:10443000682F61726D2F636F72652F636F72746581
:10444000785F6D2F6661756C742E63005745535409
:104450005F544F504449522F7A65706879722F61CA
:104460007263682F61726D2F636F72652F636F7255
:104470007465785F6D2F6972715F6D616E616765DC
:104480002E6300574553545F544F504449522F7A7E
:1044900065706879722F647269766572732F636CC8
:1044A0006F636B5F636F6E74726F6C2F636C6F639F
:1044B0006B5F636F6E74726F6C5F6E72662E6300FB
:1044C000636C6F636B4034313030353030300068AE
:1044D00066636C6B006C66636C6B00666C61736822
:1044E0002D636F6E74726F6C6C657240343130384E
:1044F0003030303000574553545F544F5044495288
:104500002F6E72662F6C69622F6670726F746563AE
:10451000742F6670726F746563745F61636C2E6371
:1045200000574553545F544F504449522F6D6F64A8
:10453000756C65732F68616C2F6E6F726469632F81
:104540006E7266782F68616C2F6E72665F61636C45
:104550002E6800426F6F74696E6720283078257866
:10456000292E0D0A0025633A204572726F7220676A
:10457000657474696E67206D6F6E6F746F6E6963BA
:1045800020636F756E7465720A0025633A20496E68
:1045900076616C6964206669726D77617265206905
:1045A0006E666F20666F726D61742E0A0025633A25
:1045B00020546865206669726D7761726520646F4A
:1045C00065736E27742062656C6F6E67206174205E
:1045D00064657374696E6174696F6E20616464727E
:1045E0002E0A0025633A2073726320616E64206492
:1045F0007374206D75737420626520657175616CCC
:1046000020666F72206C6F63616C2063616C6C73E9
:104610002E0A0025633A204669726D776172652023
:10462000696E666F20646F65736E277420706F69A2
:104630006E7420746F20697473656C662E0A002591
:10464000633A204669726D776172652068617320F4
:104650006265656E20696E76616C6964617465641B
:104660003A20307825782E0A0025633A2054727952
:10467000696E6720746F20676574204669726D7774
:104680006172652076657273696F6E0A0025633A00
:104690002043616E6E6F742072656164207468657A
:1046A000206669726D776172652076657273696FD5
:1046B0006E2E2025640A0025633A20576520617319
:1046C00073756D65207468697320697320647565FE
:1046D00020746F20746865206669726D77617265F9
:1046E0002076657273696F6E206E6F7420626569E3
:1046F0006E6720656E61626C65642E0A0025633A00
:10470000204669726D776172652076657273696F94
:104710006E202825752920697320736D616C6C6586
:1047200072207468616E206D6F6E6F746F6E696356
:1047300020636F756E74657220282575292E0A0016
:1047400025633A204669726D7761726520696E66ED
:104750006F206973206E6F742077697468696E20AA
:104760007369676E656420726567696F6E2E0A00F3
:1047700025633A20426F6F742061646472657373BD
:10478000206973206E6F742077697468696E207376
:1047900069676E656420726567696F6E2E0A002511
:1047A000633A2052657365742068616E646C65724B
:1047B000206973206E6F742077697468696E207346
:1047C00069676E656420726567696F6E2E0A0025E1
:1047D000633A2056616C69646174696F6E20696E1A
:1047E000666F20646F65736E27742062656C6F6EF0
:1047F0006720746F2074686973206669726D7761D1
:1048000072652E0A0025633A20626C5F63727970CC
:10481000746F5F696E697428292072657475726E91
:1048200065642025642E0A0025633A204669726D6E
:10483000776172652076616C69646174696F6E205E
:104840006661696C65642077697468206572726F4F
:10485000722025642E0A0025633A204669726D771E
:104860006172652068617368207665726966696542
:10487000642E0A0025633A20436F756C64206E6FC6
:10488000742066696E642076616C69642066697262
:104890006D776172652076616C69646174696F6EB1
:1048A00020696E666F2E0A00626C5F76616C6964C7
:1048B0006174696F6E004552524F523A2043616EE7
:1048C0006E6F742066756C66696C6C204558545F19
:1048D00041504920726571756573742E0D0A005739
:1048E00041524E494E473A204F7074696F6E616C69
:1048F000204558545F415049207265717565737445
:10490000206E6F742066756C66696C6C65642E0D24
:104910000A000000000101000000574553545F5495
:104920004F504449522F6D6F64756C65732F6861E9
:104930006C2F6E6F726469632F6E7266782F686178
:104940006C2F6E72665F647070692E6800574553F5
:10495000545F544F504449522F6D6F64756C6573AA
:104960002F68616C2F6E6F726469632F6E72667848
:104970002F68656C706572732F6E7266785F6770F2
:1049800070695F647070692E6300574553545F54BB
:104990004F504449522F6D6F64756C65732F686179
:1049A0006C2F6E6F726469632F6E7266782F6472FB
:1049B00069766572732F7372632F6E7266785F63A8
:1049C0006C6F636B2E6300574553545F544F5044D4
:1049D00049522F6D6F64756C65732F68616C2F6E13
:1049E0006F726469632F6E7266782F68616C2F6EC8
:1049F00072665F636C6F636B2E6800574553545F3C
:104A0000544F504449522F6D6F64756C65732F6815
:104A1000616C2F6E6F726469632F6E7266782F649B
:104A20007269766572732F7372632F6E7266785F28
:104A30006E766D632E6300574553545F544F504458
:104A400049522F7A65706879722F6B65726E656C4A
:104A50002F6465766963652E6300574553545F5430
:104A60004F504449522F7A65706879722F6B657286
:104A70006E656C2F666174616C2E6300286E756CB8
:104A80006C29002A666C6F61742A00000000000126
:104A90008936000100F0004100000000FFFFFFFF29
:104AA0003F000000FFFFFFFF3F0000001C0000214F
:0C4AB0001C0000210000000015E015E0D3
:1085A800008800010088000101000000FFFFFA5068
:1085B800BBB0E71CB8A7DE83560B931AF082EF9D79
:1085C800010001000100F000FFFFFFFFFFFFFFFFB8
:1085D800FFFFFFFFFFFFFFFFFFFFFFFFFFFFFFFFA3
:1085E800FFFFFFFFFFFFFFFFFFFFFFFFFFFFFFFF93
:1085F800FFFFFFFFFFFFFFFFFFFFFFFFFFFFFFFF83
:10860800FFFFFFFFFFFFFFFFFFFFFFFFFFFFFFFF72
:10861800FFFFFFFFFFFFFFFFFFFFFFFFFFFFFFFF62
:10862800FFFFFFFFFFFFFFFFFFFFFFFFFFFFFFFF52
:10863800FFFFFFFFFFFFFFFFFFFFFFFFFFFFFFFF42
:10864800FFFFFFFFFFFFFFFFFFFFFFFFFFFFFFFF32
:10865800FFFFFFFFFFFFFFFFFFFFFFFFFFFFFFFF22
:10866800FFFFFFFFFFFFFFFFFFFFFFFFFFFFFFFF12
:10867800FFFFFFFFFFFFFFFFFFFFFFFFFFFFFFFF02
:10868800FFFFFFFFFFFFFFFFFFFFFFFFFFFFFFFFF2
:10869800FFFFFFFFFFFFFFFFFFFFFFFFFFFFFFFFE2
:1086A800FFFFFFFFFFFFFFFFFFFFFFFFFFFFFFFFD2
:1086B800FFFFFFFFFFFFFFFFFFFFFFFFFFFFFFFFC2
:1086C800FFFFFFFFFFFFFFFFFFFFFFFFFFFFFFFFB2
:1086D800FFFFFFFFFFFFFFFFFFFFFFFFFFFFFFFFA2
:1086E800FFFFFFFFFFFFFFFFFFFFFFFFFFFFFFFF92
:1086F800FFFFFFFFFFFFFFFFFFFFFFFFFFFFFFFF82
:10870800FFFFFFFFFFFFFFFFFFFFFFFFFFFFFFFF71
:10871800FFFFFFFFFFFFFFFFFFFFFFFFFFFFFFFF61
:10872800FFFFFFFFFFFFFFFFFFFFFFFFFFFFFFFF51
:10873800FFFFFFFFFFFFFFFFFFFFFFFFFFFFFFFF41
:10874800FFFFFFFFFFFFFFFFFFFFFFFFFFFFFFFF31
:10875800FFFFFFFFFFFFFFFFFFFFFFFFFFFFFFFF21
:10876800FFFFFFFFFFFFFFFFFFFFFFFFFFFFFFFF11
:10877800FFFFFFFFFFFFFFFFFFFFFFFFFFFFFFFF01
:10878800FFFFFFFFFFFFFFFFFFFFFFFFFFFFFFFFF1
:10879800FFFFFFFFFFFFFFFFFFFFFFFFFFFFFFFFE1
:0887A800FFFFFFFFFFFFFFFFD1
:10880000185D00212D57020149E9020119570201A3
:1088100019570201195702011957020100000000FF
:10882000000000000000000000000000D958020114
:10883000195702010000000099580201195702015E
:10884000955A0201955A0201955A0201955A020160
:10885000955A0201955A0201955A0201955A020150
:1088600017EE0201955A0201955A0201955A02012A
:10887000E3ED0201955A0201955A0201955A02014F
:10888000955A0201FDED0201955A0201955A020125
:10889000955A0201955A0201955A0201955A020110
:1088A000955A0201955A0201955A0201955A020100
:1088B000955A0201955A02010000000000000000D4
:1088C00000000000000000000000000000000000A8
:1088D0000000000000000000000000000000000098
:1088E0000000000000000000000000000000000088
:1088F0000000000000000000000000000000000078
:108900000000000000000000000000000000000067
:108910000000000000000000000000000000000057
:108920000000000000000000000000000000000047
:108930000000000000000000000000000000000037
:108940000000000000000000000000000000000027
:108950000000000000000000000000000000000017
:108960000000000000000000000000000000000007
:1089700000000000000000000000000000000000F7
:1089800000000000000000000000000000000000E7
:1089900000000000000000000000000000000000D7
:1089A00000000000000000000000000000000000C7
:1089B00000000000000000000000000000000000B7
:1089C00000000000000000000000000000000000A7
:1089D0000000000000000000000000000000000097
:1089E0000000000000000000000000000000000087
:1089F0000000000000000000000000000000000077
:108A0000DEE61E284CBBCE8F023500003C00000085
:108A1000F4A70200010000000088000100880001A6
:108A2000FFFF0291000000000000000000000000B5
:108A30000000000000000000000000002DE9F00729
:108A400091E8F807B2E802105B1854EB0C04B2E8A6
:108A500002104D4156EB0C06B2E802104F4158EBA4
:108A60000C08B2E8021059EB01095AEB0C0A80E835
:108A7000F80780410130BDE8F00770472DE9F007A5
:108A800091E8F807B2E802105B1A74EB0C04B2E844
:108A900002108D4176EB0C06B2E802108F4178EBA4
:108AA0000C08B2E8021079EB01097AEB0C0A80E8B5
:108AB000F80780414042BDE8F00770472DE9F00714
:108AC000524290E87800B1E880071740DB1918EAB5
:108AD000020854EB080419EA020955EB09051AEAE1
:108AE000020A56EB0A0678C090E87800B1E88007E1
:108AF00017407B4118EA020854EB080419EA0209FE
:108B000055EB09051AEA020A56EB0A0678C08041BD
:108B10000130BDE8F00770472DE9F007524290E8B8
:108B20007800B1E880071740DB1B18EA020874EBF5
:108B3000080419EA020975EB09051AEA020A76EB3C
:108B40000A0678C090E87800B1E880071740BB417A
:108B500018EA020874EB080419EA020975EB090522
:108B60001AEA020A76EB0A0678C080414042BDE864
:108B7000F00770472DE9F00152424FF0040890E8E9
:108B8000300091E8C000A31B1340E41AF618EB1B59
:108B90001340ED1AFF1830C0C0C1B8F10108EED182
:108BA000BDE8F001704700BF00B592E8DC072DE991
:108BB000DC07B1E8805702B4A7FB02510A95A8FB75
:108BC000020B09180020E7FB03105BEB000B0020F1
:108BD0004041E9FB02B00B91A8FB03514018002172
:108BE0004941EAFB02011BEB050B0025E7FB04B53D
:108BF00068410025E7FB0605694100256D41E8FB5A
:108C00000615CDF830B0A9FB03B689190026EAFB9A
:108C10000316754100267641ECFB035610EB0B0062
:108C20005FF0000BE8FB040B51EB0B015FF0000B56
:108C3000E9FB041B55EB0B055FF0000BEAFB045B43
:108C400056EB0B065FF0000B5BEB0B0BECFB046BC6
:108C50000D90ACFB0230059C2D180020EEFB02505D
:108C600046410020E9FB04605BEB000B0020404123
:108C7000EAFB04B05B180021E7FB04314D41002101
:108C8000E8FB0451069C4E410021E8FB04615BEBCC
:108C9000010B0021E9FB04B1484100214941EAFBF5
:108CA00004010E93A7FB0432079CB6180022E7FBD1
:108CB00004625BEB020B0022E8FB04B2504100228D
:108CC000E9FB0402514100225241EAFB0412049CD8
:108CD000ED180023E9FB04535E410023EAFB046323
:108CE000089C5BEB030B0023E7FB04B35841002314
:108CF000E8FB040359410023E9FB04135A41002314
:108D00005B41EAFB04230F955DF8049B99E800069C
:108D1000DDF80080A9FB08541BEB040B0024EAFBE0
:108D200008B4DDF8108060410024ECFB08046141C8
:108D30000024EEFB081462410024E9FB082463418F
:108D400000246441EAFB0834DDF80480761900252C
:108D5000EEFB08655BEB050B0025E9FB08B56841F8
:108D60000025EAFB0805DDF8148069410025ECFBCD
:108D700008156A410025EEFB08256B410025E9FB3B
:108D800008356C4100256D41EAFB08450F96DDF87A
:108D90000880AEFB087680190026E9FB08067141C1
:108DA0000026EAFB0816DDF8188072410026ECFB6D
:108DB000082673410026EEFB083674410026E9FBC5
:108DC0000846754100267641EAFB0856DDF80C801E
:108DD0001BEB070B0027ECFB08B778410027EEFBE5
:108DE000080779410027E9FB08177A410027EAFBC9
:108DF0000827DDF81C807B410027ECFB08377C410D
:108E00000027EEFB08477D410027E9FB08577E411C
:108E100000277F41EAFB086708B000BD2DE9F14F4C
:108E200087B0FFF7C1FEDDF81C8008F1200888E854
:108E3000FF00FFBC87E87F08BDE8F08F00B591E830
:108E40004C57A2FB02410194A2FB034524190020C8
:108E5000E2FB06506D417F41641802940021E2FB61
:108E60000801A3FB034B654103950024E3FB0604C3
:108E700040417F41091900246441E2FB0914FF07C6
:108E800050EB0B0004900025E2FB0A455FF0000B5D
:108E9000E3FB081B49415FEA370714EB0B045FF063
:108EA000000BE3FB094B55EB0B055FF0000B5BEB95
:108EB0000B0BE2FB0C5BFF0F0020E2FB0EB000226D
:108EC0005141E6FB061205910021E6FB0841644191
:108ED0007F416D180021E3FB0A515BEB010B002180
:108EE000E3FB0CB1484100214941E3FB0E010023A3
:108EF000E6FB09531BEB030B0023E6FB0AB35841C7
:108F00000023E6FB0C03594100235B41E6FB0E13F3
:108F1000FF07544106946D417F41A8FB0826554147
:108F200007950022E8FB09B25BEB0B0B7F41801831
:108F30000022E8FB0A0251410022E8FB0C125A41D0
:108F400000235B41E8FB0E230024E9FB0E340025DF
:108F5000E9FB0A1552190025E9FB0C256B41002598
:108F6000EAFB0C356C4100256D41EAFB0E45FF071D
:108F70005BEB060B0026ECFB0E564041494152418B
:108F80005B4164416D417641AEFB0EE848F100085B
:108F90007F00A9FB0979784151EB0901AAFB0A7A04
:108FA0007A4153EB0A03ACFB0C7C7C4155EB0C057E
:108FB00056EB0E0648F1000700BD00BF2DE9F14F4A
:108FC00087B0FFF73BFFDDF81C8008F1200888E838
:108FD000FF00FFBC87E87F08BDE8F08F30B44FF09A
:108FE000000310F8014B11F8015B013A84EA050413
:108FF00043EA0403F5D1A3F101034FEAD37030BC77
:10900000704700BF4FF0000310F8012B013943EA0D
:109010000203F9D1A3F101034FEAD370704700BFF7
:1090200030B411F8014B12F8015B6C4000F8014BB1
:10903000013BF6D130BC70472DE9F00791E8F80705
:10904000B2E802105B1854EB0C04B2E802104D4178
:1090500056EB0C06B2E802104F4158EB0C08B2E890
:10906000021059EB01095AEB0C0A8941B3F1FF33A5
:1090700074F1FF3475F1FF3576F1000677F10007E2
:1090800078F1000879F101097AF1FF3A51F1000114
:109090005B184C414D4156F1000657F1000758F15D
:1090A000000859EBD1795AEB010A80E8F807BDE8CE
:1090B000F00770472DE9F00791E8F807B2E80210D1
:1090C0005B1A74EB0C04B2E802108D4176EB0C06CF
:1090D000B2E802108F4178EB0C08B2E8021079EB8D
:1090E00001097AEB0C0A89415B184C414D4156F15C
:1090F000000657F1000758F1000859EBD1795AEBF7
:10910000010A80E8F807BDE8F007704718EB04088B
:1091100059EB05095AEB060A5BEB070B5FF0000CF5
:109120004CF1000C18EB050859EB06095AEB070A3D
:109130005BEB070B50EB0C005FF0000C51EB0C01EC
:1091400052EB0C0263414CF1000CB8EB070879F1CB
:1091500000097AF1000A7BEB040BA841B141A2415E
:10916000B3416CF1000CBBEB050BB041B941AA4116
:10917000BB416CF1000C4CF001068CF0020718EBBF
:10918000060859EB6C095AEB6C0A7BEB6C0B70EB25
:109190006C0471EB6C0572EB670653EB6C076CEBC0
:1091A0006C0C18EB0C0059EB0C015AEB0C025BF148
:1091B000000354F1000455F1000556EBDC7657EB43
:1091C0000C0770472DE9F14F87B0FFF7EDFCDDF894
:1091D0001080DDF81490DDF818A0FFF797FFBDE8C8
:1091E000000FFFF793FF03B05DF8048B88E8FF00E2
:1091F000BDE8F08F2DE9F14F87B0FFF71FFEDDF8D6
:109200001080DDF81490DDF818A0FFF77FFFBDE8AF
:10921000000FFFF77BFF03B05DF8048B88E8FF00C9
:10922000BDE8F08F084B1B78002B4FF000038360E4
:1092300018BF0222036008BF0122044B4360FF23D2
:10924000C2710372704700BF08090021480108007D
:10925000064A074B9B7802604FF42672C3710023C5
:109260008280082203728271704700BF4D40020164
:1092700008090021064A074BDB7802604FF442726E
:10928000C37100238280082203728271704700BF7D
:10929000B33E020108090021064A074B1B79026010
:1092A0004FF4B872C371FF23828008220372827167
:1092B000704700BF793A0201080900212DE9F34106
:1092C000C41D0028064624F007040CBF00202046D9
:1092D00000F0E4FD071E04DA6FF00B0002B0BDE8F9
:1092E000F0810EB9FC42F7D4354D297AE879AB7A92
:1092F00003316A7A033016F0D6FD0028ECDB3C44DB
:10930000A978EB78002E04F10304194424F0030437
:1093100000FB01F10CBF0020204600F049FF204473
:109320000EB90028D8DB2B790446B3B1697C194407
:109330006B791944FF29CFDC0330002EAA89C9B20A
:1093400020F003040CBF0020204600F0A1FF0028FD
:10935000C2DB04440EB9002CBEDB012000F094FDFA
:10936000C8B1E97AB9B195F828300734002B24F058
:10937000070415BF402325234FF481722822002EB5
:1093800014BF2046002006F095FC0028A4DB04440E
:109390000EB9002CA0DBAB7BDBB12B7993B107348A
:1093A000002EA97B24F007040CBF002020460CF0FF
:1093B000FDFF002890DB04445EB9002C09DA8BE73E
:1093C00008090021012000F05FFD10B1EB7A002BAD
:1093D000E5D1714B1B6893B1A97981B10334002E9B
:1093E000EA7B24F003040CBF0020204698470028A5
:1093F000FFF672AF044416B9002CFFF66DAF674B51
:109400001B688BB1297C79B10334002E24F003044E
:109410000CBF0020204698470028FFF65DAF0444AB
:1094200016B9002CFFF658AF5D4B1F68B7B1697CC9
:10943000A1B10334002E2B7D24F0030408BF0020CB
:10944000009318BF2046EB7CAA7CB8470028FFF6A3
:1094500043AF044416B9002CFFF63EAF072000F0DE
:1094600013FD98B1A97989B10334002EAA7D24F0A7
:1094700003040CBF0020204600F0F8FF0028FFF690
:109480002BAF044416B9002CFFF626AFB6FA86F7C8
:1094900095F821007F09A0B10334EB7E297E24F0EA
:1094A000070419443B4644F00404C9B2224601F0C3
:1094B0001FF80028FFF610AF044416B9002CFFF681
:1094C0000BAF95F82210002957D00734002EAA8C34
:1094D00024F007080CBF0020404616F0F9FC041EDB
:1094E000FFF6FAAE444416B9002CFFF6F5AE1EB1F5
:1094F000A98C404612F08CF8297F00293FD095F8BE
:109500002030002B3BD0EA8B0734002E24F00708D4
:1095100002F124020CBF0020404692B216F0D8FCA3
:10952000041EFFF6D9AE444416B9002CFFF6D4AEA3
:109530000334AB7E297E24F0070495F820001944FB
:109540003B4644F00404C9B2224600F0C3FF0028A1
:10955000FFF6C2AE044416B9002CFFF6BDAE36B11C
:10956000EA8B4046297F083292B212F057F8EB6A34
:109570005BB176B1EC620020B0E68846B7E7002E1A
:10958000F5D0002211461046EFE7002EF3D1204619
:10959000A4E62834FBD59FE6580000216000002196
:1095A0005C0000211FB572B6194B1D6BE5B9BFF306
:1095B0004F8F1849184BCA6802F4E0621343CB601E
:1095C000BFF34F8F00BFFDE7B4FBF6F4D3B2013217
:1095D000002CF9D103F110026A4402F80C4C0A2263
:1095E00033B901A8A847E2E7044600220A26EDE7BE
:1095F000013BDBB203F110040DEB0406B0FBF2F407
:1096000002FB1400303006F80C0C2046E8E700BFDF
:109610000809002100ED00E00400FA0513B5114C23
