:10000000A8580020B11E0000195D00009D1E0000D0
:100010009D1E00009D1E00009D1E00009D1E0000F4
:10002000000000000000000000000000811F000030
:100030009D1E0000000000009D1E00009D1E00008F
:10004000C9200000C9200000C9200000C92000000C
:10005000C9200000C9200000C9200000C9200000FC
:10006000C9200000C9200000C9200000C9200000EC
:10007000C9200000C9200000C9200000C9200000DC
:10008000C9200000C9200000C9200000C9200000CC
:10009000C9200000C9200000C9200000C9200000BC
:1000A000C9200000C9200000C9200000C9200000AC
:1000B000C9200000C9200000C9200000C92000009C
:1000C000C9200000C9200000C9200000C92000008C
:1000D000C9200000C9200000C9200000C92000007C
:1000E000C9200000C9200000C9200000C92000006C
:1000F000C9200000C9200000C9200000C92000005C
:10010000C9200000C9200000C9200000C92000004B
:10011000C9200000C9200000C9200000C92000003B
:10012000C9200000C9200000C9200000C92000002B
:10013000C9200000C9200000C9200000C92000001B
:10014000C9200000C9200000C9200000C92000000B
:04015000C9200000C2
:1001540053B94AB9002908BF00281CBF4FF0FF312A
:100164004FF0FF3000F00CB8ADF1080C6DE904CE8F
:1001740000F008F8DDF804E0DDE9022304B070477C
:10018400704700BF2DE9F04786468C460846089E16
:10019400154674461946002B40F0C1808542B2FAD8
:1001A40082F245D94AB1C2F1200300FA02FC95401B
:1001B40094402EFA03F343EA0C0C4FEA154EA8B20E
:1001C400230CBCFBFEF80EFB18CC08FB00F943EA39
:1001D4000C43994528D9EB1808F1FF3704D2994507
:1001E40002D9A8F102072B44A3EB0903A4B2B3FB81
:1001F400FEFC0EFB1C330CFB00F044EA0344A0425B
:1002040014D92C190CF1FF3304D2A04202D9ACF159
:1002140002032C44241A43EA07401EB1D4400023AD
:1002240034607360BDE8F0874746DDE76346F1E775
:1002340092BB431B01214FEA154EAFB2200CB3FB16
:10024400FEFC0EFB1C330CFB07F840EA0343984505
:1002540061D9EB180CF1FF3004D2984502D9ACF106
:1002640002002B44A3EB0803A4B2B3FBFEFC0EFB79
:100274001C330CFB07F744EA0344A7424DD92C195D
:100284000CF1FF3304D2A74202D9ACF102032C448F
:10029400E41B43EA0040C0E7C2F1200395409440C8
:1002A40020FA03F12EFA03F34FEA154E9040AFB251
:1002B4000343B1FBFEFC0EFB1C10190C0CFB07F8EE
:1002C40041EA0041884522D969180CF1FF3004D273
:1002D400884502D9ACF102002944A1EB08019BB284
:1002E400B1FBFEFC0EFB1C110CFB07F743EA0143B8
:1002F4009F420ED9EB180CF1FF3104D29F4202D970
:10030400ACF102012B44DB1B41EA004193E7604658
:10031400E3E76146F7E76046A4E76346B8E783424C
:1003240006D916B9002108467CE7C6E900E0F9E7DA
:10033400B3FA83F78FB9834201D3724508D8BEEB71
:10034400020460EB030301209C461EB9002169E707
:100354003846FAE7C6E9004CF8E7C7F1200CBB4081
:100364000EFA07F522FA0CF42EFA0CF1BA401C43EB
:1003740020FA0CF3B8404FEA144901431FFA84FEF3
:10038400B3FBF9F809FB18300B0C08FB0EFA43EA2F
:1003940000439A4540D9E31808F1FF3004D29A4546
:1003A40002D9A8F102002344A3EB0A0389B2B3FBE8
:1003B400F9F809FB183308FB0EFE41EA03418E45A8
:1003C4002CD9611808F1FF3304D28E4502D9A8F163
:1003D4000203214443EA0040A1EB0E01A0FB029872
:1003E4004145CE46434602D306D14D4504D2013899
:1003F400B9EB020E68EB0403002EA7D0B5EB0E0296
:1004040061EB030101FA0CFC22FA07F3F9404CEA10
:100414000303C6E9003199E74046C5E74346D9E7F7
:10042400F0B5334B334A85B0C2F80036C2F804360F
:10043400C2F80836C2F80C36C2F81036C2F81436C0
:10044400C2F81836C2F81C3602F58052C2F80036DB
:10045400C2F80436C2F80836C2F80C36C2F81036B0
:10046400C2F81436C2F81836C2F81C3600F06EF81A
:1004740001A800F041FD204B1B68834204D04521B4
:100484001E4805F08EFBFEE74FF44041002002F0C9
:100494008FFF044620B14521194805F082FBFEE791
:1004A40069469DF8080000F02FF8009B039D1D4449
:1004B400019B1E8902F064FFAF1900F09FFF00F05A
:1004C40081FF01F023FD84F30B8884F30A88AB5980
:1004D40083F3088884F31488BFF36F8FBFF36F8F9F
:1004E4007B6898474521074805F05BFBFEE700BFA2
:1004F4003546526E00800150F0010020D27F00008A
:10050400F57F000028800000024608B538B1054890
:100514000023452105F045FB6FF0150008BD086078
:10052400FCE700BF4B80000021B1012906D06FF029
:1005340015007047044B53F830007047024B03EB2F
:10054400C0035868704700BFE87B00004FF4C051F7
:10055400014803F05BBC00BFA00F00202DE9F04F61
:10056400DFF8FC91F9B038A8DDE9848A17461D4606
:10057400869CD9F8006006F017FF002138A803F024
:100584007BFDB8F1000F07D0BAF1000F04DD52462D
:10059400414638A806F011FF4FF000083B897A89DC
:1005A400D7F80CB013449B44C34564D80DA938A8AC
:1005B40006F042FF38A806F0FBFE24B120222046B4
:1005C4000DA905F012FC00232A46009339464FF684
:1005D400FF7307A804F08AFF804600285BD12846F1
:1005E4000C9C00F0FDF9844255D84FF0FF34DFF83D
:1005F40074B1DFF874A10DF1160305AA06A907A8C2
:1006040004F0C2FF002846DB40F0A280069907A848
:1006140005F006F850B94FF6FF71BDF81600534ABD
:1006240032F8023B8B4236D09842F9D1BDF81670AD
:10063400102F3AD0202F6DD0012FDCD1BDF814300B
:10064400202B28D82846069938AA05F0E5FA04464E
:1006540008BB9DF81430202B029309D8DAF8003037
:10066400434F0393039B1DA89C4236DB06F0A0FE78
:100674004FF0FF34BFE7839BABEB080A9A4528BFD2
:100684009A46414653462846829A05F0C5FA28B14F
:1006940038A806F08DFED9F800605CE052468299D5
:1006A40038A806F08AFED0447EE7BDF81470202FE7
:1006B400F1D13B462846069938AA05F0ADFA002840
:1006C400E9D13A4638A90DA804F0B8FFDBF80030A8
:1006D4008342E0D14FF001088DE706F065FE00216A
:1006E4001DA803F0C9FC7A681DA8126857F8081BF6
:1006F40006F063FE15A91DA806F09EFE029A38A90D
:1007040015A805F062FB18B91DA806F051FE72E7A2
:100714000134A7E7631C3FF46EAFDAF80030A3425C
:10072400A6DDBDF81430B3F5807FB4D12846069910
:1007340038AA05F071FA0028ADD1E4B23946BDF803
:100744001430009438AA0DA800F014F806468FE778
:10075400B8F1000F9FD0304679B0BDE8F08F00BFEC
:1007640004000020F0010020F07B0000A47F0000C2
:10077400F47B00002DE9F04FDFF8E4A1ADF5417DF5
:1007840007462AA81E469DF828B389469046DAF8FB
:10079400005006F0C2FD092201212AA803F0E8FB5B
:1007A400704B80AA53F83B4003EBCB035B68059482
:1007B4001B6805A81C442146302305F099FE002837
:1007C40040F0C580059B809A13449C4240F0BF8052
:1007D40021462CAA05A805F09FFE002840F0B7800A
:1007E4000DF1B80B5A46214605A805F095FE039075
:1007F400002840F0AC802CA806F03CFA059A2B9017
:10080400944240F0A480039BCDF804B01A460093B0
:100814002CA92AA806F03EFD002840F098802AA8BA
:1008240003F0BCFB002840F092802CA806F022FACA
:100834002B902AA806F07BFD864240F08880B6F50E
:10084400807FDAF8005040F08280B9F1200F7ED129
:10085400414680AA2AA803F0C7FB0446002876D1A3
:100864009DF8FF32BC2B72D1DF2606900DF59079EE
:100874000FA806F099FD00210FA803F0FDFB20222C
:100884000DF2DF210FA806F098FD042206A90FA897
:1008940006F093FD07A90FA806F0CEFD202EB04662
:1008A400A8BF4FF020089DF81B304846013342464C
:1008B40007A9A6EB08068DF81B3005F096FA002E62
:1008C400C144D5DC0FA806F073FD48AB18460021DF
:1008D4009C4680AA067812F801EB013186EA0E06DE
:1008E400DF2900F8016BF5D11A7802F07F021A7043
:1008F40013F8016B5EBB0134BE2CF9D19CF8BE30F9
:10090400012B24D10FA806F04FFD31460FA803F0A8
:10091400B3FB082214490FA806F04FFD39462022E4
:100924000FA806F04AFD20220DF2DF110FA806F0F1
:1009340044FD07A90FA806F07FFD0FA806F038FDB7
:1009440020220DF2DF2107A804F078FE05462AA82C
:1009540006F0EFFC28460DF5417DBDE8F08F00BFA1
:1009640004000020F47B000071800000094A40006C
:100974000B7852F820108B4209D0013052F8200035
:10098400834214BF4FF0FF304FF4C07070474FF4F0
:10099400C0707047FC7B00001FB50F4B0C4613F86A
:1009A400300001F0C9F850B92068102381686A4604
:1009B400103905F031F928B1206805F02CF94FF011
:1009C400FF3006E010226846044905F0FEF90028CD
:1009D400F2D104B010BD00BFFC7B0000C27F000058
:1009E40013B5044604F031FE6A460146204604F07D
:1009F40064FD30B10448452105F0D3F8002002B06D
:100A040010BD0098FBE700BF798000002DE9F0419C
:100A1400384F88B0064600200D463C68FFF784FD39
:100A240006A9C0B201F088F8E0B92946FFF77CFDB9
:100A34002C2407A9C0B204FB056401F07DF8A8B119
:100A44002C20684332181169069B11F0100F1DD039
:100A54001DB13046069904F0E2FE274B1C68069847
:100A640005F0D9F8204608B0BDE8F081079805F0F4
:100A74001CF98046079805F0CEF8631EE21C13F8B3
:100A8400011F4145DCD19342F9D1E1E736581B48B7
:100A940086422AD1D6681089801926D25289121822
:100AA40023D29868824220D240F60C6211401CD1B5
:100AB4004FF480720192124A08460092CDE9031164
:100AC40022460291FFF74AFD04460E4B1B68A342DF
:100AD400C5D065B106980021826805F0C7F80A4AB6
:100AE40045210A4805F05DF8B7E73C68EDE7084A98
:100AF400F6E700BF04000020000000203DB8F39694
:100B0400A0270020F0010020BC800000C680000067
:100B1400B48000007FB50D46002104462846CDE987
:100B2400021104F03BFE28B32368194EB34203D1EB
:100B3400204603AA04F0C7FDE36AB34204D10121AD
:100B4400204602AA04F0BFFDDDE90232934288BFC9
:100B54000393039BAB60039A2946204600F042FBB3
:100B64000C4B1A68002A03DD57210B4805F019F8CD
:100B740004B070BD01A9FFF70FFF019805F108014A
:100B840004F06EFDAB680198039305F044F8E2E7C6
:100B94003DB8F396540E0020EE8000002DE9F84F86
:100BA400884691469A460026DFF88CB0234D244CA3
:100BB4000B9B9E4201D300200FE00B9B40469F1BE2
:100BC400B7F5806F28BF4FF480671B4A3B4606EB9E
:100BD4000A0105F021F810B10120BDE8F88F0A9947
:100BE4003B465A464846711805F02BF80028F3D1C5
:100BF400144BC5F800463E44C5F80446C5F80846FB
:100C0400C5F80C46C5F81046C5F81446C5F818468C
:100C1400C5F81C46C3F80046C3F80446C3F80846A2
:100C2400C3F80C46C3F81046C3F81446C3F8184674
:100C3400C3F81C46BCE700BFF4010020008001504B
:100C44003546526E00900150F0B50E460021A14B7E
:100C54000446436203F58063036589B00846FFF7E1
:100C640063FC04F120010546C0B200F065FF0346B1
:100C7400E8B90121FFF758FC04F14C010546C0B264
:100C840000F05AFF0346E0B9204604F05DFD054636
:100C9400C8B900222046114604F0FFFC054648B3BB
:100CA400002257218C4804F07CFF012399E00022A4
:100CB400CDE90023452100232A46884804F071FF2A
:100CC400FEE70122F4E780225721854804F069FFFA
:100CD40001239D4284F85830DBD194F858308DF8C4
:100CE4001730013B042B00F2AA80DFE803F0AC7D4F
:100CF4007D97B500204600F011FA0028D5D004A84D
:100D040004F043FD0146204604F0DEFD18B12A46F6
:100D140057217448C7E704A804F040FD80F001019E
:100D240004AA2046C9B204F0B8FC02460028B7D190
:100D340004A804F033FD054660BB204604A9FFF770
:100D4400E9FE9DF8173084F85830033B012B06D890
:100D5400284600F0F7F810B1FF2384F858309DF8C6
:100D64001730023B022B0BD8002000F0D5F838B125
:100D7400FF2384F8583045215B4804F012FFFEE756
:100D840094F85830FF2BF6D00021204604AA04F032
:100D940084FC8AE79DF81770012F17D1104602F0E2
:100DA4009BFB831E022B05460DD839462046FFF7D0
:100DB4002DFE4E4B1B68984205D04D4B1D68A84232
:100DC40014BF0525012584F8585086E701212046E3
:100DD400FFF71CFE454B1B68984214BF05239DF882
:100DE400173084F8583078E794F84020237D9A42ED
:100DF40014D80AD394F84120637D9A420ED804D3C0
:100E0400B4F84220E38A9A4208D2E06C0021826856
:100E140004F02CFF012384F8583014E0204604A980
:100E2400FFF778FE94F85830DA1E012A09D800201A
:100E340000F088F818B9002000F06EF818B1FF230C
:100E4400E9E7022BF7D094F85830FF2B08D145215D
:100E5400254804F0A6FEFEE7002000F073F8EDE755
:100E64000022012B234D039214D01146204604F096
:100E740014FC78B12D68102200210DEB020004F05F
:100E8400BFFFE06C04F0C7FE206A04F0C4FE2846ED
:100E940009B0F0BD00212046FFF7B8FD134F3B68B1
:100EA4009842E7D12B689842E4D0114B1B689842D2
:100EB400E0D0039B01330393039B012B00D0FEE797
:100EC400206A04F0F8FA3071236A5B6834603D6884
:100ED400B360D0E7F4050020AC8100001D81000060
:100EE4006A810000D881000002820000F001002025
:100EF400000000200400002038B5064D044660229E
:100F04000021284604F07CFF21462846FFF79CFE7A
:100F140038BD00BFF40D002013B5094B01A913F827
:100F2400300000F009FE48B9019805F0A5FA04461E
:100F3400019804F070FE204602B010BD0124FAE7C7
:100F4400047C00001FB50F4B01A913F8300000F01A
:100F5400F3FDA8B9019802A902F068FA044668B939
:100F64009DF80B30032B03D1019805F053FA044686
:100F7400019804F050FE204604B010BD0124F7E7A8
:100F84000124F8E7047C00002DE9F34106460C46F1
:100F940017461D460BB9002628E0184604F0FEFB50
:100FA4000028F8D16946FFF7F7FC009838B9012406
:100FB400009804F030FE204602B0BDE8F08101A99B
:100FC40004F04EFB0028F2D1009804F024FE3046D1
:100FD400019904F0C6FC736A5E686B79012B21D118
:100FE400002CD8D12B68834298BF002621460020CC
:100FF400FFF79AFA6946C0B200F09EFD0028D6D1E8
:1010040020233A463146009804F006FE04460028A0
:10101400CDD1002DCCD03C680D4BE41A18BF4FF055
:10102400FF34C5E7022BB6D12B68012B05D98342C7
:10103400B1D8B4FA84F46409ADE7ACD1002CD5D0AE
:10104400012CA8D12C79023C18BF0124A3E700BFCE
:101054003DB8F3962DE9F04F07460C4685B001469E
:1010640000201646FFF782FC051E50DB3846E46D6F
:1010740004F0EBFA5FFA84F94FF0000A4FF0010B29
:101084004FF0FF346B1E09FB03089DB9BAF1010F41
:1010940003DD4521204804F084FD631C06D07F2C29
:1010A4002ADC40F2011301343460B380284605B0D1
:1010B400BDE8F08F6B1E00934146012338460DF1C5
:1010C4000F0204F0A9FD031E019322DB012238461E
:1010D4000DF10F0105F039F9019B40B15B4501D0D9
:1010E4000AF1010A9B46009DA8EB0908CDE7B4F17B
:1010F400FF3F08BF2C46F5E70223803C7371631061
:1011040004F001040133013433603471CEE7072560
:10111400CCE70125CAE700BF0E82000070B5866ADD
:10112400456D044604F00CFCAE420AD06B1CB3427D
:1011340007D0834205D05721134804F032FD002024
:1011440070BD802E1CD957211048F6E7626A216DC4
:1011540002EBC30201EBC30152684968914202D019
:1011640057210B48E9E701339D42EFD1AE4205D93F
:10117400636A03EBC5035B689342F1D10120DFE7A7
:1011840000231A46F0E700BF3182000069820000A4
:101194009882000073B54B681446114A03F0FF238C
:1011A400934206460D4618D10B68012B15D16946AA
:1011B400204602F03BF99DF80030032B0DD1214667
:1011C400304604F02CFB204605F024F92046A9689B
:1011D40004F054FA204602F009F902B070BD00BFD1
:1011E400000100042DE9F04F05460C4689B0114674
:1011F40004F0B7FB6B6A824620465E6804F0CEFAC0
:10120400E8B1E86D04F01CFA0023AF6A013F3344EF
:10121400984201D9013FFAE7BA4510D357216648ED
:1012240004F0BFFC07FB06F357210AFB0662634880
:1012340004F0B7FC0123E37109B0BDE8F08F06A9FF
:10124400022000F079FC07A9052000F075FC214676
:101254002846079AFFF79EFF6379012B4BD1574627
:10126400DFF85CB141E02268C2F1010353449F42BC
:101274003AD86B6A012A196853F8370003EBC7039D
:1012840053F8083CA0EB0109A3EB0103049311D12B
:10129400079B0393E368022B08D04146284604F0D9
:1012A400BEFA22464146284604F0EFFA284603993E
:1012B40004F0B5FA32464946404604F0AEFA049BBF
:1012C400424641462846CDE90096FFF767FC214691
:1012D400284604F070FA23680133236020B1DBF858
:1012E40000300133CBF80030013FDDF81880002FC7
:1012F400B9D101232360022301276371BA45DDF8C4
:10130400189006D2484604F086FC079804F083FC43
:1013140092E723689F424DD36A6AFB0052F8371064
:10132400083B04911168DDF81CB00391D1582A6D73
:10133400D0581368A0EB03082379012B38D1039B01
:101344003246C91A4846059104F067FA059943469E
:101354004A460091284659460196FFF71FFC21464C
:10136400284604F028FA0223237118B1144A13689A
:101374000133136032464146584604F04EFADDE923
:10138400032349469B1A28465A46CDE90086FFF7AF
:1013940005FC2146284604F00EFA23680133236035
:1013A4000123237130B1064A13680133136001E04D
:1013B400022BDFD00137A1E7C4820000F3820000D2
:1013C400540E0020BFF36F8F72B600234FF0FF302E
:1013D400094A03F120010133102B42F82100F8D10E
:1013E40000234FF0FF30044A03F160010133102B56
:1013F40042F82100F8D1704700E100E02DE9F843FC
:101404004FF0FF3501274FF00008204BDFF88090A4
:101414005F60C3F84853C3F8085303F580535F6013
:10142400C3F84853C3F8085359F8044B002644F34F
:101434000730C4F8085300F0BFFD80226760C4F889
:101444004C61D4F84C31C4F81061D4F81031C4F8AC
:1014540044613146D4F84431A018C4F8006504F05E
:10146400CFFC8022314604F5C07004F0C9FCB8F109
:10147400000F08D0074BC3F808554FF05023C3F8AA
:101484000853BDE8F8834FF00108CDE70040015050
:10149400107C000000700150014B1B68184700BF0E
:1014A40008000020014B1860704700BF08000020AE
:1014B40007B50B46002102460091034800F006F8E8
:1014C40003B05DF804FB00BF9D1400002DE9F04F4C
:1014D40082464FF000098DB01D46531E01910393BF
:1014E400039B58785C1C252819D100204FF0FF3845
:1014F4001E46444603460236029031780396392943
:1015040055D81F2914D8002900F0EF81019925200E
:10151400D04701993078D04709F10209E0E7002863
:1015240000F0E3810199D04709F101090394D7E759
:10153400A1F12002192AE9D801A757F822F000BF27
:10154400AD1500001115000011150000AD150000C7
:10155400111500002D1600001115000011150000D2
:10156400111500001115000079160000AD150000DA
:10157400111500008D160000391600001115000029
:101584004716000067160000671600006716000083
:101594006716000067160000671600006716000053
:1015A400671600006716000008460136A5E75829AB
:1015B40000F0EB80A1F16302D7B2172FA6D8172A47
:1015C400A4D801A757F822F035180000B31600007C
:1015D40011150000111500001115000093160000EC
:1015E400B316000011150000111500009316000039
:1015F40011150000111500001115000069170000F5
:101604001115000011150000091800001115000043
:10161400B316000011150000111500006917000031
:10162400111500009316000025200199D04709F1F7
:10163400010955E7029A4FF0000802F0FE020292F7
:10164400B3E7002C0DDAB8F1000F0DDA029A002A84
:1016540000F043810A2224EAE47402FB0414303CBF
:10166400A3E7B8F1000FF5DB0A2202FB0812A2F18E
:1016740030089AE7B8F1000F55F8042B80F22F8157
:10168400002A80F22E815442022202928DE76829B8
:1016940003D1682B06D1482387E76C2902D16C2B30
:1016A40000F02181002B7FF431AF0B467DE77A2BCC
:1016B40006D1752955F8046B14D14FF0000B0CE0DA
:1016C4006C2BF6D04C2BF4D1073525F00703752984
:1016D40003F10805D3E9006B06D120283BD1854FDF
:1016E400013C09E04FEAE67BBBF1000FF5DA7642F4
:1016F400814F6BEB4B0B013C0DF12D030593002344
:101704000493304659460A220023FEF721FD059B27
:10171400B446303203F8012D5A460593049BBCF1BC
:101724000A0F8B4672F1000203F1FF310646049161
:10173400E7D2C3F1010B30330DEB0306B8F1000F10
:10174400A6F104066DDA029BD9077DD4A8EB0B033E
:10175400A4EB0B0413E02B280ABF684F684F04F175
:10176400FF34C9E770290FD155F8042B0023FAB9C7
:101774006FF004034FF0050B614F624E053C029A73
:10178400920770D4A04666E078216C2B03D1002325
:1017940055F8042B08E04C2BF9D1073525F0070345
:1017A4001D465B6855F8082B232825D1880621D5CA
:1017B400554F023C002601F06001A1F1390B0DF1F7
:1017C4002D0E02F00F01092988BF594430310EF85B
:1017D400011D102A4FEA121141EA03714FEA131C4A
:1017E40073F1000306F1FF3008D2C6F1010B06F1D4
:1017F4003003A1E7454FDCE7414FDBE706460A46E5
:101804006346DEE755F8046B304604F0D7FAB8F1C6
:10181400000F834602DB4045A8BFC3464FF00008D3
:10182400374FA8EB0B03002B92DDA4EB0804A6E7CB
:1018340055F8043B4FF0010B8DF81830304F4FF042
:10184400FF33013C06AE9AE7A046EAE70293202064
:101854000199D047029BB8F10108F7D524EAE47254
:10186400013C9144A41AB84606E0049302920199FB
:10187400D047029A049B9046424612F8010B002876
:10188400F3D11A46013A15D5002BACBFC7EB0307B9
:101894007F425B46013B15D5BBF1000FA8BF5F44F7
:1018A40026464F44013E14D5002CA8BF3F1907EB30
:1018B400080915E60493029230200199D047049B4D
:1018C400029ADFE70293019916F8010BD047029BB5
:1018D400E0E701992020D047E4E70122D5E69046CD
:1018E40063E6144661E64C235FE648460DB0BDE866
:1018F400F08F00BF3484000032840000368400007E
:101904000D8200003E840000388400003B84000007
:101914002DE9F047058B04462807904611D4022987
:1019240005F0070540F0CC80204604F062F878B159
:101934000138218B042811D8DFE800F0C2106D852E
:10194400950001290CBF45F0100545F020052583BD
:1019540088F31188BFF36F8FBDE8F08701F0070AA1
:10196400AA4500F0A5800027B9463E46A368002B8F
:1019740000F0BC8041F00801218388F31188BFF393
:101984006F8FA168002900F0BA800D68002900F06B
:10199400B680334652462046D1F80480C047002D15
:1019A40076D02B6829461D46F0E701F007035A1F3D
:1019B400012A1BD8002221F00701062B276889B2CF
:1019C400C4E9002209D13B4603E0628B0132628301
:1019D4001B68002BF9D141F002012046218304F059
:1019E40008F800287AD041F0200176E0042B0AD1CF
:1019F40021F0070189B22046218303F0FAFF10B1D8
:101A040041F020012183218B01F0070AAA454FD020
:101A14000027B946AAE7236921F0070141F006012E
:101A2400062DD3F8009021832DD1B9F1000F3FD0BA
:101A340041F00801218388F31188BFF36F8F20469A
:101A44003949C84729E021F00701236941F004011D
:101A540089B2042DD3F804902183E6D000274FF0F7
:101A6400040A3E4682E721F00701236941F005019B
:101A740089B2052DD3F808902183D6D000274FF0E2
:101A8400050A3E4672E700274FF0060A3E466DE718
:101A94002B4687E7B9F1000FD1D1EFF3118820234A
:101AA40083F31288BFF36F8F238B23F00803238300
:101AB400258BEA062ED525F01003238305F00705B0
:101AC4006669218B002EBFF670AF00232768C4E936
:101AD400003321F0070141F001012183218B4FF0F4
:101AE400000901F0070AAA457FF440AF002F9CD0FB
:101AF40041F00801218388F31188BFF36F8F002F11
:101B0400C8D03D68394633465246204603F09DFF0F
:101B14002F46F4E7AB067FF51BAF25F020032383A4
:101B240005F0070500E700BF7B5A0000014B036086
:101B340000207047187C000070B5114B0D461C68DE
:101B4400DCB1104B196800238B4202DB6FF00100FB
:101B540070BD224612F8106B864202D0144601333F
:101B6400F2E7E06810B96FF01200F1E705F05CFEEF
:101B74000028F8D000202C60EAE76FF00C00E7E7BB
:101B84000C000020187C000070B588B005460C4697
:101B9400C0B269461646FFF7CFFF00281BDB00984A
:101BA400C8B143682268029383680195CDE903367E
:101BB4000023CDE906230593C56804F02CF86DB124
:101BC4002846084901AA04F035FA079808B9059B84
:101BD400236008B070BD6FF01500FAE76FF01200D3
:101BE400F7E700BFBD5C000008B5054803F0F4FE4C
:101BF400044803F0F1FEBDE80840034803F0ECBEDE
:101C04004484000075840000A8840000014803F0A7
:101C14004BBB00BF8C7C000030BFFFF7FDBF00BF93
:101C2400154B9A6A12F0007F9A6A14BF1E201D2079
:101C340012F0807F9A6A18BF1F2012F4801F9A6ADC
:101C440018BF022012F4002F9A6A18BF212012F440
:101C5400802F9A6A18BF222012F4003F9A6A18BF94
:101C6400232012F4803F9A6A18BF24206FEA0242AC
:101C74006FEA12429A62704700ED00E010B5194B0A
:101C84000246986A9C6A10F4805F14BF17201620DD
:101C940014F4006F9C6A18BF1820A40509D5986B2A
:101CA400986A000404D51AB19A6A22F400429A622E
:101CB40019200C4B9A6A12F4806F9A6A18BF1A2082
:101CC400D2050CD49B6A13F4005F18BF1C20054A8C
:101CD400936A43F47F43936200230B7010BD1B206F
:101CE400F5E700BF00ED00E010B51C4B0246986A12
:101CF4009C6A10F0100F14BF1120102014F0080F6C
:101D04009C6A18BF1220A40709D5586B986A00066C
:101D140004D51AB19A6A22F080029A6213200F4BFA
:101D24009A6A12F0010F9A6A18BF142012F0200F59
:101D34009A6A18BF1520D40658BF9B6A074B9A6A43
:101D4400920642BF5A6A22F400525A629A6A42F0D8
:101D5400FF029A6200230B7010BD00BF00ED00E08B
:101D640070B5444B06465B6800258AB0C3F308038C
:101D740085F31188BFF36F8F02F07F40B0F17F4F7E
:101D840011D102F00C0008280DD010074CBF0E46EC
:101D940001250022033B8DF80720032B05D8DFE83B
:101DA40003F01E5C60592E46F3E700249DF80730CB
:101DB4009BB92022314602A804F017F8099B002D94
:101DC40053D0C3F3080222B96FEA53236FEA4323C3
:101DD4000993204602A903F093FF0AB070BD254B76
:101DE400DA6A9107E1D4DA6A002ADEDBDA6A5200A1
:101DF400DBD55A69B16942F480725A61BFF34F8FDF
:101E0400BFF36F8F5A6931F8021C22F480725A6151
:101E1400BFF34F8FBFF36F8F4DF60272914209D01B
:101E24009A6AD2B242B101200DF10701FFF75CFFBB
:101E34000446BBE73468B9E79A6A12F47F4F05D0C9
:101E440001200DF10701FFF719FFF1E79B6AB3F5D4
:101E5400803FAAD3FFF7E4FEEAE700200DF1070173
:101E6400E4E700200DF10701EDE723F4FF7323F00D
:101E74000103ADE700ED00E0064B5A6942F01002A1
:101E84005A615A6942F480625A615A6922F008021E
:101E94005A61704700ED00E0EFF30880EFF3098129
:101EA40001B57246FFF75CFF01BD00BF002080F35F
:101EB4001488BFF36F8F002080F30A8880F30B88A7
:101EC40002F0EAF900200E490860BFF34F8F0D4875
:101ED40080F3088800F02CF8202080F311880A4849
:101EE4004FF40061401880F30988EFF31480022155
:101EF400084380F31488BFF36F8F00F095F8000057
:101F040094ED00E0A8580020A828002000231846DB
:101F14000649D1F89020C2F30722934200DB7047B0
:101F2400C1F89830C1F8A0000133F6E700ED00E0F5
:101F340010B572B6002484F31388FFF7E7FF234635
:101F44004FF0FF300C4A03F120010133102B42F80B
:101F54002100F8D100234FF0FF30074A03F160015C
:101F64000133102B42F82100F8D162B6BFF34F8F32
:101F7400BFF36F8F10BD00BF00E100E01EF0040F3F
:101F84000CBFEFF30880EFF30980816911F8021C9C
:101F94000229FFD001B503F0B9FE01BD40B200280B
:101FA40007DB01234109034A00F01F00834042F884
:101FB4002130704700E100E040B200280CDB012230
:101FC4000649430900F01F008240203341F82320D2
:101FD400BFF34F8FBFF36F8F704700BF00E100E086
:101FE400054B420953F82220012300F01F0003FA95
:101FF40000F01040704700BF00E100E040B200284C
:1020040001F10101ACBF00F16040064B4FEA411100
:10201400C9B2ABBF00F5614000F00F0080F80013B7
:102024001954704714ED00E00B4A08B50B4B22F02D
:102034007F029A60BFF34F8FBFF36F8FD3F888206E
:1020440022F47002C3F8882002F0D0FF03F016F8DF
:1020540000F02CF802F0D6FF0000000000ED00E0D4
:10206400154680B506460C46002282F30B88094FBC
:10207400A7F5205888F30B8887F309884FF00000F0
:1020840005498847204629461A46B04703488047F1
:10209400FEE700BFA8580020315D00003F5D00004E
:1020A4001022014B1A61704700ED00E0002320214B
:1020B4000348C2180133452B82F80013F9D1704745
:1020C40000E100E008B5EFF30583064A103B02EB9C
:1020D400C30152F8330049688847BDE8084003F05B
:1020E40020BE00BFA47900000121024B024A03482C
:1020F40000F0ECB80000072000000020947C0000F1
:1021040010B50C7A0B6804F01F0223F01F031A4366
:10211400CB68640923F01F03054943EA440343F0F1
:102124000103C1F89800C1F89C20C1F8A03010BD8B
:1021340000ED00E010B5074BD3F89030C3F307234C
:10214400013B984202D8FFF7DBFF10BD6FF015008A
:10215400FBE700BF00ED00E02DE9F04F0F46144609
:1021640006464FF000084D4D85B0B84580F2928088
:10217400D6F80490B9F1000F36D0B9F11F0F40F230
:10218400878019F01F0F40F08380D6F800A01AF062
:102194001F0F7DD1504603F0EFFD834609EB0A0083
:1021A400013803F0E9FD834572D11BF1160F6FD09E
:1021B4005C456DDDC5F898B0D5F89C10C5F898B0AD
:1021C400D5F8A03021F01F0143F01F0AD6E90032F0
:1021D4001A44994202F1FF391ED1CA4508D1314649
:1021E4005FFA8BF003F0D1FD08F101080C36BCE76F
:1021F4003146C5F898B0D5F89C3022F01F0203F0A0
:102204001F031343C5F89C30E0B203F0BEFD10F188
:10221400160F3DD0441CE7E7C5F898B0D5F8A020C8
:10222400013B23F01F0302F01F021343CA4531464A
:10223400E0B2C5F8A030E8D003F0A7FD10F1160F06
:1022440026D0C5F898B0D5F89C209DF808300AF13E
:10225400FF3A62F304038DF80830D5F8A0309DF8F6
:1022640008205B0863F347128DF80820D6E9003292
:102274001344009323F01F035344A3EB09030130D9
:1022840023F01F036946C0B20393FFF753FFBEE771
:102294006FF01504204605B0BDE8F08F00ED00E0B6
:1022A4000522044BC3F89420BFF34F8FBFF36F8F05
:1022B400704700BF00ED00E0BFF35F8F0022024BC8
:1022C400C3F89420704700BF00ED00E010B5034C44
:1022D4002278FFF741FF207010BD00BFA028002026
:1022E400F0B54149414CD1F890302568C3F3072338
:1022F4009D4287B075D80020FFF7DEFF3C4BC1F844
:10230400C030854216D13B4C01A82570FFF70EFC66
:1023140000250646384FAE4213D1002023783249B7
:10232400D1F89020C2F30722934254DBFFF7B8FFA1
:1023340000202FE0616801EB0011FFF7E1FE01309E
:10234400DFE70199280101EB0513DA683A40B2F599
:10235400001F21D0B2F5800F2BD0B2F5801F38D1E9
:102364005A689B680958013B22F01F00034401206E
:10237400844623F01F0340EA4C10CDE902218DF876
:10238400100002A920780593FFF7D4FE00281DDA77
:102394006FF0150007B0F0BD5A689B680958013BFF
:1023A40022F01F0003444FF0020C012023F01F030E
:1023B400E1E75A689B680958013B22F01F00034477
:1023C4004FF0000C022023F01F03D4E723780133DD
:1023D400237001359FE7C1F89830C1F8A00001339C
:1023E4009EE74FF0FF30D5E700ED00E0A07C000051
:1023F400AAFF4400A02800200000F0FF014B186051
:10240400704700BF1000002007B50DF1070002F06F
:1024140091F8114B98421CD14FF480620F4B104934
:10242400C3F8B8254FF40062C3F83C259DF80700B3
:1024340005F0ADF80B499DF8070005F0A3F801205D
:102444009DF80730984002F06FF8002003B05DF863
:1024540004FB6FF00B00F9E70000AD0B00A0025085
:102464002CA0025028A10250054B03EB8000D0F8A9
:10247400003223F0E04343F04053C0F80032704789
:10248400002584500122022108B5074B0020C3F81F
:10249400002503F54053C3F8D016FFF7E5FF1046B7
:1024A400FFF7E2FF002008BD0010005048B1054BC3
:1024B400054A1B68B3FBF2F35843044B43F0010392
:1024C400184770473400002040420F00E07B0000B2
:1024D4000149024803F0DCBAC87C0000580E002011
:1024E4004FF47F032DE9F041D3F830210646072A43
:1024F4000D46D3F8343120D1023B032B02D8124AC3
:10250400D35CD3B14FF050244FF0010800270520CD
:10251400C4F81886C4F8147605F032F84046C4F8B6
:10252400148605F02DF8C4F81476C4F818763046ED
:102534002B46BDE8F041002118474FF050230022FC
:10254400C3F81426F3E700BFE5840000084B70B518
:10255400C31A0D4607499B100446594340220648B6
:1025640003F06BFC2B4601462046BDE8704018473B
:10257400880E0020B76DDBB62C790000402373B5BC
:102584000B4C0093041B0B460D460A49A4106143EF
:102594000646094A094803F07BFC011E05DA304669
:1025A4002B4602B0BDE87040184702B070BD00BFB2
:1025B400880E0020B76DDBB6035F00002C790000A5
:1025C40010B5EFF31184202383F31288BFF36F8FC8
:1025D400074A136823F00201DB07116002D40120CB
:1025E40005F092F884F31188BFF36F8F10BD00BF1C
:1025F400280F00202DE9F84300220121064605207A
:10260400FFF7FCFC144801F09BFF144B98421FD1C8
:102614004FF0502349F6A532C3F85C2501F0A0FF22
:1026240000244FF01C090C27DFF83480356941463B
:1026340009FB045003F02CFA002807DB012307FBF5
:1026440004551C44042CAB67F0D10020BDE8F8838A
:102654006FF00400FAE700BF2D2700000000AD0B67
:10266400D47C00000C22104B014602FB00330020F6
:1026740030B4D3E91C521867EFF31180202484F39B
:102684001288BFF36F8F9C6F04F0C00444F00204FF
:102694009C6780F31188BFF36F8F1DB12B4630BC4C
:1026A4000248184730BC7047880E00202C7900007F
:1026B40010B4EFF31182202383F31288BFF36F8FDA
:1026C4001748016841F002040460C80707D482F384
:1026D4001188BFF36F8F012010BC01F059BF4FF078
:1026E4005021D1F80C04D1F80C14C907EFD5EFF33D
:1026F400118083F31288BFF36F8F0A498B6F03F045
:10270400C00343F002038B6780F31188BFF36F8F1C
:1027140082F31188BFF36F8F002010BCFFF7A2BFB4
:10272400280F0020880E0020062812D8DFE800F0C9
:10273400040F1111110D0B00064B986F10F00700D8
:1027440007D1FFF78FBF0220FBE70320F9E7012041
:10275400F7E77047880E00202DE9F8430122074669
:102764003449D1E8EF3FC1E8E02F0028F9D133B96B
:10277400314932484B60CB608A6003F09CF97B1E80
:10278400012B2DD8012F07D14FF05023D3F81C343F
:1027940003F00303022B23D005F088F8054608BB99
:1027A400274B1B78F3B14FF0502302220646C3F89F
:1027B40008234FF050244FF00008DFF88890D4F835
:1027C4001824D4F81834D20315D503F00303022BCC
:1027D40001D0012F0FD135B386F31188BFF36F8F6A
:1027E400BDE8F883EFF31186202383F31288BFF347
:1027F4006F8F0125DDE7304603F0A7FAD4F81835CA
:10280400DBB2012BDBD1D4F80421002AD7D0C4F8E1
:102814000481D4F804210222C4F818252022C9F81E
:102824008021A360CBE74FF050230222C3F8042396
:10283400D6E700BF840E0020740E0020A40E0020F2
:10284400A328002000E100E008B5074804F0ECFFED
:1028540038B10648FFF7D2FD0448FEF723FE0020F6
:1028640008BD6FF01200FBE77479000075280000C2
:102874000A2838B50446074D04D1AB680D21284613
:102884005B689847AB6803485B68E1B298472046A9
:1028940038BD00BF74790000024B0B600123136044
:1028A400704700BF2C0F002000487047407D000097
:1028B40010B504F0B1FF034C206004F0AAFF60607F
:1028C400002010BD2C0F0020F8B50E4619463046E6
:1028D40017461D4603F02EFBB8B146EA050414F072
:1028E400030412D14DB12B19032BA6EB040006D817
:1028F400074AD2F80034DB07FBD50020F8BD3B1BA8
:10290400196802F033FB043CEDE76FF01500F5E7BE
:1029140000900350F0B5406801F01F04057B87B0B8
:1029240044EA45140569002D63D0B2F5001F00F197
:10293400100506D12146284604F066FF002007B0A2
:10294400F0BD0027B2F5800F01AE0197776039D151
:10295400B3F1007F14BF052304238DF80430002352
:10296400CDE904630393836823FA01F111F00101B3
:102974001AD1B2F1A07F17D104F01F03620903F149
:1029840080032AD0012A3AD11E4A52F82330DB07A9
:102994000AD40DF1030632462146284602F01EF9F8
:1029A400194B98421BD002962146284603AA01F0EF
:1029B400D1FF164B98421FD101222146284602F02E
:1029C4006FF9BBE7B3F1C06F05D0B3F1007F14BF5B
:1029D40001230223C1E70323BFE70D4AD5E73146AC
:1029E400284602F057F9094B9842DCD06FF00B00EF
:1029F400A5E76FF08500A2E76FF015009FE751F897
:102A04002330FFDE002884500400AD0B0000AD0B22
:102A14000025845038B545682B69B3B11035284674
:102A240002F028F9044680B90146284602F0F0F87D
:102A3400084B98420BD122462846074902F0C8F8B1
:102A4400224605210D20FFF7D9FA002038BD6FF08A
:102A54000400FBE70000AD0B612A000042090346B5
:102A640070B502D0012A17D070BD0D4E326951687D
:102A74000029F9D0012503F01F030C689D400029AB
:102A8400F2D08A682A4002D030464B6898472CB16D
:102A9400236821461C46F2E7024EE7E72346F8E79F
:102AA4005C790000447900002DE9F04340F20635DA
:102AB4004668D00648BF0320337B02EA050558BFA9
:102AC400C2F3401087B001F01F07B5F5837F1446A9
:102AD40047EA43178DF8030044D00FD8062D18D0C9
:102AE40007D8B5B1022D3FD06FF0150007B0BDE88F
:102AF400F083B5F5807FF7D101250AE040F2022288
:102B0400954233D0B5F5407F32D0B5F5007FEBD197
:102B140002250123220303FA01F12BD5736899607E
:102B2400326972BB07F01F037F0928D0012F75D1CA
:102B34003C4A02EB830284F48033D2F80012C3F3DC
:102B44000043C4F3404444EA430421F4706144EA7A
:102B5400800421F00F0144EA05230B43C2F800323C
:102B64000020C3E70725D4E70425D2E70525D0E7ED
:102B74000325CEE7630344BF7368D960D0E72A4ACC
:102B8400D7E71036394630460DF1020202F026F836
:102B940014F4403F80460CD13946304604F032FEEE
:102BA400224B9845DCD130469DF8021002F06CF8B7
:102BB400D6E74FF0000901AB3946304603AACDE908
:102BC4000439CDE90199CDF80C9001F0C3FE174BFF
:102BD400984289D114F4003315D09DF8033084F45D
:102BE4008034C4F300448DF80E3039464B463046E9
:102BF40003AA8DF80C508DF80D4001F067FF0B4BC4
:102C04009842CDD070E7CDE9043339460DF1030382
:102C1400304603AA039301F09DFEF0E7803352F897
:102C24002330FFDE00288450002584500000AD0BC3
:102C3400036803F01F025B09026004D0012B034800
:102C440018BF002070470248704700BF0028845016
:102C5400002584502DE9F04F1546834640F2FF18B5
:102C6400DFF87491DFF874A185B000EB8101594558
:102C740003D1002005B0BDE8F08FDBF80030C3F3CA
:102C8400C322082AC3F3080400F2A0801B0E4445A3
:102C940008BF4FF0FF3419F80270222B00F299801C
:102CA400DFE803F01221282B32382B9797979747A8
:102CB4007497979797979797777A97979797979700
:102CC400977D8386898C8F00C5F80C45621C0ED0D5
:102CD400012603A80394FFF7ABFF039B06FA03F353
:102CE400836032462EE0601CC5F814456CD10BF1AC
:102CF400040BBCE7C5F80845E8E7C5F81045601CB7
:102D0400F5D0002600221DE0631CC5F80845EED06E
:102D1400002604E0C5F80C45661CE8D0012603A88B
:102D24000394FFF785FF0122039B02FA03F3C360B8
:102D340008E0C5F80845002FE1D1621CD7D0002671
:102D440006273246DBF80030039403F400400028E1
:102D540018BF002203A818BF012601930092FFF7B1
:102D640067FF039C019B00EB8400D0F80042C3F38F
:102D7400412C009A3B0243EA8C03134304EA0A04FD
:102D8400234343EA4603C0F80032B0E7C5F80C45D4
:102D9400D1E7C5F84045BFE7C5F84445AFE7C5F8F6
:102DA4002445631CA3D00126ACE7C5F828458DE76C
:102DB400C5F83045F5E7C5F83445F2E7C5F83845B8
:102DC400EFE7C5F83C4581E700268AE76FF0150078
:102DD40050E76FF085004DE744850000F0F0FCFFFC
:102DE400F8B50546002201210820FFF707F908205D
:102DF400FFF7D4F86B681A691868C0F82425997D20
:102E04005A7D0A43198B1B7D0B431343C0F86C3561
:102E14006E68D6E9004313F001032BD02F6907F144
:102E2400080001F087FB224B98423DD1387A04F127
:102E34000C0204F5907104F0AFFB387A012707FA0D
:102E440000F001F071FB0823C4F80035F369C4F8FD
:102E540044350023C4F84835A760D4F85831002B12
:102E6400FBD00023C4F800352846BDE8F8401149DA
:102E740002F0B9BE0822C4F80025F269C4F844255A
:102E8400C4F848350123A360D4F82031002BFBD0CB
:102E94000023C4F82031D4F820310123E3604FF437
:102EA4008073C4F80433D8E76FF00400F8BD00BFA2
:102EB4000000AD0B056200002DE9F34104460D4608
:102EC400476804F0F3FC4FF0200868B9284B1B78DE
:102ED40053B16426606803F053F9D0B9012004F0BB
:102EE4004FFB013EF6D1F4E7EFF311810E4688F370
:102EF4001288BFF36F8F606803F042F9A8B981F3B9
:102F04001188BFF36F8FEFE781F31188BFF36F8FE1
:102F1400DFE7EFF311810E4688F31288BFF36F8F5A
:102F2400606803F02DF90028EED0FB6920461D707F
:102F340063680DF107011D68FF6902F03FFE9DF80B
:102F440007306BB90122C5F84475C5F84825C5F8A2
:102F54002031D5F82011C5F85831D5F85831AA6078
:102F640086F31188BFF36F8F02B0BDE8F08100BF14
:102F7400A32800200123834070B5DC430B4AD2E828
:102F8400EF1F01EA0405C2E8E65F002EF7D14FF413
:102F9400803282400648C0F80823BFF35F8FBFF336
:102FA4006F8F0B4214BF0120002070BD5C0F002006
:102FB4000050015070B40E4922F07F46D1E900342C
:102FC400D01AC31844F10004C1E90034A6F5001373
:102FD400B3F5400F09D2074B1B681A0A1B069C194C
:102FE400054B42F10005C3E9004570BC02F0A6B8E8
:102FF40058010020600F002060010020D9B1012396
:103004000D4A8340D2E8EFCF4CEA030CC2E8E1CF8B
:103014000029F7D14FF48033084A8340C2F80433BF
:10302400074BD3E8AF3FC340DB0742BF4FF4001266
:10303400044BC3F8002170475C0F0020005001507E
:10304400580F002000E100E00D4B1868010A00064B
:10305400BFF35F8F0B4BD3F80435181841F100010F
:10306400B3F5801F0AD2084BD3E90023904271EBD9
:10307400030303D210F1807041F10001704700BFD7
:10308400600F002000500150600100202DE9F04F36
:1030940085B016461F4604469DF840A0FFF76AFF18
:1030A4000190FFF7D1FFB04271EB070352D23B4BC3
:1030B400301A67EB0101984271F100014DD2384B8F
:1030C40003EB0413D3E902239F4208BF964258D06E
:1030D4004FF48038334908FA04F8204626F07F4B31
:1030E400C1F8488303F006F94FF00309584604F188
:1030F4005005AD00ADB205F1502504F5A87305F5F2
:1031040080350293029A20F07F4341F82230C1F8BF
:103114004483D1F80435244AC01A033820F07F4090
:1031240090422ED9286868B1D1F80435A3EB0B007E
:1031340020F07F40B0F5000F039322D9204603F01E
:10314400D9F8039BBAF1000F07D109EB030009F189
:103154000109D7E7BAF1000F09D06FF01505204631
:103164000199FFF74BFF284605B0BDE8F08F012316
:103174000E4AA340D2E8EF0F1843C2E8E10F00293A
:10318400F8D107490E982301C8500F9B01EB041294
:103194000025C2E902675360E1E700BF0100800037
:1031A4004801002000500150FDFF7F00580F00200F
:1031B4007FB500254FF0FF304FF0FF31194C1A4B0B
:1031C4000226C4F80833C4F84833184BC4F8085529
:1031D400C3E902014FF480334FF40012C4F80433FE
:1031E400134B0121C4F804631520C3F880212A4637
:1031F400FEF704FF1520FEF7D1FE01230D4AA3605C
:10320400236013600C4B0D4A009328460023CDE93C
:103214000155FFF73BFF3046FFF79EFA284604B0FE
:1032240070BD00BF0050015003000F004801002092
:1032340000E100E05C0F0020B92F0000FFFF7F00D9
:103244002DE9F7432E4BD3F8042390070BD5D3F87D
:10325400042142B10022C3F804212A4AD3F80431DC
:10326400136801331360264AD2F80433D90326D5F0
:10327400254BD3E8EF1F21F00100C3E8E40F002C35
:10328400F7D1CB0702D4D2F84031C3B100251C4C8E
:10329400C4F84051D4F84031FFF7D6FEEFF3118261
:1032A400202383F31288BFF36F8F184BD3E902678F
:1032B400B042B94106D282F31188BFF36F8F03B0D5
:1032C400BDE8F0834FF0FF38D3E900104FF0FF3929
:1032D4001D60C3E902894FF48033C4F84833C4F84D
:1032E4004051D4F8403182F31188BFF36F8F002925
:1032F400E5D0009032463B4628468847DFE700BFCA
:1033040000500150600F0020580F00204801002099
:1033140030B5431C124C85B005D08442A8BF044686
:10332400012CB8BF0124FFF78FFE0E4B0C4DD3E9DF
:103334000013401AB0F5000F0FD22218AA4228BF7A
:103344002A46002052180849CDE90100009143F1B2
:103354000003FFF79BFE05B030BD2A46F1E700BF2E
:10336400FFFF7F0058010020B92F000008B5FFF7C8
:103374006BFE024B1B68C01A08BD00BF5801002039
:10338400012310B5074C15206360FEF715FE4FF4BA
:103394000012054BC4F80833C4F84833034BC3F890
:1033A400802110BD0050015003000F0000E100E037
:1033B40040EA0103C3F30D0330B58BB940F2151590
:1033C400094C890BC0F38730994201D1002030BDEC
:1033D400C218D2B202F5C07244F822500133F3E7A6
:1033E4006FF01500F3E700BF0030005030B581687E
:1033F40085B0103921F00704054602F056FC10226E
:103404000146684602F0FCFC10226846064902F0B8
:10341400ECFC10236A462146284602F012FC0038D0
:1034240018BF012005B030BDC27F000030B50D4685
:10343400816887B0102302AA1039044602F0ECFB1D
:10344400002802DA012007B030BD1022204602A96C
:1034540002F07BFF00283AD110221E4902A802F094
:10346400B4FC00280CBF012302232B70204602F079
:1034740058FF012301460DF10702204602F0CCFB60
:103484000028DFDB9DF80730204603F00F021B09FC
:103494006A702B7101220DF1070102F056FF10B979
:1034A4006B78042B03D901236B7000232B71A26862
:1034B4002046183A22F00702083AA91C02F058FFE5
:1034C4000028BFD12046E91C02F0ABFFBBE7032371
:1034D400CBE700BFC27F00007FB5264D440069469C
:1034E40055F8240002F0A3FF002835D1013455F823
:1034F400240002A902F09BFF01282BD103238DF89D
:1035040008308DF80B3000249DF800509DF80860B9
:10351400194A2946107802F00AFF18B33146507848
:1035240002F005FFF0B19378042B03D09DF803104B
:10353400994217D1D378042B03D09DF80B109942EC
:1035440010D11379042B09D15079831E022B03D88F
:1035540004B070BD0028D6D0FF20F9E79DF8021012
:103564009942F1D00134032C02F10602D1D1012099
:10357400EEE700BFF87D000057850000044B1B6890
:10358400584043085B4240421843C017704700BF8D
:10359400640F00208842F0B504D00025084F043899
:1035A400AA4200D1F0BD3E6850F8044F5E4024EAC0
:1035B400060451F8256001351E4034430460EFE7EA
:1035C400640F00202DE9F04F8DB01D46189B8346F3
:1035D400B3F12A3F8A46179F1A9E059240F08D80C8
:1035E4003946169802F0ABFF012838BF012047097D
:1035F40000F01F044FF001097B01502B34BF4B46F0
:1036040003230A9309FA03F30B930A9B059805FA1B
:1036140003F306EB8303069303EB8503079303F09D
:1036240066F94FEA8508424600210890304602F0C8
:10363400E7FB079BC6F800900393089B3146CDE94E
:103644000153059B3046199A009306EB08092B4653
:1036540003F05EF951464246484602F0C6FB022397
:10366400494609930B9B099A934248D142463146F5
:10367400584602F0BAFB4FF00009CA46079B5A4667
:103684000393089B5946CDE90153059B5846009383
:103694002B4603F03DF9002C47D11F24013F169B14
:1036A4000AF1010A53F82730E34003F0010343EA27
:1036B40049090A9B534503D0002CDFD1002FDDD1EB
:1036C400189BB3F12A3F32D1424609FB08610698A0
:1036D40002F08BFB079B59460393089B5846CDE9A0
:1036E4000153059B069A00932B4603F011F9002C15
:1036F400C1D1BFB90DB0BDE8F08F00247AE7079BB4
:1037040001EB080A0393089B4A46CDE90153059B44
:10371400504600932B4603F0FBF8099B51460133B6
:1037240009939FE7A146A246A8E7013CB7E73146C3
:103734004FF0000A0A4B2A4618681B68584080EA72
:10374400090080EA0A00FFF719FFC3430698FFF750
:1037540021FF099B0AF1010A53454144EAD1B9E723
:10376400640F0020054B01311B680132434022EAFB
:10377400030208400243501E00B27047640F002049
:103784002DE9F04F834699B00F461846002116469E
:10379400039303F02EFB002800F089810024012507
:1037A400774B30461493039915ABCDE90B45CDE91E
:1037B4000D45CDE90F45CDE91145139303F0A2FA68
:1037C400A04228DABBF1000F05D1E7B90024204656
:1037D40019B0BDE8F08F2146584603F01BFA0446A1
:1037E4000028F2D00BA803F062F90DA803F05FF9EA
:1037F4000FA803F05CF911A803F059F90C2115A8DE
:1038040000F038FBE3E73146384603F0CEF90446CE
:103814000028E7D1DAE731460BA803F0C6F90446DD
:103824000028DFD103990DA803F0BFF9044600284E
:10383400D8D1F1880FA80231ADF83850ADF8305026
:1038440003F043F904460028CCD101460FA803F045
:10385400E1F904460028C5D1F18811A8023103F02A
:1038640034F904460028BDD10DA803F0FFF900F097
:103874001F001F2873D0C0F11F0319460BA8019322
:1038840003F01AFA04460028ACD101990DA803F0FC
:1038940013FA04460028A5D1BDF83250BDF83A8089
:1038A4000DA8A5EB080A4FEA4A19494603F004FAA1
:1038B4000446002896D14FEA8A0A0DA90BA803F002
:1038C40050FA00284DDA49460DA803F012FA0446CE
:1038D400002887D108F1FF3305939B0005F1FF3AD7
:1038E400069305F1804508F18043023B013D9B00AE
:1038F400A5EB08050893AB000293059B9A4541D8B4
:10390400BBF1000F0DD058460FA903F04EF9002863
:1039140040F0C980039AB388928813FB02F3ABF892
:103924000430002F3FF45EAF01990BA803F0E1F9D6
:10393400002840F0B880B3880BA93846ADF8303081
:1039440003F033F90146002840F0AF80384603F015
:1039540050FA00287FF446AF0123BB8042E701946C
:103964009AE70F9A0BA952F80A300846013342F835
:103974000A300DAA03F022FB044600289DD031E74B
:10398400010003000D9B069A04931344DDF82C9068
:103994000793049B4FEA8A089A5859F82A10A8F109
:1039A40004030F9D0993029B91421D4476D2A8F112
:1039B4000400002359F80000FCF7CAFB002914BFD7
:1039C4004FF0FF330346BAF1010F2B600EBF002303
:1039D40009EB080353F8083C1593A8F1040359F8BC
:1039E4000330169359F80830DDF8108017932B68CC
:1039F40001332B60089B98442B680021013B2B600A
:103A040011A803F007F900284DD1059B002B48D0DD
:103A1400D8F80020119B11A91A60079A0846126869
:103A24005A602A6803F0CEFA00283CD113A911A8E1
:103A340003F097F90028DFDC2A680DA911A803F028
:103A4400C1FA80BB029B11A84FEAC308414603F0A8
:103A540033F940BB0BA9084611AA03F0AFFA01469B
:103A640018BB0BA803F0C5F9002812DA0DA911A898
:103A740003F09BF8B8B9414611A803F01DF990B9B9
:103A84000BA9084611AA03F096FA60B92B68013B0A
:103A94002B60029B0AF1FF3A043B2DE74FF0FF3302
:103AA40091E7059AB6E704469CE60C469AE66FF061
:103AB4000B048CE62DE9F74F90461F4A064615681D
:103AC4000F464540ED43002B14BF9A468A46002416
:103AD4000C9B04F104094B4505D20C9B9C4220D35A
:103AE40003B0BDE8F08F042208EB04010DEB0200E3
:103AF40002F07BF9019A0AEB040106EA020B0422A4
:103B04000DEB020002F071F9019A38192A4042EAD9
:103B14000B02019204220DEB020102F066F94C46FD
:103B2400D6E718F804301AF8042033402A40134327
:103B34003B550134D1E700BF640F0020082804D0AE
:103B44000928034818BF002070470248704700BF87
:103B5400698500006C85000001680E4A03469142A5
:103B640015D1C169A2F11022A2F1EF1291420ED136
:103B74008268012A0BD8C26812B101698A4206D050
:103B8400586928B19B691B1A584258417047012053
:103B9400704700BF55AA00FF70B50D4B9E68A6B1D3
:103BA4003046FFF7D9FF044678B9F3686BB9356935
:103BB4000DB9204670BD2846FFF7CEFF28B9EB6843
:103BC400B34202D12E462D69F2E70124F1E700BF8A
:103BD400680F00202DE9F8433F4F3C68D4B1BC681E
:103BE400C4B100284AD0002948D001FB00F5B5FB38
:103BF400F0F0884242D1281D40D8A9070DD025F005
:103C040003060436FC6803E06368B34238D2A4694F
:103C1400002CF9D12046BDE8F8832E46F2E7FB607C
:103C240041E006F120016318203A5A600022C3E9FA
:103C340002242A4822691A6160502949D96102B1D3
:103C4400D36062695A61A1699961AAB193619A6961
:103C540002B153614FF0010923610023C4E90169F2
:103C6400C4E905333B69DB072ED5FFF795FF58B34D
:103C74001C4B48461B6826E0FB60E8E70024C9E7C4
:103C8400A3681BB1174B01201B689847626804F1B5
:103C94002008921B232AC4D80123A360D4E9052356
:103CA400002ABCD09361A3690BB162695A610023F5
:103CB400C4E905333B69DA0706D5FFF76DFF18B190
:103CC4000120084B1B6898472A4600214046444679
:103CD40002F096F89EE700BF680F002055AA00FF87
:103CE400669911EE2800002070B50546002800F002
:103CF4008880444E3368002B00F08380B268002A29
:103D04007FD0834203D872681344984203D33E4B56
:103D140001201B689847A5F120042046FFF71CFFEB
:103D240018B1394B01201B68984755F8183C012BF2
:103D340003D0354B01201B689847002345F8183CF5
:103D440055F8143C3BB39A682ABB55F81C2C02F175
:103D540020015A680A445A6055E905321A6155F837
:103D6400145C2B6903B1DD6020220021204602F09F
:103D740047F8286910B18368002B2ED033699B075C
:103D84003FD5FFF709FF00283BD0BDE870401E4B2C
:103D940001201B68184755F8100C00282AD08368A6
:103DA40043BB42686368134420336360036923613F
:103DB400D4E905239AB9CBB9436963618269A261E5
:103DC400B3B19C61A36903B15C61236903B1DC6095
:103DD4002022002102F014F8D0E72C46E1E7936199
:103DE400A369002BE8D062695A61E5E7F360F7E75D
:103DF400F460E7E7F36845F8083C03B15C61F460FC
:103E0400BCE770BD680F00202800002038B50C46C0
:103E1400142200210546134801F0F2FF1249134809
:103E240000F040F8232C1CD915F003031FBF043CF9
:103E3400E418C3F10403ED1822460021284601F0DA
:103E4400DFFF084B0A49C3E90054203C9D606C60C5
:103E54009A6811609A68A1F11021A1F1EF11D16162
:103E6400DA6038BD680F0020ED3C0000D93B00004B
:103E740055AA00FF10B50A46044619B1024B0021A9
:103E84001B68984710BD00BF24000020014B1B682D
:103E9400184700BF30000020014B1B68184700BFC3
:103EA4002C000020024B1860024B00201960704760
:103EB400300000202C000020F8B500F10806476807
:103EC400044630460D4602F0D5FE87424BD1636866
:103ED400B3F5807F47D80021304602F08AFF0028DE
:103EE40041DD0021304602F0B1FEE0B345B9294678
:103EF40004F1100002F07DFF002834DD0020F8BD3D
:103F040004F120050021284602F073FF00282ADD71
:103F14000021284602F09AFE28B304F12805002166
:103F2400284602F066FF00281DDD0021284602F025
:103F34008DFEC0B1002104F1100002F05AFF0028E8
:103F440011DD002104F1300002F053FF00280ADDE6
:103F5400002104F1380002F04CFF002803DD0021A9
:103F640004F14000C6E70148C9E700BF80BFFFFF76
:103F7400012938B50546144601D0074838BD22B991
:103F840001230020C5E91C34F8E71046FFF7D6FDED
:103F94000028F5D1F1E700BF00BFFFFF70B5002195
:103FA4000446FFF789FF054610B10E4D284670BD43
:103FB40004F10806304602F059FE7F28F5D9103482
:103FC4002946204602F042FE0028EED0204602F0A8
:103FD4004DFE0128E9D93146204602F0C2FE0028F0
:103FE400E4DBE2E700BEFFFFF0B50C4685B000213C
:103FF40005461646FFF760FF002839D102A802F0F3
:1040040051FD21466A6802A802F03AFE044618B13E
:1040140002A802F04CFD0CE005F10804214602A8B8
:1040240002F09FFE002807DB02A802F040FD6FF0BB
:104034000304A4F5854418E005F1480302A96F6858
:104044000846009305F11002234603F00BF90446D9
:104054000028DDD13A46314602A802F027FE044684
:1040640002A802F024FD002CE3D1204605B0F0BDE7
:10407400004CFAE780BFFFFF012903462DE9F04118
:1040840043D8234A002918BF9046224A224F18BF1A
:10409400964602F1794202F5740202F5016218BFF4
:1040A40094461E4A1E4818BF17461E4A1E4E18BF85
:1040B400164602F1D14208BF804602F5C0121B48E1
:1040C40002F51E6208BF8646194D1A4818BF1546E8
:1040D400194A08BF8446194C194818BF1446A2F15E
:1040E4001162A2F50C22A2F28E2218BF0246002011
:1040F400C3E9128EC3E91000C3E914C7C3E9166506
:10410400C3E918429966BDE8F0816FF07300FAE7DD
:10411400D89E05C107D57C363AF54FA539590EF717
:1041240067E6096A310BC0FF7F520E5185AE67BB4B
:104134008C68059B72F36E3CA78FF964ABD9831F1F
:10414400A44FFABE2DE9F04FCFB000F1640300F1A3
:1041540044070DF58A7900934A463B46019153F88A
:10416400041F42F8041F00999942F8D104AD4FF09E
:1041740000082C46DFF8F8A0B8F10F0F61D8019BB6
:10418400042203EB880103A801F02FFE039803F037
:1041940009F9A860D4F818C1D4E947634FEAFC22AE
:1041A4007340D4F8206182EABC1203EA0C0382EA69
:1041B4007C6273401344D4F824215AF8041B13443A
:1041C400D4F810610B440344D4E9421E4FEA713021
:1041D40041EA0E0280EAB100324001EA0E0B80EAA5
:1041E400B15042EA0B020244D4F81401626018444C
:1041F4001344D4F8202108F10108C4F82421D4F888
:104204001C21B8F1400FC4E947C2C4E944E6C4E93B
:1042140042312360C4F8180105F10405ACD157F804
:10422400043F59F8042F13443B60009BBB42F6D172
:1042340004A84FF49471FFF71DFE00204FB0BDE8B1
:10424400F08F2B6855F8382C4FEAF34080EA73401E
:1042540080EA932055F8143C55F8341C1344184450
:104264004FEAB14383EAF11383EAD103184490E798
:10427400007E00004FF47F03D3F83021D3F83431AB
:10428400072A05D1023B032B02D8024AD05C7047AF
:10429400002070477785000008B5FFF7EBFF58B1A1
:1042A400784BD3F8202A3AB90D21C3F8201A0121FA
:1042B400C3F81C19C3F81C290022D30003F57F039B
:1042C400D3F80013013107D0D3F800130132D3F827
:1042D4000433202A0B60F0D1FFF7CCFF002840F014
:1042E400B980FFF7C7FF40B1674B684AC3F8302570
:1042F4004FF050230122C3F858254FF47F03D3F81D
:104304003021D3F83431072A09D1023B032B06D8D4
:104314005F4AD35C1BB100225E4BC3F84C25FFF708
:10432400A9FF50B14FF05023D3F80024D00742BF67
:104334000022C3F81421C3F818214FF47F03D3F8E3
:104344003021D3F83431072A09D14FF05023D3F860
:104354000024D10744BF6FF00102C3F80024FFF723
:1043640089FF18B16522474BC3F80C274FF47F032C
:10437400D3F83021D3F83431072A16D1454BD3F87A
:104384002034002B11DA4FF050230322C3F81825F0
:1043940001229A60D3F80421002AFBD00022C3F83A
:1043A40004210122DA60C3F818254FF47F03D3F8FF
:1043B4003021D3F83431072A23D1023B032B02D80E
:1043C400354AD35CEBB17E222E4B2F49C3F80C2720
:1043D400C3F83C297F23314AC2F818310023C1F8BD
:1043E400043EC1F8083E01F54821C1F81031C2F875
:1043F4002431C2F82C3102F5FF1202F58052C2F8C2
:10440400A032274B9A6AD2072CD501211E4AC2F842
:104414000415D2F800140029FBD09A6A22F0010294
:104424009A62194BD3F80024002AFBD00022C3F867
:104434000425D3F80024002AFBD0BFF34F8F194979
:10444400194BCA6802F4E0621343CB60BFF34F8F89
:1044540000BFFDE729220B4BC3F80C270322C3F846
:104464003C273EE70F49D1F88C2042F44062C1F862
:104474008C2019680D4AC2F84415DB69C2F84C3522
:1044840008BD00BF00400050009003504400EFBE40
:1044940073850000002003506F8500000020005049
:1044A4000080FF0000ED00E00400FA050060005009
:1044B40030B50468ACB1B4FA84F30122C3F11F032C
:1044C400DBB29A4024EA0202D0E8EF5FA54204D1AD
:1044D400C0E8EC2FBCF1000FF6D1EAD102480B7012
:1044E40030BD0248FCE700BF0000AD0B0200AD0B7D
:1044F40010B50368CB40DB0710D401238B4002685E
:1045040043EA0201D0E8EF4F944204D1C0E8EC1F23
:10451400BCF1000FF6D1F2D1014810BD0148FCE70F
:104524000000AD0B0400AD0B014BC3F8040570474C
:10453400007001500146014800F0EAB8380000203C
:10454400044B1A7922B9012218601A710248704783
:10455400024870477C0F00200000AD0B0C00AD0B2F
:1045640008B50A4B1B6833B10520FDF739FD10B9B6
:104574000520FDF713FD4FF050230122C3F8182541
:10458400C3F81425C3F8802508BD00BF7C0F0020A4
:1045940010B5032845D8DFE800F01802554F002273
:1045A4004FF480730121002003F1502318601C682C
:1045B400012402F150221460284A1268002A47D0CC
:1045C4004FF05023C3F804132BE04FF05023D3F8DB
:1045D4001814D3F81824C90312D502F00303022BCC
:1045E40005D0012B02D0002002F0DDFF01234FF0A3
:1045F40050220221C2F8183508224FF48273D2E700
:10460400D3F81424D207F1D5D3F81C2402F0030202
:10461400013A012AE7D8114A12681AB10222C3F8F2
:10462400042310BDD3F80421002AFBD00022C3F8D0
:104634000421D3F80431F4E718224FF490734FF4B3
:104644008071B0E720224FF492734FF40071AAE70F
:104654001A68002AFCD018601B68E2E77C0F00206F
:104664004FF0502310B5D3F8002152B10020C3F805
:104674000001D3F800210122C3F80823234B1B684F
:1046840098474FF05023D3F8042182B10022C3F895
:104694000421D3F80421D3F81824D3F818240221D0
:1046A40002F00302012A28D1C3F818159A604FF0CA
:1046B4005023D3F8202162B10022C3F82021D3F87B
:1046C40020214FF48072C3F80823104B05201B6887
:1046D40098474FF05023D3F82421AAB10022C3F8FD
:1046E4002421D3F824214FF40072C3F80823074B84
:1046F4000620BDE810401B681847C3F80813034B95
:1047040001201B689847D2E710BD00BF7C0F002032
:104714000079024B03EB0010FFF7CABE40000020F3
:10472400036803F01F025B09026004D0012B0348F5
:1047340018BF002070470248704700BF002884500B
:1047440000258450034A4309D35C00F01F00184439
:10475400C0B270477B85000070B50546FFF7F2FFD5
:104764000C4C083034F810300E46DA0508D5C3F383
:10477400432304EBC302284654F833305268984765
:10478400A3682BB131462846E268BDE8704018475B
:1047940070BD00BF5000002008B5FFF7D3FF034BE6
:1047A400083033F81000400B08BD00BF5000002053
:1047B40008B5FFF7C7FF034B083033F81000C0F308
:1047C400400008BD5000002008B5FFF7BBFF034BB5
:1047D400083033F81000C0F3401008BD500000202A
:1047E400034611F0010010B5CCB20BD1A207C4F3FB
:1047F40040000DD5074A106A58601062003818BF8F
:10480400012005E004490A6A1A600A62002AEDD010
:1048140010BD00BF002884500025845010B5FFF758
:1048240091FF124A083032F81030D9051CD5C3F371
:10483400432123F4F85322F81030002002F10E042F
:1048440034F8023F13F4807F03D0C3F34323994227
:104854000AD001303028F3D1002342F83130044823
:10486400BDE81040FFF744BE10BD00BF500000205B
:10487400C8000020F0B5054600200126044607467E
:104884008C420BD1114BD3F87C2132B10022C3F8F6
:104894007C21D3F87C3140F00040F0BDE3B29B00B2
:1048A40003F580729B0806FA03F31D420BD002F154
:1048B400A04202F55042D2F800C0BCF1000F02D071
:1048C4001760126818430134DAE700BF00D00050C3
:1048D400F7B506460846FFF735FF1A4F00F10805FD
:1048E40037F815300C46DB072AD5304602F066FF50
:1048F4002046FFF769FF58B12046FFF74DFF00221D
:10490400316800B201EB8003C3F81025C3F8102509
:104914002046FFF783FF002301A827F815300194F0
:10492400FFF7FEFE019B00EB8300D0F80022064B4C
:10493400134043F00203C0F80032044803B0F0BD52
:104944000348FBE750000020F0F0FCFF0000AD0B33
:104954000400AD0B2DE9F0431646804685B00846A9
:10496400FFF7F0FE0D463168044609B32846FFF709
:104974001FFF18B12846FFF727FF10BB00230DF1D6
:104984000F02CDE900338DF80E308DF80F30284634
:104994000B460DF10E0102F0B9FE484A04F108017C
:1049A40032F8113023F0020343F0010322F81130EE
:1049B40073687BB328461F785968FFF7F9FE10B176
:1049C400E9B13F4829E03D4A04F1080032F81030CB
:1049D40023F02003DB04DB0C22F8103079B1032F21
:1049E400EFD87168D1F804E0D8F800109EF800C040
:1049F40001EB8C01A7B9C1F81075C1F810752F4AE5
:104A040004F1080132F8113023F01C0343EA870350
:104A140022F81130B3683BBB2A4805B0BDE8F083E7
:104A2400D1F810E543EA4C332EF0030EC1F810E53B
:104A3400D8F8001043F0200301EB8C0EDEF81015BB
:104A440022F8103021F44F3121F44071CEF81015C2
:104A54002902DEF8108501F47C5141EA074141EA5C
:104A64000801CEF81015CAE72846D3E90067FFF716
:104A7400D5FE002ED0D0114DD5E90023964203D1A6
:104A84009F4201D1002209E00F480DF10F01FFF709
:104A94000FFD0C4B9842C0D19DF80F2005EBC203CB
:104AA40008345F6035F8143045F8326043EA422335
:104AB40043F4807325F81430AEE700BF50000020A3
:104AC4000400AD0B0000AD0BC80000202DE9F0433D
:104AD4000C46804685B0204611461D46FFF732FE3F
:104AE400064629B32046FFF763FE18B92046FFF7B0
:104AF4006BFE18BB334F06F1080937F8193013F071
:104B04001C0F02D04B78012B18D001238DF80F30E5
:104B140000234A1CCDE9001320468B1C0DF10F0124
:104B240002F0F4FD37F8193043F0030327F8193085
:104B3400002D44D02046FFF73BFE18B9224805B0AB
:104B4400BDE8F083002295F800C0D8F800301D4F6E
:104B540003EB8C03C3F81025C3F8102506F10802F3
:104B640037F812104FEA8C0E21F02001C904C90C49
:104B740027F812106E7816B3D8F80000AD78704498
:104B8400D0F81035360423F4991323F4F853C0F8FD
:104B94001035230203F47C5306F440362D05D0F877
:104BA40010E5334305F480152B4341EA4C3143EAC5
:104BB4000E0341F02001C0F8103527F81210034805
:104BC400BDE700BF500000200400AD0B0000AD0B9A
:104BD400014BC3E9021270475000002010B508468B
:104BE4001446FFF7F1FD50B10846FFF7ABFD054B46
:104BF400083033F8103004485B0B237010BD0348B1
:104C0400FCE700BF500000200000AD0B0400AD0B1A
:104C140070B5154D064695F880401CBB21466022B0
:104C240005F1100001F0ECF8214630682E6F8E4239
:104C34000ED10023C0F87C31D0F87C3140F307302A
:104C4400FDF7ACF90123094885F88030AB6770BDE6
:104C5400CBB29B0003F580727C2B04BF8450835835
:104C64000131E4E70248F2E7500000200000AD0BF8
:104C74000C00AD0B034B93F88000003818BF0120E3
:104C8400704700BF500000200148FFF731BC00BF4F
:104C9400C40000200148FFF70BBC00BFC400002083
:104CA40073B503681646D3F804230546002AA8BF43
:104CB4004FF000420846A8BFC3F804230C46FFF790
:104CC40083FD00B30846FFF773FD0146D8B92046BB
:104CD400FFF762FD04B2A4000346286804F580725D
:104CE4008150296882582144D1F8102542F00102EC
:104CF400C1F810252EB10122296802FA03F3C1F884
:104D0400043302B070BD2046FFF71CFD0E4B083083
:104D140033F81030C3F38203042B11D0052B11D0C8
:104D240001A80194FFF7FCFC019A0369D34003F046
:104D34000103991C204602B0BDE8704002F02FBD6B
:104D44000321F7E70221F5E7500000202DE9F04F99
:104D5400684BDFF8A481D3F80403D8F87010C0B20C
:104D640089B040F00040FFF785FD051E2FDAC246EA
:104D740000235AF87C1F06A8CDE90633FFF730FD5F
:104D84004FF0000B5D4B0DF118090193019A12F8D5
:104D9400013B0192DA081AF8022003F0070322FA11
:104DA40003F3DA071CD409F10409BBF1000F14D092
:104DB400D8F870104FF00040FFF75CFDD8F87C1075
:104DC40006A8FFF70DFD0028DAD125F000450124DF
:104DD400002D76D109B0BDE8F08F4FF0010BD5E777
:104DE400474B5B440293D9F800100029DBD091FAB9
:104DF400A1F1B1FA81F1029B1C7841EA44142046E6
:104E0400FFF7A0FC083038F81070C808BB080393FB
:104E1400012319F8002001F0070103FA01F122EA45
:104E2400010209F8002005A80594FFF779FC059A0A
:104E3400039B803250F82220C7F382065B07374673
:104E4400C2F3014222D520463946D6B2FFF784FC8C
:104E540005A80594FFF764FC059B803350F82330C4
:104E6400C3F301439E4207D10021204602F097FC80
:104E74003146204602F093FC05A80594FFF750FC48
:104E84000122059B02FA03F30362ACE7022A0CD168
:104E94000321204602F083FC06F00503012BEBD12D
:104EA40039462046FFF758FCE6E7022120460392E4
:104EB40002F075FC032EF3D0039A032ADCD1022EF0
:104EC400EDE795FAA5F3B3FA83F304FA03F29B0032
:104ED40003F1A04303F55043D3F81005D3F810159C
:104EE400C0F30520C1F3014125EA0205FFF734FCB4
:104EF4006EE700BF00D00050500000208B850000FA
:104F04008B8500000022034BC3F88425C3F80425D5
:104F1400704700BF00900350044AD2F80034DB0706
:104F2400FBD50160BFF35F8F704700BF0090035053
:104F340008B5C0F30B0383B90222094BC3F88425D7
:104F4400C3F804254FF0FF320260D3F80024D207DF
:104F5400FBD5FFF7D7FF034808BD0348FCE700BFB4
:104F6400009003500000AD0B0A00AD0B012208B500
:104F7400054BC3F88425C3F80425FFF7CDFFBDE82E
:104F84000840FFF7BFBF00BF0090035038B5094B7E
:104F940053F82040013053F82050A54200D838BDC2
:104FA400636823B1204602F064FC0834F5E7236803
:104FB4009847FAE7007F0000012208B5094B032057
:104FC4001A70FFF7E3FFFCF70FFE02F06EFC0420FB
:104FD400FFF7DCFFFBF724FA034A137B23F00103FA
:104FE400137308BDA32800206801002008B50348F6
:104FF400034A0021121A02F054FC08BD48010020A3
:10500400A428002008B50020FFF7C0FF184B03F5C3
:10501400006282F3088883F30A880025E023154C94
:1050240084F82230E57725766576A57684F82050D5
:10503400636A43F4E023636284F82350FCF71CFFA3
:10504400FDF72EF84FF0FF33A362E362FDF748F952
:10505400FDF74AF802F0E7FB0120FFF797FF022073
:10506400FFF794FF2B462A4629460348FCF7F8FF2E
:10507400A828002000ED00E0BD4F000008B5064858
:10508400064A0749121A02F00EFCBDE80840054A18
:105094000549064802F007BC000000204601002034
:1050A40090850000000000009085000000000020B2
:1050B400034B1B680BB9FEF759B90020704700BFBA
:1050C400840F002030B570B10B4B5B6898420AD056
:1050D400036843B1D3E90421D0E90445121941EB33
:1050E4000501C3E90421D0E9003213605A600023AA
:1050F400C0E9003330BD00BFD400002010B50E4B12
:105104001C689C4204D1FFF7D3FF6FF0004010BD30
:10511400FFF7CEFF002CF8D0D4E904321B1A62EB5F
:10512400E072B3F1004F72F10001EEDA002AACBF75
:1051340018460020EBE700BFD40000202DE9F84F0B
:10514400EFF3118C202383F31288BFF36F8FDFF802
:10515400ACA0DFF8AC900024C9F80000DAF8000035
:105164000025504508BF0020264FE046D7E900211E
:10517400D9F8003078B3D0E9046C4FEAE37EB34247
:105184007EEB0C0B05DAF61A6CEB0E04C0E9046432
:1051940021E0B21841EBE671C0E90445C7E90021FA
:1051A400FFF790FF88F31188BFF36F8F83689847E8
:1051B400EFF31188202383F31288BFF36F8FD9F89C
:1051C4000030DAF800009B1B5045C446C9F8003093
:1051D400CBD1D7E9002100249A1841EBE373C7E946
:1051E4000023C9F80040FFF789FF2146FEF790F835
:1051F40088F31188BFF36F8FBDE8F88FD4000020C7
:10520400840F0020E801002010B50A4C23681BB16C
:1052140001232360002010BD00F04EF80028F7D0D1
:105224000138072803D8044B53F8200010BD034865
:1052340010BD00BF880F0020187F0000FE8FFFFF05
:10524400BFF34F8F0549064BCA6802F4E06213436B
:10525400CB60BFF34F8F00BFFDE700BF00ED00E060
:105264000400FA0530B44FF0FE3200250B4B0C4C11
:105274000C494968C3F80024C3F80424C3F808247B
:10528400C3F80C24C3F81024C3F81424C3F8182456
:10529400C3F81C24C4F8005530BC0847005084509F
:1052A40000408450DC000020024BD0E90012C3E926
:1052B40000127047DC00002008B500F011F830B986
:1052C40000F010F838B9054AC2F80C0A08BD00F01D
:1052D40037F8032008BD042008BD00BF00508450E7
:1052E4000020704710B5114800F048F800B110BD17
:1052F4000F4800F043F80028F9D10E4C204600F086
:105304003DF80028F3D10C4B0C481C6000F036F833
:1053140001460028EBD100F02DF8044608B12046E0
:1053240010BD00F03FF82046FAE700BFF40000206B
:10533400F0000020EC000020E4000020E800002041
:1053440008B5084800F024F8074800F021F8074899
:1053540000F01EF8064800F01BF8BDE8084000F015
:105364000BB800BFF4000020F0000020EC00002087
:10537400E800002000207047704700BF08B5034BC9
:1053840002681B6810689847002008BD0C010020C3
:1053940008B5034B02685B6810689847002008BD95
:1053A4000C01002070B5094C094D2069AB68984781
:1053B40018B1084B08485B6898470021074AEB6816
:1053C40011602069BDE87040184700BFF800002054
:1053D4000C010020DC000020387F00008C0F00202E
:1053E40010B5044650B1636813F0685F05D0064AEF
:1053F400934202D000236260236010BD034B044833
:105404005B689847EFE700BF2C5F5CA9DC000020D5
:10541400587F0000C8B143680D4A934213D013F07B
:10542400685F0ED0012350E8002F194640E8001CA5
:105434009CF0000FF7D1012AF5D0BFF35F8F002055
:10544400704704487047044870476FF4E040704761
:105454002C5F5CA9E98FFFFFEA8FFFFF034680B151
:10546400426809498A420AD012F0685F05D0BFF346
:105474005F8F002210461A60704704487047044842
:1054840070476FF4E04070472C5F5CA9E98FFFFF21
:10549400EA8FFFFF10B5044620B10023034A2360BE
:1054A400626010BD0248FFF7DDFEF6E73A00003AFD
:1054B400807F000070470020704730B58368044641
:1054C4008B42154685B00ED96368C068194401AA99
:1054D40000F0ACFD28B96268019B9B1A2B60029B0B
:1054E4006B6005B030BD6FF02100FAE72DE9F7439A
:1054F4000E4617469946044628B94FF0FF384046F1
:1055040003B0BDE8F0830029F7D0002AF5D0CB68BA
:105514000D8938461D44042329460DEB030200F08F
:105524007BFB80460028E8D146F60812BDF804103B
:105534007389914225D1BDF806109942DDD1042327
:1055440038460DEB0302294400F066FB0028D4D151
:1055540046F60713BDF804209A42CED1C4E9006789
:105564009DF82830A4F80890A3727389BDF806202A
:105574002B44E360738913442B4404356361256130
:10558400BDE7002BE4D0B8E72DE9F3410E461746FA
:105594001D46044620B94FF0FF3002B0BDE8F0814B
:1055A4000368002BF7D04368002BF4D04FF6FF7844
:1055B400D4E904239A4216D223685B8923B1E368B1
:1055C400934204BF043323610423216960680DEB13
:1055D400030200F021FB0028DDD1A37A2BB1D4E92A
:1055E40003329A4201D30120D7E72389BDF806107C
:1055F400434501F1040203D0BDF804C09C450BD11E
:1056040015B1BDF804302B8023690433336039802D
:10561400236913442361C0E7236913442361C7E763
:1056240048B103683BB143682BB1C068884294BF5A
:105634000020012070474FF0FF30704700F0C5BBD9
:105644004FF4C07358433030704710B5044600F02F
:1056540025FB4FF4C072A368303B02FB103010BD31
:1056640070B50D46044600F05CFE2A46A0F1080120
:1056740004232046BDE8704000F0CEBA13B50446BA
:10568400019100F04EFE0423A0F108010DEB03028A
:10569400204600F089FE02B010BD70B513460E46D8
:1056A4001546002102460446FBF76EFC50B92B4612
:1056B4000121204604F12C02FBF766FC10B1002EF8
:1056C40008BF002070BD73B5044600200D46164681
:1056D400FAF72AFF6946C0B2FCF72EFA30BB2C2336
:1056E40003FB0544E368258900981D4404232946E7
:1056F4000DEB030200F090FAC0B946F60813BDF8AA
:10570400042064899A42009815D1BDF806309C4261
:105714000CD1042361190DEB030200F07DFA28B9C2
:1057240046F60713BDF804209A4207D0009800F00B
:1057340072FA02B070BD002CF2D0F7E7BDF8061083
:10574400214429443160F1E737B580250446426A93
:1057540001A902200195FCF717FA58B9019B05200D
:10576400226DA36201A90195FCF70EFA054628B142
:10577400092500E00125284603B030BD019B206ABD
:10578400636500F08BFAE065F5E70123036003F13C
:10579400012343600023C0E9023370474379012B9E
:1057A40007D10368012B04D10079431E58425841A4
:1057B4007047002070477FB506460D46022001A9B8
:1057C400FCF7BAF938BB0198FFF73FFFF16D0446C7
:1057D400284600F0D0F80444019800F05FFA064629
:1057E400019800F062FA082201460DEB020000F075
:1057F40007FB2B7921468DF808300198334602AA1D
:1058040000F01FFA041E019818BF012400F003FAE7
:10581400204604B070BD0124FAE700F027BA2DE950
:10582400F8430E46002107460846FAF77DFE044673
:1058340001210020FAF778FE33789C4221D0984267
:1058440021D101252C2303FB0575F86DAC6AFFF704
:10585400F7FE4FF000080746013C6B6A304603EB45
:10586400C40253F83410D2F804901B684A46C91A8B
:10587400C844FFF7D2FFB84504F1FF34EDD3BDE8C7
:10588400F8830025DEE70120F9E737B515460C4615
:105894000520694600F0CBFDE979012903D00022F7
:1058A400204600F0D8FD9DF80330012B02D120469C
:1058B40000F0B0FDA9682046FFF7E0FE2046FDF7A2
:1058C40095FD002003B030BD73B50D46064600F0CB
:1058D40065F80446E86050B302282DD101A9FCF70D
:1058E4002BF958BB2A4631460198FBF7B3FB044613
:1058F400D0B9019800F015FD012301460DF1030212
:10590400019800F089F90446A0B9012201980DF12B
:10591400030100F01AFD10B101238DF803309DF846
:10592400033003F00F03EB71019800F074F9204683
:1059340002B070BD0124F7E70724F8E70124F6E775
:1059440038B5436A0446C06D5D68FFF779FE0023ED
:105954000246A06A01382B449A4201D90138FAE779
:1059640038BD436A00205A68034613448B4200F151
:105974000100FAD3704710B543790279012B06BFB1
:1059840000230C46CB0102F1FF3201FB0233026813
:1059940018BF4C00013A04FB023010BD1FB50220B1
:1059A400694600F044FD052002A900F040FD9DF881
:1059B4000030012B0CD19DF80230032B08D19DF847
:1059C4000800013818BF0120400005B05DF804FB51
:1059D4000020FAE7002070470FB407B504A951F876
:1059E400040B0191FBF764FD03B05DF804EB04B014
:1059F4007047038B13F0070305D10368002B0CBF1A
:105A0400002003207047022B05D1408BB0FA80F0B0
:105A1400400980007047012B05D10368002B0CBF9F
:105A24000020052070470020704710B50C4600B1D7
:105A340011B96FF0150010BD081D00F093F800288F
:105A4400F9D1A368032BF6D9F3E72DE9F0410D460C
:105A540007461946281D90461E4600F094F8044651
:105A640038B13346424629463846A446BDE8F0419B
:105A74006047BDE8F08110B4EFF31182202484F371
:105A84001288BFF36F8F416110BC0121FBF740BF47
:105A940038B50C46054658B151B10B6843B14B6853
:105AA40033B11C22002100F0ABF900202C6138BD79
:105AB4006FF01500FBE770B505460E46FFF7B5FF1E
:105AC400041E14DBEFF31182202383F31288BFF347
:105AD4006F8F4FF6FF716B8B2C8B8B4204F0070496
